:102C39004552004F4B5F535452004F4B5F48455824
:102C49000050574D47726F7570315F467265713A22
:102C5900202568640A0050574D315F447574793AEC
:102C6900202568640A0050574D325F447574793ADB
:102C7900202568640A0050574D335F447574793ACA
:102C8900202568640A0050574D345F447574793AB9
:102C9900202568640A0050574D355F447574793AA8
:102CA900202568640A0050574D365F447574793A97
:102CB900202568640A0050574D375F447574793A86
:102CC900202568640A0050574D385F447574793A75
:102CD900202568640A0050574D395F447574793A64
:102CE900202568640A0050574D31305F4475747966
:102CF9003A202568640A0050574D31315F44757494
:102D0900793A202568640A0050574D31325F44757D
:102D190074793A202568640A0050574D31335F446D
:102D29007574793A202568640A0050574D31345F2B
:102D3900447574793A202568640A0050574D313535
:102D49005F447574793A202568640A0050574D31FB
:102D5900365F447574793A202568640A0050574DE6
:102D690031375F447574793A202568640A005057F1
:102D79004D31385F447574793A202568640A0050EA
:102D8900574D31395F447574793A202568640A00D2
:102D990050574D32305F447574793A202568640A7A
:102DA9000050574D32315F447574793A2025686473
:102DB9000A0050574D32325F447574793A202568BC
:102DC900640A0050574D32335F447574793A2025AF
:102DD90068640A0050574D32345F447574793A205B
:102DE9002568640A0050574D32355F447574793A45
:102DF900202568640A0050574D32365F447574794E
:102E09003A202568640A0050574D32375F4475747B
:102E1900793A202568640A0050574D32385F447565
:102E290074793A202568640A0050574D32395F4455
:102E39007574793A202568640A0050574D33305F1C
:102E4900447574793A202568640A0050574D333126
:102E59005F447574793A202568640A0050574D33E8
:102E6900325F447574793A202568640A00000000CD
:1056EB0042024D0000410387004102520041020279
:1056FB000042038A000055035D01000001038F0186
:0E570B00037201037B0102050102030102503B
:10305B00E490035BF0A3F090035BE0FEA3E0FFC3FF
:10306B00EE9402501C74022FF58274003EF583E43B
:10307B00F090035CE004F070DE90035BE004F08002
:10308B00D6E490035BF0A3F090024BF0900253F068
:10309B0090035504F0900355E0FFC394065014744D
:1030AB00552FF582E43403F583E4F0900355E004E7
:1030BB00F080E2E4900355F090038EF0900000F066
:1030CB00A3F090038FF0A304F090038FE0FEA3E036
:1030DB00FFC39420EE94005025EF25E0FFEE33FE66
:1030EB00748F2FF58274033EF583E4F0A3F0900305
:1030FB0090E004F070D390038FE004F080CBE49069
:10310B00038FF0A3F090037BF0A304F090037BE01C
:10311B00FEA3E0FFC39406EE94005027EF25E0FFDB
:10312B00EE33FE747B2FF58274033EF583E4F0A33C
:10313B007432F090037CE004F070D190037BE004D8
:10314B00F080C990037BE4F0A37432F0900372E437
:10315B00F0A304F0900372E0FEA3E0FFC39404EE2F
:10316B0094005025EF25E0FFEE33FE74722FF582AD
:10317B0074033EF583E4F0A3F0900373E004F07066
:10318B00D3900372E004F080CBE4900372F0A3F0D1
:10319B00900205F0A304F0900205E0FEA3E0FFC34C
:1031AB009423EE94005025EF25E0FFEE33FE7405DB
:1031BB002FF58274023EF583E4F0A3F0900206E053
:1031CB0004F070D3900205E004F080CBE49002058C
:1031DB00F0A3F0900203F0A3F0900250F0A3F09054
:1031EB000389F090037AF090024CF0900388F02260
:10593100121D5E12510D12568B125B207D037F12D8
:105941001231FB125AAE7B017A0379727D037C001E
:03595100024B6E98
:1029CC00125A9512305B125772E4FF125B007F01B2
:1029DC00125B00125931125B56E4FF1249C9D390B5
:1029EC000248E094E6900247E094004004E4F0A32F
:1029FC00F0900253E064026003022B3FF090035B03
:102A0C00A3E0FD9003D37401F0A37403F0A3745DF1
:102A1C00F07B017A00790212242DEF6003022ABEAA
:102A2C007B019003D204F0A37403F0A3748FF07AAB
:102A3C00007902123F9EEF605B9003D27401F0A309
:102A4C007403F0A3747BF0A37401F0A37403F0A3DC
:102A5C00748FF07B017A0079021220F1EF7BFF601A
:102A6C00177A2C79397F02124F927BFF7A2C7939A5
:102A7C007F01124F92022B0C7A2C793C7F02124F61
:102A8C00927BFF7A2C793C7F01124F9290038E74CB
:102A9C0004F0806C7BFF7A2C79437F02124F927B7F
:102AAC00FF7A2C79437F01124F9290038E7401F0C0
:102ABC00804ED390035CE0940090035BE094004064
:102ACC002CE0FEA3E0FF2402F58274003EF583E0C7
:102ADC00FD74552FF58274033EF583EDF090035C85
:102AEC00E024FFF090035BE034FFF080C5900356C8
:102AFC00A3E0FFD3942A4008EF944E50031248A150
:102B0C0090035BE0FEA3E0FFD39400EE9400401C26
:102B1C0074022FF58274003EF583E4F090035CE0C0
:102B2C0024FFF090035BE034FFF080D4E490035B6F
:102B3C00F0A3F090038EE024FE6011146018146072
:102B4C001F24037026E490038EF0801C1250B3E413
:102B5C0090038EF08015E490038EF01254FA800BE3
:102B6C00E490038EF01254FA122E79900000E0FEDD
:102B7C00A3E0FFEE7007EF14700375C76090037A43
:102B8C00E06026E4FF1249C9D3900248E094E69035
:102B9C000247E094004004E4F0A3F0900203E4F058
:102BAC00A37402F0E490037AF012369E123E8590E4
:102BBC000202E070030229FDE4F012382090024575
:102BCC00E0FEA3E0FF4E6006BEFF24BFFF21E490B1
:102BDC000249F0A3F0900387E060099002027401AF
:102BEC00F00229FD123820E4900252F00229FDE493
:102BFC0090024FF090024FE0FF25E02405F582E4AF
:102C0C003402F583E0FCA3E0FDEF25E0248FF58290
:102C1C00E43403F583ECF0A3EDF090024FE004F004
:0D2C2C00E0B420D0124DDF122E790229FDF8
:105A470090024BE0C39401400A900253E0B4010373
:0A5A57007402F090024BE004F0220C
:10428200125B5A900252E0B40143900245E0FEA351
:10429200E0FFD39401EE9400403390024EE004F02C
:1042A200700690024DE004F0C390024EE09F90022F
:1042B2004DE09E4018E4F0A3F090024AE004F07052
:1042C20006900249E004F09002027401F090038A21
:1042D200E475F001121218FEE5F064144E706A9053
:1042E200038AF0A3F090FF4CE0547FF0E4FD7F07D7
:1042F2001231FB7D017F0712456B00007F071251CF
:1043020066EF6007E4900389F080069003897401E8
:10431200F00000E4FD7F0712456B90FF4CE0448003
:10432200F07D037F071231FB900389E0FF90038841
:10433200E06FFEEF5E90037AF0900389E0FCF45E9A
:0A43420090024CF0900388ECF0228A
:10571A0090035BE0FEA3E02402F58274003EF58369
:10572A00E599F090035CE004F0700690035BE004F6
:0C573A00F0E490024BF090025304F022C7
:1057460090035BE0FEA3E02402F58274003EF5833D
:10575600E59BF090035CE004F0700690035BE004C8
:0C576600F0E490024BF090025304F0229B
:015B61002221
:1054FA00E49003CFF09003CFE0FBFFC00725E02440
:10550A007BF582E43403F583E0FCA3E0FFAE04E418
:10551A00FCFD9003D11213F2D00712339A9003CFF5
:0C552A00E004F0E0C3940640CC0248A16D
:1050B30078CF7C037D017BFF7A2E79767E007F0398
:1050C300121166900374A3E09003CFF0900372A3D0
:1050D300E09003D0F0900376A3E09003D1F0900327
:1050E30078E0FEA3E0FFC374E89FFB74039EFA7DA0
:1050F30007E4FF120046C2AF7B017A0379CF7D0339
:0A5103007C00124B6ED2AF0248A1EF
:102E790090038FE0FAA3E0FB7D05E4FF1200469082
:102E89000391E0FAA3E0FB7D037F0512004690035E
:102E990093E0FAA3E0FB7D027F05120046900395BB
:102EA900E0FAA3E0FB7D04E4FF120046900397E0FB
:102EB900FAA3E0FB7D03E4FF120046900399E0FAD0
:102EC900A3E0FB7D02E4FF12004690039BE0FAA316
:102ED900E0FB7D01E4FF12004690039DE0FAA3E0C8
:102EE900FBE4FDFF12004690039FE0FAA3E0FB7D9F
:102EF900067F041200469003A1E0FAA3E0FB7D05DA
:102F09007F041200469003A3E0FAA3E0FB7D077F4C
:102F1900021200469003A5E0FAA3E0FB7D067F02BA
:102F29001200469003A7E0FAA3E0FB7D057F021299
:102F390000469003A9E0FAA3E0FB7D047F0212009A
:102F4900469003ABE0FAA3E0FB7D037F0212004643
:102F59009003ADE0FAA3E0FB7D027F0212004690E8
:102F690003AFE0FAA3E0FB7D077F0112004690035F
:102F7900B1E0FAA3E0FBE4FD7F041200469003B33D
:102F8900E0FAA3E0FB7D027F031200469003B5E05F
:102F9900FAA3E0FB7D037F031200469003B7E0FA32
:102FA900A3E0FB7D047F031200469003B9E0FAA376
:102FB900E0FBE4FD7F051200469003BBE0FAA3E0C5
:102FC900FB7D017F051200469003BDE0FAA3E0FBFB
:102FD9007D057F031200469003BFE0FAA3E0FB7D65
:102FE900067F031200469003C1E0FAA3E0FB7D07C8
:102FF9007F031200469003C3E0FAA3E0FB7D017F43
:10300900041200469003C5E0FAA3E0FB7D027F04A9
:103019001200469003C7E0FAA3E0FB7D037F041288
:1030290000469003C9E0FAA3E0FB7D047F04120087
:10303900469003CBE0FAA3E0FBE4FD7F02120046D1
:103049009003CDE0FAA3E0FB7D017F021200460266
:0230590048A18C
:10199C007BFF7A2C794A90037BE0FFA3E09003D77E
:1019AC00CFF0A3EFF07F01124F927BFF7A2C794A94
:1019BC0090037DE0FFA3E09003D7CFF0A3EFF07F7F
:1019CC0001124F927BFF7A2C794A90037FE0FFA3A0
:1019DC00E09003D7CFF0A3EFF07F01124F927BFF83
:1019EC007A2C794A900381E0FFA3E09003D7CFF0E3
:1019FC00A3EFF07F01124F927BFF7A2C794A900370
:101A0C0083E0FFA3E09003D7CFF0A3EFF07F0112A8
:101A1C004F927BFF7A2C795F90038FE0FFA3E090CD
:101A2C0003D7CFF0A3EFF07F01124F927BFF7A2CFC
:101A3C00796F900391E0FFA3E09003D7CFF0A3EF71
:101A4C00F07F01124F927BFF7A2C797F900393E009
:101A5C00FFA3E09003D7CFF0A3EFF07F01124F92DA
:101A6C007BFF7A2C798F900395E0FFA3E09003D74E
:101A7C00CFF0A3EFF07F01124F927BFF7A2C799F6E
:101A8C00900397E0FFA3E09003D7CFF0A3EFF07F94
:101A9C0001124F927BFF7A2C79AF900399E0FFA350
:101AAC00E09003D7CFF0A3EFF07F01124F927BFFB2
:101ABC007A2C79BF90039BE0FFA3E09003D7CFF083
:101ACC00A3EFF07F01124F927BFF7A2C79CF90031A
:101ADC009DE0FFA3E09003D7CFF0A3EFF07F0112BE
:101AEC004F927BFF7A2C79DF90039FE0FFA3E0906D
:101AFC0003D7CFF0A3EFF07F01124F927BFF7A2C2C
:101B0C0079EF9003A1E0FFA3E09003D7CFF0A3EF10
:101B1C00F07F01124F927BFF7A2D79009003A3E0A6
:101B2C00FFA3E09003D7CFF0A3EFF07F01124F9209
:101B3C007BFF7A2D79119003A5E0FFA3E09003D7EA
:101B4C00CFF0A3EFF07F01124F927BFF7A2D792219
:101B5C009003A7E0FFA3E09003D7CFF0A3EFF07FB3
:101B6C0001124F927BFF7A2D79339003A9E0FFA3EA
:101B7C00E09003D7CFF0A3EFF07F01124F927BFFE1
:101B8C007A2D79449003ABE0FFA3E09003D7CFF01C
:101B9C00A3EFF07F01124F927BFF7A2D79559003C2
:101BAC00ADE0FFA3E09003D7CFF0A3EFF07F0112DD
:101BBC004F927BFF7A2D79669003AFE0FFA3E09004
:101BCC0003D7CFF0A3EFF07F01124F927BFF7A2D5A
:101BDC0079779003B1E0FFA3E09003D7CFF0A3EFA8
:101BEC00F07F01124F927BFF7A2D79889003B3E03E
:101BFC00FFA3E09003D7CFF0A3EFF07F01124F9239
:101C0C007BFF7A2D79999003B5E0FFA3E09003D781
:101C1C00CFF0A3EFF07F01124F927BFF7A2D79AAC0
:101C2C009003B7E0FFA3E09003D7CFF0A3EFF07FD2
:101C3C0001124F927BFF7A2D79BB9003B9E0FFA381
:101C4C00E09003D7CFF0A3EFF07F01124F927BFF10
:101C5C007A2D79CC9003BBE0FFA3E09003D7CFF0B3
:101C6C00A3EFF07F01124F927BFF7A2D79DD900369
:101C7C00BDE0FFA3E09003D7CFF0A3EFF07F0112FC
:101C8C004F927BFF7A2D79EE9003BFE0FFA3E0909B
:101C9C0003D7CFF0A3EFF07F01124F927BFF7A2D89
:101CAC0079FF9003C1E0FFA3E09003D7CFF0A3EF3F
:101CBC00F07F01124F927BFF7A2E79109003C3E0D4
:101CCC00FFA3E09003D7CFF0A3EFF07F01124F9268
:101CDC007BFF7A2E79219003C5E0FFA3E09003D718
:101CEC00CFF0A3EFF07F01124F927BFF7A2E793267
:101CFC009003C7E0FFA3E09003D7CFF0A3EFF07FF2
:101D0C0001124F927BFF7A2E79439003C9E0FFA317
:101D1C00E09003D7CFF0A3EFF07F01124F927BFF3F
:101D2C007A2E79549003CBE0FFA3E09003D7CFF049
:101D3C00A3EFF07F01124F927BFF7A2E796590030F
:101D4C00CDE0FFA3E09003D7CFF0A3EFF07F01022B
:021D5C004F92A4
:0C4DDF00900249E0FCA3E0FD7F4D7E0047
:044DEB00AB07AA0662
:104DEF009003D07455F0EAA3F0A3EFF0ECA3F0AF6B
:104DFF0005A3EFF09003D1E02455FDE433FCA3E0CD
:104E0F007A002DFDEA3CFCA3E02DFDEA3CFC7E0080
:104E1F00ED2FFFEE3CFEEF9003D5F0E49003CFF0C3
:104E2F009003CFE0FFC39406501974D02FF582E49E
:104E3F003403F583E0FD7F02125A2C9003CFE00478
:034E4F00F080DD13
:014E5200223D
:1048A100900356E0FD700FA3E0700BA3E07007A327
:1048B100E070030249379003D37455F0A3EDF090F3
:1048C1000357E09003D5F0900358E09003D6F090A1
:1048D1000359E0FF9003D7F09003D4E02455FDE4A1
:1048E10033FCA3E07A002DFDEA3CFCA3E02DFDEAB8
:1048F1003CFC7E00ED2FFFEE3CFEEF9003D8F0E490
:104901009003D2F09003D2E0FFC39406502874D3F1
:104911002FF582E43403F583E0FD7F02125A2C90D7
:1049210003D2E02455F582E43403F583E4F09003E7
:06493100D2E004F080CE8C
:01493700225D
:0549C9009003CFEFF0A8
:1049CE00900247A3E09003D0F07FFE7E0312526365
:1049DE009003D11213F29003CFE09003D16039E02F
:1049EE00FCA3E0FDA3E0FEA3E0FF124D749003D004
:1049FE00E09003D5F0E4A3F09003D1E0FCA3E0FD3A
:104A0E00A3E0FEA3E0FF7B017A0379D59003E2E4F5
:104A1E00F0A37402F0024AF8E0FCA3E0FDA3E0FE6E
:104A2E00A3E0FF7B017A0379D59003E2E4F0A3744F
:104A3E0002F0124FF89003D6E0FE9003D5E0FDEDA4
:094A4E00FF900247EEF0A3EFF027
:014A5700223C
:103C1300900247A3E0FF9003CFF0900249A3E09006
:103C230003D0F0EFD3947F502C9003CFE075F004D2
:103C3300A4FFAEF01252639003D11213F29003D19A
:103C4300E0FCA3E0FDA3E0FEA3E02400FFEE343E8E
:103C5300FEE43D80439003CFE0FFD39487505FEFB2
:103C63002480FFE434FFFEEF7805C333CE33CED890
:103C7300F924FFFFEE3401FE1252639003D11213B5
:103C8300F29003D1E0FCA3E0FDA3E0FEA3E0240057
:103C9300FFEE34F0FEED3401FDE43CFCA804A9057D
:103CA300AA06AB079003D0E075F002A4FFE4FCFD85
:103CB300EB2FFFEA35F0FEED39FDEC38802E900353
:103CC300CFE0B4882E7FFF7E021252639003D1129D
:103CD30013F29003D1E0FCA3E0FDA3E0FEA3E024F4
:103CE30000FFEE3442FEED340FFDE43CFC9003D7BD
:103CF3001213F29003D0E0FF7E007C007D4012148B
:103D0300C5A3E0F8A3E0F9A3E0FAA3E02FFFEA3E9E
:103D1300FEE93DFDE83CFC7B017A0279059003E274
:103D2300E4F0A37440F0124AF8900245E0FCA3E0EB
:103D33009003D5F0ECA3F0A3E0FCA3E0FDA3E0FE29
:103D4300A3E0FF7B017A0379D59003E2E4F0A37447
:053D530002F0024AF835
:0D381300E4900203F0A3F0900249F0A3F04E
:10382000900247A3E0FF9003CFF0900249A3E090FD
:1038300003D0F0EFD3947F502C9003CFE075F004C9
:10384000A4FFAEF01252639003D11213F29003D191
:10385000E0FCA3E0FDA3E0FEA3E02400FFEE343E85
:10386000FEE43D80439003CFE0FFD394875063EFA5
:103870002480FFE434FFFEEF7805C333CE33CED887
:10388000F924FFFFEE3401FE1252639003D11213AC
:10389000F29003D1E0FCA3E0FDA3E0FEA3E024004E
:1038A000FFEE34F0FEED3401FDE43CFCA804A90574
:1038B000AA06AB079003D0E075F002A4FFE4FCFD7C
:1038C000EB2FFFEA35F0FEED39FDEC38FC9003D527
:1038D00080309003CFE0B4882C7FFF7E02125263C9
:1038E0009003D11213F29003D1E0FCA3E0FDA3E01A
:1038F000FEA3E02400FFEE3442FEED340FFDE43C75
:10390000FCA31213F29003D0E0FF7E007C007D4008
:103910001214C5A3E0F8A3E0F9A3E0FAA3E02FFF97
:10392000EA3EFEE93DFDE83CFC7B017A0279059028
:1039300003E2E4F0A37440F0124FF89003D5E0FCEA
:10394000A3E0FDA3E0FEA3E0FF7B017A0379D99019
:1039500003E2E4F0A37402F0124FF89003DAE0FE01
:0F3960009003D9E0FDEDFF900245EEF0A3EFF0EC
:01396F002235
:10440400900247A3E09003CFF0D3947F5019E07556
:10441400F004A4FFAEF01252639003D01213F29092
:1044240003D57404F0804E9003CFE0FFD3948750FB
:104434002AEF2480FFE434FFFEEF7805C333CE3344
:10444400CED8F924FFFFEE3401FE1252639003D05C
:104454001213F29003D57420F0801A9003CFE0B4C5
:1044640088137FFF7E021252639003D01213F290DE
:1044740003D574FEF0E49003D4F09003D5E0FE90ED
:1044840003D4E0FFC39E502CE4FCFDFE780C121311
:10449400DF9003D0E0F8A3E0F9A3E0FAA3E02FFF54
:1044A400EA3EFEE93DFDE83CFC124D749003D4E085
:0444B40004F080C6CA
:0144B80022E1
:105AC5007F061256BBAD07AC06900250E0FEA3E080
:045AD500FF024DEB94
:105AD9007F0E1256BBAD07AC06900250E0FEA3E064
:045AE900FF024DEB80
:103E8500900203E0FEA3E0FFEE6003023F9DEF24F6
:103E9500FE602214606D147003023F7814700302F3
:103EA5003F83147003023F9024056003023F9D1277
:103EB5003C13023F7B123813E4900254F0900254F5
:103EC500E0FF25E02405F582E43402F583E0FCA358
:103ED500E0FDEF25E0248FF582E43403F583ECF073
:103EE500A3EDF0900254E004F0E0B420D0122E7956
:103EF500E490024DF0A3F090025204F0E4900387A1
:103F0500023F991238131248A1900245E0FEA3E042
:103F1500FF4E6006BEFF0EBFFF0B74FFFDFC7F4D1D
:103F25007E00024DEBE4900254F0900254E0FF2530
:103F3500E02405F582E43402F583E0FCA3E0FDEF1F
:103F450025E0248FF582E43403F583ECF0A3EDF04E
:103F5500900254E004F0E0B420D0122E79124DDF27
:103F65009003877401F0E490024DF0A3F0900252A3
:103F750004F022124404E4900203F0A380167F01AA
:103F85001249C9E4900203F0A38009123820E49095
:093F95000203F0A3F01248A1227E
:1058A100900250E0FEA3E0FFC00625E0FDEE33FCD0
:1058B100748D2DF58274033CF583E0FCA3E0FDD0EB
:0458C10006024DEBA3
:1058C500900250E0FEA3E0FFC00625E0FDEE33FCAC
:1058D50074302DF58274033CF583E0FCA3E0FDD024
:0458E50006024DEB7F
:1058E900900250E0FEA3E0FFC00625E0FDEE33FC88
:1058F90074312DF58274033CF583E0FCA3E0FDD0FF
:0459090006024DEB5A
:10590D00900250E0FEA3E0FFC00625E0FDEE33FC63
:10591D00743B2DF58274013CF583E0FCA3E0FDD0D2
:04592D0006024DEB36
:10369E00900250E0FEA3E0FFEE600302380BEF1243
:1036AE00149F37A10137A30237A50337A70437A903
:1036BE000537AB0637AD0737AF0837B10937B30A51
:1036CE0037B50B37B70C37B90D37BB0E37BD0F37C4
:1036DE00BF1037C11137C31237C51337C71437C9D7
:1036EE001537CB1637CD1737CF1837D11937D31A21
:1036FE0037D51B37D71C37D91D37DB1E37DD1F37A4
:10370E00DF2037E42137E62237E82337EA2437EF84
:10371E002537F12637F32737F52837F72937F92AD2
:10372E0037FE2B38032C380865380866380867389A
:10373E00086838086938086A38086B38086C380821
:10374E006D38086E38086F3808703808713808728E
:10375E00380873380874380875380876380877389A
:10376E00087838087938087A38087B38087C3808A1
:10377E007D38087E38087F380880380881380882FE
:10378E003808833808843808853808863808870052
:10379E0000380B803C803A8038803680348032800E
:1037AE0030802E802C802A802880268024802280C3
:1037BE0020801E801C801A80188016801480128033
:1037CE0010800E800C800A800880068004800280A3
:1037DE00001258A180278004800280001258C580F4
:1037EE001C800880068004800280001258E9800D3B
:1037FE00125AC58008125AD9800312590DE490024C
:05380E0050F0A3F022C0
:03000000024A5859
:0C4A5800787FE4F6D8FD758122024A9FA9
:0F5B110050574D0047726F7570004475747900DE
:10242D00E49003D6F0A3F0A3F0A3F0ED64066003EF
:10243D0002275612118CFF64AA60030227569000E2
:10244D00011211A52FFF9000021211A57C002FFF84
:10245D009000031211A52FFF9000041211A52FFF5C
:10246D009000051211A56F7001E4600302275690CC
:10247D0000011211A5FE9000021211A5FDEDFF90B5
:10248D0003D6EEF0A3EFF09000031211A5FE90001D
:10249D00041211A5FDEDFF9003D8EEF0A3EFF0901F
:1024AD0003D6E0FEA3E0FFEE6003022753EFB45026
:1024BD000040030227539024CAF82828730225BA36
:1024CD000225D30225D50225D70225D90225DB0207
:1024DD0025DD0225DF0225E10225E30225E50225A2
:1024ED00E70225E90225EB0225ED0225EF0225F194
:1024FD000225F30225F50225F70225F90225FB0237
:10250D0025FD0225FF0226010226030226050226CD
:10251D000702260902260B02260D02260F0226119E
:10252D0002265102265302265502265702269702ED
:10253D00269902269B02269D02269F0226A102268F
:10254D00E00226E00226E00226E00226E00226E076
:10255D000226E00226E00226E00226E00226E00244
:10256D0026E00226E00226E00226E00226E0022610
:10257D00E00226E00226E00226E00226E00226E046
:10258D000226E00226E00226E00226E00226E00214
:10259D0026E00226E00226E00226E00226E00226E0
:1025AD00E00226E00226E00227190227349003D824
:1025BD00E0FEA3E0FF9003D3E0FBA3E0FAA3E0F974
:1025CD0012144F02274D803C803A8038803680347B
:1025DD0080328030802E802C802A80288026802496
:1025ED0080228020801E801C801A80188016801406
:1025FD0080128010800E800C800A80088006800476
:10260D00800280009003D8E0FCA3E0FD9003D3E0AE
:10261D00FBA3E0FAA3E0F990000312146F9003D727
:10262D00E024FFFF9003D6E034FFFEEF25E0FFEE40
:10263D00338F82F583EC8DF012126390038E74014B
:10264D00F00227538004800280009003D8E0FCA3A1
:10265D00E0FD9003D3E0FBA3E0FAA3E0F9900006C0
:10266D0012146F9003D7E024DFFF9003D6E034FF00
:10267D00FEEF25E0FFEE338F82F583EC8DF0121225
:10268D006390038E7402F002275380088006800445
:10269D00800280009003D8E0FCA3E0FD9003D3E01E
:1026AD00FBA3E0FAA3E0F990000912146F9003D791
:1026BD00E024DBFF9003D6E034FFFEEF25E0FFEED4
:1026CD00338F82F583EC8DF012126390038E7403B9
:1026DD00F080739003D8E0FCA3E0FD9003D3E0FB02
:1026ED00A3E0FAA3E0F990000C12146F9003D7E069
:1026FD0024D5FF9003D6E034FFFEEF25E0FFEE3347
:10270D008F82F583EC8DF0121263803A9003D8E03E
:10271D00FEA3E0FF9003D3E0FBA3E0FAA3E0F99062
:10272D00000F12146F80199003D8E0FEA3E0FF9004
:10273D0003D3E0FBA3E0FAA3E0F990001212146FAB
:0B274D00EE8FF01212447F01227F008B
:01275800225E
:0B3F9E009003CFEBF0A3EAF0A3E9F0E2
:103FA900E49003D5F0FFF09003D5E0FEC3944050B0
:103FB9001D9003CFE0FBA3E0FAA3E0F98E8275839D
:103FC900001211A52FFF9003D5E004F080D99003CA
:103FD900CFE0FBA3E0FAA3E0F99000401211A56F2E
:103FE90060030240AC9003D5F09003CFE0FBA3E05F
:103FF900FAA3E0F99003D5E0FD75F002A4F58285F6
:10400900F0831211A5FE9003CFA3A375F002EDA4CE
:104019002401F582E435F0F5831211A57C00240012
:10402900FFEC3EFED3EF94E8EE940340037F0222B7
:104039009003D5E004F0E0B420AFE49003D5F0900C
:1040490003CFE0FBA3E0FAA3E0F99003D5E0FD7507
:10405900F002A4F58285F0831211A5FE9003CFA387
:10406900A375F002EDA42401F582E435F0F583127D
:1040790011A57C002400FFEC3EFE9003D2E0FBA3D7
:10408900E0FAA3E0F9A3E075F002A4F58285F083D4
:10409900EE8FF01212639003D5E004F0E0B4209F94
:0540A9007F00227F01F1
:0140AE0022EF
:0B20F1009003CFEBF0A3EAF0A3E9F0AE
:1020FC00E49003D8F0A3F0A3F0A3F0A3F0A3F0A313
:10210C0074FFF0E4A3F0A3F0A3F09003E574FFF0E8
:10211C00A3745BF0A37411F01244B99003D8EEF0E1
:10212C00A3EFF09003D8E0F47003A3E0F470030283
:10213C00242A9003E574FFF0A3745BF0A37411F0F0
:10214C009003CFE0FBA3E0FAA3E0F91244B99003AB
:10215C00D8EEF0A3EFF09003E574FFF0A3745BF0FE
:10216C00A37415F09003CFE0FBA3E0FAA3E0F912FF
:10217C0044B99003DAEEF0A3EFF09003E574FFF0AE
:10218C00A3745BF0A3741BF09003CFE0FBA3E0FA05
:10219C00A3E0F91244B99003DCEEF0A3EFF0E4A352
:1021AC00F09003E0F0A3F09003D8E0F47003A3E008
:1021BC00F470030224279003DAE0FEA3E0FFBEFFD5
:1021CC0010BFFF0DA3E0F47003A3E0F4700302242E
:1021DC00249003DCE0FCA3E0FDC3EF9DEE9C4003E8
:1021EC000222F69003CFE0FBA3E0FAA3E0F9900300
:1021FC00D9E02408FF9003D8E034008F82F58312D5
:10220C0011A524CF9003DEF0A3740AF09003DFE055
:10221C00FFC3941050519003D9E02FFF9003D8E0E6
:10222C003400FE9003CFE0FBA3E0FAA3E0F98F8229
:10223C008E831211A5FF642C602DEF602A24D0FB35
:10224C00E434FFFA9003E0E0FEA3E0FF7C007D0A9B
:10225C00121206EF2BFFEE3A9003E0F0A3EFF09092
:10226C0003DFE004F080A59003DEE0FED39406507B
:10227C00189003E0E0FCA3E0FD9498EC943A50092C
:10228C00C3ED9432EC940050037F01229003E0E004
:10229C00FCA3E0FD9003D2E0FBA3E0FAA3E0F97508
:1022AC00F002EEA4F58285F083EC8DF0121263E45B
:1022BC009003DFF09003DFE0FFC3940A4003022198
:1022CC002F9003D9E02FFF9003D8E03400FE900349
:1022DC00CFE0FBA3E0FAA3E0F98F828E8374201287
:1022EC0011E49003DFE004F080CA9003CFE0FBA37D
:1022FC00E0FAA3E0F99003D8E0FCA3E0FDF5828CB2
:10230C0083A3A3A31211A524D09003DEF074042D93
:10231C00F582E43CF5831211A5FF645F9003DE6047
:10232C000BE075F00AA42F24CFF08003E014F0909A
:10233C0003DEE0C394095006A3740AF080069003F0
:10234C00DF740BF09003DFE0FFC394105051900347
:10235C00D9E02FFF9003D8E03400FE9003CFE0FBD0
:10236C00A3E0FAA3E0F98F828E831211A5FF642CEF
:10237C00602DEF602A24D0FBE434FFFA9003E0E0F8
:10238C00FEA3E0FF7C007D0A121206EF2BFFEE3A53
:10239C009003E0F0A3EFF09003DFE004F080A59051
:1023AC0003DEE0FED3941F500E9003E1E094E8901E
:1023BC0003E0E0940340037F01229003E0E0FCA3E0
:1023CC00E0FD9003D5E0FBA3E0FAA3E0F975F00281
:1023DC00EEA4F58285F083EC8DF0121263E4900389
:1023EC00DFF09003DFE0FFC3940A400302212F903B
:1023FC0003D9E02FFF9003D8E03400FE9003CFE028
:10240C00FBA3E0FAA3E0F98F828E8374201211E40F
:10241C009003DFE004F080CA7F02227F00227F025B
:01242C00228D
:103AC2002433325F6368616E6E656C5F7365727614
:103AD2006F5F636F6E74726F6C2435364442363892
:103AE2004146303000253032580024000A45434216
:103AF2004D20562562752E2562752E256275206F22
:103B02006E2025730053544338470025754B00251A
:103B1200303275005334000D0A436865636B696E79
:103B220067204D4355204944002E004572726F7242
:103B32000D0A506C6561736520636865636B207460
:103B420068652073657474696E67206F6620746897
:103B520065204D4355206D6F64656C0D0A005665F6
:103B6200723A312E34004F4B0D0A49442020202056
:103B72003A000D0A000D0A53797374656D5F49446A
:103B8200202020203A004441544120203A3132384A
:103B920009427974650D0A004944415441203A3181
:103BA200323809427974650D0A0058444154412063
:103BB2003A257509427974650D0A00464C4153480D
:103BC200203A256C7509427974650D0A00535953E0
:103BD200434C4B3A256C7509487A0D0A0042475608
:103BE2002020203A2575096D560D0A00454E44499C
:103BF200414E3A0062696709656E6469616E0D0A39
:103C0200006C6974746C6509656E6469616E0D0A95
:013C120000B1
:045998007F017E000D
:10599C00EF4E60167D607C09ED1D70011C144C707F
:0A59AC00F7EF1F70011E144E70EAA1
:0159B60022CE
:095B3B00EF1F70011E144E70F7FB
:015B4400223E
:1059B700E4FCFD7B207ACC7904F81212908F0B8ED1
:0F59C7000A8D098C08E508C313FEE50913FF22BA
:10595400E50D6599600885990DE4F50C8005301313
:1059640002050CE50CC394E94007C2AF75C760801B
:02597400FB2214
:102759009003D17412F0A37434F09003D41213FED1
:10276900000025807F011256577BFF7A3A79C27F94
:1027790001124F92E49003CFF09003CFE0FFC3948E
:102789000750217BFF7A3A79E7EF90FDF993FF90A3
:1027990003D7E4F0A3EFF07F01124F929003CFE04B
:1027A90004F080D57BFF7A3A79EC7F01124F929041
:1027B90003D41213FE000708007F011256577FC881
:1027C9007E0012599C9003D77403F0A37406F0A3FA
:1027D90004F0A374FFF0A3743BF0A37407F07BFF2C
:1027E9007A3A79EE7F01124F927BFF7A3B790D900D
:1027F90003D7E4F0A37402F07F01124F927BFF7AB2
:102809003B79119003D7E4F0A37440F07F01124F94
:10281900927BFF7A3B79167F01124F92E49003D0A5
:10282900F07BFF7A3B79197F01124F92E49003CF35
:10283900F07BFF7A3B792B7F01124F929003CFE017
:10284900FF90FDF993FE74F12FF8E6B506069003A3
:10285900D0E004F09003CFE004F0E0C3940740D146
:102869009003D0E06407600B7BFF7A3B792D7F01F1
:10287900024F927BFF7A3B79607F02124F927BFF76
:102889007A3B79687F01124F92E49003CFF090036D
:10289900CFE0FFC3940750217BFF7A3A79E7EF90A5
:1028A900FDF993FF9003D7E4F0A3EFF07F01124FF6
:1028B900929003CFE004F080D57BFF7A3B79747F57
:1028C90001124F927BFF7A3B79777F02124F92E494
:1028D9009003CFF09003CFE0FFC3940750217BFF13
:1028E9007A3A79E7EF90FDF993FF9003D7E4F0A3E3
:1028F900EFF07F02124F929003CFE004F080D512DF
:1029090059987BFF7A3B79887F01124F9212599827
:102919007BFF7A3B799A7F01124F921259987BFF7C
:102929007A3B79AC9003D77408F0A3E4F07F0112E5
:102939004F927F027E0012599C7BFF7A3B79BD90B2
:1029490003D71213FE000100007F01124F927F028C
:102959007E0012599C7BFF7A3B79CF9003D71213E3
:10296900FE016E36007F01124F927F027E001259DE
:102979009C7BFF7A3B79DF78EFE6FF08E69003D787
:10298900CFF0A3EFF07F01124F921259987BFF7A93
:102999003B79EE7F01124F921259989003D1E0B41E
:1029A900120B7BFF7A3B79F67F01124F929003D18C
:1029B900E0B4340B7BFF7A3C79037F01124F92120A
:0229C90059981B
:0129CB0022E9
:105A950043BA80D213E4F50DF50C12510DD2AF7F48
:095AA500C87E0012599C02275929
:0B44B9009003E2EBF0A3EAF0A3E9F0AF
:1044C400E4FFFE9003E8F0A3F09003E2E0FBA3E036
:1044D400FAA3E0F912118C70030245669003E5E03B
:1044E400FBA3E0FAA3E0F98F828E831211A5FD905D
:1044F40003E2E0FBA3E0FAA3E0F912118CB505078F
:104504000FBF00010E801E12118CFD9003E5E0FB2D
:10451400A3E0FAA3E0F912118CB505067E007F0131
:104524008003E4FEFF9003E9E004F070069003E8E2
:10453400E004F09003E3E475F0011212189003E52F
:10454400E0FBA3E0FAA3E0F98F828E831211A56049
:10455400030244CDC39003E9E09FFF9003E8E09E8B
:06456400FE227EFF7FFF36
:01456A00222E
:10461C00E49006C3F09006C5F09006C4F09006C472
:10462C00E0FFC3940A40030246C57E00ED2FF582DD
:10463C00EE3CF5831211A5FFC394304049EFD3949F
:10464C003750439006C5E004F0E0B401179006C45F
:10465C00E02DF582EE3CF5831211A524D0C454F064
:10466C009006C3F09006C5E0B4021B9006C4E07E31
:10467C00002DF582EE3CF5831211A524D0FF900697
:10468C00C3E04FFFF0229006C4E07E002DF582EED1
:10469C003CF5831211A5FFC39438400CEFD3943929
:1046AC0050069006C5E004F0EF642C600CEF600936
:0E46BC009006C4E004F00246299006C3E0FF19
:0146CA0022CD
:08434C009006B0ECF0A3EDF0C7
:10435400E4A3F0A3F0A3F09006B4E0FFC3941440E8
:10436400030243FB9006B1E02FFF9006B0E0340057
:104374008F82F5831211A5FFC39430404CEFD39480
:104384003950469006B2E0FEA3E0FF7C007D0A129D
:1043940012069006B2EEF0A3EFF0A3E0FF9006B190
:1043A400E02FFF9006B0E034008F82F5831211A550
:1043B400FF3395E0FEEF24D0FFEE34FFFE9006B30A
:1043C400E02FF09006B2E03EF09006B4E0FF9006D5
:1043D400B1E02FFF9006B0E034008F82F583121114
:1043E400A5FF642C6011EF642E600CEF6009900649
:0F43F400B4E004F002435B9006B2E0FEA3E0FFEA
:014403002296
:103D5800900669EBF0A3EAF0A3E9F0A3ECF0A3ED79
:013D6800F06A
:103D6900E4900675F0A3F0A3F0A3F0A3F0A3F090FC
:103D79000673F0A3F090066CE0FEA3E0FF900673D3
:103D8900E0FCA3E0FDC39FEC9E4003023E289006A1
:103D99006EE0FBA3E0FAA3E0F9900675E0FEA3E06C
:103DA900F5828E831211A5FF900669E0FBA3E0FA64
:103DB900A3E0F98D828C831211A5B507339006769D
:103DC900E004F07006900675E004F0900671E0FEDC
:103DD900A3E0FF900675E0B50631A3E0B5072C9086
:103DE9000673E0FFA3E0900679CFF0A3EFF0802FF0
:103DF900E4900675F0A3F0900674E02401FE9006A5
:103E090073E03400900677F0A3CEF0900674E004D6
:103E1900F06003023D7E900673E004F0023D7E905F
:103E29000679E0FEA3E0FF900677E0FCA3E0FDD36E
:103E39009FEC9E5044900673ECF0A3EDF090067948
:103E4900E0FEA3E0FF900673E0FCA3E0FDC39FEC56
:103E59009E5023900669E0FBA3E0FAA3E0F98D8266
:103E69008C83E41211E4900674E004F070CF90069C
:0B3E790073E004F080C77F01227F008F
:013E8400221B
:080003000102040810204080F6
:10456B00ED6058EF540F90000393FEEF54F024F0DE
:10457B00602424F0602524F0602624F0602724F0CA
:10458B00602824F0602924F0602A2470600302461E
:10459B001B90FE10802190FE11801C90FE12801744
:1045AB0090FE13801290FE14800D90FE15800890E3
:1045BB00FE16800390FE17E04EF022EF540F900092
:1045CB000393F4FEEF54F024F0602124F0602224D6
:1045DB00F0602324F0602424F0602524F06026246E
:1045EB00F060272470702990FE10802190FE1180BE
:1045FB001C90FE12801790FE13801290FE14800DFB
:10460B0090FE15800890FE16800390FE17E05EF07A
:01461B00227C
:1031FB00EF540F90000393FEEF54F024F0605E2425
:10320B00F0700302329524F070030232C224F07086
:10321B00030232EF24F0700302331C24F07003021C
:10322B00334624F070030233702470600302339929
:10323B00ED14601414601914601B24036003023333
:10324B0099EEF45293529422EE4293EEF45294225E
:10325B00EE42938004EEF45293EE429422ED14600E
:10326B001414601914601B24036003023399EEF4E9
:10327B005291529222EE4291EEF4529222EE4291F0
:10328B008004EEF45291EE429222ED14601414601D
:10329B001914601B24036003023399EEF452955208
:1032AB009622EE4295EEF4529622EE42958004EE73
:1032BB00F45295EE429622ED1460141460191460CA
:1032CB001B24036003023399EEF452B152B222EE87
:1032DB0042B1EEF452B222EE42B18004EEF452B19E
:1032EB00EE42B222ED14601414601914601B240317
:1032FB006003023399EEF452B352B422EE42B3EEB2
:10330B00F452B422EE42B38004EEF452B3EE42B464
:10331B0022ED1460111460161460182403706FEE04
:10332B00F452C952CA22EE42C9EEF452CA22EE42FC
:10333B00C98004EEF452C9EE42CA22ED1460111496
:10334B00601614601824037045EEF452CB52CC2255
:10335B00EE42CBEEF452CC22EE42CB8004EEF45292
:10336B00CBEE42CC22ED14601114601614601824BD
:10337B0003701BEEF452E152E222EE42E1EEF45204
:0E338B00E222EE42E18004EEF452E1EE42E274
:013399002211
:10477000EF540F90000393FEED6043EF54F024F0EC
:10478000602024F0602024F0602024F0602024F0D9
:10479000602024F0602024F060202470706AEE42D3
:1047A0008022EE429022EE42A022EE42B022EE4261
:1047B000C022EE42C822EE42E822EE42F822EF5436
:1047C000F024F0602124F0602224F0602324F060C3
:1047D0002424F0602524F0602624F06027247070E3
:1047E00027EEF4528022EEF4529022EEF452A022F0
:1047F000EEF452B022EEF452C022EEF452C822EE91
:08480000F452E822EEF452F834
:01480800228D
:10516600EF540F90000393FDEF54F024F0602024D9
:10517600F0602024F0602024F0602024F0602024D9
:10518600F0602024F0602024707020AE80801FAE76
:1051960090801BAEA08017AEB08013AEC0800FAE5D
:1051A600C8800BAEE88007AEF880037F0122EE5D73
:0751B60060037F01227F006E
:0151BD0022CF
:10534C00EF540F90000393FEEF54F024F0602024F0
:10535C00F0602024F0602024F0602024F0602024F1
:10536C00F0602024F060202470701FEE628022EE2A
:10537C00629022EE62A022EE62B022EE62C022EEB9
:0A538C0062C822EE62E822EE62F829
:0153960022F4
:10547300EFB40800503E905480F8282873025498E3
:1054830002549C0254A00254A40254A80254AC0235
:1054930054B00254B4ED628022ED629022ED62A01A
:1054A30022ED62B022ED62C022ED62C822ED62E815
:0554B30022ED62F82269
:10480900EB6048EFB4080040030248A090481CF848
:1048190028287302483402483802483C02484002BA
:10482900484402484802484C024850ED428022ED73
:10483900429022ED42A022ED42B022ED42C022ED8B
:1048490042C822ED42E822ED42F822EFB4080050B6
:1048590046904861F828287302487902487E024840
:104869008302488802488D02489202489702489C70
:10487900EDF4528022EDF4529022EDF452A022ED93
:10488900F452B022EDF452C022EDF452C822EDF4F4
:0848990052E822EDF452F8226E
:10521100EFB40800503F90521EF82828730252360E
:1052210002523A02523E02524202524602524A028D
:10523100524E025252AE80801FAE90801BAEA080B3
:1052410017AEB08013AEC0800FAEC8800BAEE88041
:1052510007AEF880037F0122EE5D60037F01227FAC
:01526100004C
:015262002229
:045B560075C12522CE
:045B5A0043C1102211
:0C5B2F003031363716174344101146473A
:10510D0075985053873FE58E54DE4401F58EE4FDCE
:10511D007F01124BF59003D41213FE000708007F98
:10512D0001125657438E0453AFFB438E10C211D25A
:10513D00AC759A10E4FD7F02124BF59003D4121357
:10514D00FE000708007F02125657438E0453AFFB33
:09515D00438E10C21243AF01227F
:104BF5009003CFEDF0EF24FE603F0470769003CF75
:104C0500E0FF54C0FEE5A2543F4EF5A2EFC41313D6
:104C1500540325E0242FF582E4345BF583E493FF08
:104C2500E4FD1231FB9003CFE0C41313540325E0D8
:104C35002430F582E4345B80309003CFE0FF5401EB
:104C4500FEE5BA54FE4EF5BAEF25E02437F582E4C9
:104C5500345BF583E493FFE4FD1231FB9003CFE071
:104C650025E02438F582E4345BF583E493FF7D0386
:044C75001231FB22DB
:055657009003D3EFF009
:10565C00A3E0F8A3E0F9A3E0FAA3E0FB7F807E8D42
:10566C007D5B7C0012131BC3E49FFFE49EFE900342
:0E567C00D3E024FE60030470058FD7EEF5D650
:01568A0022FD
:105A2C00EF24FE600C0470128D99D21130110B8092
:0B5A3C00FBAF058F9BD2122012FD2251
:1055E700EF24FE6019047030EB6006D29BD29B80DB
:1055F70004C29BC29B8D99D21130111C80FBEB60BA
:1056070008439A08439A088006539AF7539AF7AFC4
:09561700058F9BD2122012FD2226
:10562000900602EBF0A3EAF0A3E9F0AE07900602C1
:10563000E0FBA3E0FAA3E0F912118C6019AF069029
:105640000602A3E475F00112122EA9F0FA12118CD1
:07565000FD125A2C80D72245
:0E4F92009003D3EFF0A3EBF0A3EAF0A3E9F055
:104FA0009005FF7401F0A37403F0A374D7F090038D
:104FB000D4E0F9A3E0FAA3E0900602C9F0A3EAF076
:104FC000A3E9F09005FFE0F9A3E0FAA3E09006055D
:104FD000C9F0A3EAF0A3E9F07B017A0379FF125349
:104FE000E19005FFE4F0A3F0A3F09003D3E0FF7B92
:084FF000017A0379FF0256204B
:015B62002220
:015B6300221F
:015B6400221E
:015B6500221D
:105B0000EF146008047009C28DD28C22C28FD28E2D
:015B10002272
:0D000E00EF146006047005C28C22C28E2221
:105536009006CDEFF0ED6015E014600A04702B4381
:105546008F017D038016438F027D0380189006CD60
:10555600E014600C047013538FFEE4FD7F35800762
:0B556600538FFDE4FD7F341231FB2267
:10577200E58E547F4480F58E5389F0758A48758C86
:10578200F4D2A9E58E54BF4440F58E53890F758B30
:0757920040758DA2D2AB228D
:0B41B600900687EFF0A3ECF0A3EDF003
:1041C1004C70030242817FAA7E0A90068C747FF0B4
:1041D100A374FFF0900688E0FCA3E0FDD39FEC9E62
:1041E1005013A3E4F0A304F0E4120D32E4FBFA79D6
:1041F100C07841802790068CE0FEA3E0FF900688FE
:10420100E0FCA3E0FDD39FEC9E5024A3E4F0A37453
:104211000CF0E4120D32E4FBFAF97840120B87122C
:104221000D6BC3E49FFFE49E90068EF0A3EFF09028
:104231000687E014602704704790068AE07004A3A3
:10424100E064017005438E808003538E7F90068E5B
:10425100E0FEA3E0F58AEEF58C5389FB2290068AF5
:10426100E07004A3E064017005438E408003538E27
:10427100BF90068EE0FEA3E0F58BEEF58D5389BF6E
:01428100221A
:105AED00EF14600904700B8D8AECF58C228D8BEC14
:035AFD00F58D2202
:10002600E4FDFCEF14600B04700EAF8CEFAD8AFCA0
:0C0036008006AF8DEFAD8BFCAE04AF0573
:01004200229B
:104938009003CFEFF024FC602724FC603E24FC6049
:1049480055240C706DE4FD7F121231FB7D037F133B
:104958001231FBE4FD7F141231FB7D037F15804F7C
:10496800E4FD7F221231FB7D037F231231FBE4FD3E
:104978007F241231FB7D037F258034E4FD7F5412B0
:1049880031FB7D037F401231FBE4FD7F411231FB97
:104998007D037F438019E4FD7F351231FB7D037F62
:1049A800341231FBE4FD7F331231FB7D037F321279
:1049B80031FB9003CFE0540CFFE5A254F34FF5A26E
:0149C80022CC
:0F5B2000E4FF12493875CED175CDC043CE402277
:1059F4007DC07C128FCFE5CD20E70BED4C6007ED29
:0B5A04001D70F31C80F043CDC0AFCF3D
:015A0F002274
:10568B0075DE2F78EFE6FC08E6FDE4120D32E4FB45
:10569B00FA797A7844120C909006BF1213F27D01BE
:1056AB007F161231FB7D017F061231FB43BC80223A
:1056BB007DC07C12EF540FFFE5BC54F04FF5BC439B
:1056CB00BC400000E5BC20E50BED4C6007ED1D7008
:0F56DB00F31C80F053BC9FAFBDEFFEADBEEDFFE3
:0156EA00229D
:1057E7001256BBAD07AC06E4120D329006B6E0F8D0
:1057F700A3E0F9A3E0FAA3E0FB120B87E4FBFA7935
:06580700807844020C90C1
:1054B8007F0F1256BBEF4E7005FFFEFDFC22AD07B5
:1054C800AC06E4120D32C004C005C006C007E4FFF4
:1054D800FE7D807C449006BFE0F8A3E0F9A3E0FAE3
:1054E800A3E0FB120B87D003D002D001D000120C2E
:0154F8009023
:0154F9002290
:101D5E0043F10190FF02740FF090FF007475F0A331
:101D6E007430F090FF10E4F0A3F0A3F0A3F0A3748E
:101D7E0080F07D03E4FF1231FB90FF18E4F0A3F036
:101D8E00A3F0A3F0A37480F07D037F011231FB90CA
:101D9E00FF20E4F0A3F0A3F0A3F0A37480F07D0382
:101DAE007F021231FB90FF28E4F0A3F0A3F0A3F022
:101DBE00A37480F07D037F031231FB90FF30E4F0BB
:101DCE00A3F0A3F0A3F0A37480F07D037F0412317F
:101DDE00FB90FF38E4F0A3F0A3F0A3F0A37480F01F
:101DEE007D037F051231FB90FF407475F0A37430B4
:101DFE00F0A3E4F0A3F0A37480F07D037F0612310C
:101E0E00FB90FF487475F0A37430F0A3E4F0A3F0D8
:101E1E00A37480F07D037F071231FB43F60143F17B
:101E2E000290FF52740FF090FF507475F0A374304F
:101E3E00F090FF907475F0A37430F0A3E4F0A3F06B
:101E4E00A37480F07D037F161231FB90FF98E4F0AF
:101E5E00A3F0A3F0A3F0A37480F07D037F171231DB
:101E6E00FB43F61043F10490FFA2740FF090FFA015
:101E7E007475F0A37430F090FFB0E4F0A3F0A3F00B
:101E8E00A3F0A37480F07D037F201231FB90FFB886
:101E9E00E4F0A3F0A3F0A3F0A37480F07D037F2100
:101EAE001231FB90FFC0E4F0A3F0A3F0A3F0A374F3
:101EBE0080F07D037F221231FB90FFC8E4F0A3F087
:101ECE00A3F0A3F0A37480F07D037F231231FB9067
:101EDE00FFD0E4F0A3F0A3F0A3F0A37480F07D0391
:101EEE007F241231FB90FFD8E4F0A3F0A3F0A3F00F
:101EFE00A37480F07D037F251231FB90FFE0E4F0A8
:101F0E00A3F0A3F0A3F0A37480F07D037F2612311B
:101F1E00FB90FFE8E4F0A3F0A3F0A3F0A37480F02D
:101F2E007D037F271231FB43F70143F10890FC023A
:101F3E00740FF090FC007475F0A37430F090FC20D8
:101F4E00E4F0A3F0A3F0A3F0A37480F07D037F323E
:101F5E001231FB90FC28E4F0A3F0A3F0A3F0A374DD
:101F6E0080F07D037F331231FB90FC30E4F0A3F060
:101F7E00A3F0A3F0A37480F07D037F341231FB90A5
:101F8E00FC38E4F0A3F0A3F0A3F0A37480F07D037B
:101F9E007F351231FB90FC40E4F0A3F0A3F0A3F0E8
:101FAE00A37480F07D037F361231FB90FC48E4F081
:101FBE00A3F0A3F0A3F0A37480F07D037F3712315A
:101FCE00FB43F71043F11090FC52740FF090FC504D
:101FDE007475F0A37430F090FC60E4F0A3F0A3F0FD
:101FEE00A3F0A37480F07D037F401231FB90FC6858
:101FFE00E4F0A3F0A3F0A3F0A37480F07D037F417F
:10200E001231FB90FC70E4F0A3F0A3F0A3F0A374E4
:10201E0080F07D037F421231FB90FC78E4F0A3F058
:10202E00A3F0A3F0A37480F07D037F431231FB90E5
:10203E00FC80E4F0A3F0A3F0A3F0A37480F07D0382
:10204E007F441231FB90FC88E4F0A3F0A3F0A3F0E0
:10205E00A37480F07D037F451231FB90FC90E4F079
:10206E00A3F0A3F0A3F0A37480F07D037F4612319A
:10207E00FB43FE0143F12090FCA2740FF090FCA0F4
:10208E007475F0A37430F090FCB0E4F0A3F0A3F0FC
:10209E00A3F0A37480F07D037F501231FB90FCB847
:1020AE00E4F0A3F0A3F0A3F0A37480F07D037F51BE
:1020BE001231FB90FCC0E4F0A3F0A3F0A3F0A374E4
:1020CE0080F07D037F521231FB90FCC8E4F0A3F048
:1020DE00A3F0A3F0A37480F07D037F531231FB4372
:0320EE00FE1022BF
:05339A009003D0EFF0EC
:10339F009003D57401F09003D5E0FFC3941050361D
:1033AF00AB07E4FAF9F8FF7E367D6E7C0112131B32
:1033BF00E47BFF7A7FF9F812131B9003D1E0F8A397
:1033CF00E0F9A3E0FAA3E0FBD31213BB500890037C
:1033DF00D5E004F080C09003D5E0FBE4FAF9F8FFE4
:1033EF007E367D6E7C0112131B9003D1E0F8A3E0B3
:1033FF00F9A3E0FAA3E0FB12131B9003D61213F20A
:10340F00E47FFF7E7FFDFC9003D6E0F8A3E0F9A3F5
:10341F00E0FAA3E0FBD31213BB400302351E900367
:10342F00D0E014603C14605C14607C1470030234B0
:10343F00D91470030234FC2405600302351E53F6C1
:10344F00FE9003D5E0C3940190FF02F09003D6A342
:10345F00A3E0FFA3E090FF00CFF0A3EFF043F6014E
:10346F002253F6EF9003D5E0C3940190FF52F090F2
:10347F0003D6A3A3E0FFA3E090FF50CFF0A3EFF09C
:10348F0043F6102253F7FE9003D5E0C3940190FF4B
:10349F00A2F09003D6A3A3E0FFA3E090FFA0CFF08C
:1034AF00A3EFF043F7012253F7EF9003D5E0C39456
:1034BF000190FC02F09003D6A3A3E0FFA3E090FCE1
:1034CF0000CFF0A3EFF043F7102253FEFE9003D589
:1034DF00E0C3940190FC52F09003D6A3A3E0FFA3A6
:1034EF00E090FC50CFF0A3EFF043FE012253FEEF2C
:1034FF009003D5E0C3940190FCA2F09003D6A3A350
:0F350F00E0FFA3E090FCA0CFF0A3EFF043FE108D
:01351E00228A
:100046009003D2EDF0A3EAF0A3EBF0EF14700302F5
:1000560002FA14700302039E147003020621147040
:100066000302080A147003020A3F24056003020B08
:10007600869003D2E0B408004003020B8690008A03
:10008600F82828730200A20200ED0201380201835B
:100096000201CE0202190202640202AF9003D3E00B
:1000A600FEA3E0FFC394E8EE9403400690FF15021A
:1000B6000B4BEF4E90FF15700304F022E4F090FF17
:1000C60012F0A3F090FF00E0FEA3E0FF9003D3E060
:1000D600FCA3E0FD1214C5E47BE87A03F9F81213D9
:1000E6001B90FF10020B819003D3E0FEA3E0FFC339
:1000F60094E8EE9403400690FF1D020B4BEF4E90E2
:10010600FF1D700304F022E4F090FF1AF0A3F090B4
:10011600FF00E0FEA3E0FF9003D3E0FCA3E0FD12A6
:1001260014C5E47BE87A03F9F812131B90FF180252
:100136000B819003D3E0FEA3E0FFC394E8EE9403A3
:10014600400690FF25020B4BEF4E90FF25700304EF
:10015600F022E4F090FF22F0A3F090FF00E0FEA36F
:10016600E0FF9003D3E0FCA3E0FD1214C5E47BE8B6
:100176007A03F9F812131B90FF20020B819003D328
:10018600E0FEA3E0FFC394E8EE9403400690FF2D43
:10019600020B4BEF4E90FF2D700304F022E4F0901B
:1001A600FF2AF0A3F090FF00E0FEA3E0FF9003D348
:1001B600E0FCA3E0FD1214C5E47BE87A03F9F8122B
:1001C600131B90FF28020B819003D3E0FEA3E0FFF0
:1001D600C394E8EE9403400690FF35020B4BEF4EB6
:1001E60090FF35700304F022E4F090FF32F0A3F0A4
:1001F60090FF00E0FEA3E0FF9003D3E0FCA3E0FD48
:100206001214C5E47BE87A03F9F812131B90FF3049
:10021600020B819003D3E0FEA3E0FFC394E8EE94C3
:1002260003400690FF3D020B4BEF4E90FF3D7003DF
:1002360004F022E4F090FF3AF0A3F090FF00E0FE15
:10024600A3E0FF9003D3E0FCA3E0FD1214C5E47B1A
:10025600E87A03F9F812131B90FF38020B8190031A
:10026600D3E0FEA3E0FFC394E8EE9403400690FFBC
:1002760045020B4BEF4E90FF45700304F022E4F06D
:1002860090FF42F0A3F090FF00E0FEA3E0FF900392
:10029600D3E0FCA3E0FD1214C5E47BE87A03F9F889
:1002A60012131B90FF40020B819003D3E0FEA3E0E4
:1002B600FFC394E8EE9403400690FF4D020B4BEF0C
:1002C6004E90FF4D700304F022E4F090FF4AF0A335
:1002D600F090FF00E0FEA3E0FF9003D3E0FCA3E074
:1002E600FD1214C5E47BE87A03F9F812131B90FF9C
:1002F60048020B819003D2E024F9605104600302A6
:100306000B869003D3E0FEA3E0FFC394E8EE9403CC
:10031600400690FF95020B4BEF4E90FF957003043D
:10032600F022E4F090FF92F0A3F090FF50E0FEA3DD
:10033600E0FF9003D3E0FCA3E0FD1214C5E47BE8E4
:100346007A03F9F812131B90FF90020B819003D3E6
:10035600E0FEA3E0FFC394E8EE9403400690FF9D01
:10036600020B4BEF4E90FF9D700304F022E4F090D9
:10037600FF9AF0A3F090FF50E0FEA3E0FF9003D3B6
:10038600E0FCA3E0FD1214C5E47BE87A03F9F81259
:10039600131B90FF98020B819003D2E0B408004033
:1003A60003020B869003B1F82828730203C90204DE
:1003B6001402045F0204AA0204F502054002058B3A
:1003C6000205D69003D3E0FEA3E0FFC394E8EE94C3
:1003D60003400690FFB5020B4BEF4E90FFB570033E
:1003E60004F022E4F090FFB2F0A3F090FFA0E0FE4C
:1003F600A3E0FF9003D3E0FCA3E0FD1214C5E47B69
:10040600E87A03F9F812131B90FFB0020B819003F0
:10041600D3E0FEA3E0FFC394E8EE9403400690FF0A
:10042600BD020B4BEF4E90FFBD700304F022E4F0CB
:1004360090FFBAF0A3F090FFA0E0FEA3E0FF9003C8
:10044600D3E0FCA3E0FD1214C5E47BE87A03F9F8D7
:1004560012131B90FFB8020B819003D3E0FEA3E0BA
:10046600FFC394E8EE9403400690FFC5020B4BEFE2
:100476004E90FFC5700304F022E4F090FFC2F0A393
:10048600F090FFA0E0FEA3E0FF9003D3E0FCA3E022
:10049600FD1214C5E47BE87A03F9F812131B90FFEA
:1004A600C0020B819003D3E0FEA3E0FFC394E8EE05
:1004B6009403400690FFCD020B4BEF4E90FFCD709C
:1004C6000304F022E4F090FFCAF0A3F090FFA0E04E
:1004D600FEA3E0FF9003D3E0FCA3E0FD1214C5E405
:1004E6007BE87A03F9F812131B90FFC8020B819080
:1004F60003D3E0FEA3E0FFC394E8EE940340069026
:10050600FFD5020B4BEF4E90FFD5700304F022E4AB
:10051600F090FFD2F0A3F090FFA0E0FEA3E0FF90E2
:1005260003D3E0FCA3E0FD1214C5E47BE87A03F9EB
:10053600F812131B90FFD0020B819003D3E0FEA3A9
:10054600E0FFC394E8EE9403400690FFDD020B4BF8
:10055600EF4E90FFDD700304F022E4F090FFDAF036
:10056600A3F090FFA0E0FEA3E0FF9003D3E0FCA37E
:10057600E0FD1214C5E47BE87A03F9F812131B9028
:10058600FFD8020B819003D3E0FEA3E0FFC394E8FB
:10059600EE9403400690FFE5020B4BEF4E90FFE50D
:1005A600700304F022E4F090FFE2F0A3F090FFA0C5
:1005B600E0FEA3E0FF9003D3E0FCA3E0FD1214C528
:1005C600E47BE87A03F9F812131B90FFE0020B8133
:1005D6009003D3E0FEA3E0FFC394E8EE9403400645
:1005E60090FFED020B4BEF4E90FFED700304F022EF
:1005F600E4F090FFEAF0A3F090FFA0E0FEA3E0FF96
:100606009003D3E0FCA3E0FD1214C5E47BE87A0373
:10061600F9F812131B90FFE8020B819003D2E02435
:10062600FD606A1470030206DE14700302072914C3
:1006360070030207741470030207BF2405600302E7
:100646000B869003D3E0FEA3E0FFC394E8EE940389
:10065600400690FC25020B4BEF4E90FC25700304E0
:10066600F022E4F090FC22F0A3F090FC00E0FEA360
:10067600E0FF9003D3E0FCA3E0FD1214C5E47BE8A1
:100686007A03F9F812131B90FC20020B819003D316
:10069600E0FEA3E0FFC394E8EE9403400690FC2D31
:1006A600020B4BEF4E90FC2D700304F022E4F09009
:1006B600FC2AF0A3F090FC00E0FEA3E0FF9003D339
:1006C600E0FCA3E0FD1214C5E47BE87A03F9F81216
:1006D600131B90FC28020B819003D3E0FEA3E0FFDE
:1006E600C394E8EE9403400690FC35020B4BEF4EA4
:1006F60090FC35700304F022E4F090FC32F0A3F095
:1007060090FC00E0FEA3E0FF9003D3E0FCA3E0FD35
:100716001214C5E47BE87A03F9F812131B90FC3037
:10072600020B819003D3E0FEA3E0FFC394E8EE94AE
:1007360003400690FC3D020B4BEF4E90FC3D7003D0
:1007460004F022E4F090FC3AF0A3F090FC00E0FE06
:10075600A3E0FF9003D3E0FCA3E0FD1214C5E47B05
:10076600E87A03F9F812131B90FC38020B81900308
:10077600D3E0FEA3E0FFC394E8EE9403400690FCAA
:1007860045020B4BEF4E90FC45700304F022E4F05B
:1007960090FC42F0A3F090FC00E0FEA3E0FF900383
:1007A600D3E0FCA3E0FD1214C5E47BE87A03F9F874
:1007B60012131B90FC40020B819003D3E0FEA3E0D2
:1007C600FFC394E8EE9403400690FC4D020B4BEFFA
:1007D6004E90FC4D700304F022E4F090FC4AF0A326
:1007E600F090FC00E0FEA3E0FF9003D3E0FCA3E062
:1007F600FD1214C5E47BE87A03F9F812131B90FC8A
:1008060048020B819003D2E0B407004003020B8636
:1008160090081DF828287302083202087D0208C8CD
:1008260002091302095E0209A90209F49003D3E042
:10083600FEA3E0FFC394E8EE9403400690FC650235
:100846000B4BEF4E90FC65700304F022E4F090FC35
:1008560062F0A3F090FC50E0FEA3E0FF9003D3E02B
:10086600FCA3E0FD1214C5E47BE87A03F9F8121341
:100876001B90FC60020B819003D3E0FEA3E0FFC354
:1008860094E8EE9403400690FC6D020B4BEF4E90FD
:10089600FC6D700304F022E4F090FC6AF0A3F09083
:1008A600FC50E0FEA3E0FF9003D3E0FCA3E0FD12C2
:1008B60014C5E47BE87A03F9F812131B90FC68026E
:1008C6000B819003D3E0FEA3E0FFC394E8EE94030C
:1008D600400690FC75020B4BEF4E90FC75700304BE
:1008E600F022E4F090FC72F0A3F090FC50E0FEA33E
:1008F600E0FF9003D3E0FCA3E0FD1214C5E47BE81F
:100906007A03F9F812131B90FC70020B819003D343
:10091600E0FEA3E0FFC394E8EE9403400690FC7D5E
:10092600020B4BEF4E90FC7D700304F022E4F09036
:10093600FC7AF0A3F090FC50E0FEA3E0FF9003D316
:10094600E0FCA3E0FD1214C5E47BE87A03F9F81293
:10095600131B90FC78020B819003D3E0FEA3E0FF0B
:10096600C394E8EE9403400690FC85020B4BEF4ED1
:1009760090FC85700304F022E4F090FC82F0A3F072
:1009860090FC50E0FEA3E0FF9003D3E0FCA3E0FD63
:100996001214C5E47BE87A03F9F812131B90FC8065
:1009A600020B819003D3E0FEA3E0FFC394E8EE942C
:1009B60003400690FC8D020B4BEF4E90FC8D7003AE
:1009C60004F022E4F090FC8AF0A3F090FC50E0FEE4
:1009D600A3E0FF9003D3E0FCA3E0FD1214C5E47B83
:1009E600E87A03F9F812131B90FC88020B81900336
:1009F600D3E0FEA3E0FFC394E8EE9403400690FC28
:100A060095020B4BEF4E90FC95700304F022E4F038
:100A160090FC92F0A3F090FC50E0FEA3E0FF900360
:100A2600D3E0FCA3E0FD1214C5E47BE87A03F9F8F1
:100A360012131B90FC90020B819003D2E014605EAF
:100A4600147003020AEF147003020B3824036003C8
:100A5600020B869003D3E0FEA3E0FFC394E8EE9476
:100A660003400690FCB5020B4BEF4E90FCB57003AD
:100A760004F022E4F090FCB2F0A3F090FCA0E0FEBB
:100A8600A3E0FF9003D3E0FCA3E0FD1214C5E47BD2
:100A9600E87A03F9F812131B90FCB0020B8190035D
:100AA600D3E0FEA3E0FFC394E8EE9403400690FC77
:100AB600BD020B4BEF4E90FCBD700304F022E4F038
:100AC60090FCBAF0A3F090FCA0E0FEA3E0FF900338
:100AD600D3E0FCA3E0FD1214C5E47BE87A03F9F841
:100AE60012131B90FCB8020B819003D3E0FEA3E027
:100AF600FFC394E8EE9403400590FCC58047EF4E93
:100B060090FCC5700304F022E4F090FCC2F0A3F060
:100B160090FCA0E0FEA3E0FF9003D3E0FCA3E0FD81
:100B26001214C5E47BE87A03F9F812131B90FCC093
:100B360080499003D3E0FEA3E0FFC394E8EE94035C
:100B4600400790FCCD7402F022EF4E90FCCD70036E
:100B560004F022E4F090FCCAF0A3F090FCA0E0FEC2
:100B6600A3E0FF9003D3E0FCA3E0FD1214C5E47BF1
:100B7600E87A03F9F812131B90FCC8EEF0A3EFF025
:010B8600224C
:03000B000255712A
:10557100C0E0C0F0C083C082C0D075D000C000C000
:1055810001C002C003C004C005C006C007125A47CB
:10559100D007D006D005D004D003D002D001D0006E
:0B55A100D0D0D082D083D0F0D0E03218
:03001B000255ACDF
:1055AC00C0E0C0F0C083C082C0D075D000C000C0C5
:1055BC0001C002C003C004C005C006C0071242826D
:1055CC00D007D006D005D004D003D002D001D00033
:0B55DC00D0D0D082D083D0F0D0E032DD
:03002300025397EE
:10539700C0E0C0F0C083C082C0D075D000C000C0DC
:1053A70001C002C003C004C005C006C0073098088A
:1053B700C29812571A125954309904C299C211D07F
:1053C70007D006D005D004D003D002D001D000D03A
:0A53D700D0D082D083D0F0D0E032B5
:030043000252B3B3
:1052B300C0E0C0F0C083C082C0D075D000C000C0C1
:1052C30001C002C003C004C005C006C007E59A3090
:1052D300E006539AFE125746E59A30E105539AFDCC
:1052E300C212D007D006D005D004D003D002D0011B
:0D52F300D000D0D0D082D083D0F0D0E032F7
:035B5E000259F4F5
:1051BE009003E7EBF0A3EAF0A3E9F0A3ECF0A3ED84
:0151CE00F0F0
:1051CF00E4A3F0A3F09003EAE0FEA3E0FFA3E0FC6A
:1051DF00A3E0FDC39FEC9E50269003E7E0FBA3E006
:1051EF00FAA3E0F98D828C831211A5FF1259F49066
:1051FF0003EDE004F070CE9003ECE004F080C67F86
:01520F00019D
:01521000227B
:05001E007FFF0259F410
:0E4E5300E0FBA3E0FAA3E0F9A3E0FCA3E0FD7E
:104E61009003E7EBF0A3EAF0A3E9F0A3ECF0A3EDE4
:014E7100F050
:104E7200E4A3F0A3F09003EAE0FEA3E0FFC39003F3
:104E8200EDE09F9003ECE09E502F7FFF1259F490CB
:104E920003E7E0FBA3E0FAA3E0F99003ECE0FCA354
:104EA200E0F5828C83EF1211E49003EDE004F070E0
:0B4EB200C49003ECE004F080BC7F0122
:014EBD0022D2
:10580D00E49003ECF0FD7F121247707F05125B5E92
:10581D0012001E9003ECEFF07D017F121247709085
:04582D0003ECE0FFA9
:015831002254
:10583200E49006CEF0FD7F121247707F35125B5E58
:1058420012001E9006CEEFF07D017F12124770907B
:0458520006CEE0FF9F
:01585600222F
:1059D600125857E4FD7F121247707F01125B5EE496
:0E59E600FF125B5E7D017F12124770025300BC
:10597600E49006CFF0FD7F121247707F50125B5EF7
:105986009006CFEFF07D017F121247709006CFE0B0
:01599600FF11
:0159970022ED
:10585700E49003E7F0FD7F121247707F06125B5E4C
:105867009003E7EFF07D017F12124770125300900B
:0458770003E7E0FF64
:01587B00220A
:10587C00E49006D0F0FD7F121247707F04125B5E3D
:10588C009006D0EFF07D017F1212477012530090FA
:04589C0006D0E0FF53
:0158A00022E5
:095B4500E4FCFDFE78100213DF00
:04526300AB07AA06E5
:105267009003DB1213FE00000000D3EB94FFEA94D7
:105277000340047A037BFFAE02AF03E4FCFD900317
:10528700DB1213F29003DBE0FCA3E0FDA3E0FEA337
:10529700E0FF780C1213DF9003DB1213F29003DBAD
:0B52A700E0FCA3E0FDA3E0FEA3E0FF9D
:0152B20022D9
:085B4E00E4FCFD78080213DFFE
:0446CB00AB05AA078A
:1046CF009006991213FE0000000090069D1213FE33
:1046DF0000000000EBD3940F4002E4FBAF02E4FCB8
:1046EF00FDFE9006991213F2900699E0FCA3E0FDEF
:1046FF00A3E0FEA3E0FF78101213DF9006991213C8
:10470F00F2AF03E4FCFDFE90069D1213F290069D9E
:10471F00E0FCA3E0FDA3E0FEA3E0FF780C1213DFA3
:10472F0090069D1213F2900699E0FCA3E0FDA3E022
:10473F00FEA3E0FFA3E0F8A3E0F9A3E0FAA3E0FBF8
:10474F00EF2BFFEE3AFEED39FDEC38FC9006991297
:10475F0013F2900699E0FCA3E0FDA3E0FEA3E0FFB7
:01476F002227
:0940AF00900690EBF0AA05A907A8
:1040B800A31213FE000000009006951213FE0000E4
:1040C8000000EAD3940F4002E4FA900690E0D394FB
:1040D8000F4002E4F0AF01E4FCFDFE9006911213DC
:1040E800F2900691E0FCA3E0FDA3E0FEA3E0FF78D8
:1040F800101213DF9006911213F2AF02E4FCFDFEDA
:104108009006951213F2900695E0FCA3E0FDA3E05B
:10411800FEA3E0FF780C1213DF9006951213F290BD
:104128000691E0FCA3E0FDA3E0FEA3E0FFA3E0F816
:10413800A3E0F9A3E0FAA3E0FBEF2BFFEE3AFEEDD4
:1041480039FDEC38FC9006911213F2900690E0FFCE
:10415800E4FCFDFE9006951213F2900695E0FCA390
:10416800E0FDA3E0FEA3E0FF78081213DF900695B8
:104178001213F2900691E0FCA3E0FDA3E0FEA3E099
:10418800FFA3E0F8A3E0F9A3E0FAA3E0FBEF2BFF1D
:10419800EE3AFEED39FDEC38FC9006911213F290E0
:0D41A8000691E0FCA3E0FDA3E0FEA3E0FF14
:0141B50022E7
:055799009006BAEFF0DC
:10579E00EB7B00FAAF05EFC454F0FEEB2400FFEEF6
:1057AE003AFE9006BEE02FFF9006BDE03EFEE4FC02
:0157BE00FDED
:0157BF0022C7
:104F29009003E71213F29003E7E0FCA3E0FDA3E08E
:104F3900FEA3E0FF78101213CCEF1211D29003E711
:104F4900A3A3E0FEA3E0FFE4FDFC9003E71213F244
:104F59009003E7E0FCA3E0FDA3E0FEA3E0FF7808EF
:104F69001213CC9003EEE0FBA3E0FAA3E0F9EF12F1
:104F790011D29003E7A3A3A3E0FF9003F1E0FBA301
:094F8900E0FAA3E0F9EF0211D2F5
:10542B00E49006C9F0A3F0FD7F121247707F901233
:10543B005B5EE4FF125B5EE4FF125B5EE4FF125BFC
:10544B005E12001EEF9006C9F0A3E4F012001E904E
:10545B0006C9E0F0A3E04FF07D017F121247709078
:07546B0006C9E0FEA3E0FF0B
:015472002217
:105057009003EE7401F0A37406F0A374C7F0A37471
:1050670001F0A37406F0A374C8F07B017A0679C631
:10507700124F29E4FD7F121247707F03125B5E9087
:1050870006C6E0FF125B5E9006C7E0FF125B5E900C
:1050970006C8E0FF125B5E12001E9006C6EFF07DA9
:0B50A700017F121247709006C6E0FF68
:0150B20022DB
:0B4FF8009003DFEBF0A3EAF0A3E9F068
:105003009003EE7401F0A37403F0A374E5F0A374AA
:1050130001F0A37403F0A374E6F07B017A0379E44F
:10502300124F29E4FD7F121247707F03125B5E90DB
:1050330003E4E0FF125B5E9003E5E0FF125B5E902A
:1050430003E6E0FF125B5E9003DF124E537D017FA8
:04505300120247708E
:104C790090063EE0FBA3E0FAA3E0F99006827401F6
:044C8900F0A3E4F0C0
:0B4C8D0090067FEBF0A3EAF0A3E9F033
:104C98009003EE7401F0A37406F0A37485F0A37476
:104CA80001F0A37406F0A37486F07B017A06798478
:104CB800124F29E4FD7F121247707F0B125B5E9042
:104CC8000684E0FF125B5E900685E0FF125B5E9053
:104CD8000686E0FF125B5EE4FF125B5E90067F12C1
:094CE8004E537D017F120247705A
:105A1000125857125300E4FD7F121247707FC712CD
:0C5A20005B5E7D017F1212477002530094
:104AE40090063EE0FBA3E0FAA3E0F99003E2740130
:044AF400F0A3E4F057
:0B4AF8009003DFEBF0A3EAF0A3E9F06D
:104B03009003EE7401F0A37403F0A374E5F0A374AF
:104B130001F0A37403F0A374E6F07B017A0379E454
:104B2300124F29125857125300E4FD7F1212477097
:104B33007F02125B5E9003E4E0FF125B5E9003E58D
:104B4300E0FF125B5E9003E6E0FF125B5E9003DF23
:104B5300E0FBA3E0FAA3E0F9A3E0FCA3E0FD12511C
:0B4B6300BE7D017F121247700253005C
:103970009006511213F2900655EBF0A3EAF0A3E97A
:01398000F056
:10398100A3E0FCA3E0FDECC4540FA3F0EC540FFE44
:10399100D3ED9400EE94004003E004F0900651E072
:1039A100FCA3E0FDA3E0FEA3E0FF90065B1213F28F
:1039B100E490065FF090065AE0FF90065FE0C39F37
:1039C100502E90065B124D6990065BE0FCA3E0FD72
:1039D100A3E0FEA3E02400FFEE3410FEE43DFDE48D
:1039E1003CFC90065B1213F290065FE004F080C588
:1039F100900658E0FCA3E0FF900660E4F0A3EFF02E
:103A0100ECFFA3E4F0A3EFF0900655E0F9A3E0FA90
:103A1100A3E0900664C9F0A3EAF0A3E9F0E4A3F0FF
:103A2100A3F0900662E0FEA3E0FFC3900668E09F6A
:103A3100900667E09E504F900651E0FCA3E0FDA385
:103A4100E0FEA3E0FF900664124AE7900651E0FC15
:103A5100A3E0FDA3E0FEA3E02400FFEE3401FEE4B9
:103A61003DFDE43CFC9006511213F2900665740191
:103A710075F000121218900668E004F070069006C6
:103A810067E004F0809CD3900661E09400900660AA
:103A9100E09400402B900664E0FBA3E0FAA3E0F978
:103AA100900660E0FFA3E09003E2CFF0A3EFF09077
:103AB1000651E0FCA3E0FDA3E0FEA3E0FF124AF8FB
:013AC10022E2
:064EBE009006A91213F298
:104EC4001258571253009006A9E0FCA3E0FDA3E09A
:104ED400FEA3E0FF9003EE7401F0A37406F0A37444
:104EE400AEF0A37401F0A37406F0A374AFF07B01D9
:104EF4007A0679AD124F29E4FD7F121247707FD8EC
:104F0400125B5E9006ADE0FF125B5E9006AEE0FFC2
:104F1400125B5E9006AFE0FF125B5E7D017F1212B2
:054F240047700253007C
:0B4D6900E0FCA3E0FDA3E0FEA3E0FFE0
:064D74009003D71213F2B8
:104D7A001258571253009003D7E0FCA3E0FDA3E0BA
:104D8A00FEA3E0FF9003EE7401F0A37403F0A37492
:104D9A00DCF0A37401F0A37403F0A374DDF07B01CB
:104DAA007A0379DB124F29E4FD7F121247707F20C4
:104DBA00125B5E9003DBE0FF125B5E9003DCE0FFB8
:104DCA00125B5E9003DDE0FF125B5E7D017F1212D3
:054DDA004770025300C8
:10530000E4FF9003E81213FE00000000802AEF3053
:10531000E02B7F017E0012599C9003E8E0FCA3E0A3
:10532000FDA3E0FEA3E02401FFE43EFEE43DFDE436
:105330003CFC9003E81213F212580D80D19003E860
:0B534000E0FCA3E0FDA3E0FEA3E0FF03
:01534B00223F
:105A6100E4FD7F121247707FB9125B5E7D017F12E8
:0A5A71001247707F017E0002599C6D
:105A7B00E4FD7F121247707FAB125B5E7D017F12DC
:0A5A8B001247707F017E0002599C53
:104CF1009006A11213F29006A5EBF0A3EAF0A3E946
:014D0100F0C1
:104D02007FFF7E03125263124D74E49006A8F09066
:104D120006A8E0FBC39410504DE4FDFF1240AF9093
:104D220006A1E0F8A3E0F9A3E0FAA3E02FFFEA3E30
:104D3200FEE93DFDE83CFCA3E0FBA3E0FAA3E0F9B9
:104D42009003E27401F0A3E4F0124FF89006A8E099
:104D5200FB7D0F7F3F1240AF9006A5124AE79006F7
:064D6200A8E004F080A9A6
:014D68002228
:06351F009006381213F2C1
:103525007FFF7EFF7D3F7C00900638E0F8A3E0F941
:10353500A3E0FAA3E0FBD31213BB40037FFF229065
:103545000638E0FCA3E0FDA3E0FEE4FFEE54F0FE48
:10355500EC9006411213F2900638E0FCA3E0FDA3BF
:10356500E0FEA3E0FF78081213CCEF540FFEE490C1
:103575000645F0A3CEF0E0FEE4FCFD900641E0F840
:10358500A3E0F9A3E0FAA3E02400FFEA3EFEED394B
:10359500FDEC38FC9006471213F2900641E0FCA3BF
:1035A500E0FDA3E0FEA3E0FF90063EE0FBA3E0FA0A
:1035B500A3E0F9124CF1900647E0FCA3E0FDA3E07F
:1035C500FEA3E0FF124C7990063CA3E0FFC00790F4
:1035D5000638A3A3A3E0FF90063EE0FBA3E0FAA311
:1035E500E0F98F82758300D0E01211E49006411254
:1035F5004D69900647E0FCA3E0FDA3E0FEA3E0FFD4
:10360500124AE47D0F7F3F1246CB90064B1213F210
:10361500E490064FF0A3F090064FE0FEA3E0FFC351
:103625009410EE64809480506D900645E0FCA3E014
:10363500FDEF6D7002EE6C604C900650E0FE339528
:10364500E0FDFC90064BE0F8A3E0F9A3E0FAA3E067
:103655002400FFEA3EFEE93DFDE83CFC124C799072
:103665000650E0FE3395E0FDFC900641E0F8A3E04E
:10367500F9A3E0FAA3E02400FFEA3EFEE93DFDE8F8
:103685003CFC124AE4900650E004F0700690064FA8
:08369500E004F002361C7F0086
:01369D00220A
:105AAE007D037F471231FB7F2C7E011259B7900682
:075ABE00CBEEF0A3EFF02294
:104B6E009003D2EBF0A3EAF0A3E9F0A3ECF0A3EDEF
:014B7E00F046
:104B7F00C2C79006CBE0FEA3E0FF125B3BE4FFFE53
:104B8F00D39003D6E09F9003D5E09E404BC2C790D1
:104B9F0003D2E0FBA3E0FAA3E0F98F828E83121118
:104BAF00A5F520E4FDD2C730070F0000000000007C
:104BBF000000000000C2C7800A0000000000C2C74A
:104BCF00000000000000E52025E0F5200DEDB40801
:104BDF00D40FBF00010E80A89006CBE0FEA3E0FF2C
:054BEF00125B3BD2C780
:014BF400229E
:100B8700EC4D6011E8497017ED33EC3304600DE468
:100B9700FCFFFEFD22E933E8330470F8020DD7129B
:100BA7000DA258046009E4CC24815006285009029C
:100BB7000DE1284003020DDEC0E0EB4A7044B98026
:100BC70006D0E0FB020DCDEF4E701CBD8008EBFF99
:100BD700EAFEE9FD80EBE98DF0A4FEE5F0020C707A
:100BE700E9CDF9EAFEEBFFEF89F0A4FCE5F0CE8949
:100BF700F0A42EFFE435F0CD89F0A42DFEE435F006
:100C07008067EF4E7005BD80D780C3EF8BF0A4AC33
:100C1700F0EE8BF0A42CFCE435F0F8EF8AF0A42C6E
:100C2700E5F038FCE433CB8DF0A42CFCE5F03BF881
:100C3700EE8AF0A42CFCE5F038F8E433CF89F0A471
:100C47002CFCE5F038CF3400CE89F0A42FFFE5F077
:100C57003EFEE433C98DF0A42EFEE5F039CD8AF0CF
:100C6700A42FFFE5F03EFEE43DFD33D0E0FB500747
:100C77000BBB000F020DE1EC2CFCEF33FFEE33FE54
:060C8700ED33FD020DB982
:100C8D00020DE1EC5D046005E859047003020DD717
:100C9D00120DA2580460F6EC4860F2EC7004FDFEF3
:100CAD00FF22C860DB2481C85009C398600250063A
:100CBD00020DDE9850CAF582E9294B4A7005AB82C8
:100CCD00020DCD75F0007C1A7880C3EF9BEE9AED86
:100CDD0099400DC3EF9BFFEE9AFEED99FDE842F0B2
:100CED00DC23ACF0D0E0FFD0E0FED0E0FDAB822005
:100CFD00E7101BEB60BAEC2CFCEF33FFEE33FEED8F
:100D0D0033FD020DB9E803F830E705C0F075F000CA
:100D1D00EF2FFFEE33FEED33FD40B830E7C280AA72
:100D2D0075F020800E75F010800575F0087D007E41
:100D3D00007F003392D530D5031213ADEC33401044
:100D4D00EF33FFEE33FEED33FDEC33FCD5F0ED224A
:0E0D5D00E5F0247EA2D513CC92E7CDCEFF2286
:100D6B00EDD2E7CD33EC3392D524814006E4FFFE80
:100D7B00FDFC22FCE4CFCECDCC24E0501174FF80DF
:100D8B00EDC3CC13CCCD13CDCE13CECF13CF04707C
:070D9B00F030D5DE0213ADBC
:1053E100900602E0FFA3E0FEA3E0CF90060BF0A33E
:1053F100EEF0A3EFF0900605E0CBF0A3E0CAF0A336
:10540100E0C9F07F2290060EAD82AC8312118C8D23
:10541100828C83F0A309E970010ADFEC900605E0B4
:0A542100FBA3E0FAA3E0F902157EF8
:100DA200E9D2E7C933E833F892D5EDD2E7CD33EC97
:070DB20033FC5002B2D52210
:100DB900EC30E7100FBF000C0EBE00080DBD00049B
:100DC9000BEB6014A2D5EB13FCED92E7FD2274FF47
:100DD900FCFDFEFF22E480F8A2D574FF13FC7D80A0
:030DE900E480EFB4
:10151900E50E240BF582E43406F583E0050E2290EE
:101529000608300F0390060BE475F00112142F0220
:10153900118C2008E97F2ED2088018EF540F2490CF
:10154900D43440D4FF300C0BEF24BFB41A0050033D
:101559002461FFE50F6002150F0512E512700205FF
:1015690011300F0E900608E475F00112142FEF02E6
:1015790011D20257C07403D20F8003E4C20FF50ED3
:10158900900608121446E4F50FF511F512E50F60FF
:10159900077F2012155C80F57510FFC209C208C2C9
:1015A9000AC20BC20DC20EC210121528FF700D30EF
:1015B9000F057F0012156DAF12AE1122B4255FC25F
:1015C900D5C20C121528FF24D0B40A00501A75F0A0
:1015D9000A780F30D50508B6FF0106C6A426F620FD
:1015E900D5047002D20B80D924CFB41A00EF50046D
:1015F900C2E5D20C02185FD20980C6D20880C0D2D7
:101609000A80BCD2D580BAD20D80B47F2012155C75
:10161900200A077401B50F0040F1121519FF1215C0
:101629005C021596D210D20E8095121519FB12156F
:1016390019FA121519F94A4B7006795D7A197BFF67
:10164900200A2EE50F602A7E008E82758300121112
:10165900A560060EEE651070F0C2D5EBC0E0EAC0D9
:10166900E0E9C0E0EE1218C0D0E0F9D0E0FAD0E02D
:10167900FB12118CFF60AAEBC0E0EAC0E0E9C0E010
:1016890012155CD0E02401F9D0E03400FAD0E0FB77
:10169900E5100460DCD510D98087D20A80A212181F
:1016A900A260F7E510700104120DECA910600DE5B8
:1016B90010600914F51012194AEF60F3EA30E702D5
:1016C900F404C3995079EAF425100430E701E404DD
:1016D900F510800D1218A260C1EA05102510120D2F
:1016E900ECEA900637F030E701E4251004D5100440
:1016F900200D01141218C0E4C0E012194A900637EF
:10170900E0601320E70714F0121544802204F0D09A
:10171900E014C0E07F00121544E510600712153B84
:101729001510800B300D0312153BD0E0021596D031
:10173900E00480C41218A2609EE51004120DEC901A
:101749000637EAF0E510200D02600104240412189E
:01175900C0CF
:10175A0074FF04C0E012194A121544E510200D0264
:10176A00600312153BD0E0B510E87F4512154E9084
:10177A000637E07F2B30E7047F2DF404C0E0121512
:10178A005CD0E075F00A84C0F0121545D0E012155D
:10179A0045021596791080027908C20EC210800897
:1017AA00D2D5790A8004790AC2D5E510047002F507
:1017BA0010E4FAFDFEFF121519FC7B08200913122A
:1017CA001519FD7B1030080A121519FE121519FF9A
:1017DA007B20EC3382D592D55013C3E43008069FA0
:1017EA00FFE49EFEE42009039DFDE49CFCE4CBF8A3
:1017FA00C209EC700CCFCECDCCE824F8F870F38097
:10180A0017C3EF33FFEE33FEED33FDEC33FCEB335E
:10181A00FB994002FB0FD8E9EB300905F8D0E0C488
:10182A0048B209C0E00AEC4D4E4F78207B0070C2E6
:10183A00EAB5100040BCC0E01218C2D0F0D0E020D7
:10184A000904C4C0E0C4B209C0F0121545D0F0D5ED
:10185A00F0EB02159612149F163353179E5816046E
:10186A004C16004217A24F17AA4417AA4916194341
:10187A0017B05516DD46173D4516A747197D501670
:10188A00082D160C2E162F2B161023162D2019662E
:10189A002A15C84800001627E510B4FF037510067C
:1018AA00121519FC121519FD121519FE121519FF38
:1018BA00900630020E29790AA2D5200B14300D09A0
:1018CA00B910020404B9080104A2D5200E0250017D
:1018DA0004200A68920AB50F005034C0E07F203015
:1018EA000B197F30A20A720E720D500F121919C20B
:1018FA000AC20EC20DC2107F30800F300D03E9C03C
:10190A00E012155C300D03D0E0F9D0E0B50FCC3011
:10191A000D177F30B9100C12155C7F58300C077FF9
:10192A00788003B9080312155C300A057F2D021569
:10193A005C7F202010F87F2B200EF322920A80CFA2
:10194A007F00B40700500B2430F582E43406F58397
:10195A00E0FF22286E756C6C2900D2091215193025
:10196A0009F8C209780F30D50108F60215C82D50BA
:10197A004349581215192403B405004001E490198B
:10198A00789312154D743A12154DD20B750F040245
:02199A00179E96
:100DEC00F920E73624F950037907E4F42402FBE5F3
:100DFC0082158270021583DBF6E024FB501BE96040
:100E0C0014E4F0E582158270021583E004F0B40A54
:0D0E1C0008E4F0D9EE7401F00A22C2D522DC
:100E2900ED33EC3392D5FA602AB4FF33EDC2E77B98
:100E3900FF60067A0E794EE4227A0E795720D5049E
:100E49007A0E7952224E614E002B494E46002D49A9
:100E59004E4600E47A08F0A3DAFC7B00740722C04E
:100E690083C082ECC0E0EDC0E0EEC0E0EFC0E0EA94
:100E790075F010A4CAABF075F04DA42BFBE435F066
:100E8900FCEA2410FAEB34C5FBEC34D9FCEDC2E7DB
:100E9900FF75F056A4F42411C5F0F434C58FF0A4FD
:100EA9002AE5F03BE43CF020E714121056D0E0FFAD
:100EB900D0E0FED0E0FDD0E0FC120C908014F404E8
:100EC900121056D0E0FFD0E0FED0E0FDD0E0FC12D9
:100ED9000B87D082D083E0FAEDD2E7CD33EC33240F
:100EE90082FBE4C3CF33CFCE33CECD33CD33DBF367
:100EF9007B0775F00A846004F0A31B0AE5F0F0A3F0
:100F09008FF0740AA4FFACF08EF0740AA42CFEAC26
:100F1900F050010C8DF0740AA42CFDE435F0F0A317
:050F2900DBDE7407226D
:100F2E00020DD7E86480F8E933E83360110460F00D
:100F3E00ED33EC337009E8FCE9FDEAFEEBFF220429
:100F4E0060DED3EB9FEA9EE99DE8C2E78CF0C2F724
:100F5E0095F0400CE8CCF8E9CDF9EACEFAEBCFFBF0
:100F6E00120DA285D0F05804700320D5B3E804709A
:100F7E00075002B2D5020DE192D5EC0460F7E4CC35
:100F8E00C0E0C398F8603B94186008400DD0E0FBB9
:100F9E00020DB9E4FBFAC9FC8028E830E406E4C986
:100FAE00FBE4CAFCE830E305E4C9CACBFCE854070D
:100FBE006010F8C3E913F9EA13FAEB13FBEC13FC18
:100FCE00D8F130F52FC3E49CFCEF9BFFEE9AFEEDBB
:100FDE0099FDD0E0FBEF4E4D4C701222DB03020D5B
:100FEE00DEEC2CFCEF33FFEE33FEED33FDED30E7A0
:100FFE00EB020DB9EF2BFFEE3AFEED39FDD0E0FB23
:10100E0050130BBB0003020DE1ED13FDEE13FEEFCB
:08101E0013FFEC13FC020DB9F5
:101026003F8000004120000042C80000447A0000D2
:10103600461C400047C35000497424004B18968054
:101046004CBEBC205A0E1BCA6753C21C749DC5AE4B
:10105600FB60065407601C2323121084EB5438608F
:101066000912107012107F120B87ECF8EDF9EEFAE8
:10107600EFCB22EB12107F80F1543803241C901022
:1010860026FE93FC0EEE93FD0EEE930ECE93FF22FC
:104A64000229CCE493A3F8E493A34003F68001F273
:104A740008DFF48029E493A3F85407240CC8C33353
:104A8400C4540F4420C8834004F456800146F6DF22
:104A9400E4800B01020408102040809056EBE47E71
:104AA400019360BCA3FF543F30E509541FFEE49317
:104AB400A360010ECF54C025E060A840B8E493A3DE
:104AC400FAE493A3F8E493A3C8C582C8CAC583CA09
:104AD400F0A3C8C582C8CAC583CADFE9DEE780BEC1
:01571900008F
:10109600E709F608DFFA8046E709F208DFFA803E3C
:1010A60088828C83E709F0A3DFFA8032E309F60829
:1010B600DFFA8078E309F208DFFA807088828C8391
:1010C600E309F0A3DFFA806489828A83E0A3F60845
:1010D600DFFA805889828A83E0A3F208DFFA804C1F
:1010E60080D280FA80C680D4806980F280338010F6
:1010F60080A680EA809A80A880DA80E280CA80335F
:1011060089828A83ECFAE493A3C8C582C8CCC583D6
:10111600CCF0A3C8C582C8CCC583CCDFE9DEE780A6
:101126000D89828A83E493A3F608DFF9ECFAA9F025
:10113600EDFB2289828A83ECFAE0A3C8C582C8CC7B
:10114600C583CCF0A3C8C582C8CCC583CCDFEADE94
:10115600E880DB89828A83E493A3F208DFF980CCF6
:1011660088F0EF60010E4E60C388F0ED2402B404EF
:101176000050B9F582EB2402B4040050AF23234596
:0611860082239010E673C5
:10118C00BB010689828A83E0225002E722BBFE0261
:09119C00E32289828A83E4932294
:1011A500BB010CE58229F582E5833AF583E02250FF
:1011B50006E92582F8E622BBFE06E92582F8E22249
:0D11C500E58229F582E5833AF583E4932263
:1011D200BB010689828A83F0225002F722BBFE01FC
:0211E200F322F6
:1011E400F8BB010DE58229F582E5833AF583E8F041
:1011F400225006E92582C8F622BBFE05E92582C8ED
:02120400F222D4
:10120600EF8DF0A4A8F0CF8CF0A428CE8DF0A42EFC
:02121600FE22B6
:10121800C5F0F8A3E028F0C5F0F8E5821582700261
:061228001583E038F022FE
:10122E00A3F8E0C5F025F0F0E58215827002158373
:06123E00E0C838F0E822D0
:10124400BB010A89828A83F0E5F0A3F0225006F7F5
:0F12540009A7F01922BBFE06F3E5F009F31922F2
