:020000040800F2
:1000000010070020A5020008F52A0008192A000898
:10001000F12A0008590500084538000800000000D2
:10002000000000000000000000000000B52C0008E7
:100030005D05000800000000652B00080D2D00087C
:10004000BF020008BF020008BF020008BF0200088C
:10005000BF020008BF020008BF020008BF0200087C
:10006000BF020008BF020008BF020008BF0200086C
:10007000BF020008BF020008BF020008BF0200085C
:10008000BF02000800000000BF020008BF02000815
:10009000BF020008BF020008BF020008BF0200083C
:1000A000BF020008BF020008BF020008BF0200082C
:1000B000BF020008BF020008BF020008BF0200081C
:1000C000BF020008BF020008BF020008BF0200080C
:1000D000BF020008BF02000835380008BF02000850
:1000E000BF020008BF020008BF020008BF020008EC
:1000F000BF020008BF020008BF02000800000000A5
:1001000000000000BF02000800000000BF0200085D
:10011000BF02000800000000BF020008BF02000884
:10012000BF020008BF020008BF020008BF020008AB
:10013000BF0200080000000000000000BF0200082D
:10014000BF020008BF02000800000000000000001D
:10015000000000000000000000000000000000009F
:10016000000000000000000000000000BF020008C6
:10017000BF020008000000000000000000000000B6
:1001800000000000BF0200080000000000000000A6
:10019000000000000000000000000000000000005F
:1001A0000000000000000000BF020008BF020008BD
:1001B000BF020008BF020008BF02000800000000E4
:1001C00000000000BF020008000000000000000066
:1001D000BF020008BF02000800F002F800F052F869
:1001E00014A696E8000CB244B344DA4501D100F0FD
:1001F00049F8BAE80F000FA696E83000A5EB040511
:1002000004EB0607AAEB0704A7F101074FEA15154F
:100210004FEA3414A4F10104AC4201D300F032F8E7
:1002200013F0010F18BFFB1A43F0010300F001F8AF
:10023000DBE718475C5000007C500000103A24BFF8
:1002400078C878C1FAD8520724BF30C830C144BF3B
:1002500004680C6070470000704700000023002411
:1002600000250026103A28BF78C1FBD8520728BFC6
:1002700030C148BF0B6070471FB504F040FF1FBD81
:1002800010B510BD00F0E4F81146FFF7F5FF03F0DC
:100290003BFB00F002F903B4FFF7F2FF03BC00F0F0
:1002A00005F900000948804709480047FEE7FEE7D6
:1002B000FEE7FEE7FEE7FEE7FEE7FEE7FEE7FEE716
:1002C00004480549054A064B70470000892D00087F
:1002D000D9010008100100201007002010030020A1
:1002E0001003002053EA020C00F069802DE9F04B66
:1002F0004FF00006002B1FBFB3FA83F503FA05F495
:1003000024FA05F65E4012BF1643B2FA82F502FAED
:1003100005F4C5F120051EBF22FA05FC44EA0C04D1
:10032000203556EA044C4FEA144418BF641C4FF0C1
:1003300000084FF00009904271EB030C39D30029FB
:1003400019BFB1FA81F701FA07F6B0FA80F700FA9F
:1003500007F6C7F120071EBF20FA07FC46EA0C0685
:100360002037B6FBF4FCA7EB0507103F07F01F0B87
:10037000CBF120062CFA06F60CFA0BFB44BFB34671
:100380000026202FA4BF5E464FF0000B5BEA060C50
:1003900008BF4FF0010B19EB0B0948EB0608ABFB4C
:1003A000027C06FB02CC0BFB03CCC01B71EB0C01E7
:1003B000C1E70B46024641464846BDE8F08B13B5FF
:1003C000084318BF4FF0FF300146AFF30080BDE88F
:1003D0001C4070474FF0000200B513469446964605
:1003E000203922BFA0E80C50A0E80C50B1F1200148
:1003F000BFF4F7AF090728BFA0E80C5048BF0CC0F6
:100400005DF804EB890028BF40F8042B08BF704753
:1004100048BF20F8022B11F0804F18BF00F8012BC5
:10042000704770477047704710B500F009F80068D2
:1004300010BD10B5044600F003F8046010BD0000C4
:10044000004870471000002000487047100000204E
:100450007546FFF7F9FFAE4605006946534620F0A2
:100460000700854618B020B5FFF72AFFBDE82040F9
:100470004FF000064FF000074FF000084FF0000B60
:10048000AC46ACE8C009ACE8C009ACE8C009ACE8CF
:10049000C00921F007018D46704710B50446AFF33F
:1004A00000802046BDE81040FFF7F5BE0149182046
:1004B000ABBEFEE72600020070470000000000000F
:1004C00080B582B08DED010A019804F07DFD41EC0C
:1004D000100B9FED1B1B53EC112B51EC100B04F078
:1004E000BAFD28B9FFE70020C4F234300190FFE7DD
:1004F0009DED010AB1EE041A20EE010A10EE100A79
:1005000004F062FD41EC100B51EC100B9FED0E0B53
:1005100053EC102B04F066F841EC100B51EC100B6F
:100520009FED0B0B53EC102B03F0A8FF41EC100BCD
:1005300003F072FA51EC100B04F0ECF902B080BD3C
:100540000000000000806640000000000000224023
:100550000000000000003940FFE7FEE770470000A0
:1005600081B0EFF3108072B60090FFE7FEE7000065
:1005700082B0019000208DF80300019890F82500CA
:10058000022807D0FFE701990420C86301208DF8F5
:1005900003002DE001980168086820F00E00086053
:1005A0000198816C086820F48070086001980168E7
:1005B000086820F0010008600198016C406C00F0B0
:1005C0001F020120904048600198C16C006D486096
:1005D0000198406D58B1FFE70198416D086820F41B
:1005E000807008600198816DC06D4860FFE7FFE78B
:1005F0000199012081F82500FFE70199002081F889
:100600002400FFE79DF8030002B0704780B582B078
:10061000019000208DF80300019890F82500022831
:1006200011D0FFE701990420C8630199012081F8E6
:100630002500FFE70199002081F82400FFE7012051
:100640008DF803003FE001980168086820F00E0073
:10065000086001980168086820F0010008600198AE
:10066000816C086820F4807008600198016C406C0F
:1006700000F01F020120904048600198C16C006D9D
:1006800048600198406D58B1FFE70198416D0868D6
:1006900020F4807008600198816DC06D4860FFE7AC
:1006A0000199012081F82500FFE70199002081F8D8
:1006B0002400FFE70198806B20B1FFE70198816B70
:1006C0008847FFE7FFE79DF8030002B080BD000008
:1006D00080B584B0039000F0D1F9029003980190A6
:1006E0000198013048B1FFE740F20400C2F2000077
:1006F0000168019808440190FFE7FFE700F0BEF9A8
:100700000299401A0199884201D2FFE7F6E704B046
:1007100080BD00008BB00A90099100200890FFE78F
:10072000099800680899C840002800F0A581FFE7F3
:1007300009980068089A012191400840079007989D
:10074000002800F09581FFE70998406800F0030059
:10075000012807D0FFE70998406800F0030002284D
:100760002FD1FFE70A98806806900898410003207F
:1007700000FA01F10698884306900998C068089924
:10078000490000FA01F106980843069006980A9974
:1007900088600A98406806900899012000FA01F1E3
:1007A00006988843069009984068C0F3001008999D
:1007B00000FA01F106980843069006980A994860E5
:1007C000FFE70998406800F00300032818D0FFE70E
:1007D0000A98C068069008984100032000FA01F1C9
:1007E000069888430690099880680899490000FA9D
:1007F00001F106980843069006980A99C860FFE739
:100800000998406800F00300022826D1FFE70A9803
:1008100008996FF0030202EA51010844006A069049
:10082000089800F0070081000F2000FA01F10698F7
:100830008843069009980069089901F0070189002A
:1008400000FA01F106980843069006980A99089B59
:1008500002EA530211440862FFE70A980068069012
:1008600008984100032000FA01F106988843069099
:100870000998406800F003000899490000FA01F166
:1008800006980843069006980A99086009988079A6
:100890008007002800F0EB80FFE7FFE741F26000EF
:1008A000C4F20200016841F001010160006800F03B
:1008B000010005900598FFE7089820F00300082143
:1008C000C4F2010140580690089800F0030081002E
:1008D0000F2000FA01F10698884306900A98B0F1BB
:1008E000904F03D1FFE70020049042E00A9840F2C5
:1008F0000041C4F60001884203D1FFE701200390C4
:1009000034E00A9840F60001C4F60001884203D1A1
:10091000FFE70220029026E00A9840F60041C4F664
:100920000001884203D1FFE70320019018E00A98F4
:1009300041F20001C4F60001884203D1FFE7042020
:1009400000900AE00A9941F20042C4F60002062033
:10095000914208BF05200090FFE700980190FFE753
:1009600001980290FFE702980390FFE70398049034
:10097000FFE70498089901F00301890000FA01F1EA
:100980000698084306900698089921F0030108226A
:10099000C4F20102885040F20840C4F2010000682D
:1009A0000690079906988843069009988079C006B2
:1009B000002805D5FFE70799069808430690FFE74A
:1009C000069840F20841C4F20101086040F20C4070
:1009D000C4F20100006806900799069888430690C3
:1009E000099880798006002805D5FFE707990698C1
:1009F00008430690FFE7069840F20C41C4F201015B
:100A0000086040F20440C4F20100006806900799B3
:100A1000069888430690099880798007002805D5B4
:100A2000FFE70799069808430690FFE7069840F20B
:100A30000441C4F20101086040F20040C4F2010028
:100A4000006806900799069888430690099880796F
:100A5000C00728B1FFE70799069808430690FFE70B
:100A6000069840F20041C4F201010860FFE7FFE789
:100A700008980130089053E60BB0704740F20C1014
:100A8000C2F200000068704740F20400C2F20000A9
:100A9000026840F20C11C2F20001086810440860BC
:100AA0007047000080B582B000208DF80700032059
:100AB00000F09AF80F2000F00DF820B1FFE70120B8
:100AC0008DF8070002E000F049F8FFE79DF8070005
:100AD00002B080BD80B582B0019000208DF8030087
:100AE00040F20400C2F20000006878B3FFE740F271
:100AF0000000C2F20000006840F20401C2F20001EE
:100B00000A684FF47A71B1FBF2F1B0FBF1F001F039
:100B1000A1F9B0B9FFE701980F280DD8FFE70199B7
:100B20004FF0FF30002200F047F8019840F2080132
:100B3000C2F20001086003E001208DF80300FFE726
:100B400003E001208DF80300FFE703E001208DF8AA
:100B50000300FFE79DF8030002B080BD80B582B0BE
:100B6000FFE741F26000C4F20200016841F00101B8
:100B70000160006800F0010001900198FFE7FFE7C5
:100B800041F25800C4F20200016841F08051016056
:100B9000006800F0805000900098FFE700F006F930
:100BA00002B080BD80B582B08DF807009DF90700C6
:100BB00002F04AFE02B080BD80B586B08DF8170005
:100BC0000491039202F058FE02909DF917000190E3
:100BD00002980499039A01F08FFF0146019802F0F0
:100BE00053FE06B080BD000080B582B00190019830
:100BF00002F06CFE02B080BD85B00390039800281F
:100C00005ED1FFE747F20000C4F20000006800F484
:100C1000C060B0F5806F49D1FFE747F28001C4F2B0
:100C20000001086820F48070086047F20002C4F2F6
:100C300000021168012060F34A21116040F20001B6
:100C4000C2F200010968322251434DF68362C4F2B8
:100C50001B32A1FB022100EB91400290FFE747F21B
:100C60001400C4F200000168002049050029019029
:100C700006D5FFE70298002818BF01200190FFE782
:100C80000198C00720B1FFE7029801380290E6E71B
:100C900047F21400C4F2000000684005002804D5A3
:100CA000FFE703208DF813007CE008E047F28001A5
:100CB000C4F20001086820F480700860FFE76DE06E
:100CC0000398B0F5007F5ED1FFE747F20000C4F261
:100CD0000000006800F4C060B0F5806F49D1FFE704
:100CE00047F28001C4F20001086840F48070086097
:100CF00047F20002C4F200021168012060F34A21A9
:100D0000116040F20001C2F2000109683222514331
:100D10004DF68362C4F21B32A1FB022100EB91402D
:100D20000290FFE747F21400C4F2000001680020BF
:100D300049050029009006D5FFE70298002818BF52
:100D400001200090FFE70098C00720B1FFE702985C
:100D500001380290E6E747F21400C4F20000006890
:100D60004005002804D5FFE703208DF8130019E0A3
:100D700008E047F28001C4F20001086840F4807086
:100D80000860FFE709E047F20001C4F200010868CB
:100D9000022262F34A200860FFE7FFE700208DF897
:100DA0001300FFE79DF8130005B0704747F20801F4
:100DB000C4F20001086840F48040086070470000F9
:100DC00080B586B0059000208DF80B008DF80A00E4
:100DD000059880780007002840F1B580FFE70020E3
:100DE0008DF8090041F25800C4F202000068C0000A
:100DF000002813D4FFE7FFE741F25800C4F20200D5
:100E0000016841F080510160006800F0805001905D
:100E10000198FFE701208DF80900FFE747F2000184
:100E2000C4F20001086840F480700860FFF726FEF5
:100E30000390FFE747F20000C4F200000068C0051D
:100E400000280CD4FFE7FFF719FE0399401A032886
:100E500004D3FFE703208DF80B0000E0EAE79DF8DC
:100E60000B0000285BD1FFE741F29000C4F20200C2
:100E7000006800F4407004900498C8B1FFE704983B
:100E80000599096C884213D0FFE741F29001C4F242
:100E90000201086820F440700490086840F4803033
:100EA0000860086820F48030086004980860FFE754
:100EB0009DF81000C007E0B1FFE7FFF7DFFD0390EA
:100EC000FFE741F29000C4F20200006880070028AA
:100ED0000ED4FFE7FFF7D2FD0399401A41F28931A2
:100EE000884204D3FFE703208DF80B0000E0E8E719
:100EF000FFE79DF80B0060B9FFE741F29001C4F2F3
:100F00000201086820F44070059A126C10430860D2
:100F100004E09DF80B008DF80A00FFE704E09DF85F
:100F20000B008DF80A00FFE79DF80900012809D1A0
:100F3000FFE741F25801C4F20201086820F0805036
:100F40000860FFE7FFE705980078C00760B1FFE79A
:100F500041F28801C4F20201086820F00300059AFA
:100F6000526810430860FFE7059800788007002862
:100F70000CD5FFE741F28801C4F20201086820F0B5
:100F80000C00059A926810430860FFE70598007806
:100F9000400700280CD5FFE741F28801C4F20201A6
:100FA000086820F03000059AD26810430860FFE717
:100FB00005980078000700280CD5FFE741F288016A
:100FC000C4F20201086820F0C000059A12691043BB
:100FD0000860FFE705980078800600280CD5FFE739
:100FE00041F28801C4F20201086820F44060059AC9
:100FF000526910430860FFE7059800784006002812
:101000000CD5FFE741F28801C4F20201086820F420
:101010004050059A926910430860FFE705980078F0
:10102000000600280CD5FFE741F28801C4F2020156
:10103000086820F44040059AD26910430860FFE731
:1010400005984078C00760B1FFE741F28801C4F21B
:101050000201086820F44030059A126A10430860C3
:10106000FFE705984078800700280CD5FFE741F29C
:101070008801C4F20201086820F44020059A526AEF
:1010800010430860FFE705984078400700281BD50B
:10109000FFE741F28801C4F20201086820F4401021
:1010A000059A926A104308600598806AB0F5801F1F
:1010B00009D1FFE741F20C01C4F20201086840F4D3
:1010C00080100860FFE7FFE70598407800070028D8
:1010D0001BD5FFE741F28801C4F20201086820F441
:1010E0004000059AD26A104308600598C06AB0F5BE
:1010F000800F09D1FFE741F20C01C4F20201086838
:1011000040F480100860FFE7FFE705984078C006CC
:1011100000281BD5FFE741F28801C4F202010868EC
:1011200020F04070059A126B104308600598006B20
:10113000B0F1807F09D1FFE741F20C01C4F2020156
:10114000086840F480100860FFE7FFE705984078E2
:10115000800600281BD5FFE741F28801C4F2020196
:10116000086820F04060059A526B104308600598AB
:10117000406BB0F1006F09D1FFE741F20C01C4F2FE
:101180000201086840F480100860FFE7FFE7059857
:101190004078400600281BD5FFE741F28801C4F2E1
:1011A0000201086820F04060059A926B10430860C5
:1011B0000598806BB0F1006F09D1FFE741F20C0197
:1011C000C4F20201086840F480100860FFE7FFE7FE
:1011D00005984078000600281BD5FFE741F28801FA
:1011E000C4F20201086820F04050059AD26B104307
:1011F00008600598C06BB0F1805F09D1FFE741F24C
:101200000C01C4F20201086840F480300860FFE776
:10121000FFE79DF80A0006B080BD000080B586B0EB
:101220000490039100200090049820B9FFE701206A
:101230008DF8170081E1039842F20001C4F2020127
:10124000096801F00F01884216D9FFE742F2000059
:10125000C4F20200016821F00F01039A11430160FA
:10126000006800F00F000399884204D0FFE70120D6
:101270008DF8170061E1FFE704980078C0070028A7
:1012800000F0A380FFE704984068032839D1FFE706
:1012900041F20000C4F2020000688001002804D47A
:1012A000FFE701208DF8170047E101F05DFC019098
:1012B00001984BF20141C0F2C441884220D3FFE7BC
:1012C00041F20800C4F20200006810F0F00F0AD0EA
:1012D000FFE7049800788007002810D5FFE70498FE
:1012E000806860B9FFE741F20801C4F202010868B2
:1012F000082262F30710086080200090FFE7FFE7F4
:1013000038E00498406802280ED1FFE741F200005F
:10131000C4F2020000688003002804D4FFE7012023
:101320008DF8170009E10DE041F20000C4F202005F
:1013300000684005002804D4FFE701208DF817005D
:10134000FBE0FFE700F02CF9019001984BF201411E
:10135000C0F2C44188420CD3FFE741F20801C4F255
:1013600002010868082262F30710086080200090DC
:10137000FFE7FFE741F20801C4F20201086820F02C
:101380000300049A526810430860FFF777FB02904D
:10139000FFE741F20800C4F20200006800F00C0010
:1013A00004994968B0EB810F0ED0FFE7FFF766FBA9
:1013B0000299401A41F28931884204D3FFE70320A1
:1013C0008DF81700B9E0E4E7FFE70498007880079C
:1013D00000282CD5FFE7049800784007002809D59D
:1013E000FFE741F20801C4F20201086840F4E0603E
:1013F0000860FFE704980078000700280BD5FFE796
:1014000041F20801C4F20201086840F4E06020F4EF
:1014100060500860FFE741F20801C4F20201086869
:1014200020F0F000049A9268104308600DE00098E4
:10143000802809D1FFE741F20801C4F202010868DF
:1014400020F0F0000860FFE7FFE7039842F2000198
:10145000C4F20201096801F00F01884228D2FFE7B7
:1014600042F20001C4F20201086820F00F00039A62
:1014700010430860FFF702FB0290FFE742F2000012
:10148000C4F20200006800F00F00039988420ED0F9
:10149000FFE7FFF7F3FA0299401A41F289318842D7
:1014A00004D3FFE703208DF8170046E0E6E7FFE7E7
:1014B00004980078400700280CD5FFE741F20801A6
:1014C000C4F20201086820F4E060049AD268104374
:1014D0000860FFE704980078000700280DD5FFE7B3
:1014E00041F20801C4F20201086820F46050049A35
:1014F000126940EAC2000860FFE700F051F841F2CB
:101500000801C4F202010968C9B20A0945F2502172
:10151000C0F60001895C01F01F01C84040F20001E3
:10152000C2F20001086040F20800C2F20000006848
:10153000FFF7D0FA8DF81700FFE79DF8170006B007
:1015400080BD000040F20000C2F200000068704759
:1015500080B5FFF7F7FF41F20801C4F20201096804
:10156000C1F3022245F26021C0F60001895C01F05E
:101570001F01C84080BD000080B5FFF7E3FF41F2C6
:101580000801C4F202010968C1F3C22245F26021D8
:10159000C0F60001895C01F01F01C84080BD000059
:1015A00086B041F20800C4F20200006800F00C00AE
:1015B000042806D1FFE742F20040C0F2F400019097
:1015C00069E041F20800C4F20200006800F00C007B
:1015D000082806D1FFE743F20060C0F26E100190C8
:1015E00058E041F20800C4F20200006800F00C006C
:1015F0000C284BD1FFE741F20C00C4F20200016855
:1016000001F0030104910068C1B2012000EB111048
:10161000029004980090022815D0FFE70098032854
:1016200012D1FFE7029943F20060C0F26E10B0FBE6
:10163000F1F041F20C01C4F202010968C1F3062184
:101640004843059011E0FFE7029942F20040C0F2E2
:10165000F400B0FBF1F041F20C01C4F202010968A0
:10166000C1F3062148430590FFE741F20C00C4F2A4
:101670000200006800F0C061022000EB11600390DE
:1016800005980399B0FBF1F0019002E00020019071
:10169000FFE7FFE7FFE7019806B07047B0B588B0F5
:1016A0000690069820B9FFE701208DF81F00CCE3D3
:1016B00006980078C007002800F09B80FFE741F201
:1016C0000800C4F20200006800F00C00049041F22F
:1016D0000C00C4F20200006800F0030003900498BC
:1016E0000C2804D1FFE70398032804D0FFE70498EF
:1016F000082812D1FFE741F20000C4F2020000689E
:101700008003002808D5FFE70698406820B9FFE766
:1017100001208DF81F0098E36AE0FFE70698406813
:10172000B0F5803F09D1FFE741F20001C4F20201A8
:10173000086840F48030086020E006984068B0F502
:10174000A02F0DD1FFE741F20001C4F202010868A9
:1017500040F480200860086840F4803008600CE0A5
:1017600041F20001C4F20201086820F480300860F0
:10177000086820F480200860FFE7FFE7FFE706988D
:101780004068D0B1FFE7FFF779F90590FFE741F234
:101790000000C4F202000068800300280CD4FFE7B8
:1017A000FFF76CF90599401A652804D3FFE7032079
:1017B0008DF81F0049E3EAE719E0FFF75FF90590AC
:1017C000FFE741F20000C4F2020000688003002835
:1017D0000CD5FFE7FFF752F90599401A652804D3A5
:1017E000FFE703208DF81F002FE3EAE7FFE7FFE79D
:1017F000FFE7069800788007002840F19F80FFE708
:1018000041F20800C4F20200006800F00C000490ED
:1018100041F20C00C4F20200006800F003000390E3
:1018200004980C2804D1FFE70398022804D0FFE7AE
:10183000049804282CD1FFE741F20000C4F2020012
:1018400000684005002808D5FFE70698C06820B961
:10185000FFE701208DF81F00F7E241F20401C4F216
:101860000201086820F0FE40069A126940EA026010
:10187000086040F20800C2F200000068FFF72AF991
:1018800020B1FFE701208DF81F00DEE2FFE754E002
:101890000698C06870B3FFE741F20001C4F202018C
:1018A000086840F480700860FFF7E8F80590FFE7EB
:1018B00041F20000C4F202000068400500280CD488
:1018C000FFE7FFF7DBF80599401A032804D3FFE789
:1018D00003208DF81F00B8E2EAE741F20401C4F2E8
:1018E0000201086820F0FE40069A126940EA026090
:1018F000086021E041F20001C4F20201086820F40E
:1019000080700860FFF7BAF80590FFE741F2000029
:10191000C4F202000068400500280CD5FFE7FFF77D
:10192000ADF80599401A032804D3FFE703208DF88A
:101930001F008AE2EAE7FFE7FFE7FFE70698007883
:101940000007002849D5FFE70698406910B3FFE774
:1019500041F29401C4F20201086840F001000860FD
:10196000FFF78CF80590FFE741F29400C4F2020003
:101970000068800700280CD4FFE7FFF77FF805997F
:10198000401A032804D3FFE703208DF81F005CE210
:10199000EAE721E041F29401C4F20201086820F074
:1019A00001000860FFF76AF80590FFE741F2940034
:1019B000C4F202000068800700280CD5FFE7FFF79B
:1019C0005DF80599401A032804D3FFE703208DF83A
:1019D0001F003AE2EAE7FFE7FFE7069800784007D2
:1019E000002840F1C680FFE700208DF80B0041F28F
:1019F0005800C4F202000068C000002813D4FFE7BA
:101A0000FFE741F25800C4F20200016841F0805142
:101A10000160006800F0805001900198FFE701200C
:101A20008DF80B00FFE747F20000C4F200000068E9
:101A3000C005002822D4FFE747F20001C4F20001EC
:101A4000086840F480700860FFF718F80590FFE719
:101A500047F20000C4F200000068C00500280CD462
:101A6000FFE7FFF70BF80599401A032804D3FFE7B7
:101A700003208DF81F00E8E1EAE7FFE7FFE706989B
:101A80008068012809D1FFE741F29001C4F2020108
:101A9000086840F0010008601FE00698806805288B
:101AA0000DD1FFE741F29001C4F20201086840F055
:101AB00004000860086840F0010008600CE041F292
:101AC0009001C4F20201086820F001000860086873
:101AD00020F004000860FFE7FFE7FFE70698806852
:101AE000E0B1FFE7FEF7CAFF0590FFE741F2900083
:101AF000C4F202000068800700280ED4FFE7FEF75A
:101B0000BDFF0599401A41F28931884204D3FFE7AD
:101B100003208DF81F0098E1E8E71BE0FEF7AEFF19
:101B20000590FFE741F29000C4F2020000688007D0
:101B300000280ED5FFE7FEF7A1FF0599401A41F2F4
:101B40008931884204D3FFE703208DF81F007CE130
:101B5000E8E7FFE79DF80B00012809D1FFE741F214
:101B60005801C4F20201086820F080500860FFE7C5
:101B7000FFE7069800788006002849D5FFE7069819
:101B8000806910B3FFE741F29801C4F202010868CE
:101B900040F001000860FEF771FF0590FFE741F299
:101BA0009800C4F202000068800700280CD4FFE708
:101BB000FEF764FF0599401A032804D3FFE70320CA
:101BC0008DF81F0041E1EAE721E041F29801C4F2FB
:101BD0000201086820F001000860FEF74FFF059041
:101BE000FFE741F29800C4F2020000688007002875
:101BF0000CD5FFE7FEF742FF0599401A032804D3EE
:101C0000FFE703208DF81F001FE1EAE7FFE7FFE78A
:101C10000698C069002800F01481FFE741F208002F
:101C2000C4F20200006800F00C000C2800F0B08044
:101C3000FFE70698C06902287CD1FFE741F2000166
:101C4000C4F20201086820F080700860FEF716FFF9
:101C50000590FFE741F20000C4F202000068800135
:101C600000280CD5FFE7FEF709FF0599401A032865
:101C700004D3FFE703208DF81F00E6E0EAE741F216
:101C80000C01C4F20201086848F20C02C0F29F1273
:101C90001040DDF818C0DCF82020DCF82450DCF817
:101CA00028E0DCF82C306FF00F0404EB051422431D
:101CB00042EA0E22DCF8304040F2000ECFF6E07E21
:101CC0000EEA045EAEF5001E42EA0E02DCF834E0D5
:101CD0004FF07E4C0CEA0E6C0CF17E4C42EA0C028A
:101CE00042EAC3621043086041F20002C4F20202F9
:101CF000106840F080701060086840F080700860E4
:101D0000FEF7BCFE0590FFE741F20000C4F20200BE
:101D10000068800100280CD4FFE7FEF7AFFE0599AC
:101D2000401A032804D3FFE703208DF81F008CE03E
:101D3000EAE72CE041F20001C4F20201086820F059
:101D400080700860FEF79AFE0590FFE741F2000000
:101D5000C4F202000068800100280CD5FFE7FEF7FE
:101D60008DFE0599401A032804D3FFE703208DF860
:101D70001F006AE0EAE741F20C01C4F202010868C0
:101D80004FF6FC72CFF6EE6210400860FFE757E0B6
:101D90000698C069012804D1FFE701208DF81F00D3
:101DA00053E041F20C00C4F2020000680390039873
:101DB00000F003000699096A88423BD1FFE70398C7
:101DC00000F0F00006994A6A6FF00F0101EB021172
:101DD00088422FD1FFE7039800F4FE400699896AF4
:101DE000B0EB012F26D1FFE7039800F07840069969
:101DF000C96AB0EBC16F1DD1FFE7039800F4C000C2
:101E000006990A6B0021CFF6E07101EA0251A1F5B3
:101E1000001188420ED1FFE7039800F0C0600699D8
:101E20004A6B4FF07E4101EA026101F17E41884236
:101E300004D0FFE701208DF81F0006E0FFE7FFE771
:101E4000FFE700208DF81F00FFE79DF81F0008B096
:101E5000B0BD000080B582B00190019800F02CFF69
:101E600002B080BD83B00190FFE7019890F8840034
:101E7000012804D1FFE702208DF80B002CE0019926
:101E8000012081F88400FFE7FFE701992420C1F8D1
:101E9000880001980068006800900198016808684F
:101EA00020F001000860009820F000500090019997
:101EB000002048660098019909680860019920206F
:101EC000C1F88800FFE70199002081F88400FFE74E
:101ED00000208DF80B00FFE79DF80B0003B0704762
:101EE00082B00190ADF8021002B0704781B000904E
:101EF00001B0704780B584B002900191FFE702986D
:101F000090F88400012804D1FFE702208DF80F002B
:101F100032E00299012081F88400FFE7FFE702998F
:101F20002420C1F888000298006800680090029898
:101F30000168086820F00100086002980068806865
:101F400020F060600199084302990968886002984E
:101F500000F024FF00980299096808600299202087
:101F6000C1F88800FFE70299002081F88400FFE7AC
:101F700000208DF80F00FFE79DF80F0004B080BD32
:101F800080B584B002900191FFE7029890F8840038
:101F9000012804D1FFE702208DF80F0032E00299FA
:101FA000012081F88400FFE7FFE702992420C1F8AF
:101FB000880002980068006800900298016808682C
:101FC00020F00100086002980068806820F06040FE
:101FD00001990843029909688860029800F0DEFEC2
:101FE000009802990968086002992020C1F88800C9
:101FF000FFE70299002081F88400FFE700208DF8B8
:102000000F00FFE79DF80F0004B080BD81B0009085
:1020100001B0704781B0009001B0704781B000906E
:1020200001B0704780B590B00F900F980068C069FC
:102030000E900F98006800680D900F9800688068F7
:102040000C900E9840F60F0108400B900B98E0B9E9
:10205000FFE79DF838008006002815D5FFE79DF8BA
:1020600034008006002806D4FFE79DF83300C00640
:10207000002809D5FFE70F98406F20B1FFE70F98C0
:10208000416F8847FFE796E2FFE70B98002800F0D2
:102090000C81FFE70C980121C1F20001084209D12F
:1020A000FFE70D9840F22011C0F20041084200F015
:1020B000FC80FFE79DF83800C00788B1FFE79DF876
:1020C0003500C00760B1FFE70F9801680120086282
:1020D0000F99D1F8900040F00100C1F89000FFE79F
:1020E0009DF838008007002811D5FFE79DF83000E3
:1020F000C00760B1FFE70F980168022008620F99DE
:10210000D1F8900040F00400C1F89000FFE79DF87E
:1021100038004007002811D5FFE79DF83000C007C0
:1021200060B1FFE70F980168042008620F99D1F8A9
:10213000900040F00200C1F89000FFE79DF83800E1
:102140000007002819D5FFE79DF834008006002815
:1021500007D4FFE70C980121C1F2000108420CD01E
:10216000FFE70F980168082008620F99D1F89000E6
:1021700040F00800C1F89000FFE79DF83900000723
:10218000002813D5FFE79DF83700400700280DD53C
:10219000FFE70F9801684FF4006008620F99D1F8CB
:1021A000900040F02000C1F89000FFE70F98D0F8B1
:1021B0009000002878D0FFE79DF8380080060028BE
:1021C00015D5FFE79DF834008006002806D4FFE708
:1021D0009DF83300C006002809D5FFE70F98406F2F
:1021E00020B1FFE70F98416F8847FFE7FFE70F989F
:1021F000D0F890000A900F980068806800F04000C6
:10220000402806D0FFE79DF8280010F0280F42D0A4
:10221000FFE70F9800F05EFF0F98006880684006A7
:10222000002833D5FFE7FFE7FFE70F98006850E885
:10223000020F20F040000990FFE709990F9802680B
:1022400042E802100028F0D1FFE7FFE70F98D0F82E
:102250008000B0B1FFE70F98D0F8801043F2B500CE
:10226000C0F6000088630F98D0F88000FEF7CEF922
:1022700030B1FFE70F98D0F88000816B8847FFE707
:1022800003E00F98FFF7CAFEFFE703E00F98FFF7A0
:10229000C5FEFFE707E00F98FFF7C0FE0F9900208B
:1022A000C1F89000FFE7FFE785E10F98C06E0128B5
:1022B00040F02281FFE79DF83800C006002840F179
:1022C0001B81FFE79DF83400C006002840F114810F
:1022D000FFE70F980168102008620F980068806877
:1022E0004006002840F1A680FFE70F98D0F8800054
:1022F00000684068ADF82200BDF8220000287CD0BC
:10230000FFE7BDF822000F99B1F85C10884274DA3B
:10231000FFE7BDF822000F99A1F85E000F98D0F8F2
:102320008000006800688006002859D4FFE7FFE7B6
:10233000FFE70F98006850E8000F20F480700790C6
:10234000FFE707990F98026842E800100028F0D1D3
:10235000FFE7FFE7FFE7FFE70F98006850E8020F8D
:1023600020F001000690FFE706990F98026842E806
:1023700002100028F0D1FFE7FFE7FFE7FFE70F9823
:10238000006850E8020F20F040000590FFE7059933
:102390000F98026842E802100028F0D1FFE7FFE73B
:1023A0000F992020C1F88C000F990020C866FFE724
:1023B000FFE70F98006850E8000F20F0100004902D
:1023C000FFE704990F98026842E800100028F0D156
:1023D000FFE7FFE70F98D0F88000FEF7C9F8FFE7A6
:1023E0000F99022008670F98B0F85C10B0F85E20D3
:1023F000891A89B2FFF774FD1BE0BDF822000F991E
:10240000B1F85C10884213D1FFE70F98D0F8800034
:10241000006800688006002809D5FFE70F990220B0
:1024200008670F98B0F85C10FFF75AFDFFE7FFE769
:10243000FFE7C0E00F99B1F85C00B1F85E10401AF8
:10244000ADF80E000F98B0F85E00002853D0FFE7FB
:10245000BDF80E0000284ED0FFE7FFE7FFE70F981A
:10246000006850E8000F20F490700290FFE7029996
:102470000F98026842E800100028F0D1FFE7FFE75C
:10248000FFE7FFE70F98006850E8020F4FF6FE7174
:10249000CEF6FF7108400190FFE701990F9802689E
:1024A00042E802100028EDD1FFE7FFE70F99202056
:1024B000C1F88C000F990020C8660F994867FFE7A4
:1024C000FFE70F98006850E8000F20F01000009020
:1024D000FFE700990F98026842E800100028F0D149
:1024E000FFE7FFE70F99022008670F98BDF80E106D
:1024F000FFF7F6FCFFE75EE09DF83A00C006002813
:102500000FD5FFE79DF832004006002809D5FFE708
:102510000F9801684FF4801008620F98FFF77AFD5A
:1025200049E09DF838000006002815D5FFE79DF822
:1025300034000006002806D4FFE79DF832000006AC
:10254000002809D5FFE70F98806F20B1FFE70F98AB
:10255000816F8847FFE72EE09DF83800400600288D
:102560000AD5FFE79DF834004006002804D5FFE7B0
:102570000F9800F0FFFD1EE09DF83A0000060028CD
:102580000AD5FFE79DF837004006002804D5FFE78D
:102590000F98FFF73BFD0EE09DF83B00C00750B1E0
:1025A000FFE79DF837000006002804D5FFE70F98E5
:1025B000FFF79CFCFFE710B080BD000080B582B043
:1025C0000090009820B9FFE701208DF8070046E051
:1025D0000098806908B1FFE700E0FFE70098D0F8B5
:1025E000880040B9FFE70099002081F88400009836
:1025F00000F03AF8FFE700992420C1F8880000981D
:102600000168086820F0010008600098806A20B125
:10261000FFE7009800F006FCFFE7009800F0CCFD13
:10262000012804D1FFE701208DF8070017E000988A
:102630000168486820F49040486000980168886804
:1026400020F02A00886000980168086840F00100C6
:102650000860009800F08AFC8DF80700FFE79DF8FD
:10266000070002B080BD000080B59CB01B90002028
:102670001A90199018901790169005A84421FDF70C
:10268000A9FE1B98006844F20041C4F20001884290
:1026900043D1FFE7022005900020079005A8FEF730
:1026A0008FFB18B1FFE7FDF75BFFFFE7FFE741F2A4
:1026B0005800C4F20200016841F400310160006872
:1026C00000F4003004900498FFE7FFE741F24C006B
:1026D000C4F20200016841F001010160006800F0ED
:1026E000010003900398FFE70C201690022017903A
:1026F000002001901890199007201A904FF09040F8
:1027000016A9FEF707F8019A262002901146FEF757
:1027100053FA0298FEF746FAFFE71CB080BD0000AE
:1027200080B58AB008900791ADF81A2005930898F3
:10273000D0F88C00202840F0C680FFE7079820B131
:10274000FFE7BDF81A0020B9FFE701208DF8270048
:10275000BDE008990020C1F89000089A2221C2F833
:102760008C100899C866FEF789F90190BDF81A0027
:102770000899A1F85C00BDF81A000899A1F85E005C
:10278000FFE708988068B0F5805F10D1FFE70898F0
:10279000006930B9FFE7089940F2FF10A1F8600026
:1027A00004E00899FF20A1F86000FFE72EE00898F8
:1027B000806878B9FFE70898006928B9FFE70899A9
:1027C000FF20A1F8600004E008997F20A1F86000D4
:1027D000FFE71AE008988068B0F1805F0FD1FFE74B
:1027E0000898006928B9FFE708997F20A1F86000E0
:1027F00004E008993F20A1F86000FFE704E0089991
:102800000020A1F86000FFE7FFE7FFE7FFE7089877
:10281000B0F86000ADF80A0008988068B0F5805FF5
:1028200009D1FFE70898006928B9FFE70020049064
:102830000798039004E00798049000200390FFE7B6
:10284000FFE70898B0F85E00A8B3FFE70898019B7F
:1028500005996A4611602021002200F065FF40B111
:10286000FFE708992020C1F88C0003208DF827008D
:102870002DE0049860B9FFE708980068406ABDF849
:102880000A100840039908800398023003900BE077
:1028900008980068406A9DF80A100840049908707A
:1028A000049801300490FFE70899B1F85E00013800
:1028B000A1F85E00C5E708992020C1F88C0000202F
:1028C0008DF8270003E002208DF82700FFE79DF830
:1028D00027000AB080BD000080B58AB0089007913B
:1028E000ADF81A2005930898D0F88800202840F009
:1028F0008780FFE7079820B1FFE7BDF81A0020B9ED
:10290000FFE701208DF827007EE008990020C1F83C
:10291000900008992120C1F88800FEF7AFF80290D6
:10292000BDF81A000899A1F85400BDF81A000899DA
:10293000A1F8560008988068B0F5805F09D1FFE7DC
:102940000898006928B9FFE70020049007980390D1
:1029500004E00798049000200390FFE7FFE7089841
:10296000B0F8560088B3FFE70898029B05996A46BD
:1029700011608021002200F0D7FE40B1FFE70899E6
:102980002020C1F8880003208DF827003CE004983F
:1029900058B9FFE7039800886FF35F20089909682A
:1029A000886203980230039008E004980078089940
:1029B00009688862049801300490FFE70899B1F82B
:1029C00056000138A1F85600C9E70898029B0599FE
:1029D0006A4611604021002200F0A6FE40B1FFE7E8
:1029E00008992020C1F8880003208DF827000BE00B
:1029F00008992020C1F8880000208DF8270003E006
:102A000002208DF82700FFE79DF827000AB080BD5F
:102A100081B0009001B07047FFE7FEE782B0FFE7AA
:102A200041F24C00C4F20200016841F02001016053
:102A3000006800F0200001900198FFE7FFE741F2F5
:102A40004C00C4F20200016841F00101016000681D
:102A500000F0010000900098FFE702B0704700000E
:102A600080B582B040F27800C2F20000009044F2DB
:102A70000041C4F2000101604FF4E12141600021F6
:102A800001918160C16001610C2242618161C1617B
:102A9000016241628162FFF791FD18B1FFE7FDF726
:102AA0005FFDFFE740F27800C2F200000021FFF76F
:102AB00067FA18B1FFE7FDF753FDFFE740F2780032
:102AC000C2F200000021FFF715FA18B1FFE7FDF789
:102AD00047FDFFE740F27800C2F20000FFF7C2F9BD
:102AE00018B1FFE7FDF73CFDFFE702B080BD000035
:102AF000FFE7FEE7FFE7FEE788B007900691059243
:102B0000079800F0070004900498C0F1070005281A
:102B100003D3FFE70420019004E00498C0F107000C
:102B20000190FFE70198039004980430062803D829
:102B3000FFE70020009003E0049803380090FFE7CF
:102B40000098029006980399012202FA01F10139D6
:102B50000840029B984005999A40013A1140084369
:102B600008B070477047000086B041F20C00C4F214
:102B70000200016801F0030104910068C1B2012064
:102B800000EB1110029004980090022815D0FFE786
:102B90000098032812D1FFE7029943F20060C0F2C7
:102BA0006E10B0FBF1F041F20C01C4F202010968B1
:102BB000C1F306214843059011E0FFE7029942F274
:102BC0000040C0F2F400B0FBF1F041F20C01C4F29D
:102BD00002010968C1F3062148430590FFE741F26D
:102BE0000C00C4F20200006800F0C061022000EB9B
:102BF0001160039005980399B0FBF1F001900198E2
:102C000006B0704780B586B08DF81600ADF8141088
:102C10000020ADF810000390ADF80A00AA218DF84D
:102C20000C108DF80D009DF816008DF80E009DF823
:102C300015008DF80F00BDF81400C1B2ADF81410E6
:102C40008DF810009DF80C009DF80D309DF80E20B9
:102C50009DF80F101844104408449DF810100844C3
:102C60008DF8110040F27800C2F20000019003A933
:102C700006220523FFF730FE01980DF10A0102221A
:102C80000A23FFF74DFD9DF80A00452809D1FFE70B
:102C90009DF80B00522804D1FFE700208DF81700A3
:102CA00003E001208DF81700FFE79DF8170006B03C
:102CB00080BD00007047000080B582B00090009891
:102CC0000138B0F1807F03D3FFE70120019019E0C4
:102CD000009801384EF21401CEF2000108604FF066
:102CE000FF300F2100F0D0FD4EF21801CEF20001AE
:102CF000002008604EF21002CEF20002072111609F
:102D00000190FFE7019802B080BD000080B5FDF79B
:102D1000BBFE80BD80B594B006A800903821FDF7B9
:102D200059FB002005900490039002900190FDF75C
:102D300063FF0098022106914FF4807209924022AD
:102D40000A920D910E9104220F9255221092119128
:102D500012911391FEF7A2FC18B1FFE7FDF700FCFA
:102D6000FFE70F20019003200290002003900490C1
:102D7000059001A80421FEF751FA18B1FFE7FDF70D
:102D8000EFFBFFE714B080BD4EF68851CEF2000194
:102D9000086840F4700008607047000082B001903D
:102DA0000198406E40B9FFE701990120A1F86A003F
:102DB0000199A1F8680032E008208DF803008DF831
:102DC0000200019800688068C0F342608DF801003D
:102DD000019800688068400F8DF800009DF802009F
:102DE0009DF8002045F27023C0F60003995C48432B
:102DF00045F26821C0F600018A5CB0FBF2F0019A4E
:102E0000A2F86A009DF803009DF801209B5C5843DE
:102E1000895CB0FBF1F00199A1F86800FFE702B00E
:102E20007047000081B00090009890F828000007DB
:102E300000280BD5FFE700980068406820F40040A8
:102E4000009A1168926B10434860FFE7009890F871
:102E50002800C00758B1FFE700980068406820F4D8
:102E60000030009A1168D26A10434860FFE700986A
:102E700090F82800800700280BD5FFE7009800682D
:102E8000406820F48030009A1168126B104348604B
:102E9000FFE7009890F82800400700280BD5FFE7CF
:102EA00000980068406820F48020009A1168526BF6
:102EB00010434860FFE7009890F82800C0060028FB
:102EC0000BD5FFE700980068806820F48050009AD6
:102ED0001168D26B10438860FFE7009890F82800D3
:102EE000800600280BD5FFE700980068806820F472
:102EF0000050009A1168126C10438860FFE7009838
:102F000090F82800400600281CD5FFE700980068CC
:102F1000406820F48010009A1168526C1043486099
:102F20000098406CB0F5801F0BD1FFE70098006857
:102F3000406820F4C000009A1168926C1043486009
:102F4000FFE7FFE7009890F82800000600280BD55F
:102F5000FFE700980068406820F40020009A11689C
:102F6000D26C10434860FFE701B0704780B588B06D
:102F7000069006990020C1F89000FDF77FFD0590AE
:102F8000069800680068000700282FD5FFE706981C
:102F9000059B6A466FF07E4111604FF400110022DC
:102FA00000F0C2FB08B3FFE7FFE7FFE70698006801
:102FB00050E8000F20F080000490FFE70499069885
:102FC000026842E800100028F0D1FFE7FFE7069909
:102FD0002020C1F88800FFE70699002081F88400CE
:102FE000FFE703208DF81F005FE0FFE70698006809
:102FF00000684007002842D5FFE70698059B6A460F
:103000006FF07E4111604FF48001002200F08CFBD4
:10301000A0B3FFE7FFE7FFE70698006850E8000F5E
:1030200020F490700390FFE703990698026842E845
:1030300000100028F0D1FFE7FFE7FFE7FFE7069861
:10304000006850E8020F20F001000290FFE70299AB
:103050000698026842E802100028F0D1FFE7FFE777
:1030600006992020C1F88C00FFE70699002081F81E
:103070008400FFE703208DF81F0016E0FFE70699A4
:103080002020C1F888000699C1F88C00069900201C
:10309000C86606990867FFE70699002081F8840052
:1030A000FFE700208DF81F00FFE79DF81F0008B024
:1030B00080BD000080B582B001900198806A0090C8
:1030C00000990020A1F85E000098FEF7A7FF02B06B
:1030D00080BD000084B00390FFE7FFE7039800681D
:1030E00050E8000F20F490700290FFE702990398D7
:1030F000026842E800100028F0D1FFE7FFE7FFE791
:10310000FFE70398006850E8020F4FF6FE71CEF615
:10311000FF7108400190FFE701990398026842E8B7
:1031200002100028EDD1FFE7FFE70398C06E0128E9
:1031300014D1FFE7FFE7FFE70398006850E8000FAE
:1031400020F010000090FFE700990398026842E821
:1031500000100028F0D1FFE7FFE7FFE703992020E8
:10316000C1F88C0003990020C8660399486704B031
:103170007047000080B582B00190FFE7FFE701983B
:10318000006850E8000F20F040000090FFE7009931
:103190000198026842E800100028F0D1FFE7FFE73D
:1031A00001992020C1F888000199002088670198C2
:1031B000FFF72EFC02B080BD80B592B011900020C8
:1031C0008DF837001198006848F20001C4F2000140
:1031D000884201D1FFE700E0FFE7119988680B6999
:1031E0004A69C96918431043084310901198006850
:1031F000006846F6F311CCF6FF71084010990843B9
:1032000011990968086011980068406820F44050DE
:10321000119A1168D2681043486011988069109023
:103220001198006848F20001C4F20001884206D0FB
:10323000FFE71198016A109808431090FFE7119872
:10324000006880684FF2FF41C1F2FF1108401099F9
:10325000084311990968886011980068C06A20F0D5
:103260000F00119A1168526A1043C862FFE7119863
:10327000006843F60001C4F20101884225D1FFE74E
:1032800041F28800C4F20200006800F00300014629
:103290000A91032814D80A99DFE801F0020A060E01
:1032A00001208DF83D000FE002208DF83D000BE07D
:1032B00004208DF83D0007E008208DF83D0003E074
:1032C00010208DF83D00FFE7DCE01198006844F223
:1032D0000041C4F2000188422AD1FFE741F2880090
:1032E000C4F20200006800F00C00014609910C28AD
:1032F00019D80999DFE801F0071717170F171717E3
:103300000B171717130000208DF83D000FE0022067
:103310008DF83D000BE004208DF83D0007E008200B
:103320008DF83D0003E010208DF83D00FFE7A8E098
:103330001198006844F60001C4F2000188422CD1C3
:10334000FFE741F28800C4F20200006800F030009C
:103350000146089160B1FFE70898102810D0FFE7F8
:103360000898202808D0FFE7089830280CD00FE0F4
:1033700000208DF83D000FE002208DF83D000BE0AD
:1033800004208DF83D0007E008208DF83D0003E0A3
:1033900010208DF83D00FFE772E01198006844F6B8
:1033A0000041C4F2000188422CD1FFE741F28800BD
:1033B000C4F20200006800F0C0000146079160B14D
:1033C000FFE70798402810D0FFE70798802808D02B
:1033D000FFE70798C0280CD00FE000208DF83D00D3
:1033E0000FE002208DF83D000BE004208DF83D0039
:1033F00007E008208DF83D0003E010208DF83D0027
:10340000FFE73CE01198006848F20001C4F20001B7
:1034100088422FD1FFE741F28800C4F20200006821
:1034200000F440600146069178B1FFE70698B0F5D8
:10343000806F12D0FFE70698B0F5006F09D0FFE764
:103440000698B0F5406F0CD00FE000208DF83D00DD
:103450000FE002208DF83D000BE004208DF83D00C8
:1034600007E008208DF83D0003E010208DF83D00B6
:10347000FFE703E010208DF83D00FFE7FFE7FFE7DF
:10348000FFE7FFE7FFE71198006848F20001C4F288
:103490000001884240F07E80FFE79DF83D00014634
:1034A0000591082819D80599DFE801F005170917D3
:1034B0000F1717171300FEF74BF80B9013E042F2AB
:1034C0000040C0F2F4000B900DE0FEF769F80B909D
:1034D00009E04FF400400B9005E000200B90012024
:1034E0008DF83700FFE70B98002852D0FFE70B98C4
:1034F00011994A6A45F27821C0F6000131F812109C
:10350000B0FBF1F00C900C981199496801EB410166
:10351000884207D3FFE70C9811994968B0EB013F47
:1035200004D9FFE701208DF8370031E00B9811999D
:103530004A6803924A6A45F27821C0F6000131F8E0
:103540001220002304931946FCF7CCFE039A049B37
:10355000090241EA1061000210EB520041F1000142
:10356000FCF7C0FE0E900E98B0F5407F0BD3FFE73E
:103570000E990020B0EB115F05D1FFE70E9811996D
:103580000968C86003E001208DF83700FFE7FFE716
:10359000FFE7B9E01198C069B0F5004F61D1FFE7CE
:1035A0009DF83D000146029108281DD80299DFE8E8
:1035B00001F005090D1B131B1B1B1700FDF7C8FFAE
:1035C0000B9017E0FDF7D8FF0B9013E042F200409C
:1035D000C0F2F4000B900DE0FDF7E2FF0B9009E064
:1035E0004FF400400B9005E000200B9001208DF877
:1035F0003700FFE70B9898B3FFE70B98119A5168D3
:10360000536A45F27822C0F6000232F81320B0FB6C
:10361000F2F0400000EB5100B0FBF1F00E900E987C
:10362000102818D3FFE7BDF83A00A0B9FFE70E98BD
:1036300020F00F00ADF83E000E9800F00E01BDF82E
:103640003E0040EA5100ADF83E00BDF83E00119941
:103650000968C86003E001208DF83700FFE7FFE745
:1036600051E09DF83D000146019108281DD80199BF
:10367000DFE801F005090D1B131B1B1B1700FDF7ED
:1036800067FF0B9017E0FDF777FF0B9013E042F216
:103690000040C0F2F4000B900DE0FDF781FF0B90AD
:1036A00009E04FF400400B9005E000200B90012052
:1036B0008DF83700FFE70B9820B3FFE70B98119ABE
:1036C0005168536A45F27822C0F6000232F813209E
:1036D000B0FBF2F000EB5100B0FBF1F00E900E9851
:1036E00010280AD3FFE7BDF83A0030B9FFE7BDF86C
:1036F000380011990968C86003E001208DF837008F
:10370000FFE7FFE7FFE7FFE711990120A1F86A0053
:103710001199A1F8680011990020486711998867EC
:103720009DF8370012B080BD80B586B0DDF820C0AE
:10373000049003918DF80B200193FFE70498006833
:10374000C06903990840401AB0FA80F040099DF81A
:103750000B10884266D1FFE708980130002860D03E
:10376000FFE7FDF78BF90199401A0899884203D8C1
:10377000FFE7089820B9FFE703208DF8170055E010
:103780000498006800684007002849D5FFE70398BF
:10379000802845D0FFE70398402841D0FFE70498F0
:1037A0000068C06900F008010120B0EBD10F16D10C
:1037B000FFE7049801680820009008620498FFF76A
:1037C00089FC00980499C1F89000FFE70499002053
:1037D00081F88400FFE701208DF8170026E00498A7
:1037E0000068C06900F400610120B0EBD12F16D150
:1037F000FFE7049801684FF4006008620498FFF73F
:1038000069FC04992020C1F89000FFE7049900208A
:1038100081F88400FFE703208DF8170006E0FFE73A
:10382000FFE78BE700208DF81700FFE79DF81700F2
:1038300006B080BD80B540F27800C2F20000FEF70D
:10384000F1FB80BDFFE7FEE781B08DF803009DF935
:10385000030000280ED4FFE79DF9031001F01F02BA
:10386000012090404A094EF20011CEF2000141F8C9
:103870002200FFE701B070474EF60C50CEF2000078
:103880000068C0F30220704782B08DF807000091F5
:103890009DF9070000280AD4FFE7009800019DF970
:1038A00007104EF20042CEF2000288540BE000985E
:1038B00000019DF8071001F00F014EF61452CEF2F0
:1038C00000028854FFE702B07047000083B0029006
:1038D000029800F0070000904EF60C51CEF2000165
:1038E0000868019001984FF6FF021040019001987E
:1038F000009A40EA02200022C0F2FA5210430190DE
:103900000198086003B0704780B582B00020019034
:10391000FDF7C8F8FFF7FEF9FFF780F8FFF7A0F80A
:10392000252032210091FFF76DF900992620FFF73D
:1039300069F900992720FFF765F900992820FFF71A
:1039400061F900992920FFF75DF900992A20FFF716
:1039500059F9FFE7FDF792F801F022F841EC100B5E
:103960009FED1B1B53EC112B51EC100B00F03AFE9A
:1039700041EC100B40F27000C2F2000080ED000B31
:1039800090ED000B00F0B8F89FED131B53EC112BDA
:1039900051EC100B00F072FD41EC100B51EC100BD0
:1039A0009FED0F0B53EC102B01F086F841EC100B40
:1039B00051EC100B00F030FD00EE100AFCF780FD1A
:1039C00001460120FFF71EF91420FCF781FEC1E734
:1039D0000000000000408F40000000000000F03FA9
:1039E000000000000080564003B401984100009898
:1039F00050EAC12018BF04204A0D18BF40F0010052
:103A000040F2FF72B2EB515F08BF40F002000128A4
:103A100008BF052002B0704710B52DED020B2DED4B
:103A2000088B84B09DED0C0B51EC100B01F078F974
:103A300041EC180B9DED0C0B53EC182B51EC100BBB
:103A400001F0D4F941EC190B0D989FED290B10F002
:103A5000004F53EC102B51EC190B9FED21AB9FED58
:103A600022BB0ED000F0ECFF0ED953EC1B2B51EC17
:103A7000190B01F01FF91CD214E000BF41EC180B28
:103A800017E000F0DDFF06D253EC1A2B51EC180BB7
:103A900001F0ACF9F2E753EC1B2B51EC190B01F0E0
:103AA00009F906D853EC1A2B51EC180B00F0E6FC80
:103AB000E4E78DED028B9DED0C0B18EE901A10EEE5
:103AC000900A8DED000B61F31E0003909DED020B3B
:103AD00004B0BDEC088B02B010BD00000000000077
:103AE000000000000000F03F000000000000E03F88
:103AF000000000000000E0BF10B52F499FED2C1B17
:103B00002DED020B84B0059820F000408842DCBF08
:103B100000209DED040B32DD2849884209D104982C
:103B200040B94FF00100FCF784FC00F03DFC06B00A
:103B300010BD05DB9DED040B00F02AFC06B010BDA6
:103B400068469DED040B00F03BF810F0030011D027
:103B5000012818D09DED021B9DED000B02281AD004
:103B600000F04AFA51EC100B00F04AFC06B041ECB0
:103B7000100B10BD9DED021B9DED000B012000F010
:103B80006FFB06B010BD9DED021B9DED000B00F01C
:103B900033FA06B010BD012000F062FB51EC100BAF
:103BA00000F02EFC06B041EC100B10BD0000000030
:103BB0000000000000000000FB21E93F0000F07F52
:103BC0002DE9F14F04462DED020B2DED088B8AB047
:103BD0009FEDE70B80ED020B139EE74826F00045B2
:103BE00085420ADC9DED120B002084ED000B0AB02B
:103BF000BDEC088B03B0BDE8F08FE0489FEDE0AB73
:103C00009FEDE1BBA84247DDE14F9FEDE39B9FEDB8
:103C1000E48B9DED120B53EC1A2B51EC100B002E84
:103C20001CDD01F0E3F841EC100BBD4208D053EC71
:103C30001B2B51EC100B01F0D9F8C4E900010BE08B
:103C400053EC192B51EC100B01F0D0F853EC182B5E
:103C500001F0CCF8C4E900010120C8E700F00EFC37
:103C600041EC100BBD4208D053EC1B2B51EC100B58
:103C700000F004FCC4E900010BE053EC192B51ECFB
:103C8000100B00F0FBFB53EC182B00F0F7FBC4E922
:103C900000014FF0FF30AAE7C348A84279DB9DED51
:103CA000120B51EC100B00F09FFB41EC180B9FED39
:103CB000C00B53EC102B00F0FFFE9FEDBF1B53EC2D
:103CC000112B00F0DBFB00F025FE074600F051FE53
:103CD00041EC190B53EC1A2B00F0EEFE53EC182BB1
:103CE00001F078F841EC180B53EC1B2B51EC190B3D
:103CF00000F0E2FEDFF8C8A241EC100B4FEA1558C5
:103D00000125FA4453EC102B51EC180B01F06EF81E
:103D1000032DC4E900013DD0C1F30A5005EB451164
:103D2000A8EB00001139814234DA0AEB051BB0EE32
:103D300048AA9BED000BF0EE68AA53EC102B51EC57
:103D4000190B00F0B9FE41EC1B0B51EC1A0B53ECB4
:103D50001B2B01F04BF841EC180B51EC1A0B53ECF8
:103D6000182B01F043F853EC1B2B01F03FF89BEDAF
:103D7000020B41EC1A0B53EC102B51EC190B00F019
:103D80009BFE53EC1A2B01F031F841EC100B6D1C2B
:103D9000B8E70EE0002EA8BF3846BFF628AF94ED76
:103DA000000B51EC100B00F02BFBC4E90001784232
:103DB0001DE7C6F3130040F4801EC6F30A50A0F2BC
:103DC000F530471100F01F05C5F12000DDF848B0BF
:103DD00008900020069007900520EC467949002DB8
:103DE00007EB0002794408BF51F8221009D051F8BE
:103DF000223001EB8201AB404A68089922FA01F1B6
:103E00001943A1FB0E26A1FB0B131A449A4234BF9F
:103E10000123002303EB06080CEB8003D3E901A682
:103E20000E448E4234BF0121002192448A4411B1D4
:103E3000924502D903E0924501D2012100E0002120
:103E4000C3E901A641444CF82010011EA0F1010075
:103E5000C4DC029800F10050850F0298DDE9036789
:103E60008000DDF8148000F084FD41EC1A0B304630
:103E700000F096FD9FED541B53EC112B00F01CFE3F
:103E800041EC1B0B384600F08BFD9FED511B53ECB2
:103E9000112B00F011FE41EC180B404600F080FDA4
:103EA0009FED4D1B53EC112B00F006FE41EC190B5E
:103EB00051EC180B53EC192B00F0E0FA53EC1B2BD0
:103EC00000F0DCFA53EC1A2B00F0D8FACDE9080127
:103ED000002008909DED080B53EC1A2B51EC100BB1
:103EE00000F084FF53EC1B2B00F080FF53EC182BE9
:103EF00000F07CFF53EC192B00F06CFF9FED381B9A
:103F000053EC112B00F0D8FD9FED370B41EC180B53
:103F100053EC102B9DED080B51EC100B00F0CCFD79
:103F200053EC182B00F0AAFA9FED310B41EC180B63
:103F300053EC102B9DED080B51EC100B00F0BCFD69
:103F400053EC182B00F09AFA41EC100B139810F078
:103F5000004F06D06D4251EC100B00F051FA41ECCD
:103F6000100B284684ED000B41E600000000000025
:103F70000000000000000000FB21E93F7CD9024066
:103F800000004054FB21F93F3163621A61B4D03D17
:103F9000FB21F93F000000000000601A61B4D03D31
:103FA0007370032E8A19A33BFB21394100000000E6
:103FB00083C8C96D305FE43F000000000000E03FAF
:103FC00052140000A0130000000000000000103E8A
:103FD000000000000000103C000000000000103A4B
:103FE000182D4454FB21F93D3326A611460B113CF4
:103FF00000000054FB21F93D10B52DED040B2DED13
:10400000088B82B0B0EE419AF0EE619A0B9820F0E6
:1040100000449FED4BABB4F1795F11DA9DED0A0BD3
:1040200051EC100B00F076FC002801BFB0EE4A0AFC
:10403000F0EE6A0A02B0BDEC088B04BF04B010BDFC
:104040009DED0A0B53EC102B51EC100B00F034FDDE
:1040500041EC180B3C480621B0EE480AF0EE680A25
:10406000784400F081F853EC182B51EC100B00F061
:1040700023FD9DED0A0B41EC1B0B53EC192B51EC6E
:10408000100B00F019FD41EC190B53EC1B2B51ECFC
:10409000180B00F011FD53EC192B00F0A7FE9FED5B
:1040A0002C0B41EC190B53EC102B51EC180B00F0BE
:1040B00003FD41EC100B2848844210DA53EC192B15
:1040C00051EC100B00F092FE53EC1A2B00F082FE24
:1040D00041EC100B02B0BDEC088B04B010BD1F48C2
:1040E000A042BCBF9FED1E1B8DED001B06DBA4F59F
:1040F00000100190002000909DED001B51EC100B72
:1041000053EC112B00F072FE9DED000B41EC180BEF
:1041100053EC102B51EC1A0B00F068FE41EC1A0B1B
:1041200053EC192B51EC180B00F060FE53EC1A2BDA
:1041300000F050FE41EC100BCCE700000000000046
:10414000000000000000F03FC4100000000000006C
:10415000000000000000E03F3333D33F0000E93FA0
:10416000000000000000D23F70B504462DED028B28
:104170004D1E00EBC500B0EE408AF0EE608A90ED77
:10418000000B35F0060017D053EC182B51EC100B38
:1041900000F092FC41EC100B6D1E04EBC50090ED9D
:1041A000001B51EC100B53EC112B00F067F941ECA4
:1041B000100B35F00600E7D1022D36D0042D1CD0AF
:1041C000062D1CBFBDEC028B70BD53EC182B51ECBF
:1041D000100B00F071FC94ED0A1B53EC112B00F056
:1041E0004DF953EC182B00F067FC94ED081B53ECD1
:1041F000112B00F043F941EC100B53EC182B51EC50
:10420000100B00F059FC94ED061B53EC112B00F041
:1042100035F953EC182B00F04FFC94ED040B53ECE4
:10422000102B00F02BF941EC100B53EC182B51EC38
:10423000100B00F041FC94ED021B53EC112B00F02D
:104240001DF953EC182B00F037FC94ED001B53ECD8
:10425000112B00F013F9BDEC028B41EC100B70BD7B
:1042600031B504462DED040B2DED0A8BB0EE41BAAD
:10427000F0EE61BA0B989DED0A0B20F00040B0F112
:10428000795F0DDA51EC100BFFF7AEFB042808BF85
:1042900000F09AF89DED0A0BBDEC0A8B05B030BD1D
:1042A00053EC102B51EC100B00F006FC41EC180BFA
:1042B0009DED0A0B53EC182B51EC100B00F0FCFB9E
:1042C00041EC190B2C48B0EE480AF0EE680A0521C3
:1042D0007844FFF749FF9FED2ACBB0EE40AAF0EEFD
:1042E00060AA9CB353EC1C2B51EC190B00F0E4FBBF
:1042F00041EC1C0B53EC1A2B51EC190B00F0DCFBBE
:104300009FED210B41EC190B53EC102B51EC1B0BC7
:1043100000F0D2FB53EC192B00F068FD53EC182B86
:1043200000F0CAFB53EC1B2B00F060FD53EC1C2B80
:1043300000F05CFD9DED0A1B53EC112B00F04AFDD3
:10434000BDEC0A8B05B041EC100B30BDFFE753EC20
:104350001A2B51EC180B00F0AFFB53EC1C2B00F0A8
:104360008DF853EC192B00F0A7FB9DED0A1B53ECC5
:10437000112B00F083F8E3E7540F00000000000069
:10438000495555555555C5BF000000000000E03F98
:1043900010B553EC102B51EC100B00F06FF841EC02
:1043A000100B10BD000000009FED050B10B553EC85
:1043B000102B51EC100B00F015F941EC100B10BD57
:1043C00000000000000000009FED050B10B553EC4D
:1043D000102B51EC100B00F06FFB41EC100B10BDDB
:1043E000000000000000001082B0CDE9000121F0C3
:1043F000004001909DED000B02B051EC100B704796
:1044000081F00041704780F00040704721F000418A
:10441000704720F00040704721F0004201F0004357
:10442000A2F16052B2F5801F28BFD2F17F6C0BD988
:104430005FEA001C43EAC20242EB507018BF7047AB
:1044400028BF20F001007047B2F5801FBCBF18469E
:1044500070474FEA410C1CF5001F02D2084600F0DD
:104460005BBE70B500F0D2FB00000089FFF7F6BF1D
:104470004FF00040A0F580007047000010B591EAB1
:10448000030F48BF83F0004300F1B884841A71EB36
:10449000030C05D2121943EB0C03001B61EB0C015A
:1044A0004FEA1154A4EB135CDFF81CE11EEA430F42
:1044B00018BF9EEA445F00F0748021EA045123EAA9
:1044C0000E0343F48013DCF1200E32D322FA0CFEEB
:1044D00010EB0E0023FA0CFE41EB0E01CCF1200E86
:1044E00003FA0EFE10EB0E00CCF1200E51F100018C
:1044F000B1F5801F32D201EB045112FA0EF2BDE881
:10450000104058BF7047401C38BF5FEA420218BFD6
:104510007047002814BF20F0010041F100014FEA6C
:10452000410313F5001F38BF7047A1F1C04100F0EF
:10453000BBBB012A43EB0302ACF1200CDCF11F0EE4
:1045400032BF4FF0000E23FA0CF310EB030041EBE7
:104550000451B4EB115FD0D0A1EB045101F58011EF
:10456000490801EB04515FEA30000ED350F100001E
:1045700038BF12FA0EFE08D1BDE81040C9E7401C52
:1045800038BF5FEA4202CAD1C3E7BDE810404FEA34
:10459000410313F5001F38BF7047A1F1C04100F07F
:1045A00083BB9EEA445F08D011EA5E0FBDE810406D
:1045B00004BF01F0004100207047BDE8104070B515
:1045C00000F024FB64FBBE3E0000E0FF491058BF32
:1045D000C1F140415B1058BFC3F140438B42EFF340
:1045E000008070472DE9C04130B4DFF8A8C23CEA32
:1045F000111418BF3CEA131400F0F0801CEA1114E7
:1046000081EA030544EAD57418BF1CEA131500F0CB
:10461000CB80A4EB050404F17F7404F500344FF063
:10462000004545EAC12145EAC32341EA505143EA26
:1046300052534FEAC0204FEAC222994208BF90422B
:1046400000F0A0804FEA13650FF24816765D4FEA3E
:10465000134506FB05F7C7F1807706FB07F74FEA1E
:10466000D737A7FB03687642A7FB06CEC8F580388C
:1046700038BFA8F1010807FB08E6A6FB028C4FF043
:10468000000EE6FB03CED8F100086FEA0C0C5CF1DB
:10469000000C6FEA0E0E4EF1004EA6FB0C584FF0C8
:1046A0000007E6FB0E87A1FB08C6A0FB07CE16EBB2
:1046B0000E064FF0000545F10005E1FB076515F119
:1046C000E04E7EBFA4F580345FEA46066D4116F1E8
:1046D000800745F100054FEA172747EA05674FEACB
:1046E00015254FEA0666A6F1DE46B6F1805F20D9B1
:1046F000384605EBC47124F0010C01EB0C11BCF140
:10470000FE6F02D8F0BCBDE8008124425CBF01F519
:10471000801E9EEAC47F02D4F0BCBDE80081244222
:1047200000F13980A1F1C041F0BCBDE8004100F0CA
:10473000BBBA4FEAD02040EA41504FEAD1214FEABC
:10474000D22242EA43524FEAD323A7FB028607FB59
:10475000036605FB02661EEA0E0F58BFA6EB005665
:10476000B6EB00564FEA520E4EEAC37E18EB0E0E21
:1047700056EB530EBCD518EB02085E417F1C55F179
:104780000005B5E74FF480154FF000074FF0000625
:104790004FF00008ACE701F1C04101F000414FF0DB
:1047A0000000F0BCBDE800810CEA131511EA0C1FF3
:1047B00000D00CE013EA0C1F00F025804FF0000041
:1047C00081EA030101F00041F0BCBDE80081F0BCCA
:1047D000BDE8004181EA030100F066BAF0BCBDE823
:1047E000004170B500F012FA097EFC3E00F007B8F7
:1047F0004FF0000081EA030101F00041704781EAB7
:10480000030100F051BAF0BCBDE8004122494FF06D
:1048100000007047FFFDFBF9F7F5F4F2F0EEEDEB69
:10482000E9E8E6E4E3E1E0DEDDDBDAD8D7D5D4D3AE
:10483000D1D0CFCDCCCBCAC8C7C6C5C4C2C1C0BFFA
:10484000BEBDBCBBBAB9B8B7B6B5B4B3B2B1B0AF00
:10485000AEADACABAAA9A8A8A7A6A5A4A3A3A2A1E4
:10486000A09F9F9E9D9C9C9B9A999998979796959F
:1048700095949393929191908F8F8E8E8D8C8C8B3B
:104880008B8A8989888887878685858484838382C3
:10489000828181800000FF070000F87F51EA030C4D
:1048A00017D41CF5801F58BFBCF5801F00F106808F
:1048B000994218BF704708BF9042704707D711F55B
:1048C000801F58BF13F5801F19D499427047894241
:1048D00070471CF5801F08D5BCF5801FF7D58B42AB
:1048E00018BF704708BF824270474FF4001C1CEB92
:1048F000410F38BF1CEB430F01D28B42704770B59C
:1049000000F084F9922449004FF000514FF0805399
:10491000FFF75CBE4FEA41034FEA5353A3F58063B0
:10492000D3F11E03C8BFD3F1210C0CDD4FF00042C0
:1049300042EAC12242EA505232FA03FC8CEAE17C9C
:10494000ACEBE1707047102BC4BF0020704703F53B
:10495000787CBCF1FF3F04D06FF0004282EA210076
:10496000704770B500F052F94992248000207047DA
:10497000F2E710F0004248BF4042B0FA80F310FA6C
:1049800003F10AD0C3F11D0303F5806302EB035268
:104990004FEA415002EBD12170474FF000007047C1
:1049A000B0FA80F310FA03F10AD0C3F11D0303F546
:1049B00080634FEA03524FEA415002EBD121704726
:1049C0004FF000007047000051EA030C17D41CF5AB
:1049D000801F58BFBCF5801F00F10680994218BFA8
:1049E000704708BF9042704707D711F5801F58BF26
:1049F00013F5801F19D499427047894270471CF5FE
:104A0000801F08D5BCF5801FF7D58B4218BF7047B3
:104A100008BF824270474FF4001C1CEB410F38BFA7
:104A20001CEB430F01D28B42704770B500F0EEF8DB
:104A3000922449004FF080514FF00053FFF7C6BD5C
:104A400051EA030C17D41CF5801F58BFBCF5801F1A
:104A500000F10680994218BF704708BF9042704726
:104A600007D711F5801F58BF13F5801F19D499423D
:104A70007047894270471CF5801F08D5BCF5801F20
:104A8000F7D58B4218BF704708BF824270474FF47A
:104A9000001C1CEB410F38BF1CEB430F01D28B42B3
:104AA000704770B500F0B2F8922449004FF0005101
:104AB0004FF08053FFF78ABD70B5DFF848C11CEA9C
:104AC000111E1EBF1CEA13159EEA0C0F95EA0C0F6F
:104AD00000F06F8081EA03044EEAD47EAE4421EAFE
:104AE0004C1123EA4C1341F4801143F48013AEF1CE
:104AF0007F7EA1FB024CA0FB0365361955EB0C052C
:104B0000A1FB034C4CF10003A0FB021C16EB0C06AE
:104B1000654153F10003094218BF46F0010613F442
:104B2000007F0BD14FEA03314FEA053041EA1551BE
:104B300040EA165034036FF003020AE04FEAC32143
:104B40004FEAC52041EA555140EA5650F4026FF051
:104B5000020202EB2E4201EB025585EACE710AD029
:104B60005FEA440C18BF24F0004450F1000041F10A
:104B7000000120EAD47040F2FE7C624500D270BD94
:104B8000A84214BF4FF080444FF04044002E08BFAD
:104B90000024BEF1806FA8BFA1F1C041BDE8704004
:104BA00080F2828001F1C04101F000414FF000002D
:104BB00070470CEA13159EEA0C0F18BF95EA0C0F0C
:104BC00006D081EA030E4FF000000EF0004170BDE8
:104BD00000F01CF88900013E00F007B800F009B8A9
:104BE0004FEA430C5FEA5C5C08D081EA030100F005
:104BF0005BB84FEA410C5FEA5C5CF6D102494FF0CA
:104C0000000070470000FF070000F87F0EF1020E61
:104C10002EF0030E5EF8046B364205D4012A43EBF6
:104C2000030515F5001F12D8012841EB010C1CF5F6
:104C3000001F0CD80ED14FEAD17C0CEB4C0C0CF1C0
:104C4000020C15F5001F08BF4CEBD37C04E04FF0BD
:104C5000080C01E04FEAD37C0CEB4C0526FA05F674
:104C600006F00706B6F1040C06D20EEB860CBDE882
:104C700070404CF0010C6047DFE80CF0090B0202B9
:104C80004FF00041A1F500214FF0000070BD194622
:104C90001046012851EB010418BFD4F5001484BF5D
:104CA000002001F0004170BD0808A0F500114FEA96
:104CB0003101704753EA010C17D41CF5801F58BF0F
:104CC000BCF5801F00F106808B4218BF704708BFFB
:104CD0008242704707D713F5801F58BF11F5801F18
:104CE00019D48B4270479B4270471CF5801F08D532
:104CF000BCF5801FF7D5994218BF704708BF904296
:104D000070474FF4001C1CEB430F38BF1CEB410FE6
:104D100001D2994270470FB40CBC03BCFFF7C1BE6F
:104D20005FEA410C5FEA5C5CACF580635B1C39D4E4
:104D3000D3F1340240F34580B2F1200314DA4FF08E
:104D4000010C0CFA02FCACF10103034020EA030061
:104D5000B3EB5C0208BF10EA0C0F98BF704710EB72
:104D60000C0041F1000170470AD0C3F1200201FAA2
:104D700002FC01284CF1000021FA03F101FA03F1D1
:104D80004FF0010C0CFA03FCACF1010321EA030122
:104D9000B0F1004F08BF11EA0C0F4FF0000088BFC0
:104DA00061447047B3F1FF3F28BF50EAC12C01F0C6
:104DB00000414FF0000084BF41F07C5141F470018C
:104DC0007047B3F5806FB8BF704770B5FFF71EFF2F
:104DD00040DBB6BE10B591EA030F81F000413FF50C
:104DE00055AB83F0004300F009B8000010B591EA1C
:104DF000030F48BF83F000433FF548AB841A71EBC3
:104E0000030C07D28CF0004C121943EB0C03001B6F
:104E100061EB0C014FEA1154A4EB135CDFF8A4E141
:104E20001EEA430F18BF9EEA445F00F0B48021EAF7
:104E3000045123EA6E035242C3EB6E0338BF5B1E7C
:104E4000DCF1200E25D322FA0CFE10EB0E0043FA03
:104E50000CFE41EB0E01CCF1200E03FA0EFE10EB1E
:104E60000E00CCF1200E51F1000129D401EB0451C8
:104E700012FA0EF2BDE8104058BF7047401C1CBF2C
:104E8000B2F1004F704700280CBF491C20F0010010
:104E9000704712EB020E43EB030218BF4FF0010EF6
:104EA0004EEA4202ACF1200CDCF11E0E56D943FA58
:104EB0000CFE10EB0E00CCF11E0E51F1FF31D5D5DA
:104EC0000EF1010E12FA0EFE404141EB010101EB21
:104ED000445C5FEA5C5C10D901EB045110EBDE70BE
:104EE00038BFBEF1004FBDE8104018BF7047002822
:104EF0000CBF491C20F00100704734D24FEAD42C7B
:104F000024F4006411F500111BD0B1FA81F20B3AC0
:104F1000A41AA41ED2F12003914030FA03F31943DE
:104F2000904001EBCC7101EB0451002CBDE8104026
:104F3000A8BF704701F1C04101F000414FF00000EF
:104F40007047B0FA80F310FA03F102D1BDE81040C7
:104F50007047E41A173C4805C90AE2E701EB04511F
:104F6000BDE81040704749104FEA300001EB045192
:104F7000BDE8104002E04FF0000170474A0008BF52
:104F80000042F8D0B2F5001F28BF704701F0004181
:104F90004FF0000070479EEA445F07D011EA5E0FB1
:104FA000BDE8104004BF002100207047BDE810405C
:104FB00070B5FFF72BFE00BF40DFF63E104683F0D2
:104FC000004170470000E0FF43004FEAD30C4FEA76
:104FD0003C0C43401FBF40070CF1605113F0FE4FE3
:104FE00070471CF0006F03D10CF0004100207047A7
:104FF0000CF0004343EA507040EACC0010B500F0DA
:1050000038F800BF000000924FEA0001FFF74CBEE5
:105010004FF00041A1F500214FF00000704710B59E
:10502000FFF73CFC0CBF0120002010BD10B5FFF7BE
:1050300035FC14BF0120002010BD10B5FFF7C4FCE3
:105040008CBF0120002010BD10B5FFF7BDFC2CBFA8
:105050000120002010BD10B5FFF7F2FC94BF012025
:10506000002010BD10B5FFF7EBFC34BF012000207D
:1050700010BD0EF1020E2EF0030E5EF8044B24421A
:1050800004D44FEA4102B2F17F4F11D84FEA4003F6
:10509000B3F17F4F0CD80ED14FEAD07C0CEB4C0C07
:1050A0000CF1020CB2F17F4F08BF4CEBD17C04E055
:1050B0004FF0080C01E04FEAD17C0CEB4C0324FAD2
:1050C00003F404F00704B4F1040C06D20EEB840CD4
:1050D000BDE810404CF0010C6047DFE80CF0070819
:1050E00002024FF00040A0F5800010BD08464200CB
:1050F00018BFD2F1807288BF00F0004010BDF1EE01
:10510000100A4FF6FF71C0F2C03120EA010040F0F2
:105110004070E1EE100A7047FF2141EAD050C0050F
:1051200070470000000000004C5555555555A53FEF
:105130007751C1166CC156BF9015CB19A001FA3E2C
:10514000AD529C804F7E92BEC4B1B4BD9EEE213E56
:10515000D43888BEE9FAA8BD00004054FB21F93FCD
:105160003163621A61B4D03D0000601A61B4D03D71
:105170007370032E8A19A33B0000002E8A19A33BEB
:10518000C14920259A837B390000000000000000FF
:105190006E83F9A22915444ED15727FCC0DD34F5A2
:1051A000999562DB4190433CAB6351FE61C5BBDE28
:1051B0003A6E24B7E0D24D42EA2E49061C92D1093C
:1051C0001CEB1DFE3EA729B1F53582E88444BB2EB9
:1051D00026709CE9417E5FB439D69139F439538306
:1051E0008B5F849C3B28F9BDFF97F81F0F9805DE65
:1051F0008B112FEF1F6D0A5ACF7E366DB709CB2763
:10520000663F464F2DEA5F9EC7BA27757BF1E5EBF7
:10521000F739073DEA92528AB15FFB6B085D8D1F3B
:105220004630035600000000A6F810111111813F0E
:10523000D561C119A0012ABF7DFEB157E31DC73E4C
:10524000EB9C2B8AE6E55ABE7CD5CF5A3AD9E53D90
:105250000000000000000000010203040607080926
:105260000000000001020304080402040801010117
:105270000101010307010000010002000400060013
:1052800008000A000C00100020004000800000010F
:10529000B052000800000020100000003C0200088E
:1052A000C052000810000020000700005C02000847
:1052B0000024F400010000001000000000000000C5
:04000005080001D915
:00000001FF
