:102C26004552004F4B5F535452004F4B5F48455837
:102C36000050574D47726F7570315F467265713A35
:102C4600202568640A0050574D315F447574793AFF
:102C5600202568640A0050574D325F447574793AEE
:102C6600202568640A0050574D335F447574793ADD
:102C7600202568640A0050574D345F447574793ACC
:102C8600202568640A0050574D355F447574793ABB
:102C9600202568640A0050574D365F447574793AAA
:102CA600202568640A0050574D375F447574793A99
:102CB600202568640A0050574D385F447574793A88
:102CC600202568640A0050574D395F447574793A77
:102CD600202568640A0050574D31305F4475747979
:102CE6003A202568640A0050574D31315F447574A7
:102CF600793A202568640A0050574D31325F447591
:102D060074793A202568640A0050574D31335F4480
:102D16007574793A202568640A0050574D31345F3E
:102D2600447574793A202568640A0050574D313548
:102D36005F447574793A202568640A0050574D310E
:102D4600365F447574793A202568640A0050574DF9
:102D560031375F447574793A202568640A00505704
:102D66004D31385F447574793A202568640A0050FD
:102D7600574D31395F447574793A202568640A00E5
:102D860050574D32305F447574793A202568640A8D
:102D96000050574D32315F447574793A2025686486
:102DA6000A0050574D32325F447574793A202568CF
:102DB600640A0050574D32335F447574793A2025C2
:102DC60068640A0050574D32345F447574793A206E
:102DD6002568640A0050574D32355F447574793A58
:102DE600202568640A0050574D32365F4475747961
:102DF6003A202568640A0050574D32375F4475748F
:102E0600793A202568640A0050574D32385F447578
:102E160074793A202568640A0050574D32395F4468
:102E26007574793A202568640A0050574D33305F2F
:102E3600447574793A202568640A0050574D333139
:102E46005F447574793A202568640A0050574D33FB
:102E5600325F447574793A202568640A00000000E0
:1056D80042024D000041038700410252004102028C
:1056E8000042038A000055035D01000001038F0199
:0E56F800037201037B0102050102030102504F
:10304800E490035BF0A3F090035BE0FEA3E0FFC312
:10305800EE9402501C74022FF58274003EF583E44E
:10306800F090035CE004F070DE90035BE004F08015
:10307800D6E490035BF0A3F090024BF0900253F07B
:1030880090035504F0900355E0FFC3940650147460
:10309800552FF582E43403F583E4F0900355E004FA
:1030A800F080E2E4900355F090038EF0900000F079
:1030B800A3F090038FF0A304F090038FE0FEA3E049
:1030C800FFC39420EE94005025EF25E0FFEE33FE79
:1030D800748F2FF58274033EF583E4F0A3F0900318
:1030E80090E004F070D390038FE004F080CBE4907C
:1030F800038FF0A3F090037BF0A304F090037BE030
:10310800FEA3E0FFC39406EE94005027EF25E0FFEE
:10311800EE33FE747B2FF58274033EF583E4F0A34F
:103128007432F090037CE004F070D190037BE004EB
:10313800F080C990037BE4F0A37432F0900372E44A
:10314800F0A304F0900372E0FEA3E0FFC39404EE42
:1031580094005025EF25E0FFEE33FE74722FF582C0
:1031680074033EF583E4F0A3F0900373E004F07079
:10317800D3900372E004F080CBE4900372F0A3F0E4
:10318800900205F0A304F0900205E0FEA3E0FFC35F
:103198009423EE94005025EF25E0FFEE33FE7405EE
:1031A8002FF58274023EF583E4F0A3F0900206E066
:1031B80004F070D3900205E004F080CBE49002059F
:1031C800F0A3F0900203F0A3F0900250F0A3F09067
:1031D8000389F090037AF090024CF0900388F02273
:10591E00121D5E1250FA125678125B0D7D037F1225
:10592E001231E8125A9B7B017A0379727D037C0057
:03593E00024B5BBE
:1029CC00125A8212304812575FE4FF125AED7F01FF
:1029DC00125AED12591E125B43E4FF1249B6D39002
:1029EC000248E094E6900247E094004004E4F0A32F
:1029FC00F0900253E064026003022B3FF090035B03
:102A0C00A3E0FD9003D37401F0A37403F0A3745DF1
:102A1C00F07B017A00790212242DEF6003022ABEAA
:102A2C007B019003D204F0A37403F0A3748FF07AAB
:102A3C00007902123F8BEF605B9003D27401F0A31C
:102A4C007403F0A3747BF0A37401F0A37403F0A3DC
:102A5C00748FF07B017A0079021220F1EF7BFF601A
:102A6C00177A2C79267F02124F7F7BFF7A2C7926DE
:102A7C007F01124F7F022B0C7A2C79297F02124F87
:102A8C007F7BFF7A2C79297F01124F7F90038E7404
:102A9C0004F0806C7BFF7A2C79307F02124F7F7BA5
:102AAC00FF7A2C79307F01124F7F90038E7401F0E6
:102ABC00804ED390035CE0940090035BE094004064
:102ACC002CE0FEA3E0FF2402F58274003EF583E0C7
:102ADC00FD74552FF58274033EF583EDF090035C85
:102AEC00E024FFF090035BE034FFF080C5900356C8
:102AFC00A3E0FFD3942A4008EF944E500312488E63
:102B0C0090035BE0FEA3E0FFD39400EE9400401C26
:102B1C0074022FF58274003EF583E4F090035CE0C0
:102B2C0024FFF090035BE034FFF080D4E490035B6F
:102B3C00F0A3F090038EE024FE6011146018146072
:102B4C001F24037026E490038EF0801C1250A0E426
:102B5C0090038EF08015E490038EF01254E7800BF6
:102B6C00E490038EF01254E7122E66900000E0FE03
:102B7C00A3E0FFEE7007EF14700375C76090037A43
:102B8C00E06013E4FF1249B6900203E4F0A3740270
:102B9C00F0E490037AF012368B123E72900202E04F
:102BAC0070030229FDE4F012380D900245E0FEA3FB
:102BBC00E0FF4E6006BEFF24BFFF21E4900249F007
:102BCC00A3F0900387E060099002027401F00229DF
:102BDC00FD12380DE4900252F00229FDE490024FF0
:102BEC00F090024FE0FF25E02405F582E43402F575
:102BFC0083E0FCA3E0FDEF25E0248FF582E43403B1
:102C0C00F583ECF0A3EDF090024FE004F0E0B4207B
:0A2C1C00D0124DCC122E660229FDE5
:105A340090024BE0C39401400A900253E0B4010386
:0A5A44007402F090024BE004F0221F
:10426F00125B47900252E0B40143900245E0FEA377
:10427F00E0FFD39401EE9400403390024EE004F03F
:10428F00700690024DE004F0C390024EE09F900242
:10429F004DE09E4018E4F0A3F090024AE004F07065
:1042AF0006900249E004F09002027401F090038A34
:1042BF00E475F001121218FEE5F064144E706A9066
:1042CF00038AF0A3F090FF4CE0547FF0E4FD7F07EA
:1042DF001231E87D017F0712455800007F07125108
:1042EF0053EF6007E4900389F0800690038974010F
:1042FF00F00000E4FD7F0712455890FF4CE044802A
:10430F00F07D037F071231E8900389E0FF90038867
:10431F00E06FFEEF5E90037AF0900389E0FCF45EAD
:0A432F0090024CF0900388ECF0229D
:1057070090035BE0FEA3E02402F58274003EF5837C
:10571700E599F090035CE004F0700690035BE00409
:0C572700F0E490024BF090025304F022DA
:1057330090035BE0FEA3E02402F58274003EF58350
:10574300E59BF090035CE004F0700690035BE004DB
:0C575300F0E490024BF090025304F022AE
:015B4E002234
:1054E700E49003CFF09003CFE0FBFFC00725E02453
:1054F7007BF582E43403F583E0FCA3E0FFAE04E42C
:10550700FCFD9003D11213F2D0071233879003CF1B
:0C551700E004F0E0C3940540CC02488E94
:1050A00078CF7C037D017BFF7A2E79637E007F03BE
:1050B000121166900374A3E09003CFF0900372A3E3
:1050C000E09003D0F0900376A3E09003D1F090033A
:1050D00078E0FEA3E0FFC374E89FFB74039EFA7DB3
:1050E00007E4FF120046C2AF7B017A0379CF7D034C
:0A50F0007C00124B5BD2AF02488E29
:102E660090038FE0FAA3E0FB7D05E4FF1200469095
:102E76000391E0FAA3E0FB7D037F05120046900371
:102E860093E0FAA3E0FB7D027F05120046900395CE
:102E9600E0FAA3E0FB7D04E4FF120046900397E00E
:102EA600FAA3E0FB7D03E4FF120046900399E0FAE3
:102EB600A3E0FB7D02E4FF12004690039BE0FAA329
:102EC600E0FB7D01E4FF12004690039DE0FAA3E0DB
:102ED600FBE4FDFF12004690039FE0FAA3E0FB7DB2
:102EE600067F041200469003A1E0FAA3E0FB7D05ED
:102EF6007F041200469003A3E0FAA3E0FB7D077F60
:102F0600021200469003A5E0FAA3E0FB7D067F02CD
:102F16001200469003A7E0FAA3E0FB7D057F0212AC
:102F260000469003A9E0FAA3E0FB7D047F021200AD
:102F3600469003ABE0FAA3E0FB7D037F0212004656
:102F46009003ADE0FAA3E0FB7D027F0212004690FB
:102F560003AFE0FAA3E0FB7D077F01120046900372
:102F6600B1E0FAA3E0FBE4FD7F041200469003B350
:102F7600E0FAA3E0FB7D027F031200469003B5E072
:102F8600FAA3E0FB7D037F031200469003B7E0FA45
:102F9600A3E0FB7D047F031200469003B9E0FAA389
:102FA600E0FBE4FD7F051200469003BBE0FAA3E0D8
:102FB600FB7D017F051200469003BDE0FAA3E0FB0E
:102FC6007D057F031200469003BFE0FAA3E0FB7D78
:102FD600067F031200469003C1E0FAA3E0FB7D07DB
:102FE6007F031200469003C3E0FAA3E0FB7D017F56
:102FF600041200469003C5E0FAA3E0FB7D027F04BD
:103006001200469003C7E0FAA3E0FB7D037F04129B
:1030160000469003C9E0FAA3E0FB7D047F0412009A
:10302600469003CBE0FAA3E0FBE4FD7F02120046E4
:103036009003CDE0FAA3E0FB7D017F021200460279
:02304600488EB2
:10199C007BFF7A2C793790037BE0FFA3E09003D791
:1019AC00CFF0A3EFF07F01124F7F7BFF7A2C7937BA
:1019BC0090037DE0FFA3E09003D7CFF0A3EFF07F7F
:1019CC0001124F7F7BFF7A2C793790037FE0FFA3C6
:1019DC00E09003D7CFF0A3EFF07F01124F7F7BFF96
:1019EC007A2C7937900381E0FFA3E09003D7CFF0F6
:1019FC00A3EFF07F01124F7F7BFF7A2C7937900396
:101A0C0083E0FFA3E09003D7CFF0A3EFF07F0112A8
:101A1C004F7F7BFF7A2C794C90038FE0FFA3E090F3
:101A2C0003D7CFF0A3EFF07F01124F7F7BFF7A2C0F
:101A3C00795C900391E0FFA3E09003D7CFF0A3EF84
:101A4C00F07F01124F7F7BFF7A2C796C900393E02F
:101A5C00FFA3E09003D7CFF0A3EFF07F01124F7FED
:101A6C007BFF7A2C797C900395E0FFA3E09003D761
:101A7C00CFF0A3EFF07F01124F7F7BFF7A2C798C94
:101A8C00900397E0FFA3E09003D7CFF0A3EFF07F94
:101A9C0001124F7F7BFF7A2C799C900399E0FFA376
:101AAC00E09003D7CFF0A3EFF07F01124F7F7BFFC5
:101ABC007A2C79AC90039BE0FFA3E09003D7CFF096
:101ACC00A3EFF07F01124F7F7BFF7A2C79BC900340
:101ADC009DE0FFA3E09003D7CFF0A3EFF07F0112BE
:101AEC004F7F7BFF7A2C79CC90039FE0FFA3E09093
:101AFC0003D7CFF0A3EFF07F01124F7F7BFF7A2C3F
:101B0C0079DC9003A1E0FFA3E09003D7CFF0A3EF23
:101B1C00F07F01124F7F7BFF7A2C79ED9003A3E0CD
:101B2C00FFA3E09003D7CFF0A3EFF07F01124F7F1C
:101B3C007BFF7A2C79FE9003A5E0FFA3E09003D7FE
:101B4C00CFF0A3EFF07F01124F7F7BFF7A2D790F3F
:101B5C009003A7E0FFA3E09003D7CFF0A3EFF07FB3
:101B6C0001124F7F7BFF7A2D79209003A9E0FFA310
:101B7C00E09003D7CFF0A3EFF07F01124F7F7BFFF4
:101B8C007A2D79319003ABE0FFA3E09003D7CFF02F
:101B9C00A3EFF07F01124F7F7BFF7A2D79429003E8
:101BAC00ADE0FFA3E09003D7CFF0A3EFF07F0112DD
:101BBC004F7F7BFF7A2D79539003AFE0FFA3E0902A
:101BCC0003D7CFF0A3EFF07F01124F7F7BFF7A2D6D
:101BDC0079649003B1E0FFA3E09003D7CFF0A3EFBB
:101BEC00F07F01124F7F7BFF7A2D79759003B3E064
:101BFC00FFA3E09003D7CFF0A3EFF07F01124F7F4C
:101C0C007BFF7A2D79869003B5E0FFA3E09003D794
:101C1C00CFF0A3EFF07F01124F7F7BFF7A2D7997E6
:101C2C009003B7E0FFA3E09003D7CFF0A3EFF07FD2
:101C3C0001124F7F7BFF7A2D79A89003B9E0FFA3A7
:101C4C00E09003D7CFF0A3EFF07F01124F7F7BFF23
:101C5C007A2D79B99003BBE0FFA3E09003D7CFF0C6
:101C6C00A3EFF07F01124F7F7BFF7A2D79CA90038F
:101C7C00BDE0FFA3E09003D7CFF0A3EFF07F0112FC
:101C8C004F7F7BFF7A2D79DB9003BFE0FFA3E090C1
:101C9C0003D7CFF0A3EFF07F01124F7F7BFF7A2D9C
:101CAC0079EC9003C1E0FFA3E09003D7CFF0A3EF52
:101CBC00F07F01124F7F7BFF7A2D79FD9003C3E0FB
:101CCC00FFA3E09003D7CFF0A3EFF07F01124F7F7B
:101CDC007BFF7A2E790E9003C5E0FFA3E09003D72B
:101CEC00CFF0A3EFF07F01124F7F7BFF7A2E791F8D
:101CFC009003C7E0FFA3E09003D7CFF0A3EFF07FF2
:101D0C0001124F7F7BFF7A2E79309003C9E0FFA33D
:101D1C00E09003D7CFF0A3EFF07F01124F7F7BFF52
:101D2C007A2E79419003CBE0FFA3E09003D7CFF05C
:101D3C00A3EFF07F01124F7F7BFF7A2E7952900335
:101D4C00CDE0FFA3E09003D7CFF0A3EFF07F01022B
:021D5C004F7FB7
:0C4DCC00900249E0FCA3E0FD7F4D7E005A
:044DD800AB07AA0675
:104DDC009003D07455F0EAA3F0A3EFF0ECA3F0AF7E
:104DEC0005A3EFF09003D1E02455FDE433FCA3E0E0
:104DFC007A002DFDEA3CFCA3E02DFDEA3CFC7E0094
:104E0C00ED2FFFEE3CFEEF9003D5F0E49003CFF0D6
:104E1C009003CFE0FFC39406501974D02FF582E4B1
:104E2C003403F583E0FD7F02125A199003CFE0049E
:034E3C00F080DD26
:014E3F002250
:10488E00900356E0FD700FA3E0700BA3E07007A33A
:10489E00E070030249249003D37455F0A3EDF09019
:1048AE000357E09003D5F0900358E09003D6F090B4
:1048BE000359E0FF9003D7F09003D4E02455FDE4B4
:1048CE0033FCA3E07A002DFDEA3CFCA3E02DFDEACB
:1048DE003CFC7E00ED2FFFEE3CFEEF9003D8F0E4A3
:1048EE009003D2F09003D2E0FFC39406502874D305
:1048FE002FF582E43403F583E0FD7F02125A1990FE
:10490E0003D2E02455F582E43403F583E4F09003FA
:06491E00D2E004F080CE9F
:014924002270
:0549B6009003CFEFF0BB
:1049BB00900247A3E09003D0F07FFE7E031252508B
:1049CB009003D11213F29003CFE09003D16039E042
:1049DB00FCA3E0FDA3E0FEA3E0FF124D619003D02A
:1049EB00E09003D5F0E4A3F09003D1E0FCA3E0FD4D
:1049FB00A3E0FEA3E0FF7B017A0379D59003E2E409
:104A0B00F0A37402F0024AE5E0FCA3E0FDA3E0FE94
:104A1B00A3E0FF7B017A0379D59003E2E4F0A37462
:104A2B0002F0124FE59003D6E0FE9003D5E0FDEDCA
:094A3B00FF900247EEF0A3EFF03A
:014A4400224F
:103C0000900247A3E0FF9003CFF0900249A3E09019
:103C100003D0F0EFD3947F502C9003CFE075F004E5
:103C2000A4FFAEF01252509003D11213F29003D1C0
:103C3000E0FCA3E0FDA3E0FEA3E02400FFEE343EA1
:103C4000FEE43D80439003CFE0FFD39487505FEFC5
:103C50002480FFE434FFFEEF7805C333CE33CED8A3
:103C6000F924FFFFEE3401FE1252509003D11213DB
:103C7000F29003D1E0FCA3E0FDA3E0FEA3E024006A
:103C8000FFEE34F0FEED3401FDE43CFCA804A90590
:103C9000AA06AB079003D0E075F002A4FFE4FCFD98
:103CA000EB2FFFEA35F0FEED39FDEC38802E900366
:103CB000CFE0B4882E7FFF7E021252509003D112C3
:103CC00013F29003D1E0FCA3E0FDA3E0FEA3E02407
:103CD00000FFEE3442FEED340FFDE43CFC9003D7D0
:103CE0001213F29003D0E0FF7E007C007D4012149E
:103CF000C5A3E0F8A3E0F9A3E0FAA3E02FFFEA3EB2
:103D0000FEE93DFDE83CFC7B017A0279059003E287
:103D1000E4F0A37440F0124AE5900245E0FCA3E011
:103D20009003D5F0ECA3F0A3E0FCA3E0FDA3E0FE3C
:103D3000A3E0FF7B017A0379D59003E2E4F0A3745A
:053D400002F0024AE55B
:0D380000E4900203F0A3F0900249F0A3F061
:10380D00900247A3E0FF9003CFF0900249A3E09010
:10381D0003D0F0EFD3947F502C9003CFE075F004DC
:10382D00A4FFAEF01252509003D11213F29003D1B7
:10383D00E0FCA3E0FDA3E0FEA3E02400FFEE343E98
:10384D00FEE43D80439003CFE0FFD394875063EFB8
:10385D002480FFE434FFFEEF7805C333CE33CED89A
:10386D00F924FFFFEE3401FE1252509003D11213D2
:10387D00F29003D1E0FCA3E0FDA3E0FEA3E0240061
:10388D00FFEE34F0FEED3401FDE43CFCA804A90587
:10389D00AA06AB079003D0E075F002A4FFE4FCFD8F
:1038AD00EB2FFFEA35F0FEED39FDEC38FC9003D53A
:1038BD0080309003CFE0B4882C7FFF7E02125250EF
:1038CD009003D11213F29003D1E0FCA3E0FDA3E02D
:1038DD00FEA3E02400FFEE3442FEED340FFDE43C88
:1038ED00FCA31213F29003D0E0FF7E007C007D401C
:1038FD001214C5A3E0F8A3E0F9A3E0FAA3E02FFFAB
:10390D00EA3EFEE93DFDE83CFC7B017A027905903B
:10391D0003E2E4F0A37440F0124FE59003D5E0FC10
:10392D00A3E0FDA3E0FEA3E0FF7B017A0379D9902C
:10393D0003E2E4F0A37402F0124FE59003DAE0FE27
:0F394D009003D9E0FDEDFF900245EEF0A3EFF0FF
:01395C002248
:1043F100900247A3E09003CFF0D3947F5019E0756A
:10440100F004A4FFAEF01252509003D01213F290B8
:1044110003D57404F0804E9003CFE0FFD39487500E
:104421002AEF2480FFE434FFFEEF7805C333CE3357
:10443100CED8F924FFFFEE3401FE1252509003D082
:104441001213F29003D57420F0801A9003CFE0B4D8
:1044510088137FFF7E021252509003D01213F29004
:1044610003D574FEF0E49003D4F09003D5E0FE9000
:1044710003D4E0FFC39E502CE4FCFDFE780C121324
:10448100DF9003D0E0F8A3E0F9A3E0FAA3E02FFF67
:10449100EA3EFEE93DFDE83CFC124D619003D4E0AB
:0444A10004F080C6DD
:0144A50022F4
:105AB2007F061256A8AD07AC06900250E0FEA3E0A6
:045AC200FF024DD8BA
:105AC6007F0E1256A8AD07AC06900250E0FEA3E08A
:045AD600FF024DD8A6
:103E7200900203E0FEA3E0FFEE6003023F8AEF241C
:103E8200FE602214606D147003023F651470030219
:103E92003F70147003023F7D24056003023F8A12C3
:103EA2003C00023F68123800E4900254F090025441
:103EB200E0FF25E02405F582E43402F583E0FCA36B
:103EC200E0FDEF25E0248FF582E43403F583ECF086
:103ED200A3EDF0900254E004F0E0B420D0122E667C
:103EE200E490024DF0A3F090025204F0E4900387B4
:103EF200023F8612380012488E900245E0FEA3E08F
:103F0200FF4E6006BEFF0EBFFF0B74FFFDFC7F4D30
:103F12007E00024DD8E4900254F0900254E0FF2556
:103F2200E02405F582E43402F583E0FCA3E0FDEF32
:103F320025E0248FF582E43403F583ECF0A3EDF061
:103F4200900254E004F0E0B420D0122E66124DCC60
:103F52009003877401F0E490024DF0A3F0900252B6
:103F620004F0221243F1E4900203F0A380167F01D1
:103F72001249B6E4900203F0A3800912380DE490CE
:093F82000203F0A3F012488E22A4
:10588E00900250E0FEA3E0FFC00625E0FDEE33FCE3
:10589E00748D2DF58274033CF583E0FCA3E0FDD0FE
:0458AE0006024DD8C9
:1058B200900250E0FEA3E0FFC00625E0FDEE33FCBF
:1058C20074302DF58274033CF583E0FCA3E0FDD037
:0458D20006024DD8A5
:1058D600900250E0FEA3E0FFC00625E0FDEE33FC9B
:1058E60074312DF58274033CF583E0FCA3E0FDD012
:0458F60006024DD881
:1058FA00900250E0FEA3E0FFC00625E0FDEE33FC77
:10590A00743B2DF58274013CF583E0FCA3E0FDD0E5
:04591A0006024DD85C
:10368B00900250E0FEA3E0FFEE60030237F8EF126A
:10369B00149F378E01379002379203379404379675
:1036AB0005379806379A07379C08379E0937A00AC3
:1036BB0037A20B37A40C37A60D37A80E37AA0F3736
:1036CB00AC1037AE1137B01237B21337B41437B65C
:1036DB001537B81637BA1737BC1837BE1937C01A93
:1036EB0037C21B37C41C37C61D37C81E37CA1F3716
:1036FB00CC2037D12137D32237D52337D72437DC0A
:10370B002537DE2637E02737E22837E42937E62A44
:10371B0037EB2B37F02C37F56537F56637F5673711
:10372B00F56837F56937F56A37F56B37F56C37F5AB
:10373B006D37F56E37F56F37F57037F57137F57205
:10374B0037F57337F57437F57537F57637F5773712
:10375B00F57837F57937F57A37F57B37F57C37F52B
:10376B007D37F57E37F57F37F58037F58137F58275
:10377B0037F58337F58437F58537F58637F58700C9
:10378B000037F8803C803A80388036803480328035
:10379B0030802E802C802A802880268024802280D6
:1037AB0020801E801C801A80188016801480128046
:1037BB0010800E800C800A800880068004800280B6
:1037CB000012588E80278004800280001258B2802D
:1037DB001C800880068004800280001258D6800D61
:1037EB00125AB28008125AC680031258FAE4900299
:0537FB0050F0A3F022D4
:03000000024A456C
:0C4A4500787FE4F6D8FD758122024A8CCF
:0F5AFE0050574D0047726F7570004475747900F2
:10242D00E49003D6F0A3F0A3F0A3F0ED64066003EF
:10243D0002275612118CFF64AA60030227569000E2
:10244D00011211A52FFF9000021211A57C002FFF84
:10245D009000031211A52FFF9000041211A52FFF5C
:10246D009000051211A56F7001E4600302275690CC
:10247D0000011211A5FE9000021211A5FDEDFF90B5
:10248D0003D6EEF0A3EFF09000031211A5FE90001D
:10249D00041211A5FDEDFF9003D8EEF0A3EFF0901F
:1024AD0003D6E0FEA3E0FFEE6003022753EFB45026
:1024BD000040030227539024CAF82828730225BA36
:1024CD000225D30225D50225D70225D90225DB0207
:1024DD0025DD0225DF0225E10225E30225E50225A2
:1024ED00E70225E90225EB0225ED0225EF0225F194
:1024FD000225F30225F50225F70225F90225FB0237
:10250D0025FD0225FF0226010226030226050226CD
:10251D000702260902260B02260D02260F0226119E
:10252D0002265102265302265502265702269702ED
:10253D00269902269B02269D02269F0226A102268F
:10254D00E00226E00226E00226E00226E00226E076
:10255D000226E00226E00226E00226E00226E00244
:10256D0026E00226E00226E00226E00226E0022610
:10257D00E00226E00226E00226E00226E00226E046
:10258D000226E00226E00226E00226E00226E00214
:10259D0026E00226E00226E00226E00226E00226E0
:1025AD00E00226E00226E00227190227349003D824
:1025BD00E0FEA3E0FF9003D3E0FBA3E0FAA3E0F974
:1025CD0012144F02274D803C803A8038803680347B
:1025DD0080328030802E802C802A80288026802496
:1025ED0080228020801E801C801A80188016801406
:1025FD0080128010800E800C800A80088006800476
:10260D00800280009003D8E0FCA3E0FD9003D3E0AE
:10261D00FBA3E0FAA3E0F990000312146F9003D727
:10262D00E024FFFF9003D6E034FFFEEF25E0FFEE40
:10263D00338F82F583EC8DF012126390038E74014B
:10264D00F00227538004800280009003D8E0FCA3A1
:10265D00E0FD9003D3E0FBA3E0FAA3E0F9900006C0
:10266D0012146F9003D7E024DFFF9003D6E034FF00
:10267D00FEEF25E0FFEE338F82F583EC8DF0121225
:10268D006390038E7402F002275380088006800445
:10269D00800280009003D8E0FCA3E0FD9003D3E01E
:1026AD00FBA3E0FAA3E0F990000912146F9003D791
:1026BD00E024DBFF9003D6E034FFFEEF25E0FFEED4
:1026CD00338F82F583EC8DF012126390038E7403B9
:1026DD00F080739003D8E0FCA3E0FD9003D3E0FB02
:1026ED00A3E0FAA3E0F990000C12146F9003D7E069
:1026FD0024D5FF9003D6E034FFFEEF25E0FFEE3347
:10270D008F82F583EC8DF0121263803A9003D8E03E
:10271D00FEA3E0FF9003D3E0FBA3E0FAA3E0F99062
:10272D00000F12146F80199003D8E0FEA3E0FF9004
:10273D0003D3E0FBA3E0FAA3E0F990001212146FAB
:0B274D00EE8FF01212447F01227F008B
:01275800225E
:0B3F8B009003CFEBF0A3EAF0A3E9F0F5
:103F9600E49003D5F0FFF09003D5E0FEC3944050C3
:103FA6001D9003CFE0FBA3E0FAA3E0F98E827583B0
:103FB600001211A52FFF9003D5E004F080D99003DD
:103FC600CFE0FBA3E0FAA3E0F99000401211A56F41
:103FD60060030240999003D5F09003CFE0FBA3E085
:103FE600FAA3E0F99003D5E0FD75F002A4F5828509
:103FF600F0831211A5FE9003CFA3A375F002EDA4E2
:104006002401F582E435F0F5831211A57C00240025
:10401600FFEC3EFED3EF94E8EE940340037F0222CA
:104026009003D5E004F0E0B420AFE49003D5F0901F
:1040360003CFE0FBA3E0FAA3E0F99003D5E0FD751A
:10404600F002A4F58285F0831211A5FE9003CFA39A
:10405600A375F002EDA42401F582E435F0F5831290
:1040660011A57C002400FFEC3EFE9003D2E0FBA3EA
:10407600E0FAA3E0F9A3E075F002A4F58285F083E7
:10408600EE8FF01212639003D5E004F0E0B4209FA7
:054096007F00227F0104
:01409B002202
:0B20F1009003CFEBF0A3EAF0A3E9F0AE
:1020FC00E49003D8F0A3F0A3F0A3F0A3F0A3F0A313
:10210C0074FFF0E4A3F0A3F0A3F09003E574FFF0E8
:10211C00A3745AF0A374FEF01244A69003D8EEF008
:10212C00A3EFF09003D8E0F47003A3E0F470030283
:10213C00242A9003E574FFF0A3745AF0A374FEF004
:10214C009003CFE0FBA3E0FAA3E0F91244A69003BE
:10215C00D8EEF0A3EFF09003E574FFF0A3745BF0FE
:10216C00A37402F09003CFE0FBA3E0FAA3E0F91212
:10217C0044A69003DAEEF0A3EFF09003E574FFF0C1
:10218C00A3745BF0A37408F09003CFE0FBA3E0FA18
:10219C00A3E0F91244A69003DCEEF0A3EFF0E4A365
:1021AC00F09003E0F0A3F09003D8E0F47003A3E008
:1021BC00F470030224279003DAE0FEA3E0FFBEFFD5
:1021CC0010BFFF0DA3E0F47003A3E0F4700302242E
:1021DC00249003DCE0FCA3E0FDC3EF9DEE9C4003E8
:1021EC000222F69003CFE0FBA3E0FAA3E0F9900300
:1021FC00D9E02408FF9003D8E034008F82F58312D5
:10220C0011A524CF9003DEF0A3740AF09003DFE055
:10221C00FFC3941050519003D9E02FFF9003D8E0E6
:10222C003400FE9003CFE0FBA3E0FAA3E0F98F8229
:10223C008E831211A5FF642C602DEF602A24D0FB35
:10224C00E434FFFA9003E0E0FEA3E0FF7C007D0A9B
:10225C00121206EF2BFFEE3A9003E0F0A3EFF09092
:10226C0003DFE004F080A59003DEE0FED39406507B
:10227C00189003E0E0FCA3E0FD9498EC943A50092C
:10228C00C3ED9432EC940050037F01229003E0E004
:10229C00FCA3E0FD9003D2E0FBA3E0FAA3E0F97508
:1022AC00F002EEA4F58285F083EC8DF0121263E45B
:1022BC009003DFF09003DFE0FFC3940A4003022198
:1022CC002F9003D9E02FFF9003D8E03400FE900349
:1022DC00CFE0FBA3E0FAA3E0F98F828E8374201287
:1022EC0011E49003DFE004F080CA9003CFE0FBA37D
:1022FC00E0FAA3E0F99003D8E0FCA3E0FDF5828CB2
:10230C0083A3A3A31211A524D09003DEF074042D93
:10231C00F582E43CF5831211A5FF645F9003DE6047
:10232C000BE075F00AA42F24CFF08003E014F0909A
:10233C0003DEE0C394095006A3740AF080069003F0
:10234C00DF740BF09003DFE0FFC394105051900347
:10235C00D9E02FFF9003D8E03400FE9003CFE0FBD0
:10236C00A3E0FAA3E0F98F828E831211A5FF642CEF
:10237C00602DEF602A24D0FBE434FFFA9003E0E0F8
:10238C00FEA3E0FF7C007D0A121206EF2BFFEE3A53
:10239C009003E0F0A3EFF09003DFE004F080A59051
:1023AC0003DEE0FED3941F500E9003E1E094E8901E
:1023BC0003E0E0940340037F01229003E0E0FCA3E0
:1023CC00E0FD9003D5E0FBA3E0FAA3E0F975F00281
:1023DC00EEA4F58285F083EC8DF0121263E4900389
:1023EC00DFF09003DFE0FFC3940A400302212F903B
:1023FC0003D9E02FFF9003D8E03400FE9003CFE028
:10240C00FBA3E0FAA3E0F98F828E8374201211E40F
:10241C009003DFE004F080CA7F02227F00227F025B
:01242C00228D
:103AAF002433325F6368616E6E656C5F7365727627
:103ABF006F5F636F6E74726F6C24353644423638A5
:103ACF004146303000253032580024000A45434229
:103ADF004D20562562752E2562752E256275206F35
:103AEF006E2025730053544338470025754B00252E
:103AFF00303275005334000D0A436865636B696E8D
:103B0F0067204D4355204944002E004572726F7255
:103B1F000D0A506C6561736520636865636B207473
:103B2F0068652073657474696E67206F66207468AA
:103B3F0065204D4355206D6F64656C0D0A00566509
:103B4F00723A312E32004F4B0D0A4944202020206B
:103B5F003A000D0A000D0A53797374656D5F49447D
:103B6F00202020203A004441544120203A3132385D
:103B7F0009427974650D0A004944415441203A3194
:103B8F00323809427974650D0A0058444154412076
:103B9F003A257509427974650D0A00464C41534820
:103BAF00203A256C7509427974650D0A00535953F3
:103BBF00434C4B3A256C7509487A0D0A004247561B
:103BCF002020203A2575096D560D0A00454E4449AF
:103BDF00414E3A0062696709656E6469616E0D0A4C
:103BEF00006C6974746C6509656E6469616E0D0AA9
:013BFF0000C5
:045985007F017E0020
:10598900EF4E60167D607C09ED1D70011C144C7092
:0A599900F7EF1F70011E144E70EAB4
:0159A30022E1
:095B2800EF1F70011E144E70F70E
:015B31002251
:1059A400E4FCFD7B207ACC7904F81212908F0B8EE4
:0F59B4000A8D098C08E508C313FEE50913FF22CD
:10594100E50D6599600885990DE4F50C8005301326
:1059510002050CE50CC394E94007C2AF75C760802E
:02596100FB2227
:102759009003D17412F0A37434F09003D41213FED1
:10276900000025807F011256447BFF7A3A79AF7FBA
:1027790001124F7FE49003CFF09003CFE0FFC394A1
:102789000750217BFF7A3A79D4EF90FDF993FF90B6
:1027990003D7E4F0A3EFF07F01124F7F9003CFE05E
:1027A90004F080D57BFF7A3A79D97F01124F7F9067
:1027B90003D41213FE000708007F011256447FC894
:1027C9007E001259899003D77403F0A37406F0A30D
:1027D90004F0A374FFF0A3743AF0A374F4F07BFF40
:1027E9007A3A79DB7F01124F7F7BFF7A3A79FA9047
:1027F90003D7E4F0A37402F07F01124F7F7BFF7AC5
:102809003A79FE9003D7E4F0A37440F07F01124FA8
:102819007F7BFF7A3B79037F01124F7FE49003D0DE
:10282900F07BFF7A3B79067F01124F7FE49003CF5B
:10283900F07BFF7A3B79187F01124F7F9003CFE03D
:10284900FF90FDF993FE74F12FF8E6B506069003A3
:10285900D0E004F09003CFE004F0E0C3940740D146
:102869009003D0E06407600B7BFF7A3B791A7F0104
:10287900024F7F7BFF7A3B794D7F02124F7F7BFFAF
:102889007A3B79557F01124F7FE49003CFF0900393
:10289900CFE0FFC3940750217BFF7A3A79D4EF90B8
:1028A900FDF993FF9003D7E4F0A3EFF07F01124FF6
:1028B9007F9003CFE004F080D57BFF7A3B79617F7D
:1028C90001124F7F7BFF7A3B79647F02124F7FE4CD
:1028D9009003CFF09003CFE0FFC3940750217BFF13
:1028E9007A3A79D4EF90FDF993FF9003D7E4F0A3F6
:1028F900EFF07F02124F7F9003CFE004F080D512F2
:1029090059857BFF7A3B79757F01124F7F12598573
:102919007BFF7A3B79877F01124F7F1259857BFFB5
:102929007A3B79999003D77408F0A3E4F07F0112F8
:102939004F7F7F027E001259897BFF7A3B79AA90EB
:1029490003D71213FE000100007F01124F7F7F029F
:102959007E001259897BFF7A3B79BC9003D7121309
:10296900FE016E36007F01124F7F7F027E001259F1
:10297900897BFF7A3B79CC78EFE6FF08E69003D7AD
:10298900CFF0A3EFF07F01124F7F1259857BFF7AB9
:102999003B79DB7F01124F7F1259859003D1E0B457
:1029A900120B7BFF7A3B79E37F01124F7F9003D1B2
:1029B900E0B4340B7BFF7A3B79F07F01124F7F1231
:0229C90059852E
:0129CB0022E9
:105A820043BA80D213E4F50DF50C1250FAD2AF7F6F
:095A9200C87E001259890227594F
:0B44A6009003E2EBF0A3EAF0A3E9F0C2
:1044B100E4FFFE9003E8F0A3F09003E2E0FBA3E049
:1044C100FAA3E0F912118C70030245539003E5E061
:1044D100FBA3E0FAA3E0F98F828E831211A5FD9070
:1044E10003E2E0FBA3E0FAA3E0F912118CB50507A2
:1044F1000FBF00010E801E12118CFD9003E5E0FB41
:10450100A3E0FAA3E0F912118CB505067E007F0144
:104511008003E4FEFF9003E9E004F070069003E8F5
:10452100E004F09003E3E475F0011212189003E542
:10453100E0FBA3E0FAA3E0F98F828E831211A5605C
:10454100030244BAC39003E9E09FFF9003E8E09EB1
:06455100FE227EFF7FFF49
:014557002241
:10460900E49006C3F09006C5F09006C4F09006C485
:10461900E0FFC3940A40030246B27E00ED2FF58203
:10462900EE3CF5831211A5FFC394304049EFD394B2
:104639003750439006C5E004F0E0B401179006C472
:10464900E02DF582EE3CF5831211A524D0C454F077
:104659009006C3F09006C5E0B4021B9006C4E07E44
:10466900002DF582EE3CF5831211A524D0FF9006AA
:10467900C3E04FFFF0229006C4E07E002DF582EEE4
:104689003CF5831211A5FFC39438400CEFD394393C
:1046990050069006C5E004F0EF642C600CEF600949
:0E46A9009006C4E004F00246169006C3E0FF3F
:0146B70022E0
:084339009006B0ECF0A3EDF0DA
:10434100E4A3F0A3F0A3F09006B4E0FFC3941440FB
:10435100030243E89006B1E02FFF9006B0E034007D
:104361008F82F5831211A5FFC39430404CEFD39493
:104371003950469006B2E0FEA3E0FF7C007D0A12B0
:1043810012069006B2EEF0A3EFF0A3E0FF9006B1A3
:10439100E02FFF9006B0E034008F82F5831211A563
:1043A100FF3395E0FEEF24D0FFEE34FFFE9006B31D
:1043B100E02FF09006B2E03EF09006B4E0FF9006E8
:1043C100B1E02FFF9006B0E034008F82F583121127
:1043D100A5FF642C6011EF642E600CEF600990065C
:0F43E100B4E004F00243489006B2E0FEA3E0FF10
:0143F00022AA
:103D4500900669EBF0A3EAF0A3E9F0A3ECF0A3ED8C
:013D5500F07D
:103D5600E4900675F0A3F0A3F0A3F0A3F0A3F0900F
:103D66000673F0A3F090066CE0FEA3E0FF900673E6
:103D7600E0FCA3E0FDC39FEC9E4003023E159006C7
:103D86006EE0FBA3E0FAA3E0F9900675E0FEA3E07F
:103D9600F5828E831211A5FF900669E0FBA3E0FA77
:103DA600A3E0F98D828C831211A5B50733900676B0
:103DB600E004F07006900675E004F0900671E0FEEF
:103DC600A3E0FF900675E0B50631A3E0B5072C9099
:103DD6000673E0FFA3E0900679CFF0A3EFF0802F03
:103DE600E4900675F0A3F0900674E02401FE9006B8
:103DF60073E03400900677F0A3CEF0900674E004EA
:103E0600F06003023D6B900673E004F0023D6B9098
:103E16000679E0FEA3E0FF900677E0FCA3E0FDD381
:103E26009FEC9E5044900673ECF0A3EDF09006795B
:103E3600E0FEA3E0FF900673E0FCA3E0FDC39FEC69
:103E46009E5023900669E0FBA3E0FAA3E0F98D8279
:103E56008C83E41211E4900674E004F070CF9006AF
:0B3E660073E004F080C77F01227F00A2
:013E7100222E
:080003000102040810204080F6
:10455800ED6058EF540F90000393FEEF54F024F0F1
:10456800602424F0602524F0602624F0602724F0DD
:10457800602824F0602924F0602A24706003024631
:104588000890FE10802190FE11801C90FE1280176A
:1045980090FE13801290FE14800D90FE15800890F6
:1045A800FE16800390FE17E04EF022EF540F9000A5
:1045B8000393F4FEEF54F024F0602124F0602224E9
:1045C800F0602324F0602424F0602524F060262481
:1045D800F060272470702990FE10802190FE1180D1
:1045E8001C90FE12801790FE13801290FE14800D0E
:1045F80090FE15800890FE16800390FE17E05EF08E
:01460800228F
:1031E800EF540F90000393FEEF54F024F0605E2438
:1031F800F0700302328224F070030232AF24F070C0
:10320800030232DC24F0700302330924F070030255
:10321800333324F0700302335D2470600302338675
:10322800ED14601414601914601B24036003023346
:1032380086EEF45293529422EE4293EEF452942284
:10324800EE42938004EEF45293EE429422ED146021
:103258001414601914601B24036003023386EEF40F
:103268005291529222EE4291EEF4529222EE429103
:103278008004EEF45291EE429222ED146014146030
:103288001914601B24036003023386EEF45295522E
:103298009622EE4295EEF4529622EE42958004EE86
:1032A800F45295EE429622ED1460141460191460DD
:1032B8001B24036003023386EEF452B152B222EEAD
:1032C80042B1EEF452B222EE42B18004EEF452B1B1
:1032D800EE42B222ED14601414601914601B24032A
:1032E8006003023386EEF452B352B422EE42B3EED8
:1032F800F452B422EE42B38004EEF452B3EE42B478
:1033080022ED1460111460161460182403706FEE17
:10331800F452C952CA22EE42C9EEF452CA22EE420F
:10332800C98004EEF452C9EE42CA22ED14601114A9
:10333800601614601824037045EEF452CB52CC2268
:10334800EE42CBEEF452CC22EE42CB8004EEF452A5
:10335800CBEE42CC22ED14601114601614601824D0
:1033680003701BEEF452E152E222EE42E1EEF45217
:0E337800E222EE42E18004EEF452E1EE42E287
:013386002224
:10475D00EF540F90000393FEED6043EF54F024F0FF
:10476D00602024F0602024F0602024F0602024F0EC
:10477D00602024F0602024F060202470706AEE42E6
:10478D008022EE429022EE42A022EE42B022EE4274
:10479D00C022EE42C822EE42E822EE42F822EF5449
:1047AD00F024F0602124F0602224F0602324F060D6
:1047BD002424F0602524F0602624F06027247070F6
:1047CD0027EEF4528022EEF4529022EEF452A02203
:1047DD00EEF452B022EEF452C022EEF452C822EEA4
:0847ED00F452E822EEF452F848
:0147F50022A1
:10515300EF540F90000393FDEF54F024F0602024EC
:10516300F0602024F0602024F0602024F0602024EC
:10517300F0602024F0602024707020AE80801FAE89
:1051830090801BAEA08017AEB08013AEC0800FAE70
:10519300C8800BAEE88007AEF880037F0122EE5D86
:0751A30060037F01227F0081
:0151AA0022E2
:10533900EF540F90000393FEEF54F024F060202403
:10534900F0602024F0602024F0602024F060202404
:10535900F0602024F060202470701FEE628022EE3D
:10536900629022EE62A022EE62B022EE62C022EECC
:0A53790062C822EE62E822EE62F83C
:015383002207
:10546000EFB40800503E90546DF82828730254851C
:1054700002548902548D02549102549502549902A7
:10548000549D0254A1ED628022ED629022ED62A053
:1054900022ED62B022ED62C022ED62C822ED62E828
:0554A00022ED62F8227C
:1047F600EB6048EFB40800400302488D904809F882
:1048060028287302482102482502482902482D0219
:10481600483102483502483902483DED428022EDD2
:10482600429022ED42A022ED42B022ED42C022ED9E
:1048360042C822ED42E822ED42F822EFB4080050C9
:104846004690484EF828287302486602486B02488C
:104856007002487502487A02487F024884024889F5
:10486600EDF4528022EDF4529022EDF452A022EDA6
:10487600F452B022EDF452C022EDF452C822EDF407
:0848860052E822EDF452F82281
:1051FE00EFB40800503F90520BF828287302522348
:10520E0002522702522B02522F02523302523702FF
:10521E00523B02523FAE80801FAE90801BAEA080EC
:10522E0017AEB08013AEC0800FAEC8800BAEE88054
:10523E0007AEF880037F0122EE5D60037F01227FBF
:01524E00005F
:01524F00223C
:045B430075C12522E1
:045B470043C1102224
:0C5B1C003031363716174344101146474D
:1050FA0075985053873FE58E54DE4401F58EE4FDE2
:10510A007F01124BE29003D41213FE000708007FBE
:10511A0001125644438E0453AFFB438E10C211D280
:10512A00AC759A10E4FD7F02124BE29003D412137D
:10513A00FE000708007F02125644438E0453AFFB59
:09514A00438E10C21243AF012292
:104BE2009003CFEDF0EF24FE603F0470769003CF88
:104BF200E0FF54C0FEE5A2543F4EF5A2EFC41313EA
:104C0200540325E0241CF582E4345BF583E493FF2E
:104C1200E4FD1231E89003CFE0C41313540325E0FE
:104C2200241DF582E4345B80309003CFE0FF540111
:104C3200FEE5BA54FE4EF5BAEF25E02424F582E4EF
:104C4200345BF583E493FFE4FD1231E89003CFE097
:104C520025E02425F582E4345BF583E493FF7D03AC
:044C62001231E82201
:055644009003D3EFF01C
:10564900A3E0F8A3E0F9A3E0FAA3E0FB7F807E8D55
:105659007D5B7C0012131BC3E49FFFE49EFE900355
:0E566900D3E024FE60030470058FD7EEF5D663
:015677002210
:105A1900EF24FE600C0470128D99D21130110B80A5
:0B5A2900FBAF058F9BD2122012FD2264
:1055D400EF24FE6019047030EB6006D29BD29B80EE
:1055E40004C29BC29B8D99D21130111C80FBEB60CD
:1055F40008439A08439A088006539AF7539AF7AFD8
:09560400058F9BD2122012FD2239
:10560D00900602EBF0A3EAF0A3E9F0AE07900602D4
:10561D00E0FBA3E0FAA3E0F912118C6019AF06903C
:10562D000602A3E475F00112122EA9F0FA12118CE4
:07563D00FD125A1980D7226B
:0E4F7F009003D3EFF0A3EBF0A3EAF0A3E9F068
:104F8D009005FF7401F0A37403F0A374D7F09003A0
:104F9D00D4E0F9A3E0FAA3E0900602C9F0A3EAF089
:104FAD00A3E9F09005FFE0F9A3E0FAA3E090060570
:104FBD00C9F0A3EAF0A3E9F07B017A0379FF12535C
:104FCD00CE9005FFE4F0A3F0A3F09003D3E0FF7BB8
:084FDD00017A0379FF02560D71
:015B4F002233
:015B50002232
:015B51002231
:015B52002230
:105AED00EF146008047009C28DD28C22C28FD28E41
:015AFD002286
:0D000E00EF146006047005C28C22C28E2221
:105523009006CDEFF0ED6015E014600A04702B4394
:105533008F017D038016438F027D0380189006CD73
:10554300E014600C047013538FFEE4FD7F35800775
:0B555300538FFDE4FD7F341231E8228D
:10575F00E58E547F4480F58E5389F0758A48758C99
:10576F00F4D2A9E58E54BF4440F58E53890F758B43
:07577F0040758DA2D2AB22A0
:0B41A300900687EFF0A3ECF0A3EDF016
:1041AE004C700302426E7FAA7E0A90068C747FF0DA
:1041BE00A374FFF0900688E0FCA3E0FDD39FEC9E75
:1041CE005013A3E4F0A304F0E4120D32E4FBFA79E9
:1041DE00C07841802790068CE0FEA3E0FF90068811
:1041EE00E0FCA3E0FDD39FEC9E5024A3E4F0A37467
:1041FE000CF0E4120D32E4FBFAF97840120B871240
:10420E000D6BC3E49FFFE49E90068EF0A3EFF0903B
:10421E000687E014602704704790068AE07004A3B6
:10422E00E064017005438E808003538E7F90068E6E
:10423E00E0FEA3E0F58AEEF58C5389FB2290068A08
:10424E00E07004A3E064017005438E408003538E3A
:10425E00BF90068EE0FEA3E0F58BEEF58D5389BF81
:01426E00222D
:105ADA00EF14600904700B8D8AECF58C228D8BEC27
:035AEA00F58D2215
:10002600E4FDFCEF14600B04700EAF8CEFAD8AFCA0
:0C0036008006AF8DEFAD8BFCAE04AF0573
:01004200229B
:104925009003CFEFF024FC602724FC603E24FC605C
:1049350055240C706DE4FD7F121231E87D037F1361
:104945001231E8E4FD7F141231E87D037F15804FB5
:10495500E4FD7F221231E87D037F231231E8E4FD77
:104965007F241231E87D037F258034E4FD7F5412D6
:1049750031E87D037F401231E8E4FD7F411231E8E3
:104985007D037F438019E4FD7F351231E87D037F88
:10499500341231E8E4FD7F331231E87D037F3212B2
:1049A50031E89003CFE0540CFFE5A254F34FF5A294
:0149B50022DF
:0F5B0D00E4FF12492575CED175CDC043CE40229D
:1059E1007DC07C128FCFE5CD20E70BED4C6007ED3C
:0B59F1001D70F31C80F043CDC0AFCF51
:0159FC002288
:1056780075DE2F78EFE6FC08E6FDE4120D32E4FB58
:10568800FA797A7844120C909006BF1213F27D01D1
:105698007F161231E87D017F061231E843BC802273
:1056A8007DC07C12EF540FFFE5BC54F04FF5BC43AE
:1056B800BC400000E5BC20E50BED4C6007ED1D701B
:0F56C800F31C80F053BC9FAFBDEFFEADBEEDFFF6
:0156D70022B0
:1057D4001256A8AD07AC06E4120D329006B6E0F8F6
:1057E400A3E0F9A3E0FAA3E0FB120B87E4FBFA7948
:0657F400807844020C90D5
:1054A5007F0F1256A8EF4E7005FFFEFDFC22AD07DB
:1054B500AC06E4120D32C004C005C006C007E4FF07
:1054C500FE7D807C449006BFE0F8A3E0F9A3E0FAF6
:1054D500A3E0FB120B87D003D002D001D000120C41
:0154E5009036
:0154E60022A3
:101D5E0043F10190FF02740FF090FF007475F0A331
:101D6E007430F090FF10E4F0A3F0A3F0A3F0A3748E
:101D7E0080F07D03E4FF1231E890FF18E4F0A3F049
:101D8E00A3F0A3F0A37480F07D037F011231E890DD
:101D9E00FF20E4F0A3F0A3F0A3F0A37480F07D0382
:101DAE007F021231E890FF28E4F0A3F0A3F0A3F035
:101DBE00A37480F07D037F031231E890FF30E4F0CE
:101DCE00A3F0A3F0A3F0A37480F07D037F0412317F
:101DDE00E890FF38E4F0A3F0A3F0A3F0A37480F032
:101DEE007D037F051231E890FF407475F0A37430C7
:101DFE00F0A3E4F0A3F0A37480F07D037F0612310C
:101E0E00E890FF487475F0A37430F0A3E4F0A3F0EB
:101E1E00A37480F07D037F071231E843F60143F18E
:101E2E000290FF52740FF090FF507475F0A374304F
:101E3E00F090FF907475F0A37430F0A3E4F0A3F06B
:101E4E00A37480F07D037F161231E890FF98E4F0C2
:101E5E00A3F0A3F0A3F0A37480F07D037F171231DB
:101E6E00E843F61043F10490FFA2740FF090FFA028
:101E7E007475F0A37430F090FFB0E4F0A3F0A3F00B
:101E8E00A3F0A37480F07D037F201231E890FFB899
:101E9E00E4F0A3F0A3F0A3F0A37480F07D037F2100
:101EAE001231E890FFC0E4F0A3F0A3F0A3F0A37406
:101EBE0080F07D037F221231E890FFC8E4F0A3F09A
:101ECE00A3F0A3F0A37480F07D037F231231E8907A
:101EDE00FFD0E4F0A3F0A3F0A3F0A37480F07D0391
:101EEE007F241231E890FFD8E4F0A3F0A3F0A3F022
:101EFE00A37480F07D037F251231E890FFE0E4F0BB
:101F0E00A3F0A3F0A3F0A37480F07D037F2612311B
:101F1E00E890FFE8E4F0A3F0A3F0A3F0A37480F040
:101F2E007D037F271231E843F70143F10890FC024D
:101F3E00740FF090FC007475F0A37430F090FC20D8
:101F4E00E4F0A3F0A3F0A3F0A37480F07D037F323E
:101F5E001231E890FC28E4F0A3F0A3F0A3F0A374F0
:101F6E0080F07D037F331231E890FC30E4F0A3F073
:101F7E00A3F0A3F0A37480F07D037F341231E890B8
:101F8E00FC38E4F0A3F0A3F0A3F0A37480F07D037B
:101F9E007F351231E890FC40E4F0A3F0A3F0A3F0FB
:101FAE00A37480F07D037F361231E890FC48E4F094
:101FBE00A3F0A3F0A3F0A37480F07D037F3712315A
:101FCE00E843F71043F11090FC52740FF090FC5060
:101FDE007475F0A37430F090FC60E4F0A3F0A3F0FD
:101FEE00A3F0A37480F07D037F401231E890FC686B
:101FFE00E4F0A3F0A3F0A3F0A37480F07D037F417F
:10200E001231E890FC70E4F0A3F0A3F0A3F0A374F7
:10201E0080F07D037F421231E890FC78E4F0A3F06B
:10202E00A3F0A3F0A37480F07D037F431231E890F8
:10203E00FC80E4F0A3F0A3F0A3F0A37480F07D0382
:10204E007F441231E890FC88E4F0A3F0A3F0A3F0F3
:10205E00A37480F07D037F451231E890FC90E4F08C
:10206E00A3F0A3F0A3F0A37480F07D037F4612319A
:10207E00E843FE0143F12090FCA2740FF090FCA007
:10208E007475F0A37430F090FCB0E4F0A3F0A3F0FC
:10209E00A3F0A37480F07D037F501231E890FCB85A
:1020AE00E4F0A3F0A3F0A3F0A37480F07D037F51BE
:1020BE001231E890FCC0E4F0A3F0A3F0A3F0A374F7
:1020CE0080F07D037F521231E890FCC8E4F0A3F05B
:1020DE00A3F0A3F0A37480F07D037F531231E84385
:0320EE00FE1022BF
:053387009003D0EFF0FF
:10338C009003D57401F09003D5E0FFC39410503630
:10339C00AB07E4FAF9F8FF7E367D6E7C0112131B45
:1033AC00E47BFF7A7FF9F812131B9003D1E0F8A3AA
:1033BC00E0F9A3E0FAA3E0FBD31213BB500890038F
:1033CC00D5E004F080C09003D5E0FBE4FAF9F8FFF7
:1033DC007E367D6E7C0112131B9003D1E0F8A3E0C6
:1033EC00F9A3E0FAA3E0FB12131B9003D61213F21D
:1033FC00E47FFF7E7FFDFC9003D6E0F8A3E0F9A309
:10340C00E0FAA3E0FBD31213BB400302350B90038D
:10341C00D0E014603C14605C14607C1470030234C3
:10342C00C61470030234E92405600302350B53F60D
:10343C00FE9003D5E0C3940190FF02F09003D6A355
:10344C00A3E0FFA3E090FF00CFF0A3EFF043F60161
:10345C002253F6EF9003D5E0C3940190FF52F09005
:10346C0003D6A3A3E0FFA3E090FF50CFF0A3EFF0AF
:10347C0043F6102253F7FE9003D5E0C3940190FF5E
:10348C00A2F09003D6A3A3E0FFA3E090FFA0CFF09F
:10349C00A3EFF043F7012253F7EF9003D5E0C39469
:1034AC000190FC02F09003D6A3A3E0FFA3E090FCF4
:1034BC0000CFF0A3EFF043F7102253FEFE9003D59C
:1034CC00E0C3940190FC52F09003D6A3A3E0FFA3B9
:1034DC00E090FC50CFF0A3EFF043FE012253FEEF3F
:1034EC009003D5E0C3940190FCA2F09003D6A3A363
:0F34FC00E0FFA3E090FCA0CFF0A3EFF043FE10A1
:01350B00229D
:100046009003D2EDF0A3EAF0A3EBF0EF14700302F5
:1000560002FA14700302039E147003020621147040
:100066000302080A147003020A3F24056003020B08
:10007600869003D2E0B408004003020B8690008A03
:10008600F82828730200A20200ED0201380201835B
:100096000201CE0202190202640202AF9003D3E00B
:1000A600FEA3E0FFC394E8EE9403400690FF15021A
:1000B6000B4BEF4E90FF15700304F022E4F090FF17
:1000C60012F0A3F090FF00E0FEA3E0FF9003D3E060
:1000D600FCA3E0FD1214C5E47BE87A03F9F81213D9
:1000E6001B90FF10020B819003D3E0FEA3E0FFC339
:1000F60094E8EE9403400690FF1D020B4BEF4E90E2
:10010600FF1D700304F022E4F090FF1AF0A3F090B4
:10011600FF00E0FEA3E0FF9003D3E0FCA3E0FD12A6
:1001260014C5E47BE87A03F9F812131B90FF180252
:100136000B819003D3E0FEA3E0FFC394E8EE9403A3
:10014600400690FF25020B4BEF4E90FF25700304EF
:10015600F022E4F090FF22F0A3F090FF00E0FEA36F
:10016600E0FF9003D3E0FCA3E0FD1214C5E47BE8B6
:100176007A03F9F812131B90FF20020B819003D328
:10018600E0FEA3E0FFC394E8EE9403400690FF2D43
:10019600020B4BEF4E90FF2D700304F022E4F0901B
:1001A600FF2AF0A3F090FF00E0FEA3E0FF9003D348
:1001B600E0FCA3E0FD1214C5E47BE87A03F9F8122B
:1001C600131B90FF28020B819003D3E0FEA3E0FFF0
:1001D600C394E8EE9403400690FF35020B4BEF4EB6
:1001E60090FF35700304F022E4F090FF32F0A3F0A4
:1001F60090FF00E0FEA3E0FF9003D3E0FCA3E0FD48
:100206001214C5E47BE87A03F9F812131B90FF3049
:10021600020B819003D3E0FEA3E0FFC394E8EE94C3
:1002260003400690FF3D020B4BEF4E90FF3D7003DF
:1002360004F022E4F090FF3AF0A3F090FF00E0FE15
:10024600A3E0FF9003D3E0FCA3E0FD1214C5E47B1A
:10025600E87A03F9F812131B90FF38020B8190031A
:10026600D3E0FEA3E0FFC394E8EE9403400690FFBC
:1002760045020B4BEF4E90FF45700304F022E4F06D
:1002860090FF42F0A3F090FF00E0FEA3E0FF900392
:10029600D3E0FCA3E0FD1214C5E47BE87A03F9F889
:1002A60012131B90FF40020B819003D3E0FEA3E0E4
:1002B600FFC394E8EE9403400690FF4D020B4BEF0C
:1002C6004E90FF4D700304F022E4F090FF4AF0A335
:1002D600F090FF00E0FEA3E0FF9003D3E0FCA3E074
:1002E600FD1214C5E47BE87A03F9F812131B90FF9C
:1002F60048020B819003D2E024F9605104600302A6
:100306000B869003D3E0FEA3E0FFC394E8EE9403CC
:10031600400690FF95020B4BEF4E90FF957003043D
:10032600F022E4F090FF92F0A3F090FF50E0FEA3DD
:10033600E0FF9003D3E0FCA3E0FD1214C5E47BE8E4
:100346007A03F9F812131B90FF90020B819003D3E6
:10035600E0FEA3E0FFC394E8EE9403400690FF9D01
:10036600020B4BEF4E90FF9D700304F022E4F090D9
:10037600FF9AF0A3F090FF50E0FEA3E0FF9003D3B6
:10038600E0FCA3E0FD1214C5E47BE87A03F9F81259
:10039600131B90FF98020B819003D2E0B408004033
:1003A60003020B869003B1F82828730203C90204DE
:1003B6001402045F0204AA0204F502054002058B3A
:1003C6000205D69003D3E0FEA3E0FFC394E8EE94C3
:1003D60003400690FFB5020B4BEF4E90FFB570033E
:1003E60004F022E4F090FFB2F0A3F090FFA0E0FE4C
:1003F600A3E0FF9003D3E0FCA3E0FD1214C5E47B69
:10040600E87A03F9F812131B90FFB0020B819003F0
:10041600D3E0FEA3E0FFC394E8EE9403400690FF0A
:10042600BD020B4BEF4E90FFBD700304F022E4F0CB
:1004360090FFBAF0A3F090FFA0E0FEA3E0FF9003C8
:10044600D3E0FCA3E0FD1214C5E47BE87A03F9F8D7
:1004560012131B90FFB8020B819003D3E0FEA3E0BA
:10046600FFC394E8EE9403400690FFC5020B4BEFE2
:100476004E90FFC5700304F022E4F090FFC2F0A393
:10048600F090FFA0E0FEA3E0FF9003D3E0FCA3E022
:10049600FD1214C5E47BE87A03F9F812131B90FFEA
:1004A600C0020B819003D3E0FEA3E0FFC394E8EE05
:1004B6009403400690FFCD020B4BEF4E90FFCD709C
:1004C6000304F022E4F090FFCAF0A3F090FFA0E04E
:1004D600FEA3E0FF9003D3E0FCA3E0FD1214C5E405
:1004E6007BE87A03F9F812131B90FFC8020B819080
:1004F60003D3E0FEA3E0FFC394E8EE940340069026
:10050600FFD5020B4BEF4E90FFD5700304F022E4AB
:10051600F090FFD2F0A3F090FFA0E0FEA3E0FF90E2
:1005260003D3E0FCA3E0FD1214C5E47BE87A03F9EB
:10053600F812131B90FFD0020B819003D3E0FEA3A9
:10054600E0FFC394E8EE9403400690FFDD020B4BF8
:10055600EF4E90FFDD700304F022E4F090FFDAF036
:10056600A3F090FFA0E0FEA3E0FF9003D3E0FCA37E
:10057600E0FD1214C5E47BE87A03F9F812131B9028
:10058600FFD8020B819003D3E0FEA3E0FFC394E8FB
:10059600EE9403400690FFE5020B4BEF4E90FFE50D
:1005A600700304F022E4F090FFE2F0A3F090FFA0C5
:1005B600E0FEA3E0FF9003D3E0FCA3E0FD1214C528
:1005C600E47BE87A03F9F812131B90FFE0020B8133
:1005D6009003D3E0FEA3E0FFC394E8EE9403400645
:1005E60090FFED020B4BEF4E90FFED700304F022EF
:1005F600E4F090FFEAF0A3F090FFA0E0FEA3E0FF96
:100606009003D3E0FCA3E0FD1214C5E47BE87A0373
:10061600F9F812131B90FFE8020B819003D2E02435
:10062600FD606A1470030206DE14700302072914C3
:1006360070030207741470030207BF2405600302E7
:100646000B869003D3E0FEA3E0FFC394E8EE940389
:10065600400690FC25020B4BEF4E90FC25700304E0
:10066600F022E4F090FC22F0A3F090FC00E0FEA360
:10067600E0FF9003D3E0FCA3E0FD1214C5E47BE8A1
:100686007A03F9F812131B90FC20020B819003D316
:10069600E0FEA3E0FFC394E8EE9403400690FC2D31
:1006A600020B4BEF4E90FC2D700304F022E4F09009
:1006B600FC2AF0A3F090FC00E0FEA3E0FF9003D339
:1006C600E0FCA3E0FD1214C5E47BE87A03F9F81216
:1006D600131B90FC28020B819003D3E0FEA3E0FFDE
:1006E600C394E8EE9403400690FC35020B4BEF4EA4
:1006F60090FC35700304F022E4F090FC32F0A3F095
:1007060090FC00E0FEA3E0FF9003D3E0FCA3E0FD35
:100716001214C5E47BE87A03F9F812131B90FC3037
:10072600020B819003D3E0FEA3E0FFC394E8EE94AE
:1007360003400690FC3D020B4BEF4E90FC3D7003D0
:1007460004F022E4F090FC3AF0A3F090FC00E0FE06
:10075600A3E0FF9003D3E0FCA3E0FD1214C5E47B05
:10076600E87A03F9F812131B90FC38020B81900308
:10077600D3E0FEA3E0FFC394E8EE9403400690FCAA
:1007860045020B4BEF4E90FC45700304F022E4F05B
:1007960090FC42F0A3F090FC00E0FEA3E0FF900383
:1007A600D3E0FCA3E0FD1214C5E47BE87A03F9F874
:1007B60012131B90FC40020B819003D3E0FEA3E0D2
:1007C600FFC394E8EE9403400690FC4D020B4BEFFA
:1007D6004E90FC4D700304F022E4F090FC4AF0A326
:1007E600F090FC00E0FEA3E0FF9003D3E0FCA3E062
:1007F600FD1214C5E47BE87A03F9F812131B90FC8A
:1008060048020B819003D2E0B407004003020B8636
:1008160090081DF828287302083202087D0208C8CD
:1008260002091302095E0209A90209F49003D3E042
:10083600FEA3E0FFC394E8EE9403400690FC650235
:100846000B4BEF4E90FC65700304F022E4F090FC35
:1008560062F0A3F090FC50E0FEA3E0FF9003D3E02B
:10086600FCA3E0FD1214C5E47BE87A03F9F8121341
:100876001B90FC60020B819003D3E0FEA3E0FFC354
:1008860094E8EE9403400690FC6D020B4BEF4E90FD
:10089600FC6D700304F022E4F090FC6AF0A3F09083
:1008A600FC50E0FEA3E0FF9003D3E0FCA3E0FD12C2
:1008B60014C5E47BE87A03F9F812131B90FC68026E
:1008C6000B819003D3E0FEA3E0FFC394E8EE94030C
:1008D600400690FC75020B4BEF4E90FC75700304BE
:1008E600F022E4F090FC72F0A3F090FC50E0FEA33E
:1008F600E0FF9003D3E0FCA3E0FD1214C5E47BE81F
:100906007A03F9F812131B90FC70020B819003D343
:10091600E0FEA3E0FFC394E8EE9403400690FC7D5E
:10092600020B4BEF4E90FC7D700304F022E4F09036
:10093600FC7AF0A3F090FC50E0FEA3E0FF9003D316
:10094600E0FCA3E0FD1214C5E47BE87A03F9F81293
:10095600131B90FC78020B819003D3E0FEA3E0FF0B
:10096600C394E8EE9403400690FC85020B4BEF4ED1
:1009760090FC85700304F022E4F090FC82F0A3F072
:1009860090FC50E0FEA3E0FF9003D3E0FCA3E0FD63
:100996001214C5E47BE87A03F9F812131B90FC8065
:1009A600020B819003D3E0FEA3E0FFC394E8EE942C
:1009B60003400690FC8D020B4BEF4E90FC8D7003AE
:1009C60004F022E4F090FC8AF0A3F090FC50E0FEE4
:1009D600A3E0FF9003D3E0FCA3E0FD1214C5E47B83
:1009E600E87A03F9F812131B90FC88020B81900336
:1009F600D3E0FEA3E0FFC394E8EE9403400690FC28
:100A060095020B4BEF4E90FC95700304F022E4F038
:100A160090FC92F0A3F090FC50E0FEA3E0FF900360
:100A2600D3E0FCA3E0FD1214C5E47BE87A03F9F8F1
:100A360012131B90FC90020B819003D2E014605EAF
:100A4600147003020AEF147003020B3824036003C8
:100A5600020B869003D3E0FEA3E0FFC394E8EE9476
:100A660003400690FCB5020B4BEF4E90FCB57003AD
:100A760004F022E4F090FCB2F0A3F090FCA0E0FEBB
:100A8600A3E0FF9003D3E0FCA3E0FD1214C5E47BD2
:100A9600E87A03F9F812131B90FCB0020B8190035D
:100AA600D3E0FEA3E0FFC394E8EE9403400690FC77
:100AB600BD020B4BEF4E90FCBD700304F022E4F038
:100AC60090FCBAF0A3F090FCA0E0FEA3E0FF900338
:100AD600D3E0FCA3E0FD1214C5E47BE87A03F9F841
:100AE60012131B90FCB8020B819003D3E0FEA3E027
:100AF600FFC394E8EE9403400590FCC58047EF4E93
:100B060090FCC5700304F022E4F090FCC2F0A3F060
:100B160090FCA0E0FEA3E0FF9003D3E0FCA3E0FD81
:100B26001214C5E47BE87A03F9F812131B90FCC093
:100B360080499003D3E0FEA3E0FFC394E8EE94035C
:100B4600400790FCCD7402F022EF4E90FCCD70036E
:100B560004F022E4F090FCCAF0A3F090FCA0E0FEC2
:100B6600A3E0FF9003D3E0FCA3E0FD1214C5E47BF1
:100B7600E87A03F9F812131B90FCC8EEF0A3EFF025
:010B8600224C
:03000B0002555E3D
:10555E00C0E0C0F0C083C082C0D075D000C000C013
:10556E0001C002C003C004C005C006C007125A34F1
:10557E00D007D006D005D004D003D002D001D00081
:0B558E00D0D0D082D083D0F0D0E0322B
:03001B00025599F2
:10559900C0E0C0F0C083C082C0D075D000C000C0D8
:1055A90001C002C003C004C005C006C00712426F93
:1055B900D007D006D005D004D003D002D001D00046
:0B55C900D0D0D082D083D0F0D0E032F0
:0300230002538401
:10538400C0E0C0F0C083C082C0D075D000C000C0EF
:1053940001C002C003C004C005C006C0073098089D
:1053A400C298125707125941309904C299C211D0B8
:1053B40007D006D005D004D003D002D001D000D04D
:0A53C400D0D082D083D0F0D0E032C8
:030043000252A0C6
:1052A000C0E0C0F0C083C082C0D075D000C000C0D4
:1052B00001C002C003C004C005C006C007E59A30A3
:1052C000E006539AFE125733E59A30E105539AFDF2
:1052D000C212D007D006D005D004D003D002D0012E
:0D52E000D000D0D0D082D083D0F0D0E0320A
:035B4B000259E11B
:1051AB009003E7EBF0A3EAF0A3E9F0A3ECF0A3ED97
:0151BB00F003
:1051BC00E4A3F0A3F09003EAE0FEA3E0FFA3E0FC7D
:1051CC00A3E0FDC39FEC9E50269003E7E0FBA3E019
:1051DC00FAA3E0F98D828C831211A5FF1259E1908C
:1051EC0003EDE004F070CE9003ECE004F080C67F99
:0151FC0001B1
:0151FD00228F
:05001E007FFF0259E123
:0E4E4000E0FBA3E0FAA3E0F9A3E0FCA3E0FD91
:104E4E009003E7EBF0A3EAF0A3E9F0A3ECF0A3EDF7
:014E5E00F063
:104E5F00E4A3F0A3F09003EAE0FEA3E0FFC3900306
:104E6F00EDE09F9003ECE09E502F7FFF1259E190F1
:104E7F0003E7E0FBA3E0FAA3E0F99003ECE0FCA367
:104E8F00E0F5828C83EF1211E49003EDE004F070F3
:0B4E9F00C49003ECE004F080BC7F0135
:014EAA0022E5
:1057FA00E49003ECF0FD7F1212475D7F05125B4BCC
:10580A0012001E9003ECEFF07D017F1212475D90AB
:04581A0003ECE0FFBC
:01581E002267
:10581F00E49006CEF0FD7F1212475D7F35125B4B91
:10582F0012001E9006CEEFF07D017F1212475D90A1
:04583F0006CEE0FFB2
:015843002242
:1059C300125844E4FD7F1212475D7F01125B4BE4E2
:0E59D300FF125B4B7D017F1212475D0252ED09
:10596300E49006CFF0FD7F1212475D7F50125B4B30
:105973009006CFEFF07D017F1212475D9006CFE0D6
:01598300FF24
:015984002200
:10584400E49003E7F0FD7F1212475D7F06125B4B85
:105854009003E7EFF07D017F1212475D1252ED9045
:0458640003E7E0FF77
:01586800221D
:10586900E49006D0F0FD7F1212475D7F04125B4B76
:105879009006D0EFF07D017F1212475D1252ED9034
:0458890006D0E0FF66
:01588D0022F8
:095B3200E4FCFDFE78100213DF13
:04525000AB07AA06F8
:105254009003DB1213FE00000000D3EB94FFEA94EA
:105264000340047A037BFFAE02AF03E4FCFD90032A
:10527400DB1213F29003DBE0FCA3E0FDA3E0FEA34A
:10528400E0FF780C1213DF9003DB1213F29003DBC0
:0B529400E0FCA3E0FDA3E0FEA3E0FFB0
:01529F0022EC
:085B3B00E4FCFD78080213DF11
:0446B800AB05AA079D
:1046BC009006991213FE0000000090069D1213FE46
:1046CC0000000000EBD3940F4002E4FBAF02E4FCCB
:1046DC00FDFE9006991213F2900699E0FCA3E0FD02
:1046EC00A3E0FEA3E0FF78101213DF9006991213DB
:1046FC00F2AF03E4FCFDFE90069D1213F290069DB2
:10470C00E0FCA3E0FDA3E0FEA3E0FF780C1213DFB6
:10471C0090069D1213F2900699E0FCA3E0FDA3E035
:10472C00FEA3E0FFA3E0F8A3E0F9A3E0FAA3E0FB0B
:10473C00EF2BFFEE3AFEED39FDEC38FC90069912AA
:10474C0013F2900699E0FCA3E0FDA3E0FEA3E0FFCA
:01475C00223A
:09409C00900690EBF0AA05A907BB
:1040A500A31213FE000000009006951213FE0000F7
:1040B5000000EAD3940F4002E4FA900690E0D3940E
:1040C5000F4002E4F0AF01E4FCFDFE9006911213EF
:1040D500F2900691E0FCA3E0FDA3E0FEA3E0FF78EB
:1040E500101213DF9006911213F2AF02E4FCFDFEED
:1040F5009006951213F2900695E0FCA3E0FDA3E06F
:10410500FEA3E0FF780C1213DF9006951213F290D0
:104115000691E0FCA3E0FDA3E0FEA3E0FFA3E0F829
:10412500A3E0F9A3E0FAA3E0FBEF2BFFEE3AFEEDE7
:1041350039FDEC38FC9006911213F2900690E0FFE1
:10414500E4FCFDFE9006951213F2900695E0FCA3A3
:10415500E0FDA3E0FEA3E0FF78081213DF900695CB
:104165001213F2900691E0FCA3E0FDA3E0FEA3E0AC
:10417500FFA3E0F8A3E0F9A3E0FAA3E0FBEF2BFF30
:10418500EE3AFEED39FDEC38FC9006911213F290F3
:0D4195000691E0FCA3E0FDA3E0FEA3E0FF27
:0141A20022FA
:055786009006BAEFF0EF
:10578B00EB7B00FAAF05EFC454F0FEEB2400FFEE09
:10579B003AFE9006BEE02FFF9006BDE03EFEE4FC15
:0157AB00FD00
:0157AC0022DA
:104F16009003E71213F29003E7E0FCA3E0FDA3E0A1
:104F2600FEA3E0FF78101213CCEF1211D29003E724
:104F3600A3A3E0FEA3E0FFE4FDFC9003E71213F257
:104F46009003E7E0FCA3E0FDA3E0FEA3E0FF780802
:104F56001213CC9003EEE0FBA3E0FAA3E0F9EF1204
:104F660011D29003E7A3A3A3E0FF9003F1E0FBA314
:094F7600E0FAA3E0F9EF0211D208
:10541800E49006C9F0A3F0FD7F1212475D7F901259
:105428005B4BE4FF125B4BE4FF125B4BE4FF125B48
:105438004B12001EEF9006C9F0A3E4F012001E9074
:1054480006C9E0F0A3E04FF07D017F1212475D909E
:0754580006C9E0FEA3E0FF1E
:01545F00222A
:105044009003EE7401F0A37406F0A374C7F0A37484
:1050540001F0A37406F0A374C8F07B017A0679C644
:10506400124F16E4FD7F1212475D7F03125B4B90D3
:1050740006C6E0FF125B4B9006C7E0FF125B4B9045
:1050840006C8E0FF125B4B12001E9006C6EFF07DCF
:0B509400017F1212475D9006C6E0FF8E
:01509F0022EE
:0B4FE5009003DFEBF0A3EAF0A3E9F07B
:104FF0009003EE7401F0A37403F0A374E5F0A374BE
:1050000001F0A37403F0A374E6F07B017A0379E462
:10501000124F16E4FD7F1212475D7F03125B4B9027
:1050200003E4E0FF125B4B9003E5E0FF125B4B9063
:1050300003E6E0FF125B4B9003DF124E407D017FE1
:045040001202475DB4
:104C660090063EE0FBA3E0FAA3E0F9900682740109
:044C7600F0A3E4F0D3
:0B4C7A0090067FEBF0A3EAF0A3E9F046
:104C85009003EE7401F0A37406F0A37485F0A37489
:104C950001F0A37406F0A37486F07B017A0679848B
:104CA500124F16E4FD7F1212475D7F0B125B4B908E
:104CB5000684E0FF125B4B900685E0FF125B4B908C
:104CC5000686E0FF125B4BE4FF125B4B90067F12FA
:094CD5004E407D017F1202475D93
:1059FD001258441252EDE4FD7F1212475D7FC7121B
:0C5A0D005B4B7D017F1212475D0252EDE1
:104AD10090063EE0FBA3E0FAA3E0F99003E2740143
:044AE100F0A3E4F06A
:0B4AE5009003DFEBF0A3EAF0A3E9F080
:104AF0009003EE7401F0A37403F0A374E5F0A374C3
:104B000001F0A37403F0A374E6F07B017A0379E467
:104B1000124F161258441252EDE4FD7F1212475DF7
:104B20007F02125B4B9003E4E0FF125B4B9003E5C6
:104B3000E0FF125B4B9003E6E0FF125B4B9003DF5C
:104B4000E0FBA3E0FAA3E0F9A3E0FCA3E0FD12512F
:0B4B5000AB7D017F1212475D0252EDA9
:10395D009006511213F2900655EBF0A3EAF0A3E98D
:01396D00F069
:10396E00A3E0FCA3E0FDECC4540FA3F0EC540FFE57
:10397E00D3ED9400EE94004003E004F0900651E085
:10398E00FCA3E0FDA3E0FEA3E0FF90065B1213F2A2
:10399E00E490065FF090065AE0FF90065FE0C39F4A
:1039AE00502E90065B124D5690065BE0FCA3E0FD98
:1039BE00A3E0FEA3E02400FFEE3410FEE43DFDE4A0
:1039CE003CFC90065B1213F290065FE004F080C59B
:1039DE00900658E0FCA3E0FF900660E4F0A3EFF041
:1039EE00ECFFA3E4F0A3EFF0900655E0F9A3E0FAA4
:1039FE00A3E0900664C9F0A3EAF0A3E9F0E4A3F013
:103A0E00A3F0900662E0FEA3E0FFC3900668E09F7D
:103A1E00900667E09E504F900651E0FCA3E0FDA398
:103A2E00E0FEA3E0FF900664124AD4900651E0FC3B
:103A3E00A3E0FDA3E0FEA3E02400FFEE3401FEE4CC
:103A4E003DFDE43CFC9006511213F29006657401A4
:103A5E0075F000121218900668E004F070069006D9
:103A6E0067E004F0809CD3900661E09400900660BD
:103A7E00E09400402B900664E0FBA3E0FAA3E0F98B
:103A8E00900660E0FFA3E09003E2CFF0A3EFF0908A
:103A9E000651E0FCA3E0FDA3E0FEA3E0FF124AE521
:013AAE0022F5
:064EAB009006A91213F2AB
:104EB1001258441252ED9006A9E0FCA3E0FDA3E0D4
:104EC100FEA3E0FF9003EE7401F0A37406F0A37457
:104ED100AEF0A37401F0A37406F0A374AFF07B01EC
:104EE1007A0679AD124F16E4FD7F1212475D7FD825
:104EF100125B4B9006ADE0FF125B4B9006AEE0FFFC
:104F0100125B4B9006AFE0FF125B4B7D017F1212EB
:054F1100475D0252EDB6
:0B4D5600E0FCA3E0FDA3E0FEA3E0FFF3
:064D61009003D71213F2CB
:104D67001258441252ED9003D7E0FCA3E0FDA3E0F4
:104D7700FEA3E0FF9003EE7401F0A37403F0A374A5
:104D8700DCF0A37401F0A37403F0A374DDF07B01DE
:104D97007A0379DB124F16E4FD7F1212475D7F20FD
:104DA700125B4B9003DBE0FF125B4B9003DCE0FFF1
:104DB700125B4B9003DDE0FF125B4B7D017F12120C
:054DC700475D0252ED02
:1052ED00E4FF9003E81213FE00000000802AEF3067
:1052FD00E02B7F017E001259899003E8E0FCA3E0CA
:10530D00FDA3E0FEA3E02401FFE43EFEE43DFDE449
:10531D003CFC9003E81213F21257FA80D19003E887
:0B532D00E0FCA3E0FDA3E0FEA3E0FF16
:015338002252
:105A4E00E4FD7F1212475D7FB9125B4B7D017F1221
:0A5A5E0012475D7F017E00025989A6
:105A6800E4FD7F1212475D7FAB125B4B7D017F1215
:0A5A780012475D7F017E000259898C
:104CDE009006A11213F29006A5EBF0A3EAF0A3E959
:014CEE00F0D5
:104CEF007FFF7E03125250124D61E49006A8F090A0
:104CFF0006A8E0FBC39410504DE4FDFF12409C90BA
:104D0F0006A1E0F8A3E0F9A3E0FAA3E02FFFEA3E43
:104D1F00FEE93DFDE83CFCA3E0FBA3E0FAA3E0F9CC
:104D2F009003E27401F0A3E4F0124FE59006A8E0BF
:104D3F00FB7D0F7F3F12409C9006A5124AD4900630
:064D4F00A8E004F080A9B9
:014D5500223B
:06350C009006381213F2D4
:103512007FFF7EFF7D3F7C00900638E0F8A3E0F954
:10352200A3E0FAA3E0FBD31213BB40037FFF229078
:103532000638E0FCA3E0FDA3E0FEE4FFEE54F0FE5B
:10354200EC9006411213F2900638E0FCA3E0FDA3D2
:10355200E0FEA3E0FF78081213CCEF540FFEE490D4
:103562000645F0A3CEF0E0FEE4FCFD900641E0F853
:10357200A3E0F9A3E0FAA3E02400FFEA3EFEED395E
:10358200FDEC38FC9006471213F2900641E0FCA3D2
:10359200E0FDA3E0FEA3E0FF90063EE0FBA3E0FA1D
:1035A200A3E0F9124CDE900647E0FCA3E0FDA3E0A5
:1035B200FEA3E0FF124C6690063CA3E0FFC007901A
:1035C2000638A3A3A3E0FF90063EE0FBA3E0FAA324
:1035D200E0F98F82758300D0E01211E49006411267
:1035E2004D56900647E0FCA3E0FDA3E0FEA3E0FFFA
:1035F200124AD17D0F7F3F1246B890064B1213F24A
:10360200E490064FF0A3F090064FE0FEA3E0FFC364
:103612009410EE64809480506D900645E0FCA3E027
:10362200FDEF6D7002EE6C604C900650E0FE33953B
:10363200E0FDFC90064BE0F8A3E0F9A3E0FAA3E07A
:103642002400FFEA3EFEE93DFDE83CFC124C669098
:103652000650E0FE3395E0FDFC900641E0F8A3E061
:10366200F9A3E0FAA3E02400FFEA3EFEE93DFDE80B
:103672003CFC124AD1900650E004F0700690064FCE
:08368200E004F00236097F00AC
:01368A00221D
:105A9B007D037F471231E87F2C7E011259A49006BB
:075AAB00CBEEF0A3EFF022A7
:104B5B009003D2EBF0A3EAF0A3E9F0A3ECF0A3ED02
:014B6B00F059
:104B6C00C2C79006CBE0FEA3E0FF125B28E4FFFE79
:104B7C00D39003D6E09F9003D5E09E404BC2C790E4
:104B8C0003D2E0FBA3E0FAA3E0F98F828E8312112B
:104B9C00A5F520E4FDD2C730070F0000000000008F
:104BAC000000000000C2C7800A0000000000C2C75D
:104BBC00000000000000E52025E0F5200DEDB40814
:104BCC00D40FBF00010E80A89006CBE0FEA3E0FF3F
:054BDC00125B28D2C7A6
:014BE10022B1
:100B8700EC4D6011E8497017ED33EC3304600DE468
:100B9700FCFFFEFD22E933E8330470F8020DD7129B
:100BA7000DA258046009E4CC24815006285009029C
:100BB7000DE1284003020DDEC0E0EB4A7044B98026
:100BC70006D0E0FB020DCDEF4E701CBD8008EBFF99
:100BD700EAFEE9FD80EBE98DF0A4FEE5F0020C707A
:100BE700E9CDF9EAFEEBFFEF89F0A4FCE5F0CE8949
:100BF700F0A42EFFE435F0CD89F0A42DFEE435F006
:100C07008067EF4E7005BD80D780C3EF8BF0A4AC33
:100C1700F0EE8BF0A42CFCE435F0F8EF8AF0A42C6E
:100C2700E5F038FCE433CB8DF0A42CFCE5F03BF881
:100C3700EE8AF0A42CFCE5F038F8E433CF89F0A471
:100C47002CFCE5F038CF3400CE89F0A42FFFE5F077
:100C57003EFEE433C98DF0A42EFEE5F039CD8AF0CF
:100C6700A42FFFE5F03EFEE43DFD33D0E0FB500747
:100C77000BBB000F020DE1EC2CFCEF33FFEE33FE54
:060C8700ED33FD020DB982
:100C8D00020DE1EC5D046005E859047003020DD717
:100C9D00120DA2580460F6EC4860F2EC7004FDFEF3
:100CAD00FF22C860DB2481C85009C398600250063A
:100CBD00020DDE9850CAF582E9294B4A7005AB82C8
:100CCD00020DCD75F0007C1A7880C3EF9BEE9AED86
:100CDD0099400DC3EF9BFFEE9AFEED99FDE842F0B2
:100CED00DC23ACF0D0E0FFD0E0FED0E0FDAB822005
:100CFD00E7101BEB60BAEC2CFCEF33FFEE33FEED8F
:100D0D0033FD020DB9E803F830E705C0F075F000CA
:100D1D00EF2FFFEE33FEED33FD40B830E7C280AA72
:100D2D0075F020800E75F010800575F0087D007E41
:100D3D00007F003392D530D5031213ADEC33401044
:100D4D00EF33FFEE33FEED33FDEC33FCD5F0ED224A
:0E0D5D00E5F0247EA2D513CC92E7CDCEFF2286
:100D6B00EDD2E7CD33EC3392D524814006E4FFFE80
:100D7B00FDFC22FCE4CFCECDCC24E0501174FF80DF
:100D8B00EDC3CC13CCCD13CDCE13CECF13CF04707C
:070D9B00F030D5DE0213ADBC
:1053CE00900602E0FFA3E0FEA3E0CF90060BF0A351
:1053DE00EEF0A3EFF0900605E0CBF0A3E0CAF0A349
:1053EE00E0C9F07F2290060EAD82AC8312118C8D37
:1053FE00828C83F0A309E970010ADFEC900605E0C8
:0A540E00FBA3E0FAA3E0F902157E0B
:100DA200E9D2E7C933E833F892D5EDD2E7CD33EC97
:070DB20033FC5002B2D52210
:100DB900EC30E7100FBF000C0EBE00080DBD00049B
:100DC9000BEB6014A2D5EB13FCED92E7FD2274FF47
:100DD900FCFDFEFF22E480F8A2D574FF13FC7D80A0
:030DE900E480EFB4
:10151900E50E240BF582E43406F583E0050E2290EE
:101529000608300F0390060BE475F00112142F0220
:10153900118C2008E97F2ED2088018EF540F2490CF
:10154900D43440D4FF300C0BEF24BFB41A0050033D
:101559002461FFE50F6002150F0512E512700205FF
:1015690011300F0E900608E475F00112142FEF02E6
:1015790011D20257AD7403D20F8003E4C20FF50EE6
:10158900900608121446E4F50FF511F512E50F60FF
:10159900077F2012155C80F57510FFC209C208C2C9
:1015A9000AC20BC20DC20EC210121528FF700D30EF
:1015B9000F057F0012156DAF12AE1122B4255FC25F
:1015C900D5C20C121528FF24D0B40A00501A75F0A0
:1015D9000A780F30D50508B6FF0106C6A426F620FD
:1015E900D5047002D20B80D924CFB41A00EF50046D
:1015F900C2E5D20C02185FD20980C6D20880C0D2D7
:101609000A80BCD2D580BAD20D80B47F2012155C75
:10161900200A077401B50F0040F1121519FF1215C0
:101629005C021596D210D20E8095121519FB12156F
:1016390019FA121519F94A4B7006795D7A197BFF67
:10164900200A2EE50F602A7E008E82758300121112
:10165900A560060EEE651070F0C2D5EBC0E0EAC0D9
:10166900E0E9C0E0EE1218C0D0E0F9D0E0FAD0E02D
:10167900FB12118CFF60AAEBC0E0EAC0E0E9C0E010
:1016890012155CD0E02401F9D0E03400FAD0E0FB77
:10169900E5100460DCD510D98087D20A80A212181F
:1016A900A260F7E510700104120DECA910600DE5B8
:1016B90010600914F51012194AEF60F3EA30E702D5
:1016C900F404C3995079EAF425100430E701E404DD
:1016D900F510800D1218A260C1EA05102510120D2F
:1016E900ECEA900637F030E701E4251004D5100440
:1016F900200D01141218C0E4C0E012194A900637EF
:10170900E0601320E70714F0121544802204F0D09A
:10171900E014C0E07F00121544E510600712153B84
:101729001510800B300D0312153BD0E0021596D031
:10173900E00480C41218A2609EE51004120DEC901A
:101749000637EAF0E510200D02600104240412189E
:01175900C0CF
:10175A0074FF04C0E012194A121544E510200D0264
:10176A00600312153BD0E0B510E87F4512154E9084
:10177A000637E07F2B30E7047F2DF404C0E0121512
:10178A005CD0E075F00A84C0F0121545D0E012155D
:10179A0045021596791080027908C20EC210800897
:1017AA00D2D5790A8004790AC2D5E510047002F507
:1017BA0010E4FAFDFEFF121519FC7B08200913122A
:1017CA001519FD7B1030080A121519FE121519FF9A
:1017DA007B20EC3382D592D55013C3E43008069FA0
:1017EA00FFE49EFEE42009039DFDE49CFCE4CBF8A3
:1017FA00C209EC700CCFCECDCCE824F8F870F38097
:10180A0017C3EF33FFEE33FEED33FDEC33FCEB335E
:10181A00FB994002FB0FD8E9EB300905F8D0E0C488
:10182A0048B209C0E00AEC4D4E4F78207B0070C2E6
:10183A00EAB5100040BCC0E01218C2D0F0D0E020D7
:10184A000904C4C0E0C4B209C0F0121545D0F0D5ED
:10185A00F0EB02159612149F163353179E5816046E
:10186A004C16004217A24F17AA4417AA4916194341
:10187A0017B05516DD46173D4516A747197D501670
:10188A00082D160C2E162F2B161023162D2019662E
:10189A002A15C84800001627E510B4FF037510067C
:1018AA00121519FC121519FD121519FE121519FF38
:1018BA00900630020E29790AA2D5200B14300D09A0
:1018CA00B910020404B9080104A2D5200E0250017D
:1018DA0004200A68920AB50F005034C0E07F203015
:1018EA000B197F30A20A720E720D500F121919C20B
:1018FA000AC20EC20DC2107F30800F300D03E9C03C
:10190A00E012155C300D03D0E0F9D0E0B50FCC3011
:10191A000D177F30B9100C12155C7F58300C077FF9
:10192A00788003B9080312155C300A057F2D021569
:10193A005C7F202010F87F2B200EF322920A80CFA2
:10194A007F00B40700500B2430F582E43406F58397
:10195A00E0FF22286E756C6C2900D2091215193025
:10196A0009F8C209780F30D50108F60215C82D50BA
:10197A004349581215192403B405004001E490198B
:10198A00789312154D743A12154DD20B750F040245
:02199A00179E96
:100DEC00F920E73624F950037907E4F42402FBE5F3
:100DFC0082158270021583DBF6E024FB501BE96040
:100E0C0014E4F0E582158270021583E004F0B40A54
:0D0E1C0008E4F0D9EE7401F00A22C2D522DC
:100E2900ED33EC3392D5FA602AB4FF33EDC2E77B98
:100E3900FF60067A0E794EE4227A0E795720D5049E
:100E49007A0E7952224E614E002B494E46002D49A9
:100E59004E4600E47A08F0A3DAFC7B00740722C04E
:100E690083C082ECC0E0EDC0E0EEC0E0EFC0E0EA94
:100E790075F010A4CAABF075F04DA42BFBE435F066
:100E8900FCEA2410FAEB34C5FBEC34D9FCEDC2E7DB
:100E9900FF75F056A4F42411C5F0F434C58FF0A4FD
:100EA9002AE5F03BE43CF020E714121056D0E0FFAD
:100EB900D0E0FED0E0FDD0E0FC120C908014F404E8
:100EC900121056D0E0FFD0E0FED0E0FDD0E0FC12D9
:100ED9000B87D082D083E0FAEDD2E7CD33EC33240F
:100EE90082FBE4C3CF33CFCE33CECD33CD33DBF367
:100EF9007B0775F00A846004F0A31B0AE5F0F0A3F0
:100F09008FF0740AA4FFACF08EF0740AA42CFEAC26
:100F1900F050010C8DF0740AA42CFDE435F0F0A317
:050F2900DBDE7407226D
:100F2E00020DD7E86480F8E933E83360110460F00D
:100F3E00ED33EC337009E8FCE9FDEAFEEBFF220429
:100F4E0060DED3EB9FEA9EE99DE8C2E78CF0C2F724
:100F5E0095F0400CE8CCF8E9CDF9EACEFAEBCFFBF0
:100F6E00120DA285D0F05804700320D5B3E804709A
:100F7E00075002B2D5020DE192D5EC0460F7E4CC35
:100F8E00C0E0C398F8603B94186008400DD0E0FBB9
:100F9E00020DB9E4FBFAC9FC8028E830E406E4C986
:100FAE00FBE4CAFCE830E305E4C9CACBFCE854070D
:100FBE006010F8C3E913F9EA13FAEB13FBEC13FC18
:100FCE00D8F130F52FC3E49CFCEF9BFFEE9AFEEDBB
:100FDE0099FDD0E0FBEF4E4D4C701222DB03020D5B
:100FEE00DEEC2CFCEF33FFEE33FEED33FDED30E7A0
:100FFE00EB020DB9EF2BFFEE3AFEED39FDD0E0FB23
:10100E0050130BBB0003020DE1ED13FDEE13FEEFCB
:08101E0013FFEC13FC020DB9F5
:101026003F8000004120000042C80000447A0000D2
:10103600461C400047C35000497424004B18968054
:101046004CBEBC205A0E1BCA6753C21C749DC5AE4B
:10105600FB60065407601C2323121084EB5438608F
:101066000912107012107F120B87ECF8EDF9EEFAE8
:10107600EFCB22EB12107F80F1543803241C901022
:1010860026FE93FC0EEE93FD0EEE930ECE93FF22FC
:104A51000229CCE493A3F8E493A34003F68001F286
:104A610008DFF48029E493A3F85407240CC8C33366
:104A7100C4540F4420C8834004F456800146F6DF35
:104A8100E4800B01020408102040809056D8E47E97
:104A9100019360BCA3FF543F30E509541FFEE4932A
:104AA100A360010ECF54C025E060A840B8E493A3F1
:104AB100FAE493A3F8E493A3C8C582C8CAC583CA1C
:104AC100F0A3C8C582C8CAC583CADFE9DEE780BED4
:0157060000A2
:10109600E709F608DFFA8046E709F208DFFA803E3C
:1010A60088828C83E709F0A3DFFA8032E309F60829
:1010B600DFFA8078E309F208DFFA807088828C8391
:1010C600E309F0A3DFFA806489828A83E0A3F60845
:1010D600DFFA805889828A83E0A3F208DFFA804C1F
:1010E60080D280FA80C680D4806980F280338010F6
:1010F60080A680EA809A80A880DA80E280CA80335F
:1011060089828A83ECFAE493A3C8C582C8CCC583D6
:10111600CCF0A3C8C582C8CCC583CCDFE9DEE780A6
:101126000D89828A83E493A3F608DFF9ECFAA9F025
:10113600EDFB2289828A83ECFAE0A3C8C582C8CC7B
:10114600C583CCF0A3C8C582C8CCC583CCDFEADE94
:10115600E880DB89828A83E493A3F208DFF980CCF6
:1011660088F0EF60010E4E60C388F0ED2402B404EF
:101176000050B9F582EB2402B4040050AF23234596
:0611860082239010E673C5
:10118C00BB010689828A83E0225002E722BBFE0261
:09119C00E32289828A83E4932294
:1011A500BB010CE58229F582E5833AF583E02250FF
:1011B50006E92582F8E622BBFE06E92582F8E22249
:0D11C500E58229F582E5833AF583E4932263
:1011D200BB010689828A83F0225002F722BBFE01FC
:0211E200F322F6
:1011E400F8BB010DE58229F582E5833AF583E8F041
:1011F400225006E92582C8F622BBFE05E92582C8ED
:02120400F222D4
:10120600EF8DF0A4A8F0CF8CF0A428CE8DF0A42EFC
:02121600FE22B6
:10121800C5F0F8A3E028F0C5F0F8E5821582700261
:061228001583E038F022FE
:10122E00A3F8E0C5F025F0F0E58215827002158373
:06123E00E0C838F0E822D0
:10124400BB010A89828A83F0E5F0A3F0225006F7F5
:0F12540009A7F01922BBFE06F3E5F009F31922F2
:10126300F8BB0111E58229F582E5833AF583E8F0BD
