:1029B0004552004F4B5F535452004F4B5F484558B0
:1029C0000050574D47726F7570315F467265713AAE
:1029D000202568640A0050574D315F447574793A78
:1029E000202568640A0050574D325F447574793A67
:1029F000202568640A0050574D335F447574793A56
:102A0000202568640A0050574D345F447574793A44
:102A1000202568640A0050574D355F447574793A33
:102A2000202568640A0050574D365F447574793A22
:102A3000202568640A0050574D375F447574793A11
:102A4000202568640A0050574D385F447574793A00
:102A5000202568640A0050574D395F447574793AEF
:102A6000202568640A0050574D31305F44757479F1
:102A70003A202568640A0050574D31315F4475741F
:102A8000793A202568640A0050574D31325F447509
:102A900074793A202568640A0050574D31335F44F9
:102AA0007574793A202568640A0050574D31345FB7
:102AB000447574793A202568640A0050574D3135C1
:102AC0005F447574793A202568640A0050574D3187
:102AD000365F447574793A202568640A0050574D72
:102AE00031375F447574793A202568640A0050577D
:102AF0004D31385F447574793A202568640A005076
:102B0000574D31395F447574793A202568640A005D
:102B100050574D32305F447574793A202568640A05
:102B20000050574D32315F447574793A20256864FE
:102B30000A0050574D32325F447574793A20256847
:102B4000640A0050574D32335F447574793A20253A
:102B500068640A0050574D32345F447574793A20E6
:102B60002568640A0050574D32355F447574793AD0
:102B7000202568640A0050574D32365F44757479D9
:102B80003A202568640A0050574D32375F44757407
:102B9000793A202568640A0050574D32385F4475F1
:102BA00074793A202568640A0050574D32395F44E1
:102BB0007574793A202568640A0050574D33305FA8
:102BC000447574793A202568640A0050574D3331B2
:102BD0005F447574793A202568640A0050574D3374
:102BE000325F447574793A202568640A0000000059
:1056420042024D0000410387004102520041020222
:105652000042038A000055035D01000001038F012F
:0E566200037201037B010205010203010250E5
:102FDA00E490035BF0A3F090035BE0FEA3E0FFC381
:102FEA00EE9402501C74022FF58274003EF583E4BD
:102FFA00F090035CE004F070DE90035BE004F08084
:10300A00D6E490035BF0A3F090024BF0900253F0E9
:10301A0090035504F0900355E0FFC39406501474CE
:10302A00552FF582E43403F583E4F0900355E00468
:10303A00F080E2E4900355F090038EF0900000F0E7
:10304A00A3F090038FF0A304F090038FE0FEA3E0B7
:10305A00FFC39420EE94005025EF25E0FFEE33FEE7
:10306A00748F2FF58274033EF583E4F0A3F0900386
:10307A0090E004F070D390038FE004F080CBE490EA
:10308A00038FF0A3F090037BF0A304F090037BE09E
:10309A00FEA3E0FFC39406EE94005027EF25E0FF5D
:1030AA00EE33FE747B2FF58274033EF583E4F0A3BE
:1030BA007432F090037CE004F070D190037BE0045A
:1030CA00F080C990037BE4F0A37432F0900372E4B9
:1030DA00F0A304F0900372E0FEA3E0FFC39404EEB1
:1030EA0094005025EF25E0FFEE33FE74722FF5822F
:1030FA0074033EF583E4F0A3F0900373E004F070E8
:10310A00D3900372E004F080CBE4900372F0A3F052
:10311A00900205F0A304F0900205E0FEA3E0FFC3CD
:10312A009423EE94005025EF25E0FFEE33FE74055C
:10313A002FF58274023EF583E4F0A3F0900206E0D4
:10314A0004F070D3900205E004F080CBE49002050D
:10315A00F0A3F0900203F0A3F0900250F0A3F090D5
:10316A000389F090037AF090024CF0900388F022E1
:10588800121D5E1250641255E2125A777D037F1280
:1058980012317A125A057B017A0379727D037C00F2
:0358A800024AC5EC
:102759001259EC122FDA1256C9E4FF125A577F01A7
:10276900125A57125888125AADE4FF124920D390D1
:102779000248E094E6900247E094004004E4F0A3A4
:10278900F0900253E0640260030228CCF090035BEE
:10279900A3E0FD9003D37401F0A37403F0A3745D67
:1027A900F07B017A00790212242DEF600302284B95
:1027B9007B019003D204F0A37403F0A3748FF07A21
:1027C900007902123EF5EF605B9003D27401F0A329
:1027D9007403F0A3747BF0A37401F0A37403F0A352
:1027E900748FF07B017A0079021220F1EF7BFF6090
:1027F900177A2979B07F02124EE97BFF7A2979B0DD
:102809007F01124EE90228997A2979B37F02124E83
:10281900E97BFF7A2979B37F01124EE990038E741F
:1028290004F0806C7BFF7A2979BA7F02124EE97B2A
:10283900FF7A2979BA7F01124EE990038E7401F06B
:10284900804ED390035CE0940090035BE0940040D9
:102859002CE0FEA3E0FF2402F58274003EF583E03C
:10286900FD74552FF58274033EF583EDF090035CFA
:10287900E024FFF090035BE034FFF080C59003563D
:10288900A3E0FFD3942A4008EF944E50031247F86F
:1028990090035BE0FEA3E0FFD39400EE9400401C9C
:1028A90074022FF58274003EF583E4F090035CE036
:1028B90024FFF090035BE034FFF080D4E490035BE5
:1028C900F0A3F090038EE024FE60111460181460E8
:1028D9001F24037026E490038EF0801C12500AE432
:1028E90090038EF08015E490038EF0125451800B02
:1028F900E490038EF0125451122DF8900000E0FE7E
:10290900A3E0FFEE7007EF14700375C76090037AB8
:10291900E06013E4FF124920900203E4F0A374027B
:10292900F0E490037AF012361D123DDC900202E0C9
:10293900700302278AE4F012379F900245E0FEA354
:10294900E0FF4E6006BEFF21BFFF1EE4900249F082
:10295900A3F0900387E060099002027401F0022756
:102969008AE4900252F002278AE490024FF0900222
:102979004FE0FF25E02405F582E43402F583E0FC0D
:10298900A3E0FDEF25E0248FF582E43403F583EC21
:10299900F0A3EDF090024FE004F0E0B420D0124D26
:0729A90036122DF802278A07
:10599E0090024BE0C39401400A900253E0B401031D
:0A59AE007402F090024BE004F022B6
:1041D900125AB1900252E0B40143900245E0FEA3A5
:1041E900E0FFD39401EE9400403390024EE004F0D6
:1041F900700690024DE004F0C390024EE09F9002D9
:104209004DE09E4018E4F0A3F090024AE004F070FB
:1042190006900249E004F09002027401F090038ACA
:10422900E475F001121218FEE5F064144E706A90FC
:10423900038AF0A3F090FF4CE0547FF0E4FD7F0780
:1042490012317A7D017F071244C200007F071250A4
:10425900BDEF6007E4900389F0800690038974013B
:10426900F00000E4FD7F071244C290FF4CE0448057
:10427900F07D037F0712317A900389E0FF9003886C
:10428900E06FFEEF5E90037AF0900389E0FCF45E44
:0A42990090024CF0900388ECF02234
:1056710090035BE0FEA3E02402F58274003EF58313
:10568100E599F090035CE004F0700690035BE004A0
:0C569100F0E490024BF090025304F02271
:10569D0090035BE0FEA3E02402F58274003EF583E7
:1056AD00E59BF090035CE004F0700690035BE00472
:0C56BD00F0E490024BF090025304F02245
:015AB80022CB
:10545100E49003CFF09003CFE0FBFFC00725E024E9
:105461007BF582E43403F583E0FCA3E0FFAE04E4C2
:10547100FCFD9003D11213F2D0071233199003CF20
:0C548100E004F0E0C3940540CC0247F8C2
:10500A0078CF7C037D017BFF7A2B79ED7E007F03CD
:10501A00121166900374A3E09003CFF0900372A379
:10502A00E09003D0F0900376A3E09003D1F09003D0
:10503A0078E0FEA3E0FFC374E89FFB74039EFA7D49
:10504A0007E4FF120046C2AF7B017A0379CF7D03E2
:0A505A007C00124AC5D2AF0247F8ED
:102DF80090038FE0FAA3E0FB7D05E4FF1200469004
:102E08000391E0FAA3E0FB7D037F051200469003DF
:102E180093E0FAA3E0FB7D027F051200469003953C
:102E2800E0FAA3E0FB7D04E4FF120046900397E07C
:102E3800FAA3E0FB7D03E4FF120046900399E0FA51
:102E4800A3E0FB7D02E4FF12004690039BE0FAA397
:102E5800E0FB7D01E4FF12004690039DE0FAA3E049
:102E6800FBE4FDFF12004690039FE0FAA3E0FB7D20
:102E7800067F041200469003A1E0FAA3E0FB7D055B
:102E88007F041200469003A3E0FAA3E0FB7D077FCE
:102E9800021200469003A5E0FAA3E0FB7D067F023C
:102EA8001200469003A7E0FAA3E0FB7D057F02121B
:102EB80000469003A9E0FAA3E0FB7D047F0212001C
:102EC800469003ABE0FAA3E0FB7D037F02120046C5
:102ED8009003ADE0FAA3E0FB7D027F02120046906A
:102EE80003AFE0FAA3E0FB7D077F011200469003E1
:102EF800B1E0FAA3E0FBE4FD7F041200469003B3BF
:102F0800E0FAA3E0FB7D027F031200469003B5E0E0
:102F1800FAA3E0FB7D037F031200469003B7E0FAB3
:102F2800A3E0FB7D047F031200469003B9E0FAA3F7
:102F3800E0FBE4FD7F051200469003BBE0FAA3E046
:102F4800FB7D017F051200469003BDE0FAA3E0FB7C
:102F58007D057F031200469003BFE0FAA3E0FB7DE6
:102F6800067F031200469003C1E0FAA3E0FB7D0749
:102F78007F031200469003C3E0FAA3E0FB7D017FC4
:102F8800041200469003C5E0FAA3E0FB7D027F042B
:102F98001200469003C7E0FAA3E0FB7D037F04120A
:102FA80000469003C9E0FAA3E0FB7D047F04120009
:102FB800469003CBE0FAA3E0FBE4FD7F0212004653
:102FC8009003CDE0FAA3E0FB7D017F0212004602E8
:022FD80047F8B8
:10199C007BFF7A2979C190037BE0FFA3E09003D70A
:1019AC00CFF0A3EFF07F01124EE97BFF7A2979C1CA
:1019BC0090037DE0FFA3E09003D7CFF0A3EFF07F7F
:1019CC0001124EE97BFF7A2979C190037FE0FFA3D6
:1019DC00E09003D7CFF0A3EFF07F01124EE97BFF2D
:1019EC007A2979C1900381E0FFA3E09003D7CFF06F
:1019FC00A3EFF07F01124EE97BFF7A2979C19003A6
:101A0C0083E0FFA3E09003D7CFF0A3EFF07F0112A8
:101A1C004EE97BFF7A2979D690038FE0FFA3E09003
:101A2C0003D7CFF0A3EFF07F01124EE97BFF7A29A9
:101A3C0079E6900391E0FFA3E09003D7CFF0A3EFFA
:101A4C00F07F01124EE97BFF7A2979F6900393E03F
:101A5C00FFA3E09003D7CFF0A3EFF07F01124EE984
:101A6C007BFF7A2A7906900395E0FFA3E09003D7D9
:101A7C00CFF0A3EFF07F01124EE97BFF7A2A7916A3
:101A8C00900397E0FFA3E09003D7CFF0A3EFF07F94
:101A9C0001124EE97BFF7A2A7926900399E0FFA385
:101AAC00E09003D7CFF0A3EFF07F01124EE97BFF5C
:101ABC007A2A793690039BE0FFA3E09003D7CFF00E
:101ACC00A3EFF07F01124EE97BFF7A2A794690034F
:101ADC009DE0FFA3E09003D7CFF0A3EFF07F0112BE
:101AEC004EE97BFF7A2A795690039FE0FFA3E090A2
:101AFC0003D7CFF0A3EFF07F01124EE97BFF7A2AD8
:101B0C0079669003A1E0FFA3E09003D7CFF0A3EF99
:101B1C00F07F01124EE97BFF7A2A79779003A3E0DC
:101B2C00FFA3E09003D7CFF0A3EFF07F01124EE9B3
:101B3C007BFF7A2A79889003A5E0FFA3E09003D776
:101B4C00CFF0A3EFF07F01124EE97BFF7A2A79994F
:101B5C009003A7E0FFA3E09003D7CFF0A3EFF07FB3
:101B6C0001124EE97BFF7A2A79AA9003A9E0FFA320
:101B7C00E09003D7CFF0A3EFF07F01124EE97BFF8B
:101B8C007A2A79BB9003ABE0FFA3E09003D7CFF0A8
:101B9C00A3EFF07F01124EE97BFF7A2A79CC9003F8
:101BAC00ADE0FFA3E09003D7CFF0A3EFF07F0112DD
:101BBC004EE97BFF7A2A79DD9003AFE0FFA3E0903A
:101BCC0003D7CFF0A3EFF07F01124EE97BFF7A2A07
:101BDC0079EE9003B1E0FFA3E09003D7CFF0A3EF31
:101BEC00F07F01124EE97BFF7A2A79FF9003B3E074
:101BFC00FFA3E09003D7CFF0A3EFF07F01124EE9E3
:101C0C007BFF7A2B79109003B5E0FFA3E09003D70C
:101C1C00CFF0A3EFF07F01124EE97BFF7A2B7921F5
:101C2C009003B7E0FFA3E09003D7CFF0A3EFF07FD2
:101C3C0001124EE97BFF7A2B79329003B9E0FFA3B6
:101C4C00E09003D7CFF0A3EFF07F01124EE97BFFBA
:101C5C007A2B79439003BBE0FFA3E09003D7CFF03E
:101C6C00A3EFF07F01124EE97BFF7A2B795490039E
:101C7C00BDE0FFA3E09003D7CFF0A3EFF07F0112FC
:101C8C004EE97BFF7A2B79659003BFE0FFA3E090D0
:101C9C0003D7CFF0A3EFF07F01124EE97BFF7A2B35
:101CAC0079769003C1E0FFA3E09003D7CFF0A3EFC8
:101CBC00F07F01124EE97BFF7A2B79879003C3E00A
:101CCC00FFA3E09003D7CFF0A3EFF07F01124EE912
:101CDC007BFF7A2B79989003C5E0FFA3E09003D7A4
:101CEC00CFF0A3EFF07F01124EE97BFF7A2B79A99D
:101CFC009003C7E0FFA3E09003D7CFF0A3EFF07FF2
:101D0C0001124EE97BFF7A2B79BA9003C9E0FFA34D
:101D1C00E09003D7CFF0A3EFF07F01124EE97BFFE9
:101D2C007A2B79CB9003CBE0FFA3E09003D7CFF0D5
:101D3C00A3EFF07F01124EE97BFF7A2B79DC900345
:101D4C00CDE0FFA3E09003D7CFF0A3EFF07F01022B
:021D5C004EE94E
:0C4D3600900249E0FCA3E0FD7F4D7E00F0
:044D4200AB07AA060B
:104D46009003D07455F0EAA3F0A3EFF0ECA3F0AF14
:104D560005A3EFF09003D1E02455FDE433FCA3E076
:104D66007A002DFDEA3CFCA3E02DFDEA3CFC7E002A
:104D7600ED2FFFEE3CFEEF9003D5F0E49003CFF06D
:104D86009003CFE0FFC39406501974D02FF582E448
:104D96003403F583E0FD7F021259839003CFE004CC
:034DA600F080DDBD
:014DA90022E7
:1047F800900356E0FD700FA3E0700BA3E07007A3D1
:10480800E0700302488E9003D37455F0A3EDF09046
:104818000357E09003D5F0900358E09003D6F0904A
:104828000359E0FF9003D7F09003D4E02455FDE44A
:1048380033FCA3E07A002DFDEA3CFCA3E02DFDEA61
:104848003CFC7E00ED2FFFEE3CFEEF9003D8F0E439
:104858009003D2F09003D2E0FFC39406502874D39B
:104868002FF582E43403F583E0FD7F02125983902B
:1048780003D2E02455F582E43403F583E4F0900391
:06488800D2E004F080CE36
:01488E002207
:054920009003CFEFF051
:10492500900247A3E09003D0F07FFE7E031251BAB8
:104935009003D11213F29003CFE09003D16039E0D8
:10494500FCA3E0FDA3E0FEA3E0FF124CCB9003D057
:10495500E09003D5F0E4A3F09003D1E0FCA3E0FDE3
:10496500A3E0FEA3E0FF7B017A0379D59003E2E49F
:10497500F0A37402F0024A4FE0FCA3E0FDA3E0FEC1
:10498500A3E0FF7B017A0379D59003E2E4F0A374F9
:1049950002F0124F4F9003D6E0FE9003D5E0FDEDF7
:0949A500FF900247EEF0A3EFF0D1
:0149AE0022E6
:103A4100900247A3E0FF9003CFF0900249A3E090DA
:103A510003D0F0EFD3947F502C9003CFE075F004A6
:103A6100A4FFAEF01251BA9003D11213F29003D118
:103A7100E0FCA3E0FDA3E0FEA3E02400FFEE343E62
:103A8100FEE43D80439003CFE0FFD39487505FEF86
:103A91002480FFE434FFFEEF7805C333CE33CED864
:103AA100F924FFFFEE3401FE1251BA9003D1121333
:103AB100F29003D1E0FCA3E0FDA3E0FEA3E024002B
:103AC100FFEE34F0FEED3401FDE43CFCA804A90551
:103AD100AA06AB079003D0E075F002A4FFE4FCFD59
:103AE100EB2FFFEA35F0FEED39FDEC38802E900327
:103AF100CFE0B4882E7FFF7E021251BA9003D1121B
:103B010013F29003D1E0FCA3E0FDA3E0FEA3E024C7
:103B110000FFEE3442FEED340FFDE43CFC9003D790
:103B21001213F29003D0E0FF7E007C007D4012145E
:103B3100C5A3E0F8A3E0F9A3E0FAA3E02FFFEA3E72
:103B4100FEE93DFDE83CFC7B017A0279059003E248
:103B5100E4F0A37440F0124A4F900245E0FCA3E068
:103B61009003D5F0ECA3F0A3E0FCA3E0FDA3E0FEFD
:103B7100A3E0FF7B017A0379D59003E2E4F0A3741B
:053B810002F0024A4FB2
:0D379200E4900203F0A3F0900249F0A3F0D0
:10379F00900247A3E0FF9003CFF0900249A3E0907F
:1037AF0003D0F0EFD3947F502C9003CFE075F0044B
:1037BF00A4FFAEF01251BA9003D11213F29003D1BD
:1037CF00E0FCA3E0FDA3E0FEA3E02400FFEE343E07
:1037DF00FEE43D80439003CFE0FFD394875063EF27
:1037EF002480FFE434FFFEEF7805C333CE33CED809
:1037FF00F924FFFFEE3401FE1251BA9003D11213D8
:10380F00F29003D1E0FCA3E0FDA3E0FEA3E02400CF
:10381F00FFEE34F0FEED3401FDE43CFCA804A905F5
:10382F00AA06AB079003D0E075F002A4FFE4FCFDFD
:10383F00EB2FFFEA35F0FEED39FDEC38FC9003D5A8
:10384F0080309003CFE0B4882C7FFF7E021251BAF4
:10385F009003D11213F29003D1E0FCA3E0FDA3E09B
:10386F00FEA3E02400FFEE3442FEED340FFDE43CF6
:10387F00FCA31213F29003D0E0FF7E007C007D408A
:10388F001214C5A3E0F8A3E0F9A3E0FAA3E02FFF19
:10389F00EA3EFEE93DFDE83CFC7B017A02790590AA
:1038AF0003E2E4F0A37440F0124F4F9003D5E0FC15
:1038BF00A3E0FDA3E0FEA3E0FF7B017A0379D9909B
:1038CF0003E2E4F0A37402F0124F4F9003DAE0FE2C
:0F38DF009003D9E0FDEDFF900245EEF0A3EFF06E
:0138EE0022B7
:10435B00900247A3E09003CFF0D3947F5019E07500
:10436B00F004A4FFAEF01251BA9003D01213F290E6
:10437B0003D57404F0804E9003CFE0FFD3948750A5
:10438B002AEF2480FFE434FFFEEF7805C333CE33EE
:10439B00CED8F924FFFFEE3401FE1251BA9003D0B0
:1043AB001213F29003D57420F0801A9003CFE0B46F
:1043BB0088137FFF7E021251BA9003D01213F29032
:1043CB0003D574FEF0E49003D4F09003D5E0FE9097
:1043DB0003D4E0FFC39E502CE4FCFDFE780C1213BB
:1043EB00DF9003D0E0F8A3E0F9A3E0FAA3E02FFFFE
:1043FB00EA3EFEE93DFDE83CFC124CCB9003D4E0D9
:04440B0004F080C673
:01440F00228A
:105A1C007F06125612AD07AC06900250E0FEA3E0D2
:045A2C00FF024D42E6
:105A30007F0E125612AD07AC06900250E0FEA3E0B6
:045A4000FF024D42D2
:103DDC00900203E0FEA3E0FFEE6003023EF4EF244A
:103DEC00FE602214606D147003023ECF1470030247
:103DFC003EDA147003023EE724056003023EF4121F
:103E0C003A41023ED2123792E4900254F09002549E
:103E1C00E0FF25E02405F582E43402F583E0FCA301
:103E2C00E0FDEF25E0248FF582E43403F583ECF01C
:103E3C00A3EDF0900254E004F0E0B420D0122DF881
:103E4C00E490024DF0A3F090025204F0E49003874A
:103E5C00023EF01237921247F8900245E0FEA3E0C2
:103E6C00FF4E6006BEFF0EBFFF0B74FFFDFC7F4DC7
:103E7C007E00024D42E4900254F0900254E0FF2583
:103E8C00E02405F582E43402F583E0FCA3E0FDEFC9
:103E9C0025E0248FF582E43403F583ECF0A3EDF0F8
:103EAC00900254E004F0E0B420D0122DF8124D36FC
:103EBC009003877401F0E490024DF0A3F09002524D
:103ECC0004F02212435BE4900203F0A380167F01FE
:103EDC00124920E4900203F0A3800912379FE4906A
:093EEC000203F0A3F01247F822D2
:1057F800900250E0FEA3E0FFC00625E0FDEE33FC7A
:10580800748D2DF58274033CF583E0FCA3E0FDD094
:0458180006024D42F5
:10581C00900250E0FEA3E0FFC00625E0FDEE33FC55
:10582C0074302DF58274033CF583E0FCA3E0FDD0CD
:04583C0006024D42D1
:10584000900250E0FEA3E0FFC00625E0FDEE33FC31
:1058500074312DF58274033CF583E0FCA3E0FDD0A8
:0458600006024D42AD
:10586400900250E0FEA3E0FFC00625E0FDEE33FC0D
:10587400743B2DF58274013CF583E0FCA3E0FDD07C
:0458840006024D4289
:10361D00900250E0FEA3E0FFEE600302378AEF1246
:10362D00149F372001372202372403372604372809
:10363D0005372A06372C07372E0837300937320A57
:10364D0037340B37360C37380D373A0E373C0F37CA
:10365D003E1037401137421237441337461437485E
:10366D0015374A16374C17374E1837501937521A27
:10367D0037541B37561C37581D375A1E375C1F37AA
:10368D005E20376321376522376723376924376E0C
:10369D002537702637722737742837762937782AD9
:1036AD00377D2B37822C37876537876637876737A6
:1036BD00876837876937876A37876B37876C3787AE
:1036CD006D37876E37876F3787703787713787729A
:1036DD0037877337877437877537877637877737A7
:1036ED00877837877937877A37877B37877C37872E
:1036FD007D37877E37877F3787803787813787820A
:10370D00378783378784378785378786378787005D
:10371D0000378A803C803A80388036803480328011
:10372D0030802E802C802A80288026802480228044
:10373D0020801E801C801A801880168014801280B4
:10374D0010800E800C800A80088006800480028024
:10375D00001257F8802780048002800012581C80C8
:10376D001C80088006800480028000125840800D65
:10377D00125A1C8008125A308003125864E49002C9
:05378D0050F0A3F02242
:030000000249AF03
:0C49AF00787FE4F6D8FD7581220249F6FD
:0F5A680050574D0047726F757000447574790088
:10242D00E49003D6F0A3F0A3F0A3F0ED64066003EF
:10243D0002275612118CFF64AA60030227569000E2
:10244D00011211A52FFF9000021211A57C002FFF84
:10245D009000031211A52FFF9000041211A52FFF5C
:10246D009000051211A56F7001E4600302275690CC
:10247D0000011211A5FE9000021211A5FDEDFF90B5
:10248D0003D6EEF0A3EFF09000031211A5FE90001D
:10249D00041211A5FDEDFF9003D8EEF0A3EFF0901F
:1024AD0003D6E0FEA3E0FFEE6003022753EFB45026
:1024BD000040030227539024CAF82828730225BA36
:1024CD000225D30225D50225D70225D90225DB0207
:1024DD0025DD0225DF0225E10225E30225E50225A2
:1024ED00E70225E90225EB0225ED0225EF0225F194
:1024FD000225F30225F50225F70225F90225FB0237
:10250D0025FD0225FF0226010226030226050226CD
:10251D000702260902260B02260D02260F0226119E
:10252D0002265102265302265502265702269702ED
:10253D00269902269B02269D02269F0226A102268F
:10254D00E00226E00226E00226E00226E00226E076
:10255D000226E00226E00226E00226E00226E00244
:10256D0026E00226E00226E00226E00226E0022610
:10257D00E00226E00226E00226E00226E00226E046
:10258D000226E00226E00226E00226E00226E00214
:10259D0026E00226E00226E00226E00226E00226E0
:1025AD00E00226E00226E00227190227349003D824
:1025BD00E0FEA3E0FF9003D3E0FBA3E0FAA3E0F974
:1025CD0012144F02274D803C803A8038803680347B
:1025DD0080328030802E802C802A80288026802496
:1025ED0080228020801E801C801A80188016801406
:1025FD0080128010800E800C800A80088006800476
:10260D00800280009003D8E0FCA3E0FD9003D3E0AE
:10261D00FBA3E0FAA3E0F990000312146F9003D727
:10262D00E024FFFF9003D6E034FFFEEF25E0FFEE40
:10263D00338F82F583EC8DF012126390038E74014B
:10264D00F00227538004800280009003D8E0FCA3A1
:10265D00E0FD9003D3E0FBA3E0FAA3E0F9900006C0
:10266D0012146F9003D7E024DFFF9003D6E034FF00
:10267D00FEEF25E0FFEE338F82F583EC8DF0121225
:10268D006390038E7402F002275380088006800445
:10269D00800280009003D8E0FCA3E0FD9003D3E01E
:1026AD00FBA3E0FAA3E0F990000912146F9003D791
:1026BD00E024DBFF9003D6E034FFFEEF25E0FFEED4
:1026CD00338F82F583EC8DF012126390038E7403B9
:1026DD00F080739003D8E0FCA3E0FD9003D3E0FB02
:1026ED00A3E0FAA3E0F990000C12146F9003D7E069
:1026FD0024D5FF9003D6E034FFFEEF25E0FFEE3347
:10270D008F82F583EC8DF0121263803A9003D8E03E
:10271D00FEA3E0FF9003D3E0FBA3E0FAA3E0F99062
:10272D00000F12146F80199003D8E0FEA3E0FF9004
:10273D0003D3E0FBA3E0FAA3E0F990001212146FAB
:0B274D00EE8FF01212447F01227F008B
:01275800225E
:0B3EF5009003CFEBF0A3EAF0A3E9F08C
:103F0000E49003D5F0FFF09003D5E0FEC394405059
:103F10001D9003CFE0FBA3E0FAA3E0F98E82758346
:103F2000001211A52FFF9003D5E004F080D9900373
:103F3000CFE0FBA3E0FAA3E0F99000401211A56FD7
:103F400060030240039003D5F09003CFE0FBA3E0B1
:103F5000FAA3E0F99003D5E0FD75F002A4F582859F
:103F6000F0831211A5FE9003CFA3A375F002EDA478
:103F70002401F582E435F0F5831211A57C002400BC
:103F8000FFEC3EFED3EF94E8EE940340037F022261
:103F90009003D5E004F0E0B420AFE49003D5F090B6
:103FA00003CFE0FBA3E0FAA3E0F99003D5E0FD75B1
:103FB000F002A4F58285F0831211A5FE9003CFA331
:103FC000A375F002EDA42401F582E435F0F5831227
:103FD00011A57C002400FFEC3EFE9003D2E0FBA381
:103FE000E0FAA3E0F9A3E075F002A4F58285F0837E
:103FF000EE8FF01212639003D5E004F0E0B4209F3E
:054000007F00227F019A
:014005002298
:0B20F1009003CFEBF0A3EAF0A3E9F0AE
:1020FC00E49003D8F0A3F0A3F0A3F0A3F0A3F0A313
:10210C0074FFF0E4A3F0A3F0A3F09003E574FFF0E8
:10211C00A3745AF0A37468F01244109003D8EEF034
:10212C00A3EFF09003D8E0F47003A3E0F470030283
:10213C00242A9003E574FFF0A3745AF0A37468F09A
:10214C009003CFE0FBA3E0FAA3E0F9124410900354
:10215C00D8EEF0A3EFF09003E574FFF0A3745AF0FF
:10216C00A3746CF09003CFE0FBA3E0FAA3E0F912A8
:10217C0044109003DAEEF0A3EFF09003E574FFF057
:10218C00A3745AF0A37472F09003CFE0FBA3E0FAAF
:10219C00A3E0F91244109003DCEEF0A3EFF0E4A3FB
:1021AC00F09003E0F0A3F09003D8E0F47003A3E008
:1021BC00F470030224279003DAE0FEA3E0FFBEFFD5
:1021CC0010BFFF0DA3E0F47003A3E0F4700302242E
:1021DC00249003DCE0FCA3E0FDC3EF9DEE9C4003E8
:1021EC000222F69003CFE0FBA3E0FAA3E0F9900300
:1021FC00D9E02408FF9003D8E034008F82F58312D5
:10220C0011A524CF9003DEF0A3740AF09003DFE055
:10221C00FFC3941050519003D9E02FFF9003D8E0E6
:10222C003400FE9003CFE0FBA3E0FAA3E0F98F8229
:10223C008E831211A5FF642C602DEF602A24D0FB35
:10224C00E434FFFA9003E0E0FEA3E0FF7C007D0A9B
:10225C00121206EF2BFFEE3A9003E0F0A3EFF09092
:10226C0003DFE004F080A59003DEE0FED39406507B
:10227C00189003E0E0FCA3E0FD9498EC943A50092C
:10228C00C3ED9432EC940050037F01229003E0E004
:10229C00FCA3E0FD9003D2E0FBA3E0FAA3E0F97508
:1022AC00F002EEA4F58285F083EC8DF0121263E45B
:1022BC009003DFF09003DFE0FFC3940A4003022198
:1022CC002F9003D9E02FFF9003D8E03400FE900349
:1022DC00CFE0FBA3E0FAA3E0F98F828E8374201287
:1022EC0011E49003DFE004F080CA9003CFE0FBA37D
:1022FC00E0FAA3E0F99003D8E0FCA3E0FDF5828CB2
:10230C0083A3A3A31211A524D09003DEF074042D93
:10231C00F582E43CF5831211A5FF645F9003DE6047
:10232C000BE075F00AA42F24CFF08003E014F0909A
:10233C0003DEE0C394095006A3740AF080069003F0
:10234C00DF740BF09003DFE0FFC394105051900347
:10235C00D9E02FFF9003D8E03400FE9003CFE0FBD0
:10236C00A3E0FAA3E0F98F828E831211A5FF642CEF
:10237C00602DEF602A24D0FBE434FFFA9003E0E0F8
:10238C00FEA3E0FF7C007D0A121206EF2BFFEE3A53
:10239C009003E0F0A3EFF09003DFE004F080A59051
:1023AC0003DEE0FED3941F500E9003E1E094E8901E
:1023BC0003E0E0940340037F01229003E0E0FCA3E0
:1023CC00E0FD9003D5E0FBA3E0FAA3E0F975F00281
:1023DC00EEA4F58285F083EC8DF0121263E4900389
:1023EC00DFF09003DFE0FFC3940A400302212F903B
:1023FC0003D9E02FFF9003D8E03400FE9003CFE028
:10240C00FBA3E0FAA3E0F98F828E8374201211E40F
:10241C009003DFE004F080CA7F02227F00227F025B
:01242C00228D
:103CB3004543424D20562562752E2562752E256299
:103CC30075206F6E202573005354433847002575C4
:103CD3004B0025303275005334000D0A4368656389
:103CE3006B696E67204D4355204944002E00457291
:103CF300726F720D0A506C6561736520636865634A
:103D03006B207468652073657474696E67206F66D1
:103D130020746865204D4355206D6F64656C0D0AF2
:103D2300005665723A312E30004F4B0D0A4944203C
:103D33002020203A0025303258000D0A000D0A5386
:103D4300797374656D5F4944202020203A00444113
:103D5300544120203A31323809427974650D0A0002
:103D63004944415441203A31323809427974650D4E
:103D73000A005844415441203A2575094279746533
:103D83000D0A00464C415348203A256C7509427987
:103D930074650D0A00535953434C4B3A256C75090E
:103DA300487A0D0A004247562020203A2575096DAE
:103DB300560D0A00454E4449414E3A00626967096F
:103DC300656E6469616E0D0A006C6974746C6509D3
:093DD300656E6469616E0D0A0061
:0458EF007F017E00B7
:1058F300EF4E60167D607C09ED1D70011C144C7029
:0A590300F7EF1F70011E144E70EA4A
:01590D002277
:095A9200EF1F70011E144E70F7A5
:015A9B0022E8
:10590E00E4FCFD7B207ACC7904F81212908F0B8E7A
:0F591E000A8D098C08E508C313FEE50913FF2263
:1058AB00E50D6599600885990DE4F50C80053013BD
:1058BB0002050CE50CC394E94007C2AF75C76080C5
:0258CB00FB22BE
:102BF0009003D17412F0A37434F09003D77403F0EF
:102C0000A37406F0A304F0A374FFF0A3743CF0A334
:102C100074CBF07BFF7A3C79B37F01124EE97BFFE6
:102C20007A3C79D19003D7E4F0A37402F07F0112CB
:102C30004EE97BFF7A3C79D59003D7E4F0A374404A
:102C4000F07F01124EE97BFF7A3C79DA7F01124E68
:102C5000E9E49003D0F07BFF7A3C79DD7F01124EEE
:102C6000E9E49003CFF07BFF7A3C79EF7F01124ECD
:102C7000E99003CFE0FF90FDF993FE74F12FF8E6A1
:102C8000B506069003D0E004F09003CFE004F0E036
:102C9000C3940740D19003D0E06407600B7BFF7AB8
:102CA0003C79F17F01024EE97BFF7A3D79247F0276
:102CB000124EE97BFF7A3D792C7F01124EE9E490B8
:102CC00003CFF09003CFE0FFC3940750217BFF7A3E
:102CD0003D7938EF90FDF993FF9003D7E4F0A3EF2F
:102CE000F07F01124EE99003CFE004F080D57BFF26
:102CF0007A3D793D7F01124EE97BFF7A3D79407F35
:102D000002124EE9E49003CFF09003CFE0FFC394AA
:102D10000750217BFF7A3D7938EF90FDF993FF90C2
:102D200003D7E4F0A3EFF07F02124EE99003CFE067
:102D300004F080D51258EF7BFF7A3D79517F011264
:102D40004EE91258EF7BFF7A3D79637F01124EE91D
:102D50001258EF7BFF7A3D79759003D77408F0A382
:102D6000E4F07F01124EE97F027E001258F37BFFF0
:102D70007A3D79869003D71213FE000100007F018F
:102D8000124EE97F027E001258F37BFF7A3D79985C
:102D90009003D71213FE016E36007F01124EE97FB9
:102DA000027E001258F37BFF7A3D79A878EFE6FFA8
:102DB00008E69003D7CFF0A3EFF07F01124EE9129F
:102DC00058EF7BFF7A3D79B77F01124EE91258EF39
:102DD0009003D1E0B4120B7BFF7A3D79BF7F0112E3
:102DE0004EE99003D1E0B4340B7BFF7A3D79CC7F80
:072DF00001124EE91258EF39
:012DF70022B9
:1059EC0043BA80D213E4F50DF50C125064D2AF7F9C
:0959FC00F47E011258F3022BF0B5
:0B4410009003E2EBF0A3EAF0A3E9F058
:10441B00E4FFFE9003E8F0A3F09003E2E0FBA3E0DF
:10442B00FAA3E0F912118C70030244BD9003E5E08E
:10443B00FBA3E0FAA3E0F98F828E831211A5FD9006
:10444B0003E2E0FBA3E0FAA3E0F912118CB5050738
:10445B000FBF00010E801E12118CFD9003E5E0FBD7
:10446B00A3E0FAA3E0F912118CB505067E007F01DB
:10447B008003E4FEFF9003E9E004F070069003E88C
:10448B00E004F09003E3E475F0011212189003E5D9
:10449B00E0FBA3E0FAA3E0F98F828E831211A560F3
:1044AB0003024424C39003E9E09FFF9003E8E09EDE
:0644BB00FE227EFF7FFFE0
:0144C10022D8
:10457300E49006C3F09006C5F09006C4F09006C41C
:10458300E0FFC3940A400302461C7E00ED2FF58230
:10459300EE3CF5831211A5FFC394304049EFD39449
:1045A3003750439006C5E004F0E0B401179006C409
:1045B300E02DF582EE3CF5831211A524D0C454F00E
:1045C3009006C3F09006C5E0B4021B9006C4E07EDB
:1045D300002DF582EE3CF5831211A524D0FF900641
:1045E300C3E04FFFF0229006C4E07E002DF582EE7B
:1045F3003CF5831211A5FFC39438400CEFD39439D3
:1046030050069006C5E004F0EF642C600CEF6009DF
:0E4613009006C4E004F00245809006C3E0FF6C
:014621002276
:0842A3009006B0ECF0A3EDF071
:1042AB00E4A3F0A3F0A3F09006B4E0FFC394144092
:1042BB00030243529006B1E02FFF9006B0E03400AA
:1042CB008F82F5831211A5FFC39430404CEFD3942A
:1042DB003950469006B2E0FEA3E0FF7C007D0A1247
:1042EB0012069006B2EEF0A3EFF0A3E0FF9006B13A
:1042FB00E02FFF9006B0E034008F82F5831211A5FA
:10430B00FF3395E0FEEF24D0FFEE34FFFE9006B3B3
:10431B00E02FF09006B2E03EF09006B4E0FF90067E
:10432B00B1E02FFF9006B0E034008F82F5831211BD
:10433B00A5FF642C6011EF642E600CEF60099006F2
:0F434B00B4E004F00242B29006B2E0FEA3E0FF3D
:01435A002240
:103B8600900669EBF0A3EAF0A3E9F0A3ECF0A3ED4D
:013B9600F03E
:103B9700E4900675F0A3F0A3F0A3F0A3F0A3F090D0
:103BA7000673F0A3F090066CE0FEA3E0FF900673A7
:103BB700E0FCA3E0FDC39FEC9E4003023C56900649
:103BC7006EE0FBA3E0FAA3E0F9900675E0FEA3E040
:103BD700F5828E831211A5FF900669E0FBA3E0FA38
:103BE700A3E0F98D828C831211A5B5073390067671
:103BF700E004F07006900675E004F0900671E0FEB0
:103C0700A3E0FF900675E0B50631A3E0B5072C9059
:103C17000673E0FFA3E0900679CFF0A3EFF0802FC3
:103C2700E4900675F0A3F0900674E02401FE900678
:103C370073E03400900677F0A3CEF0900674E004AA
:103C4700F06003023BAC900673E004F0023BAC90DB
:103C57000679E0FEA3E0FF900677E0FCA3E0FDD342
:103C67009FEC9E5044900673ECF0A3EDF09006791C
:103C7700E0FEA3E0FF900673E0FCA3E0FDC39FEC2A
:103C87009E5023900669E0FBA3E0FAA3E0F98D823A
:103C97008C83E41211E4900674E004F070CF900670
:0B3CA70073E004F080C77F01227F0063
:013CB20022EF
:080003000102040810204080F6
:1044C200ED6058EF540F90000393FEEF54F024F088
:1044D200602424F0602524F0602624F0602724F074
:1044E200602824F0602924F0602A247060030245C9
:1044F2007290FE10802190FE11801C90FE12801797
:1045020090FE13801290FE14800D90FE158008908C
:10451200FE16800390FE17E04EF022EF540F90003B
:104522000393F4FEEF54F024F0602124F06022247F
:10453200F0602324F0602424F0602524F060262417
:10454200F060272470702990FE10802190FE118067
:104552001C90FE12801790FE13801290FE14800DA4
:1045620090FE15800890FE16800390FE17E05EF024
:014572002226
:10317A00EF540F90000393FEEF54F024F0605E24A6
:10318A00F0700302321424F0700302324124F0700A
:10319A000302326E24F0700302329B24F0700302A1
:1031AA0032C524F070030232EF2470600302331830
:1031BA00ED14601414601914601B240360030233B5
:1031CA0018EEF45293529422EE4293EEF452942261
:1031DA00EE42938004EEF45293EE429422ED146090
:1031EA001414601914601B24036003023318EEF4EC
:1031FA005291529222EE4291EEF4529222EE429172
:10320A008004EEF45291EE429222ED14601414609E
:10321A001914601B24036003023318EEF45295520A
:10322A009622EE4295EEF4529622EE42958004EEF4
:10323A00F45295EE429622ED14601414601914604B
:10324A001B24036003023318EEF452B152B222EE89
:10325A0042B1EEF452B222EE42B18004EEF452B11F
:10326A00EE42B222ED14601414601914601B240398
:10327A006003023318EEF452B352B422EE42B3EEB4
:10328A00F452B422EE42B38004EEF452B3EE42B4E6
:10329A0022ED1460111460161460182403706FEE86
:1032AA00F452C952CA22EE42C9EEF452CA22EE427E
:1032BA00C98004EEF452C9EE42CA22ED1460111418
:1032CA00601614601824037045EEF452CB52CC22D7
:1032DA00EE42CBEEF452CC22EE42CB8004EEF45214
:1032EA00CBEE42CC22ED146011146016146018243F
:1032FA0003701BEEF452E152E222EE42E1EEF45286
:0E330A00E222EE42E18004EEF452E1EE42E2F5
:013318002292
:1046C700EF540F90000393FEED6043EF54F024F096
:1046D700602024F0602024F0602024F0602024F083
:1046E700602024F0602024F060202470706AEE427D
:1046F7008022EE429022EE42A022EE42B022EE420B
:10470700C022EE42C822EE42E822EE42F822EF54DF
:10471700F024F0602124F0602224F0602324F0606C
:104727002424F0602524F0602624F060272470708C
:1047370027EEF4528022EEF4529022EEF452A02299
:10474700EEF452B022EEF452C022EEF452C822EE3A
:08475700F452E822EEF452F8DE
:01475F002237
:1050BD00EF540F90000393FDEF54F024F060202483
:1050CD00F0602024F0602024F0602024F060202483
:1050DD00F0602024F0602024707020AE80801FAE20
:1050ED0090801BAEA08017AEB08013AEC0800FAE07
:1050FD00C8800BAEE88007AEF880037F0122EE5D1D
:07510D0060037F01227F0017
:015114002278
:1052A300EF540F90000393FEEF54F024F06020249A
:1052B300F0602024F0602024F0602024F06020249B
:1052C300F0602024F060202470701FEE628022EED4
:1052D300629022EE62A022EE62B022EE62C022EE63
:0A52E30062C822EE62E822EE62F8D3
:0152ED00229E
:1053CA00EFB40800503E9053D7F82828730253EFE1
:1053DA000253F30253F70253FB0253FF0254030230
:1053EA00540702540BED628022ED629022ED62A016
:1053FA0022ED62B022ED62C022ED62C822ED62E8BF
:05540A0022ED62F82212
:10476000EB6048EFB4080040030247F7904773F846
:1047700028287302478B02478F024793024797020C
:10478000479B02479F0247A30247A7ED428022EDC5
:10479000429022ED42A022ED42B022ED42C022ED35
:1047A00042C822ED42E822ED42F822EFB408005060
:1047B000469047B8F82828730247D00247D50247E9
:1047C000DA0247DF0247E40247E90247EE0247F315
:1047D000EDF4528022EDF4529022EDF452A022ED3D
:1047E000F452B022EDF452C022EDF452C822EDF49E
:0847F00052E822EDF452F82218
:10516800EFB40800503F905175F828287302518D0C
:1051780002519102519502519902519D0251A10289
:1051880051A50251A9AE80801FAE90801BAEA080B1
:1051980017AEB08013AEC0800FAEC8800BAEE880EB
:1051A80007AEF880037F0122EE5D60037F01227F56
:0151B80000F6
:0151B90022D3
:045AAD0075C1252278
:045AB10043C11022BB
:0C5A8600303136371617434410114647E4
:1050640075985053873FE58E54DE4401F58EE4FD78
:105074007F01124B4C9003D01213FE000708007FEF
:10508400011255AE438E0453AFFB438E10C211D2AE
:10509400AC759A10E4FD7F02124B4C9003D01213AE
:1050A400FE000708007F021255AE438E0453AFFB87
:0950B400438E10C21243AF012229
:104B4C009003CFEDF0EF24FE603F0470769003CF1E
:104B5C00E0FF54C0FEE5A2543F4EF5A2EFC4131380
:104B6C00540325E02486F582E4345AF583E493FF5C
:104B7C00E4FD12317A9003CFE0C41313540325E003
:104B8C002487F582E4345A80309003CFE0FF54013F
:104B9C00FEE5BA54FE4EF5BAEF25E0248EF582E41C
:104BAC00345AF583E493FFE4FD12317A9003CFE09D
:104BBC0025E0248FF582E4345AF583E493FF7D03DA
:044BCC0012317A2206
:0555AE009003CFEFF0B7
:1055B300A3E0F8A3E0F9A3E0FAA3E0FB7F807E8DEC
:1055C3007D5B7C0012131BC3E49FFFE49EFE9003EC
:0E55D300CFE024FE60030470058FD7EEF5D6FE
:0155E10022A7
:10598300EF24FE600C0470128D99D21130110B803C
:0B599300FBAF058F9BD2122012FD22FB
:10553E00EF24FE6019047030EB6006D29BD29B8084
:10554E0004C29BC29B8D99D21130111C80FBEB6063
:10555E0008439A08439A088006539AF7539AF7AF6E
:09556E00058F9BD2122012FD22D0
:10557700900602EBF0A3EAF0A3E9F0AE079006026B
:10558700E0FBA3E0FAA3E0F912118C6019AF0690D3
:105597000602A3E475F00112122EA9F0FA12118C7B
:0755A700FD12598380D72299
:0E4EE9009003D3EFF0A3EBF0A3EAF0A3E9F0FF
:104EF7009005FF7401F0A37403F0A374D7F0900337
:104F0700D4E0F9A3E0FAA3E0900602C9F0A3EAF01F
:104F1700A3E9F09005FFE0F9A3E0FAA3E090060506
:104F2700C9F0A3EAF0A3E9F07B017A0379FF1253F2
:104F3700389005FFE4F0A3F0A3F09003D3E0FF7BE4
:084F4700017A0379FF0255779E
:015AB90022CA
:015ABA0022C9
:015ABB0022C8
:015ABC0022C7
:105A5700EF146008047009C28DD28C22C28FD28ED7
:015A6700221C
:0D000E00EF146006047005C28C22C28E2221
:10548D009006CDEFF0ED6015E014600A04702B432B
:10549D008F017D038016438F027D0380189006CD0A
:1054AD00E014600C047013538FFEE4FD7F3580070C
:0B54BD00538FFDE4FD7F3412317A2292
:1056C900E58E547F4480F58E5389F0758A48758C30
:1056D900F4D2A9E58E54BF4440F58E53890F758BDA
:0756E90040758DA2D2AB2237
:0B410D00900687EFF0A3ECF0A3EDF0AC
:104118004C70030241D87FAA7E0A90068C747FF007
:10412800A374FFF0900688E0FCA3E0FDD39FEC9E0B
:104138005013A3E4F0A304F0E4120D32E4FBFA797F
:10414800C07841802790068CE0FEA3E0FF900688A7
:10415800E0FCA3E0FDD39FEC9E5024A3E4F0A374FD
:104168000CF0E4120D32E4FBFAF97840120B8712D6
:104178000D6BC3E49FFFE49E90068EF0A3EFF090D2
:104188000687E014602704704790068AE07004A34D
:10419800E064017005438E808003538E7F90068E05
:1041A800E0FEA3E0F58AEEF58C5389FB2290068A9F
:1041B800E07004A3E064017005438E408003538ED1
:1041C800BF90068EE0FEA3E0F58BEEF58D5389BF18
:0141D80022C4
:105A4400EF14600904700B8D8AECF58C228D8BECBD
:035A5400F58D22AB
:10002600E4FDFCEF14600B04700EAF8CEFAD8AFCA0
:0C0036008006AF8DEFAD8BFCAE04AF0573
:01004200229B
:10488F009003CFEFF024FC602724FC603E24FC60F3
:10489F0055240C706DE4FD7F1212317A7D037F1366
:1048AF0012317AE4FD7F1412317A7D037F15804F28
:1048BF00E4FD7F2212317A7D037F2312317AE4FDEA
:1048CF007F2412317A7D037F258034E4FD7F5412DB
:1048DF00317A7D037F4012317AE4FD7F4112317AC4
:1048EF007D037F438019E4FD7F3512317A7D037F8D
:1048FF003412317AE4FD7F3312317A7D037F321225
:10490F00317A9003CFE0540CFFE5A254F34FF5A298
:01491F002275
:0F5A7700E4FF12488F75CED175CDC043CE4022CB
:10594B007DC07C128FCFE5CD20E70BED4C6007EDD2
:0B595B001D70F31C80F043CDC0AFCFE7
:01596600221E
:1055E20075DE2F78EFE6FC08E6FDE4120D32E4FBEF
:1055F200FA797A7844120C909006BF1213F27D0168
:105602007F1612317A7D017F0612317A43BC8022E5
:105612007DC07C12EF540FFFE5BC54F04FF5BC4344
:10562200BC400000E5BC20E50BED4C6007ED1D70B1
:0F563200F31C80F053BC9FAFBDEFFEADBEEDFF8C
:015641002246
:10573E00125612AD07AC06E4120D329006B6E0F822
:10574E00A3E0F9A3E0FAA3E0FB120B87E4FBFA79DE
:06575E00807844020C906B
:10540F007F0F125612EF4E7005FFFEFDFC22AD0707
:10541F00AC06E4120D32C004C005C006C007E4FF9D
:10542F00FE7D807C449006BFE0F8A3E0F9A3E0FA8C
:10543F00A3E0FB120B87D003D002D001D000120CD7
:01544F0090CC
:015450002239
:101D5E0043F10190FF02740FF090FF007475F0A331
:101D6E007430F090FF10E4F0A3F0A3F0A3F0A3748E
:101D7E0080F07D03E4FF12317A90FF18E4F0A3F0B7
:101D8E00A3F0A3F0A37480F07D037F0112317A904B
:101D9E00FF20E4F0A3F0A3F0A3F0A37480F07D0382
:101DAE007F0212317A90FF28E4F0A3F0A3F0A3F0A3
:101DBE00A37480F07D037F0312317A90FF30E4F03C
:101DCE00A3F0A3F0A3F0A37480F07D037F0412317F
:101DDE007A90FF38E4F0A3F0A3F0A3F0A37480F0A0
:101DEE007D037F0512317A90FF407475F0A3743035
:101DFE00F0A3E4F0A3F0A37480F07D037F0612310C
:101E0E007A90FF487475F0A37430F0A3E4F0A3F059
:101E1E00A37480F07D037F0712317A43F60143F1FC
:101E2E000290FF52740FF090FF507475F0A374304F
:101E3E00F090FF907475F0A37430F0A3E4F0A3F06B
:101E4E00A37480F07D037F1612317A90FF98E4F030
:101E5E00A3F0A3F0A3F0A37480F07D037F171231DB
:101E6E007A43F61043F10490FFA2740FF090FFA096
:101E7E007475F0A37430F090FFB0E4F0A3F0A3F00B
:101E8E00A3F0A37480F07D037F2012317A90FFB807
:101E9E00E4F0A3F0A3F0A3F0A37480F07D037F2100
:101EAE0012317A90FFC0E4F0A3F0A3F0A3F0A37474
:101EBE0080F07D037F2212317A90FFC8E4F0A3F008
:101ECE00A3F0A3F0A37480F07D037F2312317A90E8
:101EDE00FFD0E4F0A3F0A3F0A3F0A37480F07D0391
:101EEE007F2412317A90FFD8E4F0A3F0A3F0A3F090
:101EFE00A37480F07D037F2512317A90FFE0E4F029
:101F0E00A3F0A3F0A3F0A37480F07D037F2612311B
:101F1E007A90FFE8E4F0A3F0A3F0A3F0A37480F0AE
:101F2E007D037F2712317A43F70143F10890FC02BB
:101F3E00740FF090FC007475F0A37430F090FC20D8
:101F4E00E4F0A3F0A3F0A3F0A37480F07D037F323E
:101F5E0012317A90FC28E4F0A3F0A3F0A3F0A3745E
:101F6E0080F07D037F3312317A90FC30E4F0A3F0E1
:101F7E00A3F0A3F0A37480F07D037F3412317A9026
:101F8E00FC38E4F0A3F0A3F0A3F0A37480F07D037B
:101F9E007F3512317A90FC40E4F0A3F0A3F0A3F069
:101FAE00A37480F07D037F3612317A90FC48E4F002
:101FBE00A3F0A3F0A3F0A37480F07D037F3712315A
:101FCE007A43F71043F11090FC52740FF090FC50CE
:101FDE007475F0A37430F090FC60E4F0A3F0A3F0FD
:101FEE00A3F0A37480F07D037F4012317A90FC68D9
:101FFE00E4F0A3F0A3F0A3F0A37480F07D037F417F
:10200E0012317A90FC70E4F0A3F0A3F0A3F0A37465
:10201E0080F07D037F4212317A90FC78E4F0A3F0D9
:10202E00A3F0A3F0A37480F07D037F4312317A9066
:10203E00FC80E4F0A3F0A3F0A3F0A37480F07D0382
:10204E007F4412317A90FC88E4F0A3F0A3F0A3F061
:10205E00A37480F07D037F4512317A90FC90E4F0FA
:10206E00A3F0A3F0A3F0A37480F07D037F4612319A
:10207E007A43FE0143F12090FCA2740FF090FCA075
:10208E007475F0A37430F090FCB0E4F0A3F0A3F0FC
:10209E00A3F0A37480F07D037F5012317A90FCB8C8
:1020AE00E4F0A3F0A3F0A3F0A37480F07D037F51BE
:1020BE0012317A90FCC0E4F0A3F0A3F0A3F0A37465
:1020CE0080F07D037F5212317A90FCC8E4F0A3F0C9
:1020DE00A3F0A3F0A37480F07D037F5312317A43F3
:0320EE00FE1022BF
:053319009003D0EFF06D
:10331E009003D57401F09003D5E0FFC3941050369E
:10332E00AB07E4FAF9F8FF7E367D6E7C0112131BB3
:10333E00E47BFF7A7FF9F812131B9003D1E0F8A318
:10334E00E0F9A3E0FAA3E0FBD31213BB50089003FD
:10335E00D5E004F080C09003D5E0FBE4FAF9F8FF65
:10336E007E367D6E7C0112131B9003D1E0F8A3E034
:10337E00F9A3E0FAA3E0FB12131B9003D61213F28B
:10338E00E47FFF7E7FFDFC9003D6E0F8A3E0F9A377
:10339E00E0FAA3E0FBD31213BB400302349D90036B
:1033AE00D0E014603C14605C14607C147003023432
:1033BE005814700302347B2405600302349D53F6C7
:1033CE00FE9003D5E0C3940190FF02F09003D6A3C4
:1033DE00A3E0FFA3E090FF00CFF0A3EFF043F601D0
:1033EE002253F6EF9003D5E0C3940190FF52F09074
:1033FE0003D6A3A3E0FFA3E090FF50CFF0A3EFF01E
:10340E0043F6102253F7FE9003D5E0C3940190FFCC
:10341E00A2F09003D6A3A3E0FFA3E090FFA0CFF00D
:10342E00A3EFF043F7012253F7EF9003D5E0C394D7
:10343E000190FC02F09003D6A3A3E0FFA3E090FC62
:10344E0000CFF0A3EFF043F7102253FEFE9003D50A
:10345E00E0C3940190FC52F09003D6A3A3E0FFA327
:10346E00E090FC50CFF0A3EFF043FE012253FEEFAD
:10347E009003D5E0C3940190FCA2F09003D6A3A3D1
:0F348E00E0FFA3E090FCA0CFF0A3EFF043FE100F
:01349D00220C
:100046009003D2EDF0A3EAF0A3EBF0EF14700302F5
:1000560002FA14700302039E147003020621147040
:100066000302080A147003020A3F24056003020B08
:10007600869003D2E0B408004003020B8690008A03
:10008600F82828730200A20200ED0201380201835B
:100096000201CE0202190202640202AF9003D3E00B
:1000A600FEA3E0FFC394E8EE9403400690FF15021A
:1000B6000B4BEF4E90FF15700304F022E4F090FF17
:1000C60012F0A3F090FF00E0FEA3E0FF9003D3E060
:1000D600FCA3E0FD1214C5E47BE87A03F9F81213D9
:1000E6001B90FF10020B819003D3E0FEA3E0FFC339
:1000F60094E8EE9403400690FF1D020B4BEF4E90E2
:10010600FF1D700304F022E4F090FF1AF0A3F090B4
:10011600FF00E0FEA3E0FF9003D3E0FCA3E0FD12A6
:1001260014C5E47BE87A03F9F812131B90FF180252
:100136000B819003D3E0FEA3E0FFC394E8EE9403A3
:10014600400690FF25020B4BEF4E90FF25700304EF
:10015600F022E4F090FF22F0A3F090FF00E0FEA36F
:10016600E0FF9003D3E0FCA3E0FD1214C5E47BE8B6
:100176007A03F9F812131B90FF20020B819003D328
:10018600E0FEA3E0FFC394E8EE9403400690FF2D43
:10019600020B4BEF4E90FF2D700304F022E4F0901B
:1001A600FF2AF0A3F090FF00E0FEA3E0FF9003D348
:1001B600E0FCA3E0FD1214C5E47BE87A03F9F8122B
:1001C600131B90FF28020B819003D3E0FEA3E0FFF0
:1001D600C394E8EE9403400690FF35020B4BEF4EB6
:1001E60090FF35700304F022E4F090FF32F0A3F0A4
:1001F60090FF00E0FEA3E0FF9003D3E0FCA3E0FD48
:100206001214C5E47BE87A03F9F812131B90FF3049
:10021600020B819003D3E0FEA3E0FFC394E8EE94C3
:1002260003400690FF3D020B4BEF4E90FF3D7003DF
:1002360004F022E4F090FF3AF0A3F090FF00E0FE15
:10024600A3E0FF9003D3E0FCA3E0FD1214C5E47B1A
:10025600E87A03F9F812131B90FF38020B8190031A
:10026600D3E0FEA3E0FFC394E8EE9403400690FFBC
:1002760045020B4BEF4E90FF45700304F022E4F06D
:1002860090FF42F0A3F090FF00E0FEA3E0FF900392
:10029600D3E0FCA3E0FD1214C5E47BE87A03F9F889
:1002A60012131B90FF40020B819003D3E0FEA3E0E4
:1002B600FFC394E8EE9403400690FF4D020B4BEF0C
:1002C6004E90FF4D700304F022E4F090FF4AF0A335
:1002D600F090FF00E0FEA3E0FF9003D3E0FCA3E074
:1002E600FD1214C5E47BE87A03F9F812131B90FF9C
:1002F60048020B819003D2E024F9605104600302A6
:100306000B869003D3E0FEA3E0FFC394E8EE9403CC
:10031600400690FF95020B4BEF4E90FF957003043D
:10032600F022E4F090FF92F0A3F090FF50E0FEA3DD
:10033600E0FF9003D3E0FCA3E0FD1214C5E47BE8E4
:100346007A03F9F812131B90FF90020B819003D3E6
:10035600E0FEA3E0FFC394E8EE9403400690FF9D01
:10036600020B4BEF4E90FF9D700304F022E4F090D9
:10037600FF9AF0A3F090FF50E0FEA3E0FF9003D3B6
:10038600E0FCA3E0FD1214C5E47BE87A03F9F81259
:10039600131B90FF98020B819003D2E0B408004033
:1003A60003020B869003B1F82828730203C90204DE
:1003B6001402045F0204AA0204F502054002058B3A
:1003C6000205D69003D3E0FEA3E0FFC394E8EE94C3
:1003D60003400690FFB5020B4BEF4E90FFB570033E
:1003E60004F022E4F090FFB2F0A3F090FFA0E0FE4C
:1003F600A3E0FF9003D3E0FCA3E0FD1214C5E47B69
:10040600E87A03F9F812131B90FFB0020B819003F0
:10041600D3E0FEA3E0FFC394E8EE9403400690FF0A
:10042600BD020B4BEF4E90FFBD700304F022E4F0CB
:1004360090FFBAF0A3F090FFA0E0FEA3E0FF9003C8
:10044600D3E0FCA3E0FD1214C5E47BE87A03F9F8D7
:1004560012131B90FFB8020B819003D3E0FEA3E0BA
:10046600FFC394E8EE9403400690FFC5020B4BEFE2
:100476004E90FFC5700304F022E4F090FFC2F0A393
:10048600F090FFA0E0FEA3E0FF9003D3E0FCA3E022
:10049600FD1214C5E47BE87A03F9F812131B90FFEA
:1004A600C0020B819003D3E0FEA3E0FFC394E8EE05
:1004B6009403400690FFCD020B4BEF4E90FFCD709C
:1004C6000304F022E4F090FFCAF0A3F090FFA0E04E
:1004D600FEA3E0FF9003D3E0FCA3E0FD1214C5E405
:1004E6007BE87A03F9F812131B90FFC8020B819080
:1004F60003D3E0FEA3E0FFC394E8EE940340069026
:10050600FFD5020B4BEF4E90FFD5700304F022E4AB
:10051600F090FFD2F0A3F090FFA0E0FEA3E0FF90E2
:1005260003D3E0FCA3E0FD1214C5E47BE87A03F9EB
:10053600F812131B90FFD0020B819003D3E0FEA3A9
:10054600E0FFC394E8EE9403400690FFDD020B4BF8
:10055600EF4E90FFDD700304F022E4F090FFDAF036
:10056600A3F090FFA0E0FEA3E0FF9003D3E0FCA37E
:10057600E0FD1214C5E47BE87A03F9F812131B9028
:10058600FFD8020B819003D3E0FEA3E0FFC394E8FB
:10059600EE9403400690FFE5020B4BEF4E90FFE50D
:1005A600700304F022E4F090FFE2F0A3F090FFA0C5
:1005B600E0FEA3E0FF9003D3E0FCA3E0FD1214C528
:1005C600E47BE87A03F9F812131B90FFE0020B8133
:1005D6009003D3E0FEA3E0FFC394E8EE9403400645
:1005E60090FFED020B4BEF4E90FFED700304F022EF
:1005F600E4F090FFEAF0A3F090FFA0E0FEA3E0FF96
:100606009003D3E0FCA3E0FD1214C5E47BE87A0373
:10061600F9F812131B90FFE8020B819003D2E02435
:10062600FD606A1470030206DE14700302072914C3
:1006360070030207741470030207BF2405600302E7
:100646000B869003D3E0FEA3E0FFC394E8EE940389
:10065600400690FC25020B4BEF4E90FC25700304E0
:10066600F022E4F090FC22F0A3F090FC00E0FEA360
:10067600E0FF9003D3E0FCA3E0FD1214C5E47BE8A1
:100686007A03F9F812131B90FC20020B819003D316
:10069600E0FEA3E0FFC394E8EE9403400690FC2D31
:1006A600020B4BEF4E90FC2D700304F022E4F09009
:1006B600FC2AF0A3F090FC00E0FEA3E0FF9003D339
:1006C600E0FCA3E0FD1214C5E47BE87A03F9F81216
:1006D600131B90FC28020B819003D3E0FEA3E0FFDE
:1006E600C394E8EE9403400690FC35020B4BEF4EA4
:1006F60090FC35700304F022E4F090FC32F0A3F095
:1007060090FC00E0FEA3E0FF9003D3E0FCA3E0FD35
:100716001214C5E47BE87A03F9F812131B90FC3037
:10072600020B819003D3E0FEA3E0FFC394E8EE94AE
:1007360003400690FC3D020B4BEF4E90FC3D7003D0
:1007460004F022E4F090FC3AF0A3F090FC00E0FE06
:10075600A3E0FF9003D3E0FCA3E0FD1214C5E47B05
:10076600E87A03F9F812131B90FC38020B81900308
:10077600D3E0FEA3E0FFC394E8EE9403400690FCAA
:1007860045020B4BEF4E90FC45700304F022E4F05B
:1007960090FC42F0A3F090FC00E0FEA3E0FF900383
:1007A600D3E0FCA3E0FD1214C5E47BE87A03F9F874
:1007B60012131B90FC40020B819003D3E0FEA3E0D2
:1007C600FFC394E8EE9403400690FC4D020B4BEFFA
:1007D6004E90FC4D700304F022E4F090FC4AF0A326
:1007E600F090FC00E0FEA3E0FF9003D3E0FCA3E062
:1007F600FD1214C5E47BE87A03F9F812131B90FC8A
:1008060048020B819003D2E0B407004003020B8636
:1008160090081DF828287302083202087D0208C8CD
:1008260002091302095E0209A90209F49003D3E042
:10083600FEA3E0FFC394E8EE9403400690FC650235
:100846000B4BEF4E90FC65700304F022E4F090FC35
:1008560062F0A3F090FC50E0FEA3E0FF9003D3E02B
:10086600FCA3E0FD1214C5E47BE87A03F9F8121341
:100876001B90FC60020B819003D3E0FEA3E0FFC354
:1008860094E8EE9403400690FC6D020B4BEF4E90FD
:10089600FC6D700304F022E4F090FC6AF0A3F09083
:1008A600FC50E0FEA3E0FF9003D3E0FCA3E0FD12C2
:1008B60014C5E47BE87A03F9F812131B90FC68026E
:1008C6000B819003D3E0FEA3E0FFC394E8EE94030C
:1008D600400690FC75020B4BEF4E90FC75700304BE
:1008E600F022E4F090FC72F0A3F090FC50E0FEA33E
:1008F600E0FF9003D3E0FCA3E0FD1214C5E47BE81F
:100906007A03F9F812131B90FC70020B819003D343
:10091600E0FEA3E0FFC394E8EE9403400690FC7D5E
:10092600020B4BEF4E90FC7D700304F022E4F09036
:10093600FC7AF0A3F090FC50E0FEA3E0FF9003D316
:10094600E0FCA3E0FD1214C5E47BE87A03F9F81293
:10095600131B90FC78020B819003D3E0FEA3E0FF0B
:10096600C394E8EE9403400690FC85020B4BEF4ED1
:1009760090FC85700304F022E4F090FC82F0A3F072
:1009860090FC50E0FEA3E0FF9003D3E0FCA3E0FD63
:100996001214C5E47BE87A03F9F812131B90FC8065
:1009A600020B819003D3E0FEA3E0FFC394E8EE942C
:1009B60003400690FC8D020B4BEF4E90FC8D7003AE
:1009C60004F022E4F090FC8AF0A3F090FC50E0FEE4
:1009D600A3E0FF9003D3E0FCA3E0FD1214C5E47B83
:1009E600E87A03F9F812131B90FC88020B81900336
:1009F600D3E0FEA3E0FFC394E8EE9403400690FC28
:100A060095020B4BEF4E90FC95700304F022E4F038
:100A160090FC92F0A3F090FC50E0FEA3E0FF900360
:100A2600D3E0FCA3E0FD1214C5E47BE87A03F9F8F1
:100A360012131B90FC90020B819003D2E014605EAF
:100A4600147003020AEF147003020B3824036003C8
:100A5600020B869003D3E0FEA3E0FFC394E8EE9476
:100A660003400690FCB5020B4BEF4E90FCB57003AD
:100A760004F022E4F090FCB2F0A3F090FCA0E0FEBB
:100A8600A3E0FF9003D3E0FCA3E0FD1214C5E47BD2
:100A9600E87A03F9F812131B90FCB0020B8190035D
:100AA600D3E0FEA3E0FFC394E8EE9403400690FC77
:100AB600BD020B4BEF4E90FCBD700304F022E4F038
:100AC60090FCBAF0A3F090FCA0E0FEA3E0FF900338
:100AD600D3E0FCA3E0FD1214C5E47BE87A03F9F841
:100AE60012131B90FCB8020B819003D3E0FEA3E027
:100AF600FFC394E8EE9403400590FCC58047EF4E93
:100B060090FCC5700304F022E4F090FCC2F0A3F060
:100B160090FCA0E0FEA3E0FF9003D3E0FCA3E0FD81
:100B26001214C5E47BE87A03F9F812131B90FCC093
:100B360080499003D3E0FEA3E0FFC394E8EE94035C
:100B4600400790FCCD7402F022EF4E90FCCD70036E
:100B560004F022E4F090FCCAF0A3F090FCA0E0FEC2
:100B6600A3E0FF9003D3E0FCA3E0FD1214C5E47BF1
:100B7600E87A03F9F812131B90FCC8EEF0A3EFF025
:010B8600224C
:03000B000254C8D4
:1054C800C0E0C0F0C083C082C0D075D000C000C0AA
:1054D80001C002C003C004C005C006C00712599E1F
:1054E800D007D006D005D004D003D002D001D00018
:0B54F800D0D0D082D083D0F0D0E032C2
:03001B0002550388
:10550300C0E0C0F0C083C082C0D075D000C000C06E
:1055130001C002C003C004C005C006C0071241D9C0
:10552300D007D006D005D004D003D002D001D000DC
:0B553300D0D0D082D083D0F0D0E03286
:030023000252EE98
:1052EE00C0E0C0F0C083C082C0D075D000C000C086
:1052FE0001C002C003C004C005C006C00730980834
:10530E00C2981256711258AB309904C299C211D07C
:10531E0007D006D005D004D003D002D001D000D0E3
:0A532E00D0D082D083D0F0D0E0325E
:0300430002520A5C
:10520A00C0E0C0F0C083C082C0D075D000C000C06A
:10521A0001C002C003C004C005C006C007E59A3039
:10522A00E006539AFE12569DE59A30E105539AFD1F
:10523A00C212D007D006D005D004D003D002D001C4
:0D524A00D000D0D0D082D083D0F0D0E032A0
:035AB50002594B48
:105115009003E7EBF0A3EAF0A3E9F0A3ECF0A3ED2D
:01512500F099
:10512600E4A3F0A3F09003EAE0FEA3E0FFA3E0FC13
:10513600A3E0FDC39FEC9E50269003E7E0FBA3E0AF
:10514600FAA3E0F98D828C831211A5FF12594B90B8
:1051560003EDE004F070CE9003ECE004F080C67F2F
:015166000147
:015167002225
:05001E007FFF02594BB9
:0E4DAA00E0FBA3E0FAA3E0F9A3E0FCA3E0FD28
:104DB8009003E7EBF0A3EAF0A3E9F0A3ECF0A3ED8E
:014DC800F0FA
:104DC900E4A3F0A3F09003EAE0FEA3E0FFC390039D
:104DD900EDE09F9003ECE09E502F7FFF12594B901E
:104DE90003E7E0FBA3E0FAA3E0F99003ECE0FCA3FE
:104DF900E0F5828C83EF1211E49003EDE004F0708A
:0B4E0900C49003ECE004F080BC7F01CB
:014E1400227B
:10576400E49003ECF0FD7F121246C77F05125AB590
:1057740012001E9003ECEFF07D017F121246C790D9
:0457840003ECE0FF53
:0157880022FE
:10578900E49006CEF0FD7F121246C77F35125AB556
:1057990012001E9006CEEFF07D017F121246C790CF
:0457A90006CEE0FF49
:0157AD0022D9
:10592D001257AEE4FD7F121246C77F01125AB5E43D
:0E593D00FF125AB57D017F121246C702525763
:1058CD00E49006CFF0FD7F121246C77F50125AB5F5
:1058DD009006CFEFF07D017F121246C79006CFE004
:0158ED00FFBB
:0158EE002297
:1057AE00E49003E7F0FD7F121246C77F06125AB54A
:1057BE009003E7EFF07D017F121246C71252579009
:0457CE0003E7E0FF0E
:0157D20022B4
:1057D300E49006D0F0FD7F121246C77F04125AB53B
:1057E3009006D0EFF07D017F121246C712525790F8
:0457F30006D0E0FFFD
:0157F700228F
:095A9C00E4FCFDFE78100213DFAA
:0451BA00AB07AA068F
:1051BE009003DB1213FE00000000D3EB94FFEA9481
:1051CE000340047A037BFFAE02AF03E4FCFD9003C1
:1051DE00DB1213F29003DBE0FCA3E0FDA3E0FEA3E1
:1051EE00E0FF780C1213DF9003DB1213F29003DB57
:0B51FE00E0FCA3E0FDA3E0FEA3E0FF47
:015209002282
:085AA500E4FCFD78080213DFA8
:04462200AB05AA0733
:104626009006991213FE0000000090069D1213FEDC
:1046360000000000EBD3940F4002E4FBAF02E4FC61
:10464600FDFE9006991213F2900699E0FCA3E0FD98
:10465600A3E0FEA3E0FF78101213DF900699121371
:10466600F2AF03E4FCFDFE90069D1213F290069D48
:10467600E0FCA3E0FDA3E0FEA3E0FF780C1213DF4D
:1046860090069D1213F2900699E0FCA3E0FDA3E0CC
:10469600FEA3E0FFA3E0F8A3E0F9A3E0FAA3E0FBA2
:1046A600EF2BFFEE3AFEED39FDEC38FC9006991241
:1046B60013F2900699E0FCA3E0FDA3E0FEA3E0FF61
:0146C60022D1
:09400600900690EBF0AA05A90751
:10400F00A31213FE000000009006951213FE00008D
:10401F000000EAD3940F4002E4FA900690E0D394A4
:10402F000F4002E4F0AF01E4FCFDFE900691121385
:10403F00F2900691E0FCA3E0FDA3E0FEA3E0FF7881
:10404F00101213DF9006911213F2AF02E4FCFDFE83
:10405F009006951213F2900695E0FCA3E0FDA3E005
:10406F00FEA3E0FF780C1213DF9006951213F29067
:10407F000691E0FCA3E0FDA3E0FEA3E0FFA3E0F8C0
:10408F00A3E0F9A3E0FAA3E0FBEF2BFFEE3AFEED7E
:10409F0039FDEC38FC9006911213F2900690E0FF78
:1040AF00E4FCFDFE9006951213F2900695E0FCA33A
:1040BF00E0FDA3E0FEA3E0FF78081213DF90069562
:1040CF001213F2900691E0FCA3E0FDA3E0FEA3E043
:1040DF00FFA3E0F8A3E0F9A3E0FAA3E0FBEF2BFFC7
:1040EF00EE3AFEED39FDEC38FC9006911213F2908A
:0D40FF000691E0FCA3E0FDA3E0FEA3E0FFBE
:01410C002290
:0556F0009006BAEFF086
:1056F500EB7B00FAAF05EFC454F0FEEB2400FFEEA0
:105705003AFE9006BEE02FFF9006BDE03EFEE4FCAB
:01571500FD96
:015716002270
:104E80009003E71213F29003E7E0FCA3E0FDA3E038
:104E9000FEA3E0FF78101213CCEF1211D29003E7BB
:104EA000A3A3E0FEA3E0FFE4FDFC9003E71213F2EE
:104EB0009003E7E0FCA3E0FDA3E0FEA3E0FF780899
:104EC0001213CC9003EEE0FBA3E0FAA3E0F9EF129B
:104ED00011D29003E7A3A3A3E0FF9003F1E0FBA3AB
:094EE000E0FAA3E0F9EF0211D29F
:10538200E49006C9F0A3F0FD7F121246C77F901287
:105392005AB5E4FF125AB5E4FF125AB5E4FF125AA5
:1053A200B512001EEF9006C9F0A3E4F012001E90A1
:1053B20006C9E0F0A3E04FF07D017F121246C790CC
:0753C20006C9E0FEA3E0FFB5
:0153C90022C1
:104FAE009003EE7401F0A37406F0A374C7F0A3741B
:104FBE0001F0A37406F0A374C8F07B017A0679C6DB
:104FCE00124E80E4FD7F121246C77F03125AB5902F
:104FDE0006C6E0FF125AB59006C7E0FF125AB5900A
:104FEE0006C8E0FF125AB512001E9006C6EFF07DFD
:0B4FFE00017F121246C79006C6E0FFBC
:015009002284
:0B4F4F009003DFEBF0A3EAF0A3E9F011
:104F5A009003EE7401F0A37403F0A374E5F0A37454
:104F6A0001F0A37403F0A374E6F07B017A0379E4F9
:104F7A00124E80E4FD7F121246C77F03125AB59083
:104F8A0003E4E0FF125AB59003E5E0FF125AB59028
:104F9A0003E6E0FF125AB59003DF124DAA7D017FA6
:044FAA00120246C7E2
:104BD00090063EE0FBA3E0FAA3E0F99006827401A0
:044BE000F0A3E4F06A
:0B4BE40090067FEBF0A3EAF0A3E9F0DD
:104BEF009003EE7401F0A37406F0A37485F0A37420
:104BFF0001F0A37406F0A37486F07B017A06798422
:104C0F00124E80E4FD7F121246C77F0B125AB590E9
:104C1F000684E0FF125AB5900685E0FF125AB59050
:104C2F000686E0FF125AB5E4FF125AB590067F12BE
:094C3F004DAA7D017F120246C757
:105967001257AE125257E4FD7F121246C77FC71275
:0C5977005AB57D017F121246C70252573C
:104A3B0090063EE0FBA3E0FAA3E0F99003E27401D9
:044A4B00F0A3E4F000
:0B4A4F009003DFEBF0A3EAF0A3E9F016
:104A5A009003EE7401F0A37403F0A374E5F0A37459
:104A6A0001F0A37403F0A374E6F07B017A0379E4FE
:104A7A00124E801257AE125257E4FD7F121246C7E9
:104A8A007F02125AB59003E4E0FF125AB59003E58B
:104A9A00E0FF125AB59003E6E0FF125AB59003DF21
:104AAA00E0FBA3E0FAA3E0F9A3E0FCA3E0FD1251C6
:0B4ABA00157D017F121246C702525703
:1038EF009006511213F2900655EBF0A3EAF0A3E9FC
:0138FF00F0D8
:10390000A3E0FCA3E0FDECC4540FA3F0EC540FFEC5
:10391000D3ED9400EE94004003E004F0900651E0F3
:10392000FCA3E0FDA3E0FEA3E0FF90065B1213F210
:10393000E490065FF090065AE0FF90065FE0C39FB8
:10394000502E90065B124CC090065BE0FCA3E0FD9D
:10395000A3E0FEA3E02400FFEE3410FEE43DFDE40E
:103960003CFC90065B1213F290065FE004F080C509
:10397000900658E0FCA3E0FF900660E4F0A3EFF0AF
:10398000ECFFA3E4F0A3EFF0900655E0F9A3E0FA12
:10399000A3E0900664C9F0A3EAF0A3E9F0E4A3F081
:1039A000A3F0900662E0FEA3E0FFC3900668E09FEC
:1039B000900667E09E504F900651E0FCA3E0FDA307
:1039C000E0FEA3E0FF900664124A3E900651E0FC40
:1039D000A3E0FDA3E0FEA3E02400FFEE3401FEE43B
:1039E0003DFDE43CFC9006511213F2900665740113
:1039F00075F000121218900668E004F07006900648
:103A000067E004F0809CD3900661E094009006602B
:103A1000E09400402B900664E0FBA3E0FAA3E0F9F9
:103A2000900660E0FFA3E09003E2CFF0A3EFF090F8
:103A30000651E0FCA3E0FDA3E0FEA3E0FF124A4F25
:013A40002263
:064E15009006A91213F241
:104E1B001257AE1252579006A9E0FCA3E0FDA3E097
:104E2B00FEA3E0FF9003EE7401F0A37406F0A374ED
:104E3B00AEF0A37401F0A37406F0A374AFF07B0182
:104E4B007A0679AD124E80E4FD7F121246C77FD8E9
:104E5B00125AB59006ADE0FF125AB59006AEE0FFC0
:104E6B00125AB59006AFE0FF125AB57D017F1212B0
:054E7B0046C70252577A
:0B4CC000E0FCA3E0FDA3E0FEA3E0FF8A
:064CCB009003D71213F262
:104CD1001257AE1252579003D7E0FCA3E0FDA3E0B8
:104CE100FEA3E0FF9003EE7401F0A37403F0A3743C
:104CF100DCF0A37401F0A37403F0A374DDF07B0175
:104D01007A0379DB124E80E4FD7F121246C77F20C1
:104D1100125AB59003DBE0FF125AB59003DCE0FFB5
:104D2100125AB59003DDE0FF125AB57D017F1212D0
:054D310046C7025257C5
:10525700E4FF9003E81213FE00000000802AEF30FD
:10526700E02B7F017E001258F39003E8E0FCA3E0F7
:10527700FDA3E0FEA3E02401FFE43EFEE43DFDE4E0
:105287003CFC9003E81213F212576480D19003E8B4
:0B529700E0FCA3E0FDA3E0FEA3E0FFAD
:0152A20022E9
:1059B800E4FD7F121246C77FB9125AB57D017F12E6
:0A59C8001246C77F017E000258F36B
:1059D200E4FD7F121246C77FAB125AB57D017F12DA
:0A59E2001246C77F017E000258F351
:104C48009006A11213F29006A5EBF0A3EAF0A3E9EF
:014C5800F06B
:104C59007FFF7E031251BA124CCBE49006A8F09064
:104C690006A8E0FBC39410504DE4FDFF12400690E6
:104C790006A1E0F8A3E0F9A3E0FAA3E02FFFEA3EDA
:104C8900FEE93DFDE83CFCA3E0FBA3E0FAA3E0F963
:104C99009003E27401F0A3E4F0124F4F9006A8E0EC
:104CA900FB7D0F7F3F1240069006A5124A3E9006F3
:064CB900A8E004F080A950
:014CBF0022D2
:06349E009006381213F243
:1034A4007FFF7EFF7D3F7C00900638E0F8A3E0F9C3
:1034B400A3E0FAA3E0FBD31213BB40037FFF2290E7
:1034C4000638E0FCA3E0FDA3E0FEE4FFEE54F0FECA
:1034D400EC9006411213F2900638E0FCA3E0FDA341
:1034E400E0FEA3E0FF78081213CCEF540FFEE49043
:1034F4000645F0A3CEF0E0FEE4FCFD900641E0F8C2
:10350400A3E0F9A3E0FAA3E02400FFEA3EFEED39CC
:10351400FDEC38FC9006471213F2900641E0FCA340
:10352400E0FDA3E0FEA3E0FF90063EE0FBA3E0FA8B
:10353400A3E0F9124C48900647E0FCA3E0FDA3E0A9
:10354400FEA3E0FF124BD090063CA3E0FFC007901F
:103554000638A3A3A3E0FF90063EE0FBA3E0FAA392
:10356400E0F98F82758300D0E01211E490064112D5
:103574004CC0900647E0FCA3E0FDA3E0FEA3E0FFFF
:10358400124A3B7D0F7F3F12462290064B1213F2E4
:10359400E490064FF0A3F090064FE0FEA3E0FFC3D3
:1035A4009410EE64809480506D900645E0FCA3E096
:1035B400FDEF6D7002EE6C604C900650E0FE3395AA
:1035C400E0FDFC90064BE0F8A3E0F9A3E0FAA3E0E9
:1035D4002400FFEA3EFEE93DFDE83CFC124BD0909E
:1035E4000650E0FE3395E0FDFC900641E0F8A3E0D0
:1035F400F9A3E0FAA3E02400FFEA3EFEE93DFDE87A
:103604003CFC124A3B900650E004F0700690064FD2
:08361400E004F002359B7F0089
:01361C00228B
:105A05007D037F4712317A7F2C7E0112590E900655
:075A1500CBEEF0A3EFF0223D
:104AC5009003D2EBF0A3EAF0A3E9F0A3ECF0A3ED99
:014AD500F0F0
:104AD600C2C79006CBE0FEA3E0FF125A92E4FFFEA7
:104AE600D39003D6E09F9003D5E09E404BC2C7907B
:104AF60003D2E0FBA3E0FAA3E0F98F828E831211C2
:104B0600A5F520E4FDD2C730070F00000000000025
:104B16000000000000C2C7800A0000000000C2C7F3
:104B2600000000000000E52025E0F5200DEDB408AA
:104B3600D40FBF00010E80A89006CBE0FEA3E0FFD5
:054B4600125A92D2C7D3
:014B4B002247
:100B8700EC4D6011E8497017ED33EC3304600DE468
:100B9700FCFFFEFD22E933E8330470F8020DD7129B
:100BA7000DA258046009E4CC24815006285009029C
:100BB7000DE1284003020DDEC0E0EB4A7044B98026
:100BC70006D0E0FB020DCDEF4E701CBD8008EBFF99
:100BD700EAFEE9FD80EBE98DF0A4FEE5F0020C707A
:100BE700E9CDF9EAFEEBFFEF89F0A4FCE5F0CE8949
:100BF700F0A42EFFE435F0CD89F0A42DFEE435F006
:100C07008067EF4E7005BD80D780C3EF8BF0A4AC33
:100C1700F0EE8BF0A42CFCE435F0F8EF8AF0A42C6E
:100C2700E5F038FCE433CB8DF0A42CFCE5F03BF881
:100C3700EE8AF0A42CFCE5F038F8E433CF89F0A471
:100C47002CFCE5F038CF3400CE89F0A42FFFE5F077
:100C57003EFEE433C98DF0A42EFEE5F039CD8AF0CF
:100C6700A42FFFE5F03EFEE43DFD33D0E0FB500747
:100C77000BBB000F020DE1EC2CFCEF33FFEE33FE54
:060C8700ED33FD020DB982
:100C8D00020DE1EC5D046005E859047003020DD717
:100C9D00120DA2580460F6EC4860F2EC7004FDFEF3
:100CAD00FF22C860DB2481C85009C398600250063A
:100CBD00020DDE9850CAF582E9294B4A7005AB82C8
:100CCD00020DCD75F0007C1A7880C3EF9BEE9AED86
:100CDD0099400DC3EF9BFFEE9AFEED99FDE842F0B2
:100CED00DC23ACF0D0E0FFD0E0FED0E0FDAB822005
:100CFD00E7101BEB60BAEC2CFCEF33FFEE33FEED8F
:100D0D0033FD020DB9E803F830E705C0F075F000CA
:100D1D00EF2FFFEE33FEED33FD40B830E7C280AA72
:100D2D0075F020800E75F010800575F0087D007E41
:100D3D00007F003392D530D5031213ADEC33401044
:100D4D00EF33FFEE33FEED33FDEC33FCD5F0ED224A
:0E0D5D00E5F0247EA2D513CC92E7CDCEFF2286
:100D6B00EDD2E7CD33EC3392D524814006E4FFFE80
:100D7B00FDFC22FCE4CFCECDCC24E0501174FF80DF
:100D8B00EDC3CC13CCCD13CDCE13CECF13CF04707C
:070D9B00F030D5DE0213ADBC
:10533800900602E0FFA3E0FEA3E0CF90060BF0A3E7
:10534800EEF0A3EFF0900605E0CBF0A3E0CAF0A3DF
:10535800E0C9F07F2290060EAD82AC8312118C8DCD
:10536800828C83F0A309E970010ADFEC900605E05E
:0A537800FBA3E0FAA3E0F902157EA2
:100DA200E9D2E7C933E833F892D5EDD2E7CD33EC97
:070DB20033FC5002B2D52210
:100DB900EC30E7100FBF000C0EBE00080DBD00049B
:100DC9000BEB6014A2D5EB13FCED92E7FD2274FF47
:100DD900FCFDFEFF22E480F8A2D574FF13FC7D80A0
:030DE900E480EFB4
:10151900E50E240BF582E43406F583E0050E2290EE
:101529000608300F0390060BE475F00112142F0220
:10153900118C2008E97F2ED2088018EF540F2490CF
:10154900D43440D4FF300C0BEF24BFB41A0050033D
:101559002461FFE50F6002150F0512E512700205FF
:1015690011300F0E900608E475F00112142FEF02E6
:1015790011D20257177403D20F8003E4C20FF50E7C
:10158900900608121446E4F50FF511F512E50F60FF
:10159900077F2012155C80F57510FFC209C208C2C9
:1015A9000AC20BC20DC20EC210121528FF700D30EF
:1015B9000F057F0012156DAF12AE1122B4255FC25F
:1015C900D5C20C121528FF24D0B40A00501A75F0A0
:1015D9000A780F30D50508B6FF0106C6A426F620FD
:1015E900D5047002D20B80D924CFB41A00EF50046D
:1015F900C2E5D20C02185FD20980C6D20880C0D2D7
:101609000A80BCD2D580BAD20D80B47F2012155C75
:10161900200A077401B50F0040F1121519FF1215C0
:101629005C021596D210D20E8095121519FB12156F
:1016390019FA121519F94A4B7006795D7A197BFF67
:10164900200A2EE50F602A7E008E82758300121112
:10165900A560060EEE651070F0C2D5EBC0E0EAC0D9
:10166900E0E9C0E0EE1218C0D0E0F9D0E0FAD0E02D
:10167900FB12118CFF60AAEBC0E0EAC0E0E9C0E010
:1016890012155CD0E02401F9D0E03400FAD0E0FB77
:10169900E5100460DCD510D98087D20A80A212181F
:1016A900A260F7E510700104120DECA910600DE5B8
:1016B90010600914F51012194AEF60F3EA30E702D5
:1016C900F404C3995079EAF425100430E701E404DD
:1016D900F510800D1218A260C1EA05102510120D2F
:1016E900ECEA900637F030E701E4251004D5100440
:1016F900200D01141218C0E4C0E012194A900637EF
:10170900E0601320E70714F0121544802204F0D09A
:10171900E014C0E07F00121544E510600712153B84
:101729001510800B300D0312153BD0E0021596D031
:10173900E00480C41218A2609EE51004120DEC901A
:101749000637EAF0E510200D02600104240412189E
:01175900C0CF
:10175A0074FF04C0E012194A121544E510200D0264
:10176A00600312153BD0E0B510E87F4512154E9084
:10177A000637E07F2B30E7047F2DF404C0E0121512
:10178A005CD0E075F00A84C0F0121545D0E012155D
:10179A0045021596791080027908C20EC210800897
:1017AA00D2D5790A8004790AC2D5E510047002F507
:1017BA0010E4FAFDFEFF121519FC7B08200913122A
:1017CA001519FD7B1030080A121519FE121519FF9A
:1017DA007B20EC3382D592D55013C3E43008069FA0
:1017EA00FFE49EFEE42009039DFDE49CFCE4CBF8A3
:1017FA00C209EC700CCFCECDCCE824F8F870F38097
:10180A0017C3EF33FFEE33FEED33FDEC33FCEB335E
:10181A00FB994002FB0FD8E9EB300905F8D0E0C488
:10182A0048B209C0E00AEC4D4E4F78207B0070C2E6
:10183A00EAB5100040BCC0E01218C2D0F0D0E020D7
:10184A000904C4C0E0C4B209C0F0121545D0F0D5ED
:10185A00F0EB02159612149F163353179E5816046E
:10186A004C16004217A24F17AA4417AA4916194341
:10187A0017B05516DD46173D4516A747197D501670
:10188A00082D160C2E162F2B161023162D2019662E
:10189A002A15C84800001627E510B4FF037510067C
:1018AA00121519FC121519FD121519FE121519FF38
:1018BA00900630020E29790AA2D5200B14300D09A0
:1018CA00B910020404B9080104A2D5200E0250017D
:1018DA0004200A68920AB50F005034C0E07F203015
:1018EA000B197F30A20A720E720D500F121919C20B
:1018FA000AC20EC20DC2107F30800F300D03E9C03C
:10190A00E012155C300D03D0E0F9D0E0B50FCC3011
:10191A000D177F30B9100C12155C7F58300C077FF9
:10192A00788003B9080312155C300A057F2D021569
:10193A005C7F202010F87F2B200EF322920A80CFA2
:10194A007F00B40700500B2430F582E43406F58397
:10195A00E0FF22286E756C6C2900D2091215193025
:10196A0009F8C209780F30D50108F60215C82D50BA
:10197A004349581215192403B405004001E490198B
:10198A00789312154D743A12154DD20B750F040245
:02199A00179E96
:100DEC00F920E73624F950037907E4F42402FBE5F3
:100DFC0082158270021583DBF6E024FB501BE96040
:100E0C0014E4F0E582158270021583E004F0B40A54
:0D0E1C0008E4F0D9EE7401F00A22C2D522DC
:100E2900ED33EC3392D5FA602AB4FF33EDC2E77B98
:100E3900FF60067A0E794EE4227A0E795720D5049E
:100E49007A0E7952224E614E002B494E46002D49A9
:100E59004E4600E47A08F0A3DAFC7B00740722C04E
:100E690083C082ECC0E0EDC0E0EEC0E0EFC0E0EA94
:100E790075F010A4CAABF075F04DA42BFBE435F066
:100E8900FCEA2410FAEB34C5FBEC34D9FCEDC2E7DB
:100E9900FF75F056A4F42411C5F0F434C58FF0A4FD
:100EA9002AE5F03BE43CF020E714121056D0E0FFAD
:100EB900D0E0FED0E0FDD0E0FC120C908014F404E8
:100EC900121056D0E0FFD0E0FED0E0FDD0E0FC12D9
:100ED9000B87D082D083E0FAEDD2E7CD33EC33240F
:100EE90082FBE4C3CF33CFCE33CECD33CD33DBF367
:100EF9007B0775F00A846004F0A31B0AE5F0F0A3F0
:100F09008FF0740AA4FFACF08EF0740AA42CFEAC26
:100F1900F050010C8DF0740AA42CFDE435F0F0A317
:050F2900DBDE7407226D
:100F2E00020DD7E86480F8E933E83360110460F00D
:100F3E00ED33EC337009E8FCE9FDEAFEEBFF220429
:100F4E0060DED3EB9FEA9EE99DE8C2E78CF0C2F724
:100F5E0095F0400CE8CCF8E9CDF9EACEFAEBCFFBF0
:100F6E00120DA285D0F05804700320D5B3E804709A
:100F7E00075002B2D5020DE192D5EC0460F7E4CC35
:100F8E00C0E0C398F8603B94186008400DD0E0FBB9
:100F9E00020DB9E4FBFAC9FC8028E830E406E4C986
:100FAE00FBE4CAFCE830E305E4C9CACBFCE854070D
:100FBE006010F8C3E913F9EA13FAEB13FBEC13FC18
:100FCE00D8F130F52FC3E49CFCEF9BFFEE9AFEEDBB
:100FDE0099FDD0E0FBEF4E4D4C701222DB03020D5B
:100FEE00DEEC2CFCEF33FFEE33FEED33FDED30E7A0
:100FFE00EB020DB9EF2BFFEE3AFEED39FDD0E0FB23
:10100E0050130BBB0003020DE1ED13FDEE13FEEFCB
:08101E0013FFEC13FC020DB9F5
:101026003F8000004120000042C80000447A0000D2
:10103600461C400047C35000497424004B18968054
:101046004CBEBC205A0E1BCA6753C21C749DC5AE4B
:10105600FB60065407601C2323121084EB5438608F
:101066000912107012107F120B87ECF8EDF9EEFAE8
:10107600EFCB22EB12107F80F1543803241C901022
:1010860026FE93FC0EEE93FD0EEE930ECE93FF22FC
:1049BB00022759E493A3F8E493A34003F68001F292
:1049CB0008DFF48029E493A3F85407240CC8C333FD
:1049DB00C4540F4420C8834004F456800146F6DFCC
:1049EB00E4800B0102040810204080905642E47EC4
:1049FB00019360BCA3FF543F30E509541FFEE493C1
:104A0B00A360010ECF54C025E060A840B8E493A387
:104A1B00FAE493A3F8E493A3C8C582C8CAC583CAB2
:104A2B00F0A3C8C582C8CAC583CADFE9DEE780BE6A
:015670000039
:10109600E709F608DFFA8046E709F208DFFA803E3C
:1010A60088828C83E709F0A3DFFA8032E309F60829
:1010B600DFFA8078E309F208DFFA807088828C8391
:1010C600E309F0A3DFFA806489828A83E0A3F60845
:1010D600DFFA805889828A83E0A3F208DFFA804C1F
:1010E60080D280FA80C680D4806980F280338010F6
:1010F60080A680EA809A80A880DA80E280CA80335F
:1011060089828A83ECFAE493A3C8C582C8CCC583D6
:10111600CCF0A3C8C582C8CCC583CCDFE9DEE780A6
:101126000D89828A83E493A3F608DFF9ECFAA9F025
:10113600EDFB2289828A83ECFAE0A3C8C582C8CC7B
:10114600C583CCF0A3C8C582C8CCC583CCDFEADE94
:10115600E880DB89828A83E493A3F208DFF980CCF6
:1011660088F0EF60010E4E60C388F0ED2402B404EF
:101176000050B9F582EB2402B4040050AF23234596
:0611860082239010E673C5
:10118C00BB010689828A83E0225002E722BBFE0261
:09119C00E32289828A83E4932294
:1011A500BB010CE58229F582E5833AF583E02250FF
:1011B50006E92582F8E622BBFE06E92582F8E22249
:0D11C500E58229F582E5833AF583E4932263
:1011D200BB010689828A83F0225002F722BBFE01FC
:0211E200F322F6
:1011E400F8BB010DE58229F582E5833AF583E8F041
:1011F400225006E92582C8F622BBFE05E92582C8ED
:02120400F222D4
:10120600EF8DF0A4A8F0CF8CF0A428CE8DF0A42EFC
:02121600FE22B6
:10121800C5F0F8A3E028F0C5F0F8E5821582700261
:061228001583E038F022FE
:10122E00A3F8E0C5F025F0F0E58215827002158373
:06123E00E0C838F0E822D0
:10124400BB010A89828A83F0E5F0A3F0225006F7F5
:0F12540009A7F01922BBFE06F3E5F009F31922F2
:10126300F8BB0111E58229F582E5833AF583E8F0BD
:10127300E5F0A3F0225009E92582C8F608A6F0227A
:0D128300BBFE09E92582C8F2E5F008F22261
:10129000E88FF0A4CC8BF0A42CFCE98EF0A42CFCFD
:1012A0008AF0EDA42CFCEA8EF0A4CDA8F08BF0A47B
:1012B0002DCC3825F0FDE98FF0A42CCD35F0FCEBDA
:1012C0008EF0A4FEA9F0EB8FF0A4CFC5F02ECD399F
:0F12D000FEE43CFCEAA42DCE35F0FDE43CFC220C
:1012DF0075F008758200EF2FFFEE33FECD33CDCCC6
:1012EF0033CCC58233C5829BED9AEC99E582984049
:1012FF000CF582EE9BFEED9AFDEC99FC0FD5F0D626
