:1029B3004552004F4B5F535452004F4B5F484558AD
:1029C3000050574D47726F7570315F467265713AAB
:1029D300202568640A0050574D315F447574793A75
:1029E300202568640A0050574D325F447574793A64
:1029F300202568640A0050574D335F447574793A53
:102A0300202568640A0050574D345F447574793A41
:102A1300202568640A0050574D355F447574793A30
:102A2300202568640A0050574D365F447574793A1F
:102A3300202568640A0050574D375F447574793A0E
:102A4300202568640A0050574D385F447574793AFD
:102A5300202568640A0050574D395F447574793AEC
:102A6300202568640A0050574D31305F44757479EE
:102A73003A202568640A0050574D31315F4475741C
:102A8300793A202568640A0050574D31325F447506
:102A930074793A202568640A0050574D31335F44F6
:102AA3007574793A202568640A0050574D31345FB4
:102AB300447574793A202568640A0050574D3135BE
:102AC3005F447574793A202568640A0050574D3184
:102AD300365F447574793A202568640A0050574D6F
:102AE30031375F447574793A202568640A0050577A
:102AF3004D31385F447574793A202568640A005073
:102B0300574D31395F447574793A202568640A005A
:102B130050574D32305F447574793A202568640A02
:102B23000050574D32315F447574793A20256864FB
:102B33000A0050574D32325F447574793A20256844
:102B4300640A0050574D32335F447574793A202537
:102B530068640A0050574D32345F447574793A20E3
:102B63002568640A0050574D32355F447574793ACD
:102B7300202568640A0050574D32365F44757479D6
:102B83003A202568640A0050574D32375F44757404
:102B9300793A202568640A0050574D32385F4475EE
:102BA30074793A202568640A0050574D32395F44DE
:102BB3007574793A202568640A0050574D33305FA5
:102BC300447574793A202568640A0050574D3331AF
:102BD3005F447574793A202568640A0050574D3371
:102BE300325F447574793A202568640A0000000056
:1056450042024D000041038700410252004102021F
:105655000042038A000055035D01000001038F012C
:0E566500037201037B010205010203010250E2
:102FDD00E490035BF0A3F090035BE0FEA3E0FFC37E
:102FED00EE9402501C74022FF58274003EF583E4BA
:102FFD00F090035CE004F070DE90035BE004F08081
:10300D00D6E490035BF0A3F090024BF0900253F0E6
:10301D0090035504F0900355E0FFC39406501474CB
:10302D00552FF582E43403F583E4F0900355E00465
:10303D00F080E2E4900355F090038EF0900000F0E4
:10304D00A3F090038FF0A304F090038FE0FEA3E0B4
:10305D00FFC39420EE94005025EF25E0FFEE33FEE4
:10306D00748F2FF58274033EF583E4F0A3F0900383
:10307D0090E004F070D390038FE004F080CBE490E7
:10308D00038FF0A3F090037BF0A304F090037BE09B
:10309D00FEA3E0FFC39406EE94005027EF25E0FF5A
:1030AD00EE33FE747B2FF58274033EF583E4F0A3BB
:1030BD007432F090037CE004F070D190037BE00457
:1030CD00F080C990037BE4F0A37432F0900372E4B6
:1030DD00F0A304F0900372E0FEA3E0FFC39404EEAE
:1030ED0094005025EF25E0FFEE33FE74722FF5822C
:1030FD0074033EF583E4F0A3F0900373E004F070E5
:10310D00D3900372E004F080CBE4900372F0A3F04F
:10311D00900205F0A304F0900205E0FEA3E0FFC3CA
:10312D009423EE94005025EF25E0FFEE33FE740559
:10313D002FF58274023EF583E4F0A3F0900206E0D1
:10314D0004F070D3900205E004F080CBE49002050A
:10315D00F0A3F0900203F0A3F0900250F0A3F090D2
:10316D000389F090037AF090024CF0900388F022DE
:10588B00121D5E1250671255E5125A7A7D037F1274
:10589B0012317D125A087B017A0379727D037C00E9
:0358AB00024AC8E6
:102759001259EF122FDD1256CCE4FF125A5A7F019B
:10276900125A5A12588B125AB0E4FF124923D390C5
:102779000248E094E6900247E094004004E4F0A3A4
:10278900F0900253E0640260030228CCF090035BEE
:10279900A3E0FD9003D37401F0A37403F0A3745D67
:1027A900F07B017A00790212242DEF600302284B95
:1027B9007B019003D204F0A37403F0A3748FF07A21
:1027C900007902123EF8EF605B9003D27401F0A326
:1027D9007403F0A3747BF0A37401F0A37403F0A352
:1027E900748FF07B017A0079021220F1EF7BFF6090
:1027F900177A2979B37F02124EEC7BFF7A2979B3D4
:102809007F01124EEC0228997A2979B67F02124E7D
:10281900EC7BFF7A2979B67F01124EEC90038E7416
:1028290004F0806C7BFF7A2979BD7F02124EEC7B24
:10283900FF7A2979BD7F01124EEC90038E7401F065
:10284900804ED390035CE0940090035BE0940040D9
:102859002CE0FEA3E0FF2402F58274003EF583E03C
:10286900FD74552FF58274033EF583EDF090035CFA
:10287900E024FFF090035BE034FFF080C59003563D
:10288900A3E0FFD3942A4008EF944E50031247FB6C
:1028990090035BE0FEA3E0FFD39400EE9400401C9C
:1028A90074022FF58274003EF583E4F090035CE036
:1028B90024FFF090035BE034FFF080D4E490035BE5
:1028C900F0A3F090038EE024FE60111460181460E8
:1028D9001F24037026E490038EF0801C12500DE42F
:1028E90090038EF08015E490038EF0125454800BFF
:1028F900E490038EF0125454122DFB900000E0FE78
:10290900A3E0FFEE7007EF14700375C76090037AB8
:10291900E06013E4FF124923900203E4F0A3740278
:10292900F0E490037AF0123620123DDF900202E0C3
:10293900700302278AE4F01237A2900245E0FEA351
:10294900E0FF4E6006BEFF24BFFF21E4900249F07C
:10295900A3F0900387E060099002027401F0022756
:102969008A1237A2E4900252F002278AE490024FB9
:10297900F090024FE0FF25E02405F582E43402F5EA
:1029890083E0FCA3E0FDEF25E0248FF582E4340326
:10299900F583ECF0A3EDF090024FE004F0E0B420F1
:0A29A900D0124D39122DFB02278ACF
:1059A10090024BE0C39401400A900253E0B401031A
:0A59B1007402F090024BE004F022B3
:1041DC00125AB4900252E0B40143900245E0FEA39F
:1041EC00E0FFD39401EE9400403390024EE004F0D3
:1041FC00700690024DE004F0C390024EE09F9002D6
:10420C004DE09E4018E4F0A3F090024AE004F070F8
:10421C0006900249E004F09002027401F090038AC7
:10422C00E475F001121218FEE5F064144E706A90F9
:10423C00038AF0A3F090FF4CE0547FF0E4FD7F077D
:10424C0012317D7D017F071244C500007F0712509B
:10425C00C0EF6007E4900389F08006900389740135
:10426C00F00000E4FD7F071244C590FF4CE0448051
:10427C00F07D037F0712317D900389E0FF90038866
:10428C00E06FFEEF5E90037AF0900389E0FCF45E41
:0A429C0090024CF0900388ECF02231
:1056740090035BE0FEA3E02402F58274003EF58310
:10568400E599F090035CE004F0700690035BE0049D
:0C569400F0E490024BF090025304F0226E
:1056A00090035BE0FEA3E02402F58274003EF583E4
:1056B000E59BF090035CE004F0700690035BE0046F
:0C56C000F0E490024BF090025304F02242
:015ABB0022C8
:10545400E49003CFF09003CFE0FBFFC00725E024E6
:105464007BF582E43403F583E0FCA3E0FFAE04E4BF
:10547400FCFD9003D11213F2D00712331C9003CF1A
:0C548400E004F0E0C3940540CC0247FBBC
:10500D0078CF7C037D017BFF7A2B79F07E007F03C7
:10501D00121166900374A3E09003CFF0900372A376
:10502D00E09003D0F0900376A3E09003D1F09003CD
:10503D0078E0FEA3E0FFC374E89FFB74039EFA7D46
:10504D0007E4FF120046C2AF7B017A0379CF7D03DF
:0A505D007C00124AC8D2AF0247FBE4
:102DFB0090038FE0FAA3E0FB7D05E4FF1200469001
:102E0B000391E0FAA3E0FB7D037F051200469003DC
:102E1B0093E0FAA3E0FB7D027F0512004690039539
:102E2B00E0FAA3E0FB7D04E4FF120046900397E079
:102E3B00FAA3E0FB7D03E4FF120046900399E0FA4E
:102E4B00A3E0FB7D02E4FF12004690039BE0FAA394
:102E5B00E0FB7D01E4FF12004690039DE0FAA3E046
:102E6B00FBE4FDFF12004690039FE0FAA3E0FB7D1D
:102E7B00067F041200469003A1E0FAA3E0FB7D0558
:102E8B007F041200469003A3E0FAA3E0FB7D077FCB
:102E9B00021200469003A5E0FAA3E0FB7D067F0239
:102EAB001200469003A7E0FAA3E0FB7D057F021218
:102EBB0000469003A9E0FAA3E0FB7D047F02120019
:102ECB00469003ABE0FAA3E0FB7D037F02120046C2
:102EDB009003ADE0FAA3E0FB7D027F021200469067
:102EEB0003AFE0FAA3E0FB7D077F011200469003DE
:102EFB00B1E0FAA3E0FBE4FD7F041200469003B3BC
:102F0B00E0FAA3E0FB7D027F031200469003B5E0DD
:102F1B00FAA3E0FB7D037F031200469003B7E0FAB0
:102F2B00A3E0FB7D047F031200469003B9E0FAA3F4
:102F3B00E0FBE4FD7F051200469003BBE0FAA3E043
:102F4B00FB7D017F051200469003BDE0FAA3E0FB79
:102F5B007D057F031200469003BFE0FAA3E0FB7DE3
:102F6B00067F031200469003C1E0FAA3E0FB7D0746
:102F7B007F031200469003C3E0FAA3E0FB7D017FC1
:102F8B00041200469003C5E0FAA3E0FB7D027F0428
:102F9B001200469003C7E0FAA3E0FB7D037F041207
:102FAB0000469003C9E0FAA3E0FB7D047F04120006
:102FBB00469003CBE0FAA3E0FBE4FD7F0212004650
:102FCB009003CDE0FAA3E0FB7D017F0212004602E5
:022FDB0047FBB2
:10199C007BFF7A2979C490037BE0FFA3E09003D707
:1019AC00CFF0A3EFF07F01124EEC7BFF7A2979C4C4
:1019BC0090037DE0FFA3E09003D7CFF0A3EFF07F7F
:1019CC0001124EEC7BFF7A2979C490037FE0FFA3D0
:1019DC00E09003D7CFF0A3EFF07F01124EEC7BFF2A
:1019EC007A2979C4900381E0FFA3E09003D7CFF06C
:1019FC00A3EFF07F01124EEC7BFF7A2979C49003A0
:101A0C0083E0FFA3E09003D7CFF0A3EFF07F0112A8
:101A1C004EEC7BFF7A2979D990038FE0FFA3E090FD
:101A2C0003D7CFF0A3EFF07F01124EEC7BFF7A29A6
:101A3C0079E9900391E0FFA3E09003D7CFF0A3EFF7
:101A4C00F07F01124EEC7BFF7A2979F9900393E039
:101A5C00FFA3E09003D7CFF0A3EFF07F01124EEC81
:101A6C007BFF7A2A7909900395E0FFA3E09003D7D6
:101A7C00CFF0A3EFF07F01124EEC7BFF7A2A79199D
:101A8C00900397E0FFA3E09003D7CFF0A3EFF07F94
:101A9C0001124EEC7BFF7A2A7929900399E0FFA37F
:101AAC00E09003D7CFF0A3EFF07F01124EEC7BFF59
:101ABC007A2A793990039BE0FFA3E09003D7CFF00B
:101ACC00A3EFF07F01124EEC7BFF7A2A7949900349
:101ADC009DE0FFA3E09003D7CFF0A3EFF07F0112BE
:101AEC004EEC7BFF7A2A795990039FE0FFA3E0909C
:101AFC0003D7CFF0A3EFF07F01124EEC7BFF7A2AD5
:101B0C0079699003A1E0FFA3E09003D7CFF0A3EF96
:101B1C00F07F01124EEC7BFF7A2A797A9003A3E0D6
:101B2C00FFA3E09003D7CFF0A3EFF07F01124EECB0
:101B3C007BFF7A2A798B9003A5E0FFA3E09003D773
:101B4C00CFF0A3EFF07F01124EEC7BFF7A2A799C49
:101B5C009003A7E0FFA3E09003D7CFF0A3EFF07FB3
:101B6C0001124EEC7BFF7A2A79AD9003A9E0FFA31A
:101B7C00E09003D7CFF0A3EFF07F01124EEC7BFF88
:101B8C007A2A79BE9003ABE0FFA3E09003D7CFF0A5
:101B9C00A3EFF07F01124EEC7BFF7A2A79CF9003F2
:101BAC00ADE0FFA3E09003D7CFF0A3EFF07F0112DD
:101BBC004EEC7BFF7A2A79E09003AFE0FFA3E09034
:101BCC0003D7CFF0A3EFF07F01124EEC7BFF7A2A04
:101BDC0079F19003B1E0FFA3E09003D7CFF0A3EF2E
:101BEC00F07F01124EEC7BFF7A2B79029003B3E06D
:101BFC00FFA3E09003D7CFF0A3EFF07F01124EECE0
:101C0C007BFF7A2B79139003B5E0FFA3E09003D709
:101C1C00CFF0A3EFF07F01124EEC7BFF7A2B7924EF
:101C2C009003B7E0FFA3E09003D7CFF0A3EFF07FD2
:101C3C0001124EEC7BFF7A2B79359003B9E0FFA3B0
:101C4C00E09003D7CFF0A3EFF07F01124EEC7BFFB7
:101C5C007A2B79469003BBE0FFA3E09003D7CFF03B
:101C6C00A3EFF07F01124EEC7BFF7A2B7957900398
:101C7C00BDE0FFA3E09003D7CFF0A3EFF07F0112FC
:101C8C004EEC7BFF7A2B79689003BFE0FFA3E090CA
:101C9C0003D7CFF0A3EFF07F01124EEC7BFF7A2B32
:101CAC0079799003C1E0FFA3E09003D7CFF0A3EFC5
:101CBC00F07F01124EEC7BFF7A2B798A9003C3E004
:101CCC00FFA3E09003D7CFF0A3EFF07F01124EEC0F
:101CDC007BFF7A2B799B9003C5E0FFA3E09003D7A1
:101CEC00CFF0A3EFF07F01124EEC7BFF7A2B79AC97
:101CFC009003C7E0FFA3E09003D7CFF0A3EFF07FF2
:101D0C0001124EEC7BFF7A2B79BD9003C9E0FFA347
:101D1C00E09003D7CFF0A3EFF07F01124EEC7BFFE6
:101D2C007A2B79CE9003CBE0FFA3E09003D7CFF0D2
:101D3C00A3EFF07F01124EEC7BFF7A2B79DF90033F
:101D4C00CDE0FFA3E09003D7CFF0A3EFF07F01022B
:021D5C004EEC4B
:0C4D3900900249E0FCA3E0FD7F4D7E00ED
:044D4500AB07AA0608
:104D49009003D07455F0EAA3F0A3EFF0ECA3F0AF11
:104D590005A3EFF09003D1E02455FDE433FCA3E073
:104D69007A002DFDEA3CFCA3E02DFDEA3CFC7E0027
:104D7900ED2FFFEE3CFEEF9003D5F0E49003CFF06A
:104D89009003CFE0FFC39406501974D02FF582E445
:104D99003403F583E0FD7F021259869003CFE004C6
:034DA900F080DDBA
:014DAC0022E4
:1047FB00900356E0FD700FA3E0700BA3E07007A3CE
:10480B00E070030248919003D37455F0A3EDF09040
:10481B000357E09003D5F0900358E09003D6F09047
:10482B000359E0FF9003D7F09003D4E02455FDE447
:10483B0033FCA3E07A002DFDEA3CFCA3E02DFDEA5E
:10484B003CFC7E00ED2FFFEE3CFEEF9003D8F0E436
:10485B009003D2F09003D2E0FFC39406502874D398
:10486B002FF582E43403F583E0FD7F021259869025
:10487B0003D2E02455F582E43403F583E4F090038E
:06488B00D2E004F080CE33
:014891002204
:054923009003CFEFF04E
:10492800900247A3E09003D0F07FFE7E031251BDB2
:104938009003D11213F29003CFE09003D16039E0D5
:10494800FCA3E0FDA3E0FEA3E0FF124CCE9003D051
:10495800E09003D5F0E4A3F09003D1E0FCA3E0FDE0
:10496800A3E0FEA3E0FF7B017A0379D59003E2E49C
:10497800F0A37402F0024A52E0FCA3E0FDA3E0FEBB
:10498800A3E0FF7B017A0379D59003E2E4F0A374F6
:1049980002F0124F529003D6E0FE9003D5E0FDEDF1
:0949A800FF900247EEF0A3EFF0CE
:0149B10022E3
:103A4400900247A3E0FF9003CFF0900249A3E090D7
:103A540003D0F0EFD3947F502C9003CFE075F004A3
:103A6400A4FFAEF01251BD9003D11213F29003D112
:103A7400E0FCA3E0FDA3E0FEA3E02400FFEE343E5F
:103A8400FEE43D80439003CFE0FFD39487505FEF83
:103A94002480FFE434FFFEEF7805C333CE33CED861
:103AA400F924FFFFEE3401FE1251BD9003D112132D
:103AB400F29003D1E0FCA3E0FDA3E0FEA3E0240028
:103AC400FFEE34F0FEED3401FDE43CFCA804A9054E
:103AD400AA06AB079003D0E075F002A4FFE4FCFD56
:103AE400EB2FFFEA35F0FEED39FDEC38802E900324
:103AF400CFE0B4882E7FFF7E021251BD9003D11215
:103B040013F29003D1E0FCA3E0FDA3E0FEA3E024C4
:103B140000FFEE3442FEED340FFDE43CFC9003D78D
:103B24001213F29003D0E0FF7E007C007D4012145B
:103B3400C5A3E0F8A3E0F9A3E0FAA3E02FFFEA3E6F
:103B4400FEE93DFDE83CFC7B017A0279059003E245
:103B5400E4F0A37440F0124A52900245E0FCA3E062
:103B64009003D5F0ECA3F0A3E0FCA3E0FDA3E0FEFA
:103B7400A3E0FF7B017A0379D59003E2E4F0A37418
:053B840002F0024A52AC
:0D379500E4900203F0A3F0900249F0A3F0CD
:1037A200900247A3E0FF9003CFF0900249A3E0907C
:1037B20003D0F0EFD3947F502C9003CFE075F00448
:1037C200A4FFAEF01251BD9003D11213F29003D1B7
:1037D200E0FCA3E0FDA3E0FEA3E02400FFEE343E04
:1037E200FEE43D80439003CFE0FFD394875063EF24
:1037F2002480FFE434FFFEEF7805C333CE33CED806
:10380200F924FFFFEE3401FE1251BD9003D11213D1
:10381200F29003D1E0FCA3E0FDA3E0FEA3E02400CC
:10382200FFEE34F0FEED3401FDE43CFCA804A905F2
:10383200AA06AB079003D0E075F002A4FFE4FCFDFA
:10384200EB2FFFEA35F0FEED39FDEC38FC9003D5A5
:1038520080309003CFE0B4882C7FFF7E021251BDEE
:103862009003D11213F29003D1E0FCA3E0FDA3E098
:10387200FEA3E02400FFEE3442FEED340FFDE43CF3
:10388200FCA31213F29003D0E0FF7E007C007D4087
:103892001214C5A3E0F8A3E0F9A3E0FAA3E02FFF16
:1038A200EA3EFEE93DFDE83CFC7B017A02790590A7
:1038B20003E2E4F0A37440F0124F529003D5E0FC0F
:1038C200A3E0FDA3E0FEA3E0FF7B017A0379D99098
:1038D20003E2E4F0A37402F0124F529003DAE0FE26
:0F38E2009003D9E0FDEDFF900245EEF0A3EFF06B
:0138F10022B4
:10435E00900247A3E09003CFF0D3947F5019E075FD
:10436E00F004A4FFAEF01251BD9003D01213F290E0
:10437E0003D57404F0804E9003CFE0FFD3948750A2
:10438E002AEF2480FFE434FFFEEF7805C333CE33EB
:10439E00CED8F924FFFFEE3401FE1251BD9003D0AA
:1043AE001213F29003D57420F0801A9003CFE0B46C
:1043BE0088137FFF7E021251BD9003D01213F2902C
:1043CE0003D574FEF0E49003D4F09003D5E0FE9094
:1043DE0003D4E0FFC39E502CE4FCFDFE780C1213B8
:1043EE00DF9003D0E0F8A3E0F9A3E0FAA3E02FFFFB
:1043FE00EA3EFEE93DFDE83CFC124CCE9003D4E0D3
:04440E0004F080C670
:014412002287
:105A1F007F06125615AD07AC06900250E0FEA3E0CC
:045A2F00FF024D45E0
:105A33007F0E125615AD07AC06900250E0FEA3E0B0
:045A4300FF024D45CC
:103DDF00900203E0FEA3E0FFEE6003023EF7EF2444
:103DEF00FE602214606D147003023ED21470030241
:103DFF003EDD147003023EEA24056003023EF71213
:103E0F003A44023ED5123795E4900254F090025492
:103E1F00E0FF25E02405F582E43402F583E0FCA3FE
:103E2F00E0FDEF25E0248FF582E43403F583ECF019
:103E3F00A3EDF0900254E004F0E0B420D0122DFB7B
:103E4F00E490024DF0A3F090025204F0E490038747
:103E5F00023EF31237951247FB900245E0FEA3E0B6
:103E6F00FF4E6006BEFF0EBFFF0B74FFFDFC7F4DC4
:103E7F007E00024D45E4900254F0900254E0FF257D
:103E8F00E02405F582E43402F583E0FCA3E0FDEFC6
:103E9F0025E0248FF582E43403F583ECF0A3EDF0F5
:103EAF00900254E004F0E0B420D0122DFB124D39F3
:103EBF009003877401F0E490024DF0A3F09002524A
:103ECF0004F02212435EE4900203F0A380167F01F8
:103EDF00124923E4900203F0A380091237A2E49061
:093EEF000203F0A3F01247FB22CC
:1057FB00900250E0FEA3E0FFC00625E0FDEE33FC77
:10580B00748D2DF58274033CF583E0FCA3E0FDD091
:04581B0006024D45EF
:10581F00900250E0FEA3E0FFC00625E0FDEE33FC52
:10582F0074302DF58274033CF583E0FCA3E0FDD0CA
:04583F0006024D45CB
:10584300900250E0FEA3E0FFC00625E0FDEE33FC2E
:1058530074312DF58274033CF583E0FCA3E0FDD0A5
:0458630006024D45A7
:10586700900250E0FEA3E0FFC00625E0FDEE33FC0A
:10587700743B2DF58274013CF583E0FCA3E0FDD079
:0458870006024D4583
:10362000900250E0FEA3E0FFEE600302378DEF1240
:10363000149F372301372502372703372904372BF7
:1036400005372D06372F0737310837330937350A45
:1036500037370B37390C373B0D373D0E373F0F37B8
:103660004110374311374512374713374914374B49
:1036700015374D16374F1737511837531937551A15
:1036800037571B37591C375B1D375D1E375F1F3798
:103690006120376621376822376A23376C243771F7
:1036A00025377326377527377728377929377B2AC7
:1036B00037802B37852C378A65378A66378A673794
:1036C0008A68378A69378A6A378A6B378A6C378A99
:1036D0006D378A6E378A6F378A70378A71378A7288
:1036E000378A73378A74378A75378A76378A773795
:1036F0008A78378A79378A7A378A7B378A7C378A19
:103700007D378A7E378A7F378A80378A81378A82F7
:10371000378A83378A84378A85378A86378A87004B
:1037200000378D803C803A8038803680348032800B
:1037300030802E802C802A80288026802480228041
:1037400020801E801C801A801880168014801280B1
:1037500010800E800C800A80088006800480028021
:10376000001257FB802780048002800012581F80BF
:103770001C80088006800480028000125843800D5F
:10378000125A1F8008125A338003125867E49002BD
:0537900050F0A3F0223F
:030000000249B200
:0C49B200787FE4F6D8FD7581220249F9F7
:0F5A6B0050574D0047726F757000447574790085
:10242D00E49003D6F0A3F0A3F0A3F0ED64066003EF
:10243D0002275612118CFF64AA60030227569000E2
:10244D00011211A52FFF9000021211A57C002FFF84
:10245D009000031211A52FFF9000041211A52FFF5C
:10246D009000051211A56F7001E4600302275690CC
:10247D0000011211A5FE9000021211A5FDEDFF90B5
:10248D0003D6EEF0A3EFF09000031211A5FE90001D
:10249D00041211A5FDEDFF9003D8EEF0A3EFF0901F
:1024AD0003D6E0FEA3E0FFEE6003022753EFB45026
:1024BD000040030227539024CAF82828730225BA36
:1024CD000225D30225D50225D70225D90225DB0207
:1024DD0025DD0225DF0225E10225E30225E50225A2
:1024ED00E70225E90225EB0225ED0225EF0225F194
:1024FD000225F30225F50225F70225F90225FB0237
:10250D0025FD0225FF0226010226030226050226CD
:10251D000702260902260B02260D02260F0226119E
:10252D0002265102265302265502265702269702ED
:10253D00269902269B02269D02269F0226A102268F
:10254D00E00226E00226E00226E00226E00226E076
:10255D000226E00226E00226E00226E00226E00244
:10256D0026E00226E00226E00226E00226E0022610
:10257D00E00226E00226E00226E00226E00226E046
:10258D000226E00226E00226E00226E00226E00214
:10259D0026E00226E00226E00226E00226E00226E0
:1025AD00E00226E00226E00227190227349003D824
:1025BD00E0FEA3E0FF9003D3E0FBA3E0FAA3E0F974
:1025CD0012144F02274D803C803A8038803680347B
:1025DD0080328030802E802C802A80288026802496
:1025ED0080228020801E801C801A80188016801406
:1025FD0080128010800E800C800A80088006800476
:10260D00800280009003D8E0FCA3E0FD9003D3E0AE
:10261D00FBA3E0FAA3E0F990000312146F9003D727
:10262D00E024FFFF9003D6E034FFFEEF25E0FFEE40
:10263D00338F82F583EC8DF012126390038E74014B
:10264D00F00227538004800280009003D8E0FCA3A1
:10265D00E0FD9003D3E0FBA3E0FAA3E0F9900006C0
:10266D0012146F9003D7E024DFFF9003D6E034FF00
:10267D00FEEF25E0FFEE338F82F583EC8DF0121225
:10268D006390038E7402F002275380088006800445
:10269D00800280009003D8E0FCA3E0FD9003D3E01E
:1026AD00FBA3E0FAA3E0F990000912146F9003D791
:1026BD00E024DBFF9003D6E034FFFEEF25E0FFEED4
:1026CD00338F82F583EC8DF012126390038E7403B9
:1026DD00F080739003D8E0FCA3E0FD9003D3E0FB02
:1026ED00A3E0FAA3E0F990000C12146F9003D7E069
:1026FD0024D5FF9003D6E034FFFEEF25E0FFEE3347
:10270D008F82F583EC8DF0121263803A9003D8E03E
:10271D00FEA3E0FF9003D3E0FBA3E0FAA3E0F99062
:10272D00000F12146F80199003D8E0FEA3E0FF9004
:10273D0003D3E0FBA3E0FAA3E0F990001212146FAB
:0B274D00EE8FF01212447F01227F008B
:01275800225E
:0B3EF8009003CFEBF0A3EAF0A3E9F089
:103F0300E49003D5F0FFF09003D5E0FEC394405056
:103F13001D9003CFE0FBA3E0FAA3E0F98E82758343
:103F2300001211A52FFF9003D5E004F080D9900370
:103F3300CFE0FBA3E0FAA3E0F99000401211A56FD4
:103F430060030240069003D5F09003CFE0FBA3E0AB
:103F5300FAA3E0F99003D5E0FD75F002A4F582859C
:103F6300F0831211A5FE9003CFA3A375F002EDA475
:103F73002401F582E435F0F5831211A57C002400B9
:103F8300FFEC3EFED3EF94E8EE940340037F02225E
:103F93009003D5E004F0E0B420AFE49003D5F090B3
:103FA30003CFE0FBA3E0FAA3E0F99003D5E0FD75AE
:103FB300F002A4F58285F0831211A5FE9003CFA32E
:103FC300A375F002EDA42401F582E435F0F5831224
:103FD30011A57C002400FFEC3EFE9003D2E0FBA37E
:103FE300E0FAA3E0F9A3E075F002A4F58285F0837B
:103FF300EE8FF01212639003D5E004F0E0B4209F3B
:054003007F00227F0197
:014008002295
:0B20F1009003CFEBF0A3EAF0A3E9F0AE
:1020FC00E49003D8F0A3F0A3F0A3F0A3F0A3F0A313
:10210C0074FFF0E4A3F0A3F0A3F09003E574FFF0E8
:10211C00A3745AF0A3746BF01244139003D8EEF02E
:10212C00A3EFF09003D8E0F47003A3E0F470030283
:10213C00242A9003E574FFF0A3745AF0A3746BF097
:10214C009003CFE0FBA3E0FAA3E0F9124413900351
:10215C00D8EEF0A3EFF09003E574FFF0A3745AF0FF
:10216C00A3746FF09003CFE0FBA3E0FAA3E0F912A5
:10217C0044139003DAEEF0A3EFF09003E574FFF054
:10218C00A3745AF0A37475F09003CFE0FBA3E0FAAC
:10219C00A3E0F91244139003DCEEF0A3EFF0E4A3F8
:1021AC00F09003E0F0A3F09003D8E0F47003A3E008
:1021BC00F470030224279003DAE0FEA3E0FFBEFFD5
:1021CC0010BFFF0DA3E0F47003A3E0F4700302242E
:1021DC00249003DCE0FCA3E0FDC3EF9DEE9C4003E8
:1021EC000222F69003CFE0FBA3E0FAA3E0F9900300
:1021FC00D9E02408FF9003D8E034008F82F58312D5
:10220C0011A524CF9003DEF0A3740AF09003DFE055
:10221C00FFC3941050519003D9E02FFF9003D8E0E6
:10222C003400FE9003CFE0FBA3E0FAA3E0F98F8229
:10223C008E831211A5FF642C602DEF602A24D0FB35
:10224C00E434FFFA9003E0E0FEA3E0FF7C007D0A9B
:10225C00121206EF2BFFEE3A9003E0F0A3EFF09092
:10226C0003DFE004F080A59003DEE0FED39406507B
:10227C00189003E0E0FCA3E0FD9498EC943A50092C
:10228C00C3ED9432EC940050037F01229003E0E004
:10229C00FCA3E0FD9003D2E0FBA3E0FAA3E0F97508
:1022AC00F002EEA4F58285F083EC8DF0121263E45B
:1022BC009003DFF09003DFE0FFC3940A4003022198
:1022CC002F9003D9E02FFF9003D8E03400FE900349
:1022DC00CFE0FBA3E0FAA3E0F98F828E8374201287
:1022EC0011E49003DFE004F080CA9003CFE0FBA37D
:1022FC00E0FAA3E0F99003D8E0FCA3E0FDF5828CB2
:10230C0083A3A3A31211A524D09003DEF074042D93
:10231C00F582E43CF5831211A5FF645F9003DE6047
:10232C000BE075F00AA42F24CFF08003E014F0909A
:10233C0003DEE0C394095006A3740AF080069003F0
:10234C00DF740BF09003DFE0FFC394105051900347
:10235C00D9E02FFF9003D8E03400FE9003CFE0FBD0
:10236C00A3E0FAA3E0F98F828E831211A5FF642CEF
:10237C00602DEF602A24D0FBE434FFFA9003E0E0F8
:10238C00FEA3E0FF7C007D0A121206EF2BFFEE3A53
:10239C009003E0F0A3EFF09003DFE004F080A59051
:1023AC0003DEE0FED3941F500E9003E1E094E8901E
:1023BC0003E0E0940340037F01229003E0E0FCA3E0
:1023CC00E0FD9003D5E0FBA3E0FAA3E0F975F00281
:1023DC00EEA4F58285F083EC8DF0121263E4900389
:1023EC00DFF09003DFE0FFC3940A400302212F903B
:1023FC0003D9E02FFF9003D8E03400FE9003CFE028
:10240C00FBA3E0FAA3E0F98F828E8374201211E40F
:10241C009003DFE004F080CA7F02227F00227F025B
:01242C00228D
:103CB6004543424D20562562752E2562752E256296
:103CC60075206F6E202573005354433847002575C1
:103CD6004B0025303275005334000D0A4368656386
:103CE6006B696E67204D4355204944002E0045728E
:103CF600726F720D0A506C65617365206368656347
:103D06006B207468652073657474696E67206F66CE
:103D160020746865204D4355206D6F64656C0D0AEF
:103D2600005665723A312E31004F4B0D0A49442038
:103D36002020203A0025303258000D0A000D0A5383
:103D4600797374656D5F4944202020203A00444110
:103D5600544120203A31323809427974650D0A00FF
:103D66004944415441203A31323809427974650D4B
:103D76000A005844415441203A2575094279746530
:103D86000D0A00464C415348203A256C7509427984
:103D960074650D0A00535953434C4B3A256C75090B
:103DA600487A0D0A004247562020203A2575096DAB
:103DB600560D0A00454E4449414E3A00626967096C
:103DC600656E6469616E0D0A006C6974746C6509D0
:093DD600656E6469616E0D0A005E
:0458F2007F017E00B4
:1058F600EF4E60167D607C09ED1D70011C144C7026
:0A590600F7EF1F70011E144E70EA47
:015910002274
:095A9500EF1F70011E144E70F7A2
:015A9E0022E5
:10591100E4FCFD7B207ACC7904F81212908F0B8E77
:0F5921000A8D098C08E508C313FEE50913FF2260
:1058AE00E50D6599600885990DE4F50C80053013BA
:1058BE0002050CE50CC394E94007C2AF75C76080C2
:0258CE00FB22BB
:102BF3009003D17412F0A37434F09003D77403F0EC
:102C0300A37406F0A304F0A374FFF0A3743CF0A331
:102C130074CEF07BFF7A3C79B67F01124EEC7BFFDA
:102C23007A3C79D49003D7E4F0A37402F07F0112C5
:102C33004EEC7BFF7A3C79D89003D7E4F0A3744041
:102C4300F07F01124EEC7BFF7A3C79DD7F01124E5F
:102C5300ECE49003D0F07BFF7A3C79E07F01124EE5
:102C6300ECE49003CFF07BFF7A3C79F27F01124EC4
:102C7300EC9003CFE0FF90FDF993FE74F12FF8E69B
:102C8300B506069003D0E004F09003CFE004F0E033
:102C9300C3940740D19003D0E06407600B7BFF7AB5
:102CA3003C79F47F01024EEC7BFF7A3D79277F026A
:102CB300124EEC7BFF7A3D792F7F01124EECE490AC
:102CC30003CFF09003CFE0FFC3940750217BFF7A3B
:102CD3003D793BEF90FDF993FF9003D7E4F0A3EF29
:102CE300F07F01124EEC9003CFE004F080D57BFF20
:102CF3007A3D79407F01124EEC7BFF7A3D79437F29
:102D030002124EECE49003CFF09003CFE0FFC394A4
:102D13000750217BFF7A3D793BEF90FDF993FF90BC
:102D230003D7E4F0A3EFF07F02124EEC9003CFE061
:102D330004F080D51258F27BFF7A3D79547F01125B
:102D43004EEC1258F27BFF7A3D79667F01124EEC0E
:102D53001258F27BFF7A3D79789003D77408F0A379
:102D6300E4F07F01124EEC7F027E001258F67BFFE7
:102D73007A3D79899003D71213FE000100007F0189
:102D8300124EEC7F027E001258F67BFF7A3D799B50
:102D93009003D71213FE016E36007F01124EEC7FB3
:102DA300027E001258F67BFF7A3D79AB78EFE6FF9F
:102DB30008E69003D7CFF0A3EFF07F01124EEC1299
:102DC30058F27BFF7A3D79BA7F01124EEC1258F22A
:102DD3009003D1E0B4120B7BFF7A3D79C27F0112DD
:102DE3004EEC9003D1E0B4340B7BFF7A3D79CF7F77
:072DF30001124EEC1258F230
:012DFA0022B6
:1059EF0043BA80D213E4F50DF50C125067D2AF7F96
:0959FF00F47E011258F6022BF3AC
:0B4413009003E2EBF0A3EAF0A3E9F055
:10441E00E4FFFE9003E8F0A3F09003E2E0FBA3E0DC
:10442E00FAA3E0F912118C70030244C09003E5E088
:10443E00FBA3E0FAA3E0F98F828E831211A5FD9003
:10444E0003E2E0FBA3E0FAA3E0F912118CB5050735
:10445E000FBF00010E801E12118CFD9003E5E0FBD4
:10446E00A3E0FAA3E0F912118CB505067E007F01D8
:10447E008003E4FEFF9003E9E004F070069003E889
:10448E00E004F09003E3E475F0011212189003E5D6
:10449E00E0FBA3E0FAA3E0F98F828E831211A560F0
:1044AE0003024427C39003E9E09FFF9003E8E09ED8
:0644BE00FE227EFF7FFFDD
:0144C40022D5
:10457600E49006C3F09006C5F09006C4F09006C419
:10458600E0FFC3940A400302461F7E00ED2FF5822A
:10459600EE3CF5831211A5FFC394304049EFD39446
:1045A6003750439006C5E004F0E0B401179006C406
:1045B600E02DF582EE3CF5831211A524D0C454F00B
:1045C6009006C3F09006C5E0B4021B9006C4E07ED8
:1045D600002DF582EE3CF5831211A524D0FF90063E
:1045E600C3E04FFFF0229006C4E07E002DF582EE78
:1045F6003CF5831211A5FFC39438400CEFD39439D0
:1046060050069006C5E004F0EF642C600CEF6009DC
:0E4616009006C4E004F00245839006C3E0FF66
:014624002273
:0842A6009006B0ECF0A3EDF06E
:1042AE00E4A3F0A3F0A3F09006B4E0FFC39414408F
:1042BE00030243559006B1E02FFF9006B0E03400A4
:1042CE008F82F5831211A5FFC39430404CEFD39427
:1042DE003950469006B2E0FEA3E0FF7C007D0A1244
:1042EE0012069006B2EEF0A3EFF0A3E0FF9006B137
:1042FE00E02FFF9006B0E034008F82F5831211A5F7
:10430E00FF3395E0FEEF24D0FFEE34FFFE9006B3B0
:10431E00E02FF09006B2E03EF09006B4E0FF90067B
:10432E00B1E02FFF9006B0E034008F82F5831211BA
:10433E00A5FF642C6011EF642E600CEF60099006EF
:0F434E00B4E004F00242B59006B2E0FEA3E0FF37
:01435D00223D
:103B8900900669EBF0A3EAF0A3E9F0A3ECF0A3ED4A
:013B9900F03B
:103B9A00E4900675F0A3F0A3F0A3F0A3F0A3F090CD
:103BAA000673F0A3F090066CE0FEA3E0FF900673A4
:103BBA00E0FCA3E0FDC39FEC9E4003023C59900643
:103BCA006EE0FBA3E0FAA3E0F9900675E0FEA3E03D
:103BDA00F5828E831211A5FF900669E0FBA3E0FA35
:103BEA00A3E0F98D828C831211A5B507339006766E
:103BFA00E004F07006900675E004F0900671E0FEAD
:103C0A00A3E0FF900675E0B50631A3E0B5072C9056
:103C1A000673E0FFA3E0900679CFF0A3EFF0802FC0
:103C2A00E4900675F0A3F0900674E02401FE900675
:103C3A0073E03400900677F0A3CEF0900674E004A7
:103C4A00F06003023BAF900673E004F0023BAF90D2
:103C5A000679E0FEA3E0FF900677E0FCA3E0FDD33F
:103C6A009FEC9E5044900673ECF0A3EDF090067919
:103C7A00E0FEA3E0FF900673E0FCA3E0FDC39FEC27
:103C8A009E5023900669E0FBA3E0FAA3E0F98D8237
:103C9A008C83E41211E4900674E004F070CF90066D
:0B3CAA0073E004F080C77F01227F0060
:013CB50022EC
:080003000102040810204080F6
:1044C500ED6058EF540F90000393FEEF54F024F085
:1044D500602424F0602524F0602624F0602724F071
:1044E500602824F0602924F0602A247060030245C6
:1044F5007590FE10802190FE11801C90FE12801791
:1045050090FE13801290FE14800D90FE1580089089
:10451500FE16800390FE17E04EF022EF540F900038
:104525000393F4FEEF54F024F0602124F06022247C
:10453500F0602324F0602424F0602524F060262414
:10454500F060272470702990FE10802190FE118064
:104555001C90FE12801790FE13801290FE14800DA1
:1045650090FE15800890FE16800390FE17E05EF021
:014575002223
:10317D00EF540F90000393FEEF54F024F0605E24A3
:10318D00F0700302321724F0700302324424F07001
:10319D000302327124F0700302329E24F070030298
:1031AD0032C824F070030232F22470600302331B24
:1031BD00ED14601414601914601B240360030233B2
:1031CD001BEEF45293529422EE4293EEF45294225B
:1031DD00EE42938004EEF45293EE429422ED14608D
:1031ED001414601914601B2403600302331BEEF4E6
:1031FD005291529222EE4291EEF4529222EE42916F
:10320D008004EEF45291EE429222ED14601414609B
:10321D001914601B2403600302331BEEF452955204
:10322D009622EE4295EEF4529622EE42958004EEF1
:10323D00F45295EE429622ED146014146019146048
:10324D001B2403600302331BEEF452B152B222EE83
:10325D0042B1EEF452B222EE42B18004EEF452B11C
:10326D00EE42B222ED14601414601914601B240395
:10327D00600302331BEEF452B352B422EE42B3EEAE
:10328D00F452B422EE42B38004EEF452B3EE42B4E3
:10329D0022ED1460111460161460182403706FEE83
:1032AD00F452C952CA22EE42C9EEF452CA22EE427B
:1032BD00C98004EEF452C9EE42CA22ED1460111415
:1032CD00601614601824037045EEF452CB52CC22D4
:1032DD00EE42CBEEF452CC22EE42CB8004EEF45211
:1032ED00CBEE42CC22ED146011146016146018243C
:1032FD0003701BEEF452E152E222EE42E1EEF45283
:0E330D00E222EE42E18004EEF452E1EE42E2F2
:01331B00228F
:1046CA00EF540F90000393FEED6043EF54F024F093
:1046DA00602024F0602024F0602024F0602024F080
:1046EA00602024F0602024F060202470706AEE427A
:1046FA008022EE429022EE42A022EE42B022EE4208
:10470A00C022EE42C822EE42E822EE42F822EF54DC
:10471A00F024F0602124F0602224F0602324F06069
:10472A002424F0602524F0602624F0602724707089
:10473A0027EEF4528022EEF4529022EEF452A02296
:10474A00EEF452B022EEF452C022EEF452C822EE37
:08475A00F452E822EEF452F8DB
:014762002234
:1050C000EF540F90000393FDEF54F024F060202480
:1050D000F0602024F0602024F0602024F060202480
:1050E000F0602024F0602024707020AE80801FAE1D
:1050F00090801BAEA08017AEB08013AEC0800FAE04
:10510000C8800BAEE88007AEF880037F0122EE5D19
:0751100060037F01227F0014
:015117002275
:1052A600EF540F90000393FEEF54F024F060202497
:1052B600F0602024F0602024F0602024F060202498
:1052C600F0602024F060202470701FEE628022EED1
:1052D600629022EE62A022EE62B022EE62C022EE60
:0A52E60062C822EE62E822EE62F8D0
:0152F000229B
:1053CD00EFB40800503E9053DAF82828730253F2D8
:1053DD000253F60253FA0253FE025402025406021D
:1053ED00540A02540EED628022ED629022ED62A00D
:1053FD0022ED62B022ED62C022ED62C822ED62E8BC
:05540D0022ED62F8220F
:10476300EB6048EFB4080040030247FA904776F83D
:1047730028287302478E02479202479602479A02FD
:10478300479E0247A20247A60247AAED428022EDB6
:10479300429022ED42A022ED42B022ED42C022ED32
:1047A30042C822ED42E822ED42F822EFB40800505D
:1047B300469047BBF82828730247D30247D80247DD
:1047C300DD0247E20247E70247EC0247F10247F600
:1047D300EDF4528022EDF4529022EDF452A022ED3A
:1047E300F452B022EDF452C022EDF452C822EDF49B
:0847F30052E822EDF452F82215
:10516B00EFB40800503F905178F828287302519003
:10517B0002519402519802519C0251A00251A40277
:10518B0051A80251ACAE80801FAE90801BAEA080A8
:10519B0017AEB08013AEC0800FAEC8800BAEE880E8
:1051AB0007AEF880037F0122EE5D60037F01227F53
:0151BB0000F3
:0151BC0022D0
:045AB00075C1252275
:045AB40043C11022B8
:0C5A8900303136371617434410114647E1
:1050670075985053873FE58E54DE4401F58EE4FD75
:105077007F01124B4F9003D01213FE000708007FE9
:10508700011255B1438E0453AFFB438E10C211D2A8
:10509700AC759A10E4FD7F02124B4F9003D01213A8
:1050A700FE000708007F021255B1438E0453AFFB81
:0950B700438E10C21243AF012226
:104B4F009003CFEDF0EF24FE603F0470769003CF1B
:104B5F00E0FF54C0FEE5A2543F4EF5A2EFC413137D
:104B6F00540325E02489F582E4345AF583E493FF56
:104B7F00E4FD12317D9003CFE0C41313540325E0FD
:104B8F00248AF582E4345A80309003CFE0FF540139
:104B9F00FEE5BA54FE4EF5BAEF25E02491F582E416
:104BAF00345AF583E493FFE4FD12317D9003CFE097
:104BBF0025E02492F582E4345AF583E493FF7D03D4
:044BCF0012317D2200
:0555B1009003CFEFF0B4
:1055B600A3E0F8A3E0F9A3E0FAA3E0FB7F807E8DE9
:1055C6007D5B7C0012131BC3E49FFFE49EFE9003E9
:0E55D600CFE024FE60030470058FD7EEF5D6FB
:0155E40022A4
:10598600EF24FE600C0470128D99D21130110B8039
:0B599600FBAF058F9BD2122012FD22F8
:10554100EF24FE6019047030EB6006D29BD29B8081
:1055510004C29BC29B8D99D21130111C80FBEB6060
:1055610008439A08439A088006539AF7539AF7AF6B
:09557100058F9BD2122012FD22CD
:10557A00900602EBF0A3EAF0A3E9F0AE0790060268
:10558A00E0FBA3E0FAA3E0F912118C6019AF0690D0
:10559A000602A3E475F00112122EA9F0FA12118C78
:0755AA00FD12598680D72293
:0E4EEC009003D3EFF0A3EBF0A3EAF0A3E9F0FC
:104EFA009005FF7401F0A37403F0A374D7F0900334
:104F0A00D4E0F9A3E0FAA3E0900602C9F0A3EAF01C
:104F1A00A3E9F09005FFE0F9A3E0FAA3E090060503
:104F2A00C9F0A3EAF0A3E9F07B017A0379FF1253EF
:104F3A003B9005FFE4F0A3F0A3F09003D3E0FF7BDE
:084F4A00017A0379FF02557A98
:015ABC0022C7
:015ABD0022C6
:015ABE0022C5
:015ABF0022C4
:105A5A00EF146008047009C28DD28C22C28FD28ED4
:015A6A002219
:0D000E00EF146006047005C28C22C28E2221
:105490009006CDEFF0ED6015E014600A04702B4328
:1054A0008F017D038016438F027D0380189006CD07
:1054B000E014600C047013538FFEE4FD7F35800709
:0B54C000538FFDE4FD7F3412317D228C
:1056CC00E58E547F4480F58E5389F0758A48758C2D
:1056DC00F4D2A9E58E54BF4440F58E53890F758BD7
:0756EC0040758DA2D2AB2234
:0B411000900687EFF0A3ECF0A3EDF0A9
:10411B004C70030241DB7FAA7E0A90068C747FF001
:10412B00A374FFF0900688E0FCA3E0FDD39FEC9E08
:10413B005013A3E4F0A304F0E4120D32E4FBFA797C
:10414B00C07841802790068CE0FEA3E0FF900688A4
:10415B00E0FCA3E0FDD39FEC9E5024A3E4F0A374FA
:10416B000CF0E4120D32E4FBFAF97840120B8712D3
:10417B000D6BC3E49FFFE49E90068EF0A3EFF090CF
:10418B000687E014602704704790068AE07004A34A
:10419B00E064017005438E808003538E7F90068E02
:1041AB00E0FEA3E0F58AEEF58C5389FB2290068A9C
:1041BB00E07004A3E064017005438E408003538ECE
:1041CB00BF90068EE0FEA3E0F58BEEF58D5389BF15
:0141DB0022C1
:105A4700EF14600904700B8D8AECF58C228D8BECBA
:035A5700F58D22A8
:10002600E4FDFCEF14600B04700EAF8CEFAD8AFCA0
:0C0036008006AF8DEFAD8BFCAE04AF0573
:01004200229B
:104892009003CFEFF024FC602724FC603E24FC60F0
:1048A20055240C706DE4FD7F1212317D7D037F1360
:1048B20012317DE4FD7F1412317D7D037F15804F1F
:1048C200E4FD7F2212317D7D037F2312317DE4FDE1
:1048D2007F2412317D7D037F258034E4FD7F5412D5
:1048E200317D7D037F4012317DE4FD7F4112317DB8
:1048F2007D037F438019E4FD7F3512317D7D037F87
:104902003412317DE4FD7F3312317D7D037F32121B
:10491200317D9003CFE0540CFFE5A254F34FF5A292
:014922002272
:0F5A7A00E4FF12489275CED175CDC043CE4022C5
:10594E007DC07C128FCFE5CD20E70BED4C6007EDCF
:0B595E001D70F31C80F043CDC0AFCFE4
:01596900221B
:1055E50075DE2F78EFE6FC08E6FDE4120D32E4FBEC
:1055F500FA797A7844120C909006BF1213F27D0165
:105605007F1612317D7D017F0612317D43BC8022DC
:105615007DC07C12EF540FFFE5BC54F04FF5BC4341
:10562500BC400000E5BC20E50BED4C6007ED1D70AE
:0F563500F31C80F053BC9FAFBDEFFEADBEEDFF89
:015644002243
:10574100125615AD07AC06E4120D329006B6E0F81C
:10575100A3E0F9A3E0FAA3E0FB120B87E4FBFA79DB
:06576100807844020C9068
:105412007F0F125615EF4E7005FFFEFDFC22AD0701
:10542200AC06E4120D32C004C005C006C007E4FF9A
:10543200FE7D807C449006BFE0F8A3E0F9A3E0FA89
:10544200A3E0FB120B87D003D002D001D000120CD4
:0154520090C9
:015453002236
:101D5E0043F10190FF02740FF090FF007475F0A331
:101D6E007430F090FF10E4F0A3F0A3F0A3F0A3748E
:101D7E0080F07D03E4FF12317D90FF18E4F0A3F0B4
:101D8E00A3F0A3F0A37480F07D037F0112317D9048
:101D9E00FF20E4F0A3F0A3F0A3F0A37480F07D0382
:101DAE007F0212317D90FF28E4F0A3F0A3F0A3F0A0
:101DBE00A37480F07D037F0312317D90FF30E4F039
:101DCE00A3F0A3F0A3F0A37480F07D037F0412317F
:101DDE007D90FF38E4F0A3F0A3F0A3F0A37480F09D
:101DEE007D037F0512317D90FF407475F0A3743032
:101DFE00F0A3E4F0A3F0A37480F07D037F0612310C
:101E0E007D90FF487475F0A37430F0A3E4F0A3F056
:101E1E00A37480F07D037F0712317D43F60143F1F9
:101E2E000290FF52740FF090FF507475F0A374304F
:101E3E00F090FF907475F0A37430F0A3E4F0A3F06B
:101E4E00A37480F07D037F1612317D90FF98E4F02D
:101E5E00A3F0A3F0A3F0A37480F07D037F171231DB
:101E6E007D43F61043F10490FFA2740FF090FFA093
:101E7E007475F0A37430F090FFB0E4F0A3F0A3F00B
:101E8E00A3F0A37480F07D037F2012317D90FFB804
:101E9E00E4F0A3F0A3F0A3F0A37480F07D037F2100
:101EAE0012317D90FFC0E4F0A3F0A3F0A3F0A37471
:101EBE0080F07D037F2212317D90FFC8E4F0A3F005
:101ECE00A3F0A3F0A37480F07D037F2312317D90E5
:101EDE00FFD0E4F0A3F0A3F0A3F0A37480F07D0391
:101EEE007F2412317D90FFD8E4F0A3F0A3F0A3F08D
:101EFE00A37480F07D037F2512317D90FFE0E4F026
:101F0E00A3F0A3F0A3F0A37480F07D037F2612311B
:101F1E007D90FFE8E4F0A3F0A3F0A3F0A37480F0AB
:101F2E007D037F2712317D43F70143F10890FC02B8
:101F3E00740FF090FC007475F0A37430F090FC20D8
:101F4E00E4F0A3F0A3F0A3F0A37480F07D037F323E
:101F5E0012317D90FC28E4F0A3F0A3F0A3F0A3745B
:101F6E0080F07D037F3312317D90FC30E4F0A3F0DE
:101F7E00A3F0A3F0A37480F07D037F3412317D9023
:101F8E00FC38E4F0A3F0A3F0A3F0A37480F07D037B
:101F9E007F3512317D90FC40E4F0A3F0A3F0A3F066
:101FAE00A37480F07D037F3612317D90FC48E4F0FF
:101FBE00A3F0A3F0A3F0A37480F07D037F3712315A
:101FCE007D43F71043F11090FC52740FF090FC50CB
:101FDE007475F0A37430F090FC60E4F0A3F0A3F0FD
:101FEE00A3F0A37480F07D037F4012317D90FC68D6
:101FFE00E4F0A3F0A3F0A3F0A37480F07D037F417F
:10200E0012317D90FC70E4F0A3F0A3F0A3F0A37462
:10201E0080F07D037F4212317D90FC78E4F0A3F0D6
:10202E00A3F0A3F0A37480F07D037F4312317D9063
:10203E00FC80E4F0A3F0A3F0A3F0A37480F07D0382
:10204E007F4412317D90FC88E4F0A3F0A3F0A3F05E
:10205E00A37480F07D037F4512317D90FC90E4F0F7
:10206E00A3F0A3F0A3F0A37480F07D037F4612319A
:10207E007D43FE0143F12090FCA2740FF090FCA072
:10208E007475F0A37430F090FCB0E4F0A3F0A3F0FC
:10209E00A3F0A37480F07D037F5012317D90FCB8C5
:1020AE00E4F0A3F0A3F0A3F0A37480F07D037F51BE
:1020BE0012317D90FCC0E4F0A3F0A3F0A3F0A37462
:1020CE0080F07D037F5212317D90FCC8E4F0A3F0C6
:1020DE00A3F0A3F0A37480F07D037F5312317D43F0
:0320EE00FE1022BF
:05331C009003D0EFF06A
:103321009003D57401F09003D5E0FFC3941050369B
:10333100AB07E4FAF9F8FF7E367D6E7C0112131BB0
:10334100E47BFF7A7FF9F812131B9003D1E0F8A315
:10335100E0F9A3E0FAA3E0FBD31213BB50089003FA
:10336100D5E004F080C09003D5E0FBE4FAF9F8FF62
:103371007E367D6E7C0112131B9003D1E0F8A3E031
:10338100F9A3E0FAA3E0FB12131B9003D61213F288
:10339100E47FFF7E7FFDFC9003D6E0F8A3E0F9A374
:1033A100E0FAA3E0FBD31213BB40030234A0900365
:1033B100D0E014603C14605C14607C14700302342F
:1033C1005B14700302347E240560030234A053F6BB
:1033D100FE9003D5E0C3940190FF02F09003D6A3C1
:1033E100A3E0FFA3E090FF00CFF0A3EFF043F601CD
:1033F1002253F6EF9003D5E0C3940190FF52F09071
:1034010003D6A3A3E0FFA3E090FF50CFF0A3EFF01A
:1034110043F6102253F7FE9003D5E0C3940190FFC9
:10342100A2F09003D6A3A3E0FFA3E090FFA0CFF00A
:10343100A3EFF043F7012253F7EF9003D5E0C394D4
:103441000190FC02F09003D6A3A3E0FFA3E090FC5F
:1034510000CFF0A3EFF043F7102253FEFE9003D507
:10346100E0C3940190FC52F09003D6A3A3E0FFA324
:10347100E090FC50CFF0A3EFF043FE012253FEEFAA
:103481009003D5E0C3940190FCA2F09003D6A3A3CE
:0F349100E0FFA3E090FCA0CFF0A3EFF043FE100C
:0134A0002209
:100046009003D2EDF0A3EAF0A3EBF0EF14700302F5
:1000560002FA14700302039E147003020621147040
:100066000302080A147003020A3F24056003020B08
:10007600869003D2E0B408004003020B8690008A03
:10008600F82828730200A20200ED0201380201835B
:100096000201CE0202190202640202AF9003D3E00B
:1000A600FEA3E0FFC394E8EE9403400690FF15021A
:1000B6000B4BEF4E90FF15700304F022E4F090FF17
:1000C60012F0A3F090FF00E0FEA3E0FF9003D3E060
:1000D600FCA3E0FD1214C5E47BE87A03F9F81213D9
:1000E6001B90FF10020B819003D3E0FEA3E0FFC339
:1000F60094E8EE9403400690FF1D020B4BEF4E90E2
:10010600FF1D700304F022E4F090FF1AF0A3F090B4
:10011600FF00E0FEA3E0FF9003D3E0FCA3E0FD12A6
:1001260014C5E47BE87A03F9F812131B90FF180252
:100136000B819003D3E0FEA3E0FFC394E8EE9403A3
:10014600400690FF25020B4BEF4E90FF25700304EF
:10015600F022E4F090FF22F0A3F090FF00E0FEA36F
:10016600E0FF9003D3E0FCA3E0FD1214C5E47BE8B6
:100176007A03F9F812131B90FF20020B819003D328
:10018600E0FEA3E0FFC394E8EE9403400690FF2D43
:10019600020B4BEF4E90FF2D700304F022E4F0901B
:1001A600FF2AF0A3F090FF00E0FEA3E0FF9003D348
:1001B600E0FCA3E0FD1214C5E47BE87A03F9F8122B
:1001C600131B90FF28020B819003D3E0FEA3E0FFF0
:1001D600C394E8EE9403400690FF35020B4BEF4EB6
:1001E60090FF35700304F022E4F090FF32F0A3F0A4
:1001F60090FF00E0FEA3E0FF9003D3E0FCA3E0FD48
:100206001214C5E47BE87A03F9F812131B90FF3049
:10021600020B819003D3E0FEA3E0FFC394E8EE94C3
:1002260003400690FF3D020B4BEF4E90FF3D7003DF
:1002360004F022E4F090FF3AF0A3F090FF00E0FE15
:10024600A3E0FF9003D3E0FCA3E0FD1214C5E47B1A
:10025600E87A03F9F812131B90FF38020B8190031A
:10026600D3E0FEA3E0FFC394E8EE9403400690FFBC
:1002760045020B4BEF4E90FF45700304F022E4F06D
:1002860090FF42F0A3F090FF00E0FEA3E0FF900392
:10029600D3E0FCA3E0FD1214C5E47BE87A03F9F889
:1002A60012131B90FF40020B819003D3E0FEA3E0E4
:1002B600FFC394E8EE9403400690FF4D020B4BEF0C
:1002C6004E90FF4D700304F022E4F090FF4AF0A335
:1002D600F090FF00E0FEA3E0FF9003D3E0FCA3E074
:1002E600FD1214C5E47BE87A03F9F812131B90FF9C
:1002F60048020B819003D2E024F9605104600302A6
:100306000B869003D3E0FEA3E0FFC394E8EE9403CC
:10031600400690FF95020B4BEF4E90FF957003043D
:10032600F022E4F090FF92F0A3F090FF50E0FEA3DD
:10033600E0FF9003D3E0FCA3E0FD1214C5E47BE8E4
:100346007A03F9F812131B90FF90020B819003D3E6
:10035600E0FEA3E0FFC394E8EE9403400690FF9D01
:10036600020B4BEF4E90FF9D700304F022E4F090D9
:10037600FF9AF0A3F090FF50E0FEA3E0FF9003D3B6
:10038600E0FCA3E0FD1214C5E47BE87A03F9F81259
:10039600131B90FF98020B819003D2E0B408004033
:1003A60003020B869003B1F82828730203C90204DE
:1003B6001402045F0204AA0204F502054002058B3A
:1003C6000205D69003D3E0FEA3E0FFC394E8EE94C3
:1003D60003400690FFB5020B4BEF4E90FFB570033E
:1003E60004F022E4F090FFB2F0A3F090FFA0E0FE4C
:1003F600A3E0FF9003D3E0FCA3E0FD1214C5E47B69
:10040600E87A03F9F812131B90FFB0020B819003F0
:10041600D3E0FEA3E0FFC394E8EE9403400690FF0A
:10042600BD020B4BEF4E90FFBD700304F022E4F0CB
:1004360090FFBAF0A3F090FFA0E0FEA3E0FF9003C8
:10044600D3E0FCA3E0FD1214C5E47BE87A03F9F8D7
:1004560012131B90FFB8020B819003D3E0FEA3E0BA
:10046600FFC394E8EE9403400690FFC5020B4BEFE2
:100476004E90FFC5700304F022E4F090FFC2F0A393
:10048600F090FFA0E0FEA3E0FF9003D3E0FCA3E022
:10049600FD1214C5E47BE87A03F9F812131B90FFEA
:1004A600C0020B819003D3E0FEA3E0FFC394E8EE05
:1004B6009403400690FFCD020B4BEF4E90FFCD709C
:1004C6000304F022E4F090FFCAF0A3F090FFA0E04E
:1004D600FEA3E0FF9003D3E0FCA3E0FD1214C5E405
:1004E6007BE87A03F9F812131B90FFC8020B819080
:1004F60003D3E0FEA3E0FFC394E8EE940340069026
:10050600FFD5020B4BEF4E90FFD5700304F022E4AB
:10051600F090FFD2F0A3F090FFA0E0FEA3E0FF90E2
:1005260003D3E0FCA3E0FD1214C5E47BE87A03F9EB
:10053600F812131B90FFD0020B819003D3E0FEA3A9
:10054600E0FFC394E8EE9403400690FFDD020B4BF8
:10055600EF4E90FFDD700304F022E4F090FFDAF036
:10056600A3F090FFA0E0FEA3E0FF9003D3E0FCA37E
:10057600E0FD1214C5E47BE87A03F9F812131B9028
:10058600FFD8020B819003D3E0FEA3E0FFC394E8FB
:10059600EE9403400690FFE5020B4BEF4E90FFE50D
:1005A600700304F022E4F090FFE2F0A3F090FFA0C5
:1005B600E0FEA3E0FF9003D3E0FCA3E0FD1214C528
:1005C600E47BE87A03F9F812131B90FFE0020B8133
:1005D6009003D3E0FEA3E0FFC394E8EE9403400645
:1005E60090FFED020B4BEF4E90FFED700304F022EF
:1005F600E4F090FFEAF0A3F090FFA0E0FEA3E0FF96
:100606009003D3E0FCA3E0FD1214C5E47BE87A0373
:10061600F9F812131B90FFE8020B819003D2E02435
:10062600FD606A1470030206DE14700302072914C3
:1006360070030207741470030207BF2405600302E7
:100646000B869003D3E0FEA3E0FFC394E8EE940389
:10065600400690FC25020B4BEF4E90FC25700304E0
:10066600F022E4F090FC22F0A3F090FC00E0FEA360
:10067600E0FF9003D3E0FCA3E0FD1214C5E47BE8A1
:100686007A03F9F812131B90FC20020B819003D316
:10069600E0FEA3E0FFC394E8EE9403400690FC2D31
:1006A600020B4BEF4E90FC2D700304F022E4F09009
:1006B600FC2AF0A3F090FC00E0FEA3E0FF9003D339
:1006C600E0FCA3E0FD1214C5E47BE87A03F9F81216
:1006D600131B90FC28020B819003D3E0FEA3E0FFDE
:1006E600C394E8EE9403400690FC35020B4BEF4EA4
:1006F60090FC35700304F022E4F090FC32F0A3F095
:1007060090FC00E0FEA3E0FF9003D3E0FCA3E0FD35
:100716001214C5E47BE87A03F9F812131B90FC3037
:10072600020B819003D3E0FEA3E0FFC394E8EE94AE
:1007360003400690FC3D020B4BEF4E90FC3D7003D0
:1007460004F022E4F090FC3AF0A3F090FC00E0FE06
:10075600A3E0FF9003D3E0FCA3E0FD1214C5E47B05
:10076600E87A03F9F812131B90FC38020B81900308
:10077600D3E0FEA3E0FFC394E8EE9403400690FCAA
:1007860045020B4BEF4E90FC45700304F022E4F05B
:1007960090FC42F0A3F090FC00E0FEA3E0FF900383
:1007A600D3E0FCA3E0FD1214C5E47BE87A03F9F874
:1007B60012131B90FC40020B819003D3E0FEA3E0D2
:1007C600FFC394E8EE9403400690FC4D020B4BEFFA
:1007D6004E90FC4D700304F022E4F090FC4AF0A326
:1007E600F090FC00E0FEA3E0FF9003D3E0FCA3E062
:1007F600FD1214C5E47BE87A03F9F812131B90FC8A
:1008060048020B819003D2E0B407004003020B8636
:1008160090081DF828287302083202087D0208C8CD
:1008260002091302095E0209A90209F49003D3E042
:10083600FEA3E0FFC394E8EE9403400690FC650235
:100846000B4BEF4E90FC65700304F022E4F090FC35
:1008560062F0A3F090FC50E0FEA3E0FF9003D3E02B
:10086600FCA3E0FD1214C5E47BE87A03F9F8121341
:100876001B90FC60020B819003D3E0FEA3E0FFC354
:1008860094E8EE9403400690FC6D020B4BEF4E90FD
:10089600FC6D700304F022E4F090FC6AF0A3F09083
:1008A600FC50E0FEA3E0FF9003D3E0FCA3E0FD12C2
:1008B60014C5E47BE87A03F9F812131B90FC68026E
:1008C6000B819003D3E0FEA3E0FFC394E8EE94030C
:1008D600400690FC75020B4BEF4E90FC75700304BE
:1008E600F022E4F090FC72F0A3F090FC50E0FEA33E
:1008F600E0FF9003D3E0FCA3E0FD1214C5E47BE81F
:100906007A03F9F812131B90FC70020B819003D343
:10091600E0FEA3E0FFC394E8EE9403400690FC7D5E
:10092600020B4BEF4E90FC7D700304F022E4F09036
:10093600FC7AF0A3F090FC50E0FEA3E0FF9003D316
:10094600E0FCA3E0FD1214C5E47BE87A03F9F81293
:10095600131B90FC78020B819003D3E0FEA3E0FF0B
:10096600C394E8EE9403400690FC85020B4BEF4ED1
:1009760090FC85700304F022E4F090FC82F0A3F072
:1009860090FC50E0FEA3E0FF9003D3E0FCA3E0FD63
:100996001214C5E47BE87A03F9F812131B90FC8065
:1009A600020B819003D3E0FEA3E0FFC394E8EE942C
:1009B60003400690FC8D020B4BEF4E90FC8D7003AE
:1009C60004F022E4F090FC8AF0A3F090FC50E0FEE4
:1009D600A3E0FF9003D3E0FCA3E0FD1214C5E47B83
:1009E600E87A03F9F812131B90FC88020B81900336
:1009F600D3E0FEA3E0FFC394E8EE9403400690FC28
:100A060095020B4BEF4E90FC95700304F022E4F038
:100A160090FC92F0A3F090FC50E0FEA3E0FF900360
:100A2600D3E0FCA3E0FD1214C5E47BE87A03F9F8F1
:100A360012131B90FC90020B819003D2E014605EAF
:100A4600147003020AEF147003020B3824036003C8
:100A5600020B869003D3E0FEA3E0FFC394E8EE9476
:100A660003400690FCB5020B4BEF4E90FCB57003AD
:100A760004F022E4F090FCB2F0A3F090FCA0E0FEBB
:100A8600A3E0FF9003D3E0FCA3E0FD1214C5E47BD2
:100A9600E87A03F9F812131B90FCB0020B8190035D
:100AA600D3E0FEA3E0FFC394E8EE9403400690FC77
:100AB600BD020B4BEF4E90FCBD700304F022E4F038
:100AC60090FCBAF0A3F090FCA0E0FEA3E0FF900338
:100AD600D3E0FCA3E0FD1214C5E47BE87A03F9F841
:100AE60012131B90FCB8020B819003D3E0FEA3E027
:100AF600FFC394E8EE9403400590FCC58047EF4E93
:100B060090FCC5700304F022E4F090FCC2F0A3F060
:100B160090FCA0E0FEA3E0FF9003D3E0FCA3E0FD81
:100B26001214C5E47BE87A03F9F812131B90FCC093
:100B360080499003D3E0FEA3E0FFC394E8EE94035C
:100B4600400790FCCD7402F022EF4E90FCCD70036E
:100B560004F022E4F090FCCAF0A3F090FCA0E0FEC2
:100B6600A3E0FF9003D3E0FCA3E0FD1214C5E47BF1
:100B7600E87A03F9F812131B90FCC8EEF0A3EFF025
:010B8600224C
:03000B000254CBD1
:1054CB00C0E0C0F0C083C082C0D075D000C000C0A7
:1054DB0001C002C003C004C005C006C0071259A119
:1054EB00D007D006D005D004D003D002D001D00015
:0B54FB00D0D0D082D083D0F0D0E032BF
:03001B0002550685
:10550600C0E0C0F0C083C082C0D075D000C000C06B
:1055160001C002C003C004C005C006C0071241DCBA
:10552600D007D006D005D004D003D002D001D000D9
:0B553600D0D0D082D083D0F0D0E03283
:030023000252F195
:1052F100C0E0C0F0C083C082C0D075D000C000C083
:1053010001C002C003C004C005C006C00730980830
:10531100C2981256741258AE309904C299C211D073
:1053210007D006D005D004D003D002D001D000D0E0
:0A533100D0D082D083D0F0D0E0325B
:0300430002520D59
:10520D00C0E0C0F0C083C082C0D075D000C000C067
:10521D0001C002C003C004C005C006C007E59A3036
:10522D00E006539AFE1256A0E59A30E105539AFD19
:10523D00C212D007D006D005D004D003D002D001C1
:0D524D00D000D0D0D082D083D0F0D0E0329D
:035AB80002594E42
:105118009003E7EBF0A3EAF0A3E9F0A3ECF0A3ED2A
:01512800F096
:10512900E4A3F0A3F09003EAE0FEA3E0FFA3E0FC10
:10513900A3E0FDC39FEC9E50269003E7E0FBA3E0AC
:10514900FAA3E0F98D828C831211A5FF12594E90B2
:1051590003EDE004F070CE9003ECE004F080C67F2C
:015169000144
:01516A002222
:05001E007FFF02594EB6
:0E4DAD00E0FBA3E0FAA3E0F9A3E0FCA3E0FD25
:104DBB009003E7EBF0A3EAF0A3E9F0A3ECF0A3ED8B
:014DCB00F0F7
:104DCC00E4A3F0A3F09003EAE0FEA3E0FFC390039A
:104DDC00EDE09F9003ECE09E502F7FFF12594E9018
:104DEC0003E7E0FBA3E0FAA3E0F99003ECE0FCA3FB
:104DFC00E0F5828C83EF1211E49003EDE004F07087
:0B4E0C00C49003ECE004F080BC7F01C8
:014E17002278
:10576700E49003ECF0FD7F121246CA7F05125AB887
:1057770012001E9003ECEFF07D017F121246CA90D3
:0457870003ECE0FF50
:01578B0022FB
:10578C00E49006CEF0FD7F121246CA7F35125AB84D
:10579C0012001E9006CEEFF07D017F121246CA90C9
:0457AC0006CEE0FF46
:0157B00022D6
:105930001257B1E4FD7F121246CA7F01125AB8E431
:0E594000FF125AB87D017F121246CA02525A57
:1058D000E49006CFF0FD7F121246CA7F50125AB8EC
:1058E0009006CFEFF07D017F121246CA9006CFE0FE
:0158F000FFB8
:0158F1002294
:1057B100E49003E7F0FD7F121246CA7F06125AB841
:1057C1009003E7EFF07D017F121246CA12525A9000
:0457D10003E7E0FF0B
:0157D50022B1
:1057D600E49006D0F0FD7F121246CA7F04125AB832
:1057E6009006D0EFF07D017F121246CA12525A90EF
:0457F60006D0E0FFFA
:0157FA00228C
:095A9F00E4FCFDFE78100213DFA7
:0451BD00AB07AA068C
:1051C1009003DB1213FE00000000D3EB94FFEA947E
:1051D1000340047A037BFFAE02AF03E4FCFD9003BE
:1051E100DB1213F29003DBE0FCA3E0FDA3E0FEA3DE
:1051F100E0FF780C1213DF9003DB1213F29003DB54
:0B520100E0FCA3E0FDA3E0FEA3E0FF43
:01520C00227F
:085AA800E4FCFD78080213DFA5
:04462500AB05AA0730
:104629009006991213FE0000000090069D1213FED9
:1046390000000000EBD3940F4002E4FBAF02E4FC5E
:10464900FDFE9006991213F2900699E0FCA3E0FD95
:10465900A3E0FEA3E0FF78101213DF90069912136E
:10466900F2AF03E4FCFDFE90069D1213F290069D45
:10467900E0FCA3E0FDA3E0FEA3E0FF780C1213DF4A
:1046890090069D1213F2900699E0FCA3E0FDA3E0C9
:10469900FEA3E0FFA3E0F8A3E0F9A3E0FAA3E0FB9F
:1046A900EF2BFFEE3AFEED39FDEC38FC900699123E
:1046B90013F2900699E0FCA3E0FDA3E0FEA3E0FF5E
:0146C90022CE
:09400900900690EBF0AA05A9074E
:10401200A31213FE000000009006951213FE00008A
:104022000000EAD3940F4002E4FA900690E0D394A1
:104032000F4002E4F0AF01E4FCFDFE900691121382
:10404200F2900691E0FCA3E0FDA3E0FEA3E0FF787E
:10405200101213DF9006911213F2AF02E4FCFDFE80
:104062009006951213F2900695E0FCA3E0FDA3E002
:10407200FEA3E0FF780C1213DF9006951213F29064
:104082000691E0FCA3E0FDA3E0FEA3E0FFA3E0F8BD
:10409200A3E0F9A3E0FAA3E0FBEF2BFFEE3AFEED7B
:1040A20039FDEC38FC9006911213F2900690E0FF75
:1040B200E4FCFDFE9006951213F2900695E0FCA337
:1040C200E0FDA3E0FEA3E0FF78081213DF9006955F
:1040D2001213F2900691E0FCA3E0FDA3E0FEA3E040
:1040E200FFA3E0F8A3E0F9A3E0FAA3E0FBEF2BFFC4
:1040F200EE3AFEED39FDEC38FC9006911213F29087
:0D4102000691E0FCA3E0FDA3E0FEA3E0FFBA
:01410F00228D
:0556F3009006BAEFF083
:1056F800EB7B00FAAF05EFC454F0FEEB2400FFEE9D
:105708003AFE9006BEE02FFF9006BDE03EFEE4FCA8
:01571800FD93
:01571900226D
:104E83009003E71213F29003E7E0FCA3E0FDA3E035
:104E9300FEA3E0FF78101213CCEF1211D29003E7B8
:104EA300A3A3E0FEA3E0FFE4FDFC9003E71213F2EB
:104EB3009003E7E0FCA3E0FDA3E0FEA3E0FF780896
:104EC3001213CC9003EEE0FBA3E0FAA3E0F9EF1298
:104ED30011D29003E7A3A3A3E0FF9003F1E0FBA3A8
:094EE300E0FAA3E0F9EF0211D29C
:10538500E49006C9F0A3F0FD7F121246CA7F901281
:105395005AB8E4FF125AB8E4FF125AB8E4FF125A99
:1053A500B812001EEF9006C9F0A3E4F012001E909B
:1053B50006C9E0F0A3E04FF07D017F121246CA90C6
:0753C50006C9E0FEA3E0FFB2
:0153CC0022BE
:104FB1009003EE7401F0A37406F0A374C7F0A37418
:104FC10001F0A37406F0A374C8F07B017A0679C6D8
:104FD100124E83E4FD7F121246CA7F03125AB89023
:104FE10006C6E0FF125AB89006C7E0FF125AB89001
:104FF10006C8E0FF125AB812001E9006C6EFF07DF7
:0B500100017F121246CA9006C6E0FFB5
:01500C002281
:0B4F52009003DFEBF0A3EAF0A3E9F00E
:104F5D009003EE7401F0A37403F0A374E5F0A37451
:104F6D0001F0A37403F0A374E6F07B017A0379E4F6
:104F7D00124E83E4FD7F121246CA7F03125AB89077
:104F8D0003E4E0FF125AB89003E5E0FF125AB8901F
:104F9D0003E6E0FF125AB89003DF124DAD7D017F9D
:044FAD00120246CADC
:104BD30090063EE0FBA3E0FAA3E0F990068274019D
:044BE300F0A3E4F067
:0B4BE70090067FEBF0A3EAF0A3E9F0DA
:104BF2009003EE7401F0A37406F0A37485F0A3741D
:104C020001F0A37406F0A37486F07B017A0679841E
:104C1200124E83E4FD7F121246CA7F0B125AB890DD
:104C22000684E0FF125AB8900685E0FF125AB89047
:104C32000686E0FF125AB8E4FF125AB890067F12B5
:094C42004DAD7D017F120246CA4E
:10596A001257B112525AE4FD7F121246CA7FC71269
:0C597A005AB87D017F121246CA02525A30
:104A3E0090063EE0FBA3E0FAA3E0F99003E27401D6
:044A4E00F0A3E4F0FD
:0B4A52009003DFEBF0A3EAF0A3E9F013
:104A5D009003EE7401F0A37403F0A374E5F0A37456
:104A6D0001F0A37403F0A374E6F07B017A0379E4FB
:104A7D00124E831257B112525AE4FD7F121246CADA
:104A8D007F02125AB89003E4E0FF125AB89003E582
:104A9D00E0FF125AB89003E6E0FF125AB89003DF18
:104AAD00E0FBA3E0FAA3E0F9A3E0FCA3E0FD1251C3
:0B4ABD00187D017F121246CA02525AF7
:1038F2009006511213F2900655EBF0A3EAF0A3E9F9
:01390200F0D4
:10390300A3E0FCA3E0FDECC4540FA3F0EC540FFEC2
:10391300D3ED9400EE94004003E004F0900651E0F0
:10392300FCA3E0FDA3E0FEA3E0FF90065B1213F20D
:10393300E490065FF090065AE0FF90065FE0C39FB5
:10394300502E90065B124CC390065BE0FCA3E0FD97
:10395300A3E0FEA3E02400FFEE3410FEE43DFDE40B
:103963003CFC90065B1213F290065FE004F080C506
:10397300900658E0FCA3E0FF900660E4F0A3EFF0AC
:10398300ECFFA3E4F0A3EFF0900655E0F9A3E0FA0F
:10399300A3E0900664C9F0A3EAF0A3E9F0E4A3F07E
:1039A300A3F0900662E0FEA3E0FFC3900668E09FE9
:1039B300900667E09E504F900651E0FCA3E0FDA304
:1039C300E0FEA3E0FF900664124A41900651E0FC3A
:1039D300A3E0FDA3E0FEA3E02400FFEE3401FEE438
:1039E3003DFDE43CFC9006511213F2900665740110
:1039F30075F000121218900668E004F07006900645
:103A030067E004F0809CD3900661E0940090066028
:103A1300E09400402B900664E0FBA3E0FAA3E0F9F6
:103A2300900660E0FFA3E09003E2CFF0A3EFF090F5
:103A33000651E0FCA3E0FDA3E0FEA3E0FF124A521F
:013A43002260
:064E18009006A91213F23E
:104E1E001257B112525A9006A9E0FCA3E0FDA3E08E
:104E2E00FEA3E0FF9003EE7401F0A37406F0A374EA
:104E3E00AEF0A37401F0A37406F0A374AFF07B017F
:104E4E007A0679AD124E83E4FD7F121246CA7FD8E0
:104E5E00125AB89006ADE0FF125AB89006AEE0FFB7
:104E6E00125AB89006AFE0FF125AB87D017F1212A7
:054E7E0046CA02525A71
:0B4CC300E0FCA3E0FDA3E0FEA3E0FF87
:064CCE009003D71213F25F
:104CD4001257B112525A9003D7E0FCA3E0FDA3E0AF
:104CE400FEA3E0FF9003EE7401F0A37403F0A37439
:104CF400DCF0A37401F0A37403F0A374DDF07B0172
:104D04007A0379DB124E83E4FD7F121246CA7F20B8
:104D1400125AB89003DBE0FF125AB89003DCE0FFAC
:104D2400125AB89003DDE0FF125AB87D017F1212C7
:054D340046CA02525ABC
:10525A00E4FF9003E81213FE00000000802AEF30FA
:10526A00E02B7F017E001258F69003E8E0FCA3E0F1
:10527A00FDA3E0FEA3E02401FFE43EFEE43DFDE4DD
:10528A003CFC9003E81213F212576780D19003E8AE
:0B529A00E0FCA3E0FDA3E0FEA3E0FFAA
:0152A50022E6
:1059BB00E4FD7F121246CA7FB9125AB87D017F12DD
:0A59CB001246CA7F017E000258F662
:1059D500E4FD7F121246CA7FAB125AB87D017F12D1
:0A59E5001246CA7F017E000258F648
:104C4B009006A11213F29006A5EBF0A3EAF0A3E9EC
:014C5B00F068
:104C5C007FFF7E031251BD124CCEE49006A8F0905B
:104C6C0006A8E0FBC39410504DE4FDFF12400990E0
:104C7C0006A1E0F8A3E0F9A3E0FAA3E02FFFEA3ED7
:104C8C00FEE93DFDE83CFCA3E0FBA3E0FAA3E0F960
:104C9C009003E27401F0A3E4F0124F529006A8E0E6
:104CAC00FB7D0F7F3F1240099006A5124A419006EA
:064CBC00A8E004F080A94D
:014CC20022CF
:0634A1009006381213F240
:1034A7007FFF7EFF7D3F7C00900638E0F8A3E0F9C0
:1034B700A3E0FAA3E0FBD31213BB40037FFF2290E4
:1034C7000638E0FCA3E0FDA3E0FEE4FFEE54F0FEC7
:1034D700EC9006411213F2900638E0FCA3E0FDA33E
:1034E700E0FEA3E0FF78081213CCEF540FFEE49040
:1034F7000645F0A3CEF0E0FEE4FCFD900641E0F8BF
:10350700A3E0F9A3E0FAA3E02400FFEA3EFEED39C9
:10351700FDEC38FC9006471213F2900641E0FCA33D
:10352700E0FDA3E0FEA3E0FF90063EE0FBA3E0FA88
:10353700A3E0F9124C4B900647E0FCA3E0FDA3E0A3
:10354700FEA3E0FF124BD390063CA3E0FFC0079019
:103557000638A3A3A3E0FF90063EE0FBA3E0FAA38F
:10356700E0F98F82758300D0E01211E490064112D2
:103577004CC3900647E0FCA3E0FDA3E0FEA3E0FFF9
:10358700124A3E7D0F7F3F12462590064B1213F2DB
:10359700E490064FF0A3F090064FE0FEA3E0FFC3D0
:1035A7009410EE64809480506D900645E0FCA3E093
:1035B700FDEF6D7002EE6C604C900650E0FE3395A7
:1035C700E0FDFC90064BE0F8A3E0F9A3E0FAA3E0E6
:1035D7002400FFEA3EFEE93DFDE83CFC124BD39098
:1035E7000650E0FE3395E0FDFC900641E0F8A3E0CD
:1035F700F9A3E0FAA3E02400FFEA3EFEE93DFDE877
:103607003CFC124A3E900650E004F0700690064FCC
:08361700E004F002359E7F0083
:01361F002288
:105A08007D037F4712317D7F2C7E0112591190064C
:075A1800CBEEF0A3EFF0223A
:104AC8009003D2EBF0A3EAF0A3E9F0A3ECF0A3ED96
:014AD800F0ED
:104AD900C2C79006CBE0FEA3E0FF125A95E4FFFEA1
:104AE900D39003D6E09F9003D5E09E404BC2C79078
:104AF90003D2E0FBA3E0FAA3E0F98F828E831211BF
:104B0900A5F520E4FDD2C730070F00000000000022
:104B19000000000000C2C7800A0000000000C2C7F0
:104B2900000000000000E52025E0F5200DEDB408A7
:104B3900D40FBF00010E80A89006CBE0FEA3E0FFD2
:054B4900125A95D2C7CD
:014B4E002244
:100B8700EC4D6011E8497017ED33EC3304600DE468
:100B9700FCFFFEFD22E933E8330470F8020DD7129B
:100BA7000DA258046009E4CC24815006285009029C
:100BB7000DE1284003020DDEC0E0EB4A7044B98026
:100BC70006D0E0FB020DCDEF4E701CBD8008EBFF99
:100BD700EAFEE9FD80EBE98DF0A4FEE5F0020C707A
:100BE700E9CDF9EAFEEBFFEF89F0A4FCE5F0CE8949
:100BF700F0A42EFFE435F0CD89F0A42DFEE435F006
:100C07008067EF4E7005BD80D780C3EF8BF0A4AC33
:100C1700F0EE8BF0A42CFCE435F0F8EF8AF0A42C6E
:100C2700E5F038FCE433CB8DF0A42CFCE5F03BF881
:100C3700EE8AF0A42CFCE5F038F8E433CF89F0A471
:100C47002CFCE5F038CF3400CE89F0A42FFFE5F077
:100C57003EFEE433C98DF0A42EFEE5F039CD8AF0CF
:100C6700A42FFFE5F03EFEE43DFD33D0E0FB500747
:100C77000BBB000F020DE1EC2CFCEF33FFEE33FE54
:060C8700ED33FD020DB982
:100C8D00020DE1EC5D046005E859047003020DD717
:100C9D00120DA2580460F6EC4860F2EC7004FDFEF3
:100CAD00FF22C860DB2481C85009C398600250063A
:100CBD00020DDE9850CAF582E9294B4A7005AB82C8
:100CCD00020DCD75F0007C1A7880C3EF9BEE9AED86
:100CDD0099400DC3EF9BFFEE9AFEED99FDE842F0B2
:100CED00DC23ACF0D0E0FFD0E0FED0E0FDAB822005
:100CFD00E7101BEB60BAEC2CFCEF33FFEE33FEED8F
:100D0D0033FD020DB9E803F830E705C0F075F000CA
:100D1D00EF2FFFEE33FEED33FD40B830E7C280AA72
:100D2D0075F020800E75F010800575F0087D007E41
:100D3D00007F003392D530D5031213ADEC33401044
:100D4D00EF33FFEE33FEED33FDEC33FCD5F0ED224A
:0E0D5D00E5F0247EA2D513CC92E7CDCEFF2286
:100D6B00EDD2E7CD33EC3392D524814006E4FFFE80
:100D7B00FDFC22FCE4CFCECDCC24E0501174FF80DF
:100D8B00EDC3CC13CCCD13CDCE13CECF13CF04707C
:070D9B00F030D5DE0213ADBC
:10533B00900602E0FFA3E0FEA3E0CF90060BF0A3E4
:10534B00EEF0A3EFF0900605E0CBF0A3E0CAF0A3DC
:10535B00E0C9F07F2290060EAD82AC8312118C8DCA
:10536B00828C83F0A309E970010ADFEC900605E05B
:0A537B00FBA3E0FAA3E0F902157E9F
:100DA200E9D2E7C933E833F892D5EDD2E7CD33EC97
:070DB20033FC5002B2D52210
:100DB900EC30E7100FBF000C0EBE00080DBD00049B
:100DC9000BEB6014A2D5EB13FCED92E7FD2274FF47
:100DD900FCFDFEFF22E480F8A2D574FF13FC7D80A0
:030DE900E480EFB4
:10151900E50E240BF582E43406F583E0050E2290EE
:101529000608300F0390060BE475F00112142F0220
:10153900118C2008E97F2ED2088018EF540F2490CF
:10154900D43440D4FF300C0BEF24BFB41A0050033D
:101559002461FFE50F6002150F0512E512700205FF
:1015690011300F0E900608E475F00112142FEF02E6
:1015790011D202571A7403D20F8003E4C20FF50E79
:10158900900608121446E4F50FF511F512E50F60FF
:10159900077F2012155C80F57510FFC209C208C2C9
:1015A9000AC20BC20DC20EC210121528FF700D30EF
:1015B9000F057F0012156DAF12AE1122B4255FC25F
:1015C900D5C20C121528FF24D0B40A00501A75F0A0
:1015D9000A780F30D50508B6FF0106C6A426F620FD
:1015E900D5047002D20B80D924CFB41A00EF50046D
:1015F900C2E5D20C02185FD20980C6D20880C0D2D7
:101609000A80BCD2D580BAD20D80B47F2012155C75
:10161900200A077401B50F0040F1121519FF1215C0
:101629005C021596D210D20E8095121519FB12156F
:1016390019FA121519F94A4B7006795D7A197BFF67
:10164900200A2EE50F602A7E008E82758300121112
:10165900A560060EEE651070F0C2D5EBC0E0EAC0D9
:10166900E0E9C0E0EE1218C0D0E0F9D0E0FAD0E02D
:10167900FB12118CFF60AAEBC0E0EAC0E0E9C0E010
:1016890012155CD0E02401F9D0E03400FAD0E0FB77
:10169900E5100460DCD510D98087D20A80A212181F
:1016A900A260F7E510700104120DECA910600DE5B8
:1016B90010600914F51012194AEF60F3EA30E702D5
:1016C900F404C3995079EAF425100430E701E404DD
:1016D900F510800D1218A260C1EA05102510120D2F
:1016E900ECEA900637F030E701E4251004D5100440
:1016F900200D01141218C0E4C0E012194A900637EF
:10170900E0601320E70714F0121544802204F0D09A
:10171900E014C0E07F00121544E510600712153B84
:101729001510800B300D0312153BD0E0021596D031
:10173900E00480C41218A2609EE51004120DEC901A
:101749000637EAF0E510200D02600104240412189E
:01175900C0CF
:10175A0074FF04C0E012194A121544E510200D0264
:10176A00600312153BD0E0B510E87F4512154E9084
:10177A000637E07F2B30E7047F2DF404C0E0121512
:10178A005CD0E075F00A84C0F0121545D0E012155D
:10179A0045021596791080027908C20EC210800897
:1017AA00D2D5790A8004790AC2D5E510047002F507
:1017BA0010E4FAFDFEFF121519FC7B08200913122A
:1017CA001519FD7B1030080A121519FE121519FF9A
:1017DA007B20EC3382D592D55013C3E43008069FA0
:1017EA00FFE49EFEE42009039DFDE49CFCE4CBF8A3
:1017FA00C209EC700CCFCECDCCE824F8F870F38097
:10180A0017C3EF33FFEE33FEED33FDEC33FCEB335E
:10181A00FB994002FB0FD8E9EB300905F8D0E0C488
:10182A0048B209C0E00AEC4D4E4F78207B0070C2E6
:10183A00EAB5100040BCC0E01218C2D0F0D0E020D7
:10184A000904C4C0E0C4B209C0F0121545D0F0D5ED
:10185A00F0EB02159612149F163353179E5816046E
:10186A004C16004217A24F17AA4417AA4916194341
:10187A0017B05516DD46173D4516A747197D501670
:10188A00082D160C2E162F2B161023162D2019662E
:10189A002A15C84800001627E510B4FF037510067C
:1018AA00121519FC121519FD121519FE121519FF38
:1018BA00900630020E29790AA2D5200B14300D09A0
:1018CA00B910020404B9080104A2D5200E0250017D
:1018DA0004200A68920AB50F005034C0E07F203015
:1018EA000B197F30A20A720E720D500F121919C20B
:1018FA000AC20EC20DC2107F30800F300D03E9C03C
:10190A00E012155C300D03D0E0F9D0E0B50FCC3011
:10191A000D177F30B9100C12155C7F58300C077FF9
:10192A00788003B9080312155C300A057F2D021569
:10193A005C7F202010F87F2B200EF322920A80CFA2
:10194A007F00B40700500B2430F582E43406F58397
:10195A00E0FF22286E756C6C2900D2091215193025
:10196A0009F8C209780F30D50108F60215C82D50BA
:10197A004349581215192403B405004001E490198B
:10198A00789312154D743A12154DD20B750F040245
:02199A00179E96
:100DEC00F920E73624F950037907E4F42402FBE5F3
:100DFC0082158270021583DBF6E024FB501BE96040
:100E0C0014E4F0E582158270021583E004F0B40A54
:0D0E1C0008E4F0D9EE7401F00A22C2D522DC
:100E2900ED33EC3392D5FA602AB4FF33EDC2E77B98
:100E3900FF60067A0E794EE4227A0E795720D5049E
:100E49007A0E7952224E614E002B494E46002D49A9
:100E59004E4600E47A08F0A3DAFC7B00740722C04E
:100E690083C082ECC0E0EDC0E0EEC0E0EFC0E0EA94
:100E790075F010A4CAABF075F04DA42BFBE435F066
:100E8900FCEA2410FAEB34C5FBEC34D9FCEDC2E7DB
:100E9900FF75F056A4F42411C5F0F434C58FF0A4FD
:100EA9002AE5F03BE43CF020E714121056D0E0FFAD
:100EB900D0E0FED0E0FDD0E0FC120C908014F404E8
:100EC900121056D0E0FFD0E0FED0E0FDD0E0FC12D9
:100ED9000B87D082D083E0FAEDD2E7CD33EC33240F
:100EE90082FBE4C3CF33CFCE33CECD33CD33DBF367
:100EF9007B0775F00A846004F0A31B0AE5F0F0A3F0
:100F09008FF0740AA4FFACF08EF0740AA42CFEAC26
:100F1900F050010C8DF0740AA42CFDE435F0F0A317
:050F2900DBDE7407226D
:100F2E00020DD7E86480F8E933E83360110460F00D
:100F3E00ED33EC337009E8FCE9FDEAFEEBFF220429
:100F4E0060DED3EB9FEA9EE99DE8C2E78CF0C2F724
:100F5E0095F0400CE8CCF8E9CDF9EACEFAEBCFFBF0
:100F6E00120DA285D0F05804700320D5B3E804709A
:100F7E00075002B2D5020DE192D5EC0460F7E4CC35
:100F8E00C0E0C398F8603B94186008400DD0E0FBB9
:100F9E00020DB9E4FBFAC9FC8028E830E406E4C986
:100FAE00FBE4CAFCE830E305E4C9CACBFCE854070D
:100FBE006010F8C3E913F9EA13FAEB13FBEC13FC18
:100FCE00D8F130F52FC3E49CFCEF9BFFEE9AFEEDBB
:100FDE0099FDD0E0FBEF4E4D4C701222DB03020D5B
:100FEE00DEEC2CFCEF33FFEE33FEED33FDED30E7A0
:100FFE00EB020DB9EF2BFFEE3AFEED39FDD0E0FB23
:10100E0050130BBB0003020DE1ED13FDEE13FEEFCB
:08101E0013FFEC13FC020DB9F5
:101026003F8000004120000042C80000447A0000D2
:10103600461C400047C35000497424004B18968054
:101046004CBEBC205A0E1BCA6753C21C749DC5AE4B
:10105600FB60065407601C2323121084EB5438608F
:101066000912107012107F120B87ECF8EDF9EEFAE8
:10107600EFCB22EB12107F80F1543803241C901022
:1010860026FE93FC0EEE93FD0EEE930ECE93FF22FC
:1049BE00022759E493A3F8E493A34003F68001F28F
:1049CE0008DFF48029E493A3F85407240CC8C333FA
:1049DE00C4540F4420C8834004F456800146F6DFC9
:1049EE00E4800B0102040810204080905645E47EBE
:1049FE00019360BCA3FF543F30E509541FFEE493BE
:104A0E00A360010ECF54C025E060A840B8E493A384
:104A1E00FAE493A3F8E493A3C8C582C8CAC583CAAF
:104A2E00F0A3C8C582C8CAC583CADFE9DEE780BE67
:015673000036
:10109600E709F608DFFA8046E709F208DFFA803E3C
:1010A60088828C83E709F0A3DFFA8032E309F60829
:1010B600DFFA8078E309F208DFFA807088828C8391
:1010C600E309F0A3DFFA806489828A83E0A3F60845
:1010D600DFFA805889828A83E0A3F208DFFA804C1F
:1010E60080D280FA80C680D4806980F280338010F6
:1010F60080A680EA809A80A880DA80E280CA80335F
:1011060089828A83ECFAE493A3C8C582C8CCC583D6
:10111600CCF0A3C8C582C8CCC583CCDFE9DEE780A6
:101126000D89828A83E493A3F608DFF9ECFAA9F025
:10113600EDFB2289828A83ECFAE0A3C8C582C8CC7B
:10114600C583CCF0A3C8C582C8CCC583CCDFEADE94
:10115600E880DB89828A83E493A3F208DFF980CCF6
:1011660088F0EF60010E4E60C388F0ED2402B404EF
:101176000050B9F582EB2402B4040050AF23234596
:0611860082239010E673C5
:10118C00BB010689828A83E0225002E722BBFE0261
:09119C00E32289828A83E4932294
:1011A500BB010CE58229F582E5833AF583E02250FF
:1011B50006E92582F8E622BBFE06E92582F8E22249
:0D11C500E58229F582E5833AF583E4932263
:1011D200BB010689828A83F0225002F722BBFE01FC
:0211E200F322F6
:1011E400F8BB010DE58229F582E5833AF583E8F041
:1011F400225006E92582C8F622BBFE05E92582C8ED
:02120400F222D4
:10120600EF8DF0A4A8F0CF8CF0A428CE8DF0A42EFC
:02121600FE22B6
:10121800C5F0F8A3E028F0C5F0F8E5821582700261
:061228001583E038F022FE
:10122E00A3F8E0C5F025F0F0E58215827002158373
:06123E00E0C838F0E822D0
:10124400BB010A89828A83F0E5F0A3F0225006F7F5
:0F12540009A7F01922BBFE06F3E5F009F31922F2
:10126300F8BB0111E58229F582E5833AF583E8F0BD
:10127300E5F0A3F0225009E92582C8F608A6F0227A
:0D128300BBFE09E92582C8F2E5F008F22261
:10129000E88FF0A4CC8BF0A42CFCE98EF0A42CFCFD
:1012A0008AF0EDA42CFCEA8EF0A4CDA8F08BF0A47B
:1012B0002DCC3825F0FDE98FF0A42CCD35F0FCEBDA
:1012C0008EF0A4FEA9F0EB8FF0A4CFC5F02ECD399F
:0F12D000FEE43CFCEAA42DCE35F0FDE43CFC220C
:1012DF0075F008758200EF2FFFEE33FECD33CDCCC6
:1012EF0033CCC58233C5829BED9AEC99E582984049
