:0A0C0E0000000000000000000000DC
:100BD800759850438E40538EFE53890F758BFA7566
:070BE8008DFFC2ABD28E228B
:100BAD008B138A148915ED1DAE0470011C4E601A4D
:100BBD00AB130515E515AA147002051414F91205E9
:0B0BCD0038F5993099FDC29980DC22B8
:06087B008B088A09890ABE
:1008810078417C007D017BFF7A0C790E7E007F022E
:100891001205127E007F417D007B017A00790012F2
:1008A1000613E4900043F0900043E0FDC394204020
:1008B10003020935AB08AA09A90AE0FC75F002A4F4
:1008C100F58285F08312058EE5F0FFEC25E024002A
:1008D100F582E43400F583EFF075F002EDA429F917
:1008E100EA35F0FA120563FFE4FEEE8FF01205C659
:1008F100900043E0FE25E02401F582E43400F58315
:10090100EFF0EE25E02400F582E43400F583E0FF0A
:10091100900040E02FFF900043E025E02401F582A4
:10092100E43400F583E02F900040F0900043E004B0
:10093100F00208A87B017A0079007D417C00020B5E
:01094100AD08
:040A64007D327C0063
:060A68008F088C098D0AC5
:100A6E00780B7C007D007BFF7A0C79107E007F0670
:100A7E0012051278117C007D007BFF7A0C79167EB0
:100A8E00007F02120512750BAAE4F50C85080DE520
:100A9E0009F50E7E00E50AFF8E09F50A8F0FE50BAC
:100AAE00250C250D250E250FF5107B007A00790BF0
:070ABE007D067C00020BAD78
:080942008F0F8E0E8D0D8C0C41
:10094A00751000751101E4FFFEFDFCAB0FAA0EA99C
:10095A000DA80C1202AC501974FFF510F511AF0F67
:10096A00AE0EAD0DAC0C1203258F0F8E0E8D0D8CB5
:10097A000CAF0FAE0EAD0DAC0CE4FBFA79C87842A1
:10098A001201068F0F8E0E8D0D8C0C120336E47B2E
:10099A0064FAF9F8120B69AE02AF038E128F13AF25
:1009AA000FAE0EAD0DAC0C120336E47B64FAF9F807
:1009BA00120B69C3E5139432E512648094804005F2
:0C09CA000FBF00010EAC10AD1102055172
:100AC5008F0B8E0A8D098C08E4FFFE7D347C43ABC9
:100AD5000BAA0AA909A8081202AC600D400BE4F59F
:100AE5000BF50A750934750843E4FFFE7DA07C40CB
:100AF500AB0BAA0AA909A808120106E4FBFA7910AA
:100B0500784112020FE4FBFA79C878411200150208
:020B1500094293
:100BEF00438E805389F0758ACD758CD4C28DD28C8B
:030BFF00D2A92256
:080C18007FD87E25DEFEDFFC23
:010C200022B1
:1009D600120BD8120BEFD2AF7F25120A647F2612B4
:1009E6000A647D327C007F27120A687D327C007F94
:1009F60028120A687D327C007F29120A687D327CC3
:100A0600007F2A120A68E4F51AE4FBFA797A784438
:100A1600AF19AE18AD17AC1612020F12076BE4FB36
:100A2600FA7980783F120015E4FBFA79B47842121D
:100A36000106120AC5E51A25E02444F582E43400CD
:100A4600F583E4F0A3EFF0051AE51AC3942040B944
:0E0A56007B017A00794412087B120C1880A8EC
:03000B00020B17CE
:100B1700C0E0C0F0C083C082C0D075D000C000C0A4
:100B270001C002C003C004C005C006C007AF19AEAC
:100B370018AD17AC16E4FBFA7980783F1200158FD1
:100B4700198E188D178C16D007D006D005D004D073
:100B570003D002D001D000D0D0D082D083D0F0D043
:020B6700E0327A
:10000E000203A2E86480F8E933E83360110460F07B
:10001E00ED33EC337009E8FCE9FDEAFEEBFF220458
:10002E0060DED3EB9FEA9EE99DE8C2E78CF0C2F753
:10003E0095F0400CE8CCF8E9CDF9EACEFAEBCFFB1F
:10004E0012036D85D0F05804700320D5B3E8047008
:10005E00075002B2D50203AC92D5EC0460F7E4CCA3
:10006E00C0E0C398F8603B94186008400DD0E0FBE8
:10007E00020384E4FBFAC9FC8028E830E406E4C9F4
:10008E00FBE4CAFCE830E305E4C9CACBFCE854073C
:10009E006010F8C3E913F9EA13FAEB13FBEC13FC47
:1000AE00D8F130F52FC3E49CFCEF9BFFEE9AFEEDEA
:1000BE0099FDD0E0FBEF4E4D4C701222DB03020394
:1000CE00A9EC2CFCEF33FFEE33FEED33FDED30E704
:1000DE00EB020384EF2BFFEE3AFEED39FDD0E0FB91
:1000EE0050130BBB00030203ACED13FDEE13FEEF3A
:0800FE0013FFEC13FC02038464
:10010600EC4D6011E8497017ED33EC3304600DE4F3
:10011600FCFFFEFD22E933E8330470F80203A21265
:10012600036D58046009E4CC248150062850090266
:1001360003AC2840030203A9C0E0EB4A7044B9802F
:1001460006D0E0FB020398EF4E701CBD8008EBFF63
:10015600EAFEE9FD80EBE98DF0A4FEE5F00201EF91
:10016600E9CDF9EAFEEBFFEF89F0A4FCE5F0CE89D4
:10017600F0A42EFFE435F0CD89F0A42DFEE435F091
:100186008067EF4E7005BD80D780C3EF8BF0A4ACBF
:10019600F0EE8BF0A42CFCE435F0F8EF8AF0A42CFA
:1001A600E5F038FCE433CB8DF0A42CFCE5F03BF80D
:1001B600EE8AF0A42CFCE5F038F8E433CF89F0A4FD
:1001C6002CFCE5F038CF3400CE89F0A42FFFE5F003
:1001D6003EFEE433C98DF0A42EFEE5F039CD8AF05B
:1001E600A42FFFE5F03EFEE43DFD33D0E0FB5007D3
:1001F6000BBB000F0203ACEC2CFCEF33FFEE33FE1F
:06020600ED33FD0203844C
:10020C000203ACEC5D046005E8590470030203A220
:10021C0012036D580460F6EC4860F2EC7004FDFEBD
:10022C00FF22C860DB2481C85009C39860025006C5
:10023C000203A99850CAF582E9294B4A7005AB8292
:10024C0002039875F0007C1A7880C3EF9BEE9AED50
:10025C0099400DC3EF9BFFEE9AFEED99FDE842F03D
:10026C00DC23ACF0D0E0FFD0E0FED0E0FDAB822090
:10027C00E7101BEB60BAEC2CFCEF33FFEE33FEED1A
:10028C0033FD020384E803F830E705C0F075F00095
:10029C00EF2FFFEE33FEED33FD40B830E7C280AAFE
:1002AC0074F8CC6480CCC86480C8F58204604FC3F9
:1002BC00EB9FF5F0EA9E42F0E99D42F0E89C45F098
:1002CC00603C501DE5825FFFE582D313CB5BCBF422
:1002DC002B5582FB50280ABA002409B9002008804B
:1002EC001DE5825BFBE582D313CF5FCFF4C3132FE5
:1002FC005582FF50090EBE00050DBD00010CC3EB6D
:10030C009FF5F0EA9E42F0E99D42F0E89C45F060D2
:09031C0007CC4820E701B3EC22F4
:10032500ED33EC33600A047003BD8004ECB2E7FCE6
:0103350022A5
:10033600EDD2E7CD33EC3392D524814006E4FFFEBF
:10034600FDFC22FCE4CFCECDCC24E0501174FF801E
:10035600EDC3CC13CCCD13CDCE13CECF13CF0470BB
:07036600F030D5DE0205E5D1
:10070D003A70FA83BCAAE9E43E81E0F8BF9DE9E6C0
:10071D003F80000039283C1ABB9969663DA335E33B
:10072D00BF255DE73FC90FDB418DDBCCC44936EEFC
:10073D0045C9913FC5B0F83D3F800000C317F53462
:10074D00452FFA73C60AFDDD1207FC04A2E19200E3
:10075D001420E01590070D74041203F5802612077E
:10076D00FC30E102B20020E0EB8C088D098E0A8F7F
:10077D000B90072174041203F5A808A909AA0AAB66
:10078D000B120106ED4C6007300004EC6480FC2276
:10079D001207FCC0E08C088D098E0A8F0B9007455F
:1007AD0074031203F5A808A909AA0AAB0B120106D6
:1007BD00ECC508FCEDC509FDEEC50AFEEFC50BFF46
:1007CD0090073574031203F5D082A808A909AA0A67
:1007DD00AB0BE58230E00712020FB20080A6EFCB23
:1007ED00FFEECAFEEDC9FDECC8FC12020F8095EDBF
:1007FD0033EC547FCC33920024605007D0E0D0E02E
:10080D000203A27B837AF97922783E120106EDF973
:10081D0033ECF83324815011EFFBEEFA120336124C
:10082D0003B7ECB2E7FC120015ED33EC33602F2467
:10083D0003F8C313FCED92E7FDE82481E4501FECAF
:10084D00F8EDF9EEFAEFFB120336EF04C2E0FCF51A
:10085D00821203C1ECB2E7FC120015E58203FAED3A
:0E086D0033EC3360071413FCED92E7FDEA2232
:10036D00E9D2E7C933E833F892D5EDD2E7CD33ECD6
:07037D0033FC5002B2D5224F
:10038400EC30E7100FBF000C0EBE00080DBD0004DA
:100394000BEB6014A2D5EB13FCED92E7FD2274FF86
:1003A400FCFDFEFF22E480F8A2D574FF13FC7D80DF
:0303B400E480EFF3
:1003B70075F020800E75F010800575F0087D007EC1
:1003C700007F003392D530D5031205E5EC3340109A
:1003D700EF33FFEE33FEED33FDEC33FCD5F0ED22CA
:0E03E700E5F0247EA2D513CC92E7CDCEFF2206
:1003F500C0E0EFFBEEFAEDF9ECF8120106D0E0F5FE
:10040500F0EFFBEEFAEDF9ECF81205F3A3A3A3A3C5
:10041500E8C0E0E9C0E0EAC0E0EBC0E0C0F01201EE
:1004250006120603A3A3A3A3120015D0F0D0E0FB88
:0D043500D0E0FAD0E0F9D0E0F8D5F0D42204
:03000000020C02ED
:0C0C0200787FE4F6D8FD7581200209D649
:10044200E709F608DFFA8046E709F208DFFA803E9C
:1004520088828C83E709F0A3DFFA8032E309F60889
:10046200DFFA8078E309F208DFFA807088828C83F1
:10047200E309F0A3DFFA806489828A83E0A3F608A5
:10048200DFFA805889828A83E0A3F208DFFA804C7F
:1004920080D280FA80C680D4806980F28033801056
:1004A20080A680EA809A80A880DA80E280CA8033BF
:1004B20089828A83ECFAE493A3C8C582C8CCC58337
:1004C200CCF0A3C8C582C8CCC583CCDFE9DEE78007
:1004D2000D89828A83E493A3F608DFF9ECFAA9F086
:1004E200EDFB2289828A83ECFAE0A3C8C582C8CCDC
:1004F200C583CCF0A3C8C582C8CCC583CCDFEADEF5
:10050200E880DB89828A83E493A3F208DFF980CC56
:1005120088F0EF60010E4E60C388F0ED2402B4044F
:100522000050B9F582EB2402B4040050AF232345F6
:0605320082239004927385
:10053800BB010689828A83E0225002E722BBFE02C1
:09054800E32289828A83E49322F4
:10055100EF8DF0A4A8F0CF8CF0A428CE8DF0A42EBE
:02056100FE2278
:10056300BB010A89828A83E0F5F0A3E02250068763
:10057300F009E71922BBFE07E3F5F009E319228925
:0B058300828A83E493F5F07401932258
:10058E00BB0110E58229F582E5833AF583E0F5F0AB
:10059E00A3E0225009E92582F886F008E622BBFE88
:1005AE000AE92582F8E2F5F008E222E5832AF583CE
:0805BE00E993F5F0A3E9932293
:1005C600BB010A89828A83F0E5F0A3F0225006F780
:0F05D60009A7F01922BBFE06F3E5F009F319227D
:100B6900C2D5E830E70FB2D5E4C39BFBE49AFAE4B7
:100B790099F9E498F8EC30E717B2D5120B9F1206F1
:100B89007BE4C39BFBE49AFAE499F9E498F88003BF
:100B990012067B30D50DE4C39FFFE49EFEE49DFD64
:040BA900E49CFC22AA
:0E05E500C3E49FFFE49EFEE49DFDE49CFC2227
:1005F300E493FC740193FD740293FE740393FF224E
:10060300E493F8740193F9740293FA740393FB224D
:10061300EF4E6012EF60010EEDBB010B89828A83FE
:10062300F0A3DFFCDEFA2289F05007F709DFFCA90B
:0C063300F022BBFEFCF309DFFCA9F02262
:10063F0075F008758200EF2FFFEE33FECD33CDCC72
:10064F0033CCC58233C5829BED9AEC99E5829840F5
:10065F000CF582EE9BFEED9AFDEC99FC0FD5F0D6D2
:10066F00E4CEFBE4CDFAE4CCF9A88222B800C1B9FC
:10067F000059BA002DEC8BF084CFCECDFCE5F0CB3A
:10068F00F97818EF2FFFEE33FEED33FDEC33FCEB73
:10069F0033FB10D703994004EB99FB0FD8E5E4F92E
:1006AF00FA227818EF2FFFEE33FEED33FDEC33FC1B
:1006BF00C933C910D7059BE99A4007EC9BFCE99A0F
:1006CF00F90FD8E0E4C9FAE4CCFB2275F010EF2F54
:1006DF00FFEE33FEED33FDCC33CCC833C810D70754
:1006EF009BEC9AE899400AED9BFDEC9AFCE899F88F
:0E06FF000FD5F0DAE4CDFBE4CCFAE4C8F92222
:00000001FF
